{
	"contracts/MyToken.sol": {
		"MyToken": {
			"abi": [
				{
					"inputs": [
						{
							"internalType": "string",
							"name": "_name",
							"type": "string"
						},
						{
							"internalType": "string",
							"name": "_symbol",
							"type": "string"
						},
						{
							"internalType": "uint256",
							"name": "_initialSupply",
							"type": "uint256"
						},
						{
							"internalType": "uint256",
							"name": "_tokenPrice",
							"type": "uint256"
						},
						{
							"internalType": "uint256",
							"name": "_maxSupply",
							"type": "uint256"
						}
					],
					"stateMutability": "nonpayable",
					"type": "constructor"
				},
				{
					"inputs": [
						{
							"internalType": "address",
							"name": "spender",
							"type": "address"
						},
						{
							"internalType": "uint256",
							"name": "allowance",
							"type": "uint256"
						},
						{
							"internalType": "uint256",
							"name": "needed",
							"type": "uint256"
						}
					],
					"name": "ERC20InsufficientAllowance",
					"type": "error"
				},
				{
					"inputs": [
						{
							"internalType": "address",
							"name": "sender",
							"type": "address"
						},
						{
							"internalType": "uint256",
							"name": "balance",
							"type": "uint256"
						},
						{
							"internalType": "uint256",
							"name": "needed",
							"type": "uint256"
						}
					],
					"name": "ERC20InsufficientBalance",
					"type": "error"
				},
				{
					"inputs": [
						{
							"internalType": "address",
							"name": "approver",
							"type": "address"
						}
					],
					"name": "ERC20InvalidApprover",
					"type": "error"
				},
				{
					"inputs": [
						{
							"internalType": "address",
							"name": "receiver",
							"type": "address"
						}
					],
					"name": "ERC20InvalidReceiver",
					"type": "error"
				},
				{
					"inputs": [
						{
							"internalType": "address",
							"name": "sender",
							"type": "address"
						}
					],
					"name": "ERC20InvalidSender",
					"type": "error"
				},
				{
					"inputs": [
						{
							"internalType": "address",
							"name": "spender",
							"type": "address"
						}
					],
					"name": "ERC20InvalidSpender",
					"type": "error"
				},
				{
					"inputs": [
						{
							"internalType": "address",
							"name": "owner",
							"type": "address"
						}
					],
					"name": "OwnableInvalidOwner",
					"type": "error"
				},
				{
					"inputs": [
						{
							"internalType": "address",
							"name": "account",
							"type": "address"
						}
					],
					"name": "OwnableUnauthorizedAccount",
					"type": "error"
				},
				{
					"anonymous": false,
					"inputs": [
						{
							"indexed": true,
							"internalType": "address",
							"name": "owner",
							"type": "address"
						},
						{
							"indexed": true,
							"internalType": "address",
							"name": "spender",
							"type": "address"
						},
						{
							"indexed": false,
							"internalType": "uint256",
							"name": "value",
							"type": "uint256"
						}
					],
					"name": "Approval",
					"type": "event"
				},
				{
					"anonymous": false,
					"inputs": [
						{
							"indexed": true,
							"internalType": "address",
							"name": "previousOwner",
							"type": "address"
						},
						{
							"indexed": true,
							"internalType": "address",
							"name": "newOwner",
							"type": "address"
						}
					],
					"name": "OwnershipTransferred",
					"type": "event"
				},
				{
					"anonymous": false,
					"inputs": [
						{
							"indexed": true,
							"internalType": "address",
							"name": "buyer",
							"type": "address"
						},
						{
							"indexed": false,
							"internalType": "uint256",
							"name": "amountOfETH",
							"type": "uint256"
						},
						{
							"indexed": false,
							"internalType": "uint256",
							"name": "amountOfTokens",
							"type": "uint256"
						}
					],
					"name": "TokensPurchased",
					"type": "event"
				},
				{
					"anonymous": false,
					"inputs": [
						{
							"indexed": true,
							"internalType": "address",
							"name": "from",
							"type": "address"
						},
						{
							"indexed": true,
							"internalType": "address",
							"name": "to",
							"type": "address"
						},
						{
							"indexed": false,
							"internalType": "uint256",
							"name": "value",
							"type": "uint256"
						}
					],
					"name": "Transfer",
					"type": "event"
				},
				{
					"inputs": [
						{
							"internalType": "address",
							"name": "owner",
							"type": "address"
						},
						{
							"internalType": "address",
							"name": "spender",
							"type": "address"
						}
					],
					"name": "allowance",
					"outputs": [
						{
							"internalType": "uint256",
							"name": "",
							"type": "uint256"
						}
					],
					"stateMutability": "view",
					"type": "function"
				},
				{
					"inputs": [
						{
							"internalType": "address",
							"name": "spender",
							"type": "address"
						},
						{
							"internalType": "uint256",
							"name": "value",
							"type": "uint256"
						}
					],
					"name": "approve",
					"outputs": [
						{
							"internalType": "bool",
							"name": "",
							"type": "bool"
						}
					],
					"stateMutability": "nonpayable",
					"type": "function"
				},
				{
					"inputs": [
						{
							"internalType": "address",
							"name": "account",
							"type": "address"
						}
					],
					"name": "balanceOf",
					"outputs": [
						{
							"internalType": "uint256",
							"name": "",
							"type": "uint256"
						}
					],
					"stateMutability": "view",
					"type": "function"
				},
				{
					"inputs": [],
					"name": "buyTokens",
					"outputs": [],
					"stateMutability": "payable",
					"type": "function"
				},
				{
					"inputs": [
						{
							"internalType": "address",
							"name": "account",
							"type": "address"
						}
					],
					"name": "checkBalance",
					"outputs": [
						{
							"internalType": "uint256",
							"name": "",
							"type": "uint256"
						}
					],
					"stateMutability": "view",
					"type": "function"
				},
				{
					"inputs": [],
					"name": "decimals",
					"outputs": [
						{
							"internalType": "uint8",
							"name": "",
							"type": "uint8"
						}
					],
					"stateMutability": "view",
					"type": "function"
				},
				{
					"inputs": [],
					"name": "getContractBalance",
					"outputs": [
						{
							"internalType": "uint256",
							"name": "",
							"type": "uint256"
						}
					],
					"stateMutability": "view",
					"type": "function"
				},
				{
					"inputs": [],
					"name": "getRemainingSupply",
					"outputs": [
						{
							"internalType": "uint256",
							"name": "",
							"type": "uint256"
						}
					],
					"stateMutability": "view",
					"type": "function"
				},
				{
					"inputs": [],
					"name": "getTotalSupply",
					"outputs": [
						{
							"internalType": "uint256",
							"name": "",
							"type": "uint256"
						}
					],
					"stateMutability": "view",
					"type": "function"
				},
				{
					"inputs": [],
					"name": "maxSupply",
					"outputs": [
						{
							"internalType": "uint256",
							"name": "",
							"type": "uint256"
						}
					],
					"stateMutability": "view",
					"type": "function"
				},
				{
					"inputs": [
						{
							"internalType": "address",
							"name": "to",
							"type": "address"
						},
						{
							"internalType": "uint256",
							"name": "amount",
							"type": "uint256"
						}
					],
					"name": "mint",
					"outputs": [],
					"stateMutability": "nonpayable",
					"type": "function"
				},
				{
					"inputs": [],
					"name": "name",
					"outputs": [
						{
							"internalType": "string",
							"name": "",
							"type": "string"
						}
					],
					"stateMutability": "view",
					"type": "function"
				},
				{
					"inputs": [],
					"name": "owner",
					"outputs": [
						{
							"internalType": "address",
							"name": "",
							"type": "address"
						}
					],
					"stateMutability": "view",
					"type": "function"
				},
				{
					"inputs": [],
					"name": "renounceOwnership",
					"outputs": [],
					"stateMutability": "nonpayable",
					"type": "function"
				},
				{
					"inputs": [
						{
							"internalType": "uint256",
							"name": "_newPrice",
							"type": "uint256"
						}
					],
					"name": "setTokenPrice",
					"outputs": [],
					"stateMutability": "nonpayable",
					"type": "function"
				},
				{
					"inputs": [],
					"name": "symbol",
					"outputs": [
						{
							"internalType": "string",
							"name": "",
							"type": "string"
						}
					],
					"stateMutability": "view",
					"type": "function"
				},
				{
					"inputs": [],
					"name": "tokenPrice",
					"outputs": [
						{
							"internalType": "uint256",
							"name": "",
							"type": "uint256"
						}
					],
					"stateMutability": "view",
					"type": "function"
				},
				{
					"inputs": [],
					"name": "totalSupply",
					"outputs": [
						{
							"internalType": "uint256",
							"name": "",
							"type": "uint256"
						}
					],
					"stateMutability": "view",
					"type": "function"
				},
				{
					"inputs": [
						{
							"internalType": "address",
							"name": "to",
							"type": "address"
						},
						{
							"internalType": "uint256",
							"name": "value",
							"type": "uint256"
						}
					],
					"name": "transfer",
					"outputs": [
						{
							"internalType": "bool",
							"name": "",
							"type": "bool"
						}
					],
					"stateMutability": "nonpayable",
					"type": "function"
				},
				{
					"inputs": [
						{
							"internalType": "address",
							"name": "from",
							"type": "address"
						},
						{
							"internalType": "address",
							"name": "to",
							"type": "address"
						},
						{
							"internalType": "uint256",
							"name": "value",
							"type": "uint256"
						}
					],
					"name": "transferFrom",
					"outputs": [
						{
							"internalType": "bool",
							"name": "",
							"type": "bool"
						}
					],
					"stateMutability": "nonpayable",
					"type": "function"
				},
				{
					"inputs": [
						{
							"internalType": "address",
							"name": "newOwner",
							"type": "address"
						}
					],
					"name": "transferOwnership",
					"outputs": [],
					"stateMutability": "nonpayable",
					"type": "function"
				},
				{
					"inputs": [],
					"name": "withdrawETH",
					"outputs": [],
					"stateMutability": "nonpayable",
					"type": "function"
				}
			],
			"devdoc": {
				"details": "ERC-20 토큰 구현, 발행, 구매, 조회 기능 포함",
				"errors": {
					"ERC20InsufficientAllowance(address,uint256,uint256)": [
						{
							"details": "Indicates a failure with the `spender`’s `allowance`. Used in transfers.",
							"params": {
								"allowance": "Amount of tokens a `spender` is allowed to operate with.",
								"needed": "Minimum amount required to perform a transfer.",
								"spender": "Address that may be allowed to operate on tokens without being their owner."
							}
						}
					],
					"ERC20InsufficientBalance(address,uint256,uint256)": [
						{
							"details": "Indicates an error related to the current `balance` of a `sender`. Used in transfers.",
							"params": {
								"balance": "Current balance for the interacting account.",
								"needed": "Minimum amount required to perform a transfer.",
								"sender": "Address whose tokens are being transferred."
							}
						}
					],
					"ERC20InvalidApprover(address)": [
						{
							"details": "Indicates a failure with the `approver` of a token to be approved. Used in approvals.",
							"params": {
								"approver": "Address initiating an approval operation."
							}
						}
					],
					"ERC20InvalidReceiver(address)": [
						{
							"details": "Indicates a failure with the token `receiver`. Used in transfers.",
							"params": {
								"receiver": "Address to which tokens are being transferred."
							}
						}
					],
					"ERC20InvalidSender(address)": [
						{
							"details": "Indicates a failure with the token `sender`. Used in transfers.",
							"params": {
								"sender": "Address whose tokens are being transferred."
							}
						}
					],
					"ERC20InvalidSpender(address)": [
						{
							"details": "Indicates a failure with the `spender` to be approved. Used in approvals.",
							"params": {
								"spender": "Address that may be allowed to operate on tokens without being their owner."
							}
						}
					],
					"OwnableInvalidOwner(address)": [
						{
							"details": "The owner is not a valid owner account. (eg. `address(0)`)"
						}
					],
					"OwnableUnauthorizedAccount(address)": [
						{
							"details": "The caller account is not authorized to perform an operation."
						}
					]
				},
				"events": {
					"Approval(address,address,uint256)": {
						"details": "Emitted when the allowance of a `spender` for an `owner` is set by a call to {approve}. `value` is the new allowance."
					},
					"Transfer(address,address,uint256)": {
						"details": "Emitted when `value` tokens are moved from one account (`from`) to another (`to`). Note that `value` may be zero."
					}
				},
				"kind": "dev",
				"methods": {
					"allowance(address,address)": {
						"details": "See {IERC20-allowance}."
					},
					"approve(address,uint256)": {
						"details": "See {IERC20-approve}. NOTE: If `value` is the maximum `uint256`, the allowance is not updated on `transferFrom`. This is semantically equivalent to an infinite approval. Requirements: - `spender` cannot be the zero address."
					},
					"balanceOf(address)": {
						"details": "See {IERC20-balanceOf}."
					},
					"buyTokens()": {
						"details": "ETH를 보내고 토큰 구매"
					},
					"checkBalance(address)": {
						"details": "특정 주소의 토큰 잔액 조회",
						"params": {
							"account": "조회할 주소"
						},
						"returns": {
							"_0": "토큰 잔액"
						}
					},
					"constructor": {
						"details": "컨트랙트 생성자",
						"params": {
							"_initialSupply": "초기 발행량",
							"_maxSupply": "최대 발행량",
							"_name": "토큰 이름",
							"_symbol": "토큰 심볼",
							"_tokenPrice": "토큰 가격 (1 ETH당 토큰 수)"
						}
					},
					"decimals()": {
						"details": "Returns the number of decimals used to get its user representation. For example, if `decimals` equals `2`, a balance of `505` tokens should be displayed to a user as `5.05` (`505 / 10 ** 2`). Tokens usually opt for a value of 18, imitating the relationship between Ether and Wei. This is the default value returned by this function, unless it's overridden. NOTE: This information is only used for _display_ purposes: it in no way affects any of the arithmetic of the contract, including {IERC20-balanceOf} and {IERC20-transfer}."
					},
					"getContractBalance()": {
						"details": "컨트랙트 잔고 확인 (소유자만 가능)"
					},
					"getRemainingSupply()": {
						"details": "남은 발행 가능한 토큰 양 조회",
						"returns": {
							"_0": "남은 발행 가능량"
						}
					},
					"getTotalSupply()": {
						"details": "발행된 총 토큰 양 조회",
						"returns": {
							"_0": "총 공급량"
						}
					},
					"mint(address,uint256)": {
						"details": "추가 토큰 발행 (소유자만 가능)",
						"params": {
							"amount": "발행할 토큰 양",
							"to": "토큰을 받을 주소"
						}
					},
					"name()": {
						"details": "Returns the name of the token."
					},
					"owner()": {
						"details": "Returns the address of the current owner."
					},
					"renounceOwnership()": {
						"details": "Leaves the contract without owner. It will not be possible to call `onlyOwner` functions. Can only be called by the current owner. NOTE: Renouncing ownership will leave the contract without an owner, thereby disabling any functionality that is only available to the owner."
					},
					"setTokenPrice(uint256)": {
						"details": "토큰 가격 업데이트 (소유자만 가능)",
						"params": {
							"_newPrice": "새 토큰 가격"
						}
					},
					"symbol()": {
						"details": "Returns the symbol of the token, usually a shorter version of the name."
					},
					"totalSupply()": {
						"details": "See {IERC20-totalSupply}."
					},
					"transfer(address,uint256)": {
						"details": "See {IERC20-transfer}. Requirements: - `to` cannot be the zero address. - the caller must have a balance of at least `value`."
					},
					"transferFrom(address,address,uint256)": {
						"details": "See {IERC20-transferFrom}. Skips emitting an {Approval} event indicating an allowance update. This is not required by the ERC. See {xref-ERC20-_approve-address-address-uint256-bool-}[_approve]. NOTE: Does not update the allowance if the current allowance is the maximum `uint256`. Requirements: - `from` and `to` cannot be the zero address. - `from` must have a balance of at least `value`. - the caller must have allowance for ``from``'s tokens of at least `value`."
					},
					"transferOwnership(address)": {
						"details": "Transfers ownership of the contract to a new account (`newOwner`). Can only be called by the current owner."
					},
					"withdrawETH()": {
						"details": "컨트랙트 ETH 인출 (소유자만 가능)"
					}
				},
				"title": "MyToken",
				"version": 1
			},
			"evm": {
				"assembly": "    /* \"contracts/MyToken.sol\":315:3783  contract MyToken is ERC20, Ownable {... */\n  mstore(0x40, 0x80)\n    /* \"contracts/MyToken.sol\":889:1403  constructor(... */\n  callvalue\n  dup1\n  iszero\n  tag_1\n  jumpi\n  0x00\n  dup1\n  revert\ntag_1:\n  pop\n  mload(0x40)\n  sub(codesize, bytecodeSize)\n  dup1\n  bytecodeSize\n  dup4\n  codecopy\n  dup2\n  dup2\n  add\n  0x40\n  mstore\n  dup2\n  add\n  swap1\n  tag_2\n  swap2\n  swap1\n  tag_3\n  jump\t// in\ntag_2:\n    /* \"contracts/MyToken.sol\":1086:1096  msg.sender */\n  caller\n    /* \"contracts/MyToken.sol\":1062:1067  _name */\n  dup6\n    /* \"contracts/MyToken.sol\":1069:1076  _symbol */\n  dup6\n    /* \"@openzeppelin/contracts/token/ERC20/ERC20.sol\":1675:1680  name_ */\n  dup2\n    /* \"@openzeppelin/contracts/token/ERC20/ERC20.sol\":1667:1672  _name */\n  0x03\n    /* \"@openzeppelin/contracts/token/ERC20/ERC20.sol\":1667:1680  _name = name_ */\n  swap1\n  dup2\n  tag_8\n  swap2\n  swap1\n  tag_9\n  jump\t// in\ntag_8:\n  pop\n    /* \"@openzeppelin/contracts/token/ERC20/ERC20.sol\":1700:1707  symbol_ */\n  dup1\n    /* \"@openzeppelin/contracts/token/ERC20/ERC20.sol\":1690:1697  _symbol */\n  0x04\n    /* \"@openzeppelin/contracts/token/ERC20/ERC20.sol\":1690:1707  _symbol = symbol_ */\n  swap1\n  dup2\n  tag_10\n  swap2\n  swap1\n  tag_9\n  jump\t// in\ntag_10:\n  pop\n    /* \"@openzeppelin/contracts/token/ERC20/ERC20.sol\":1601:1714  constructor(string memory name_, string memory symbol_) {... */\n  pop\n  pop\n    /* \"@openzeppelin/contracts/access/Ownable.sol\":1297:1298  0 */\n  0x00\n    /* \"@openzeppelin/contracts/access/Ownable.sol\":1273:1299  initialOwner == address(0) */\n  0xffffffffffffffffffffffffffffffffffffffff\n  and\n    /* \"@openzeppelin/contracts/access/Ownable.sol\":1273:1285  initialOwner */\n  dup2\n    /* \"@openzeppelin/contracts/access/Ownable.sol\":1273:1299  initialOwner == address(0) */\n  0xffffffffffffffffffffffffffffffffffffffff\n  and\n  sub\n    /* \"@openzeppelin/contracts/access/Ownable.sol\":1269:1364  if (initialOwner == address(0)) {... */\n  tag_12\n  jumpi\n    /* \"@openzeppelin/contracts/access/Ownable.sol\":1350:1351  0 */\n  0x00\n    /* \"@openzeppelin/contracts/access/Ownable.sol\":1322:1353  OwnableInvalidOwner(address(0)) */\n  mload(0x40)\n  0x1e4fbdf700000000000000000000000000000000000000000000000000000000\n  dup2\n  mstore\n  0x04\n  add\n  tag_13\n  swap2\n  swap1\n  tag_14\n  jump\t// in\ntag_13:\n  mload(0x40)\n  dup1\n  swap2\n  sub\n  swap1\n  revert\n    /* \"@openzeppelin/contracts/access/Ownable.sol\":1269:1364  if (initialOwner == address(0)) {... */\ntag_12:\n    /* \"@openzeppelin/contracts/access/Ownable.sol\":1373:1405  _transferOwnership(initialOwner) */\n  tag_15\n    /* \"@openzeppelin/contracts/access/Ownable.sol\":1392:1404  initialOwner */\n  dup2\n    /* \"@openzeppelin/contracts/access/Ownable.sol\":1373:1391  _transferOwnership */\n  shl(0x20, tag_16)\n    /* \"@openzeppelin/contracts/access/Ownable.sol\":1373:1405  _transferOwnership(initialOwner) */\n  0x20\n  shr\n  jump\t// in\ntag_15:\n    /* \"@openzeppelin/contracts/access/Ownable.sol\":1225:1412  constructor(address initialOwner) {... */\n  pop\n    /* \"contracts/MyToken.sol\":1134:1144  _maxSupply */\n  dup1\n    /* \"contracts/MyToken.sol\":1116:1130  _initialSupply */\n  dup4\n    /* \"contracts/MyToken.sol\":1116:1144  _initialSupply <= _maxSupply */\n  gt\n  iszero\n    /* \"contracts/MyToken.sol\":1108:1188  require(_initialSupply <= _maxSupply, \"Initial supply cannot exceed max supply\") */\n  tag_18\n  jumpi\n  mload(0x40)\n  0x08c379a000000000000000000000000000000000000000000000000000000000\n  dup2\n  mstore\n  0x04\n  add\n  tag_19\n  swap1\n  tag_20\n  jump\t// in\ntag_19:\n  mload(0x40)\n  dup1\n  swap2\n  sub\n  swap1\n  revert\ntag_18:\n    /* \"contracts/MyToken.sol\":1220:1231  _tokenPrice */\n  dup2\n    /* \"contracts/MyToken.sol\":1207:1217  tokenPrice */\n  0x06\n    /* \"contracts/MyToken.sol\":1207:1231  tokenPrice = _tokenPrice */\n  dup2\n  swap1\n  sstore\n  pop\n    /* \"contracts/MyToken.sol\":1253:1263  _maxSupply */\n  dup1\n    /* \"contracts/MyToken.sol\":1241:1250  maxSupply */\n  0x07\n    /* \"contracts/MyToken.sol\":1241:1263  maxSupply = _maxSupply */\n  dup2\n  swap1\n  sstore\n  pop\n    /* \"contracts/MyToken.sol\":1346:1396  _mint(msg.sender, _initialSupply * 10**decimals()) */\n  tag_21\n    /* \"contracts/MyToken.sol\":1352:1362  msg.sender */\n  caller\n    /* \"contracts/MyToken.sol\":1385:1395  decimals() */\n  tag_22\n    /* \"contracts/MyToken.sol\":1385:1393  decimals */\n  shl(0x20, tag_23)\n    /* \"contracts/MyToken.sol\":1385:1395  decimals() */\n  0x20\n  shr\n  jump\t// in\ntag_22:\n    /* \"contracts/MyToken.sol\":1381:1383  10 */\n  0x0a\n    /* \"contracts/MyToken.sol\":1381:1395  10**decimals() */\n  tag_24\n  swap2\n  swap1\n  tag_25\n  jump\t// in\ntag_24:\n    /* \"contracts/MyToken.sol\":1364:1378  _initialSupply */\n  dup6\n    /* \"contracts/MyToken.sol\":1364:1395  _initialSupply * 10**decimals() */\n  tag_26\n  swap2\n  swap1\n  tag_27\n  jump\t// in\ntag_26:\n    /* \"contracts/MyToken.sol\":1346:1351  _mint */\n  shl(0x20, tag_28)\n    /* \"contracts/MyToken.sol\":1346:1396  _mint(msg.sender, _initialSupply * 10**decimals()) */\n  0x20\n  shr\n  jump\t// in\ntag_21:\n    /* \"contracts/MyToken.sol\":889:1403  constructor(... */\n  pop\n  pop\n  pop\n  pop\n  pop\n    /* \"contracts/MyToken.sol\":315:3783  contract MyToken is ERC20, Ownable {... */\n  jump(tag_29)\n    /* \"@openzeppelin/contracts/access/Ownable.sol\":2912:3099  function _transferOwnership(address newOwner) internal virtual {... */\ntag_16:\n    /* \"@openzeppelin/contracts/access/Ownable.sol\":2985:3001  address oldOwner */\n  0x00\n    /* \"@openzeppelin/contracts/access/Ownable.sol\":3004:3010  _owner */\n  0x05\n  0x00\n  swap1\n  sload\n  swap1\n  0x0100\n  exp\n  swap1\n  div\n  0xffffffffffffffffffffffffffffffffffffffff\n  and\n    /* \"@openzeppelin/contracts/access/Ownable.sol\":2985:3010  address oldOwner = _owner */\n  swap1\n  pop\n    /* \"@openzeppelin/contracts/access/Ownable.sol\":3029:3037  newOwner */\n  dup2\n    /* \"@openzeppelin/contracts/access/Ownable.sol\":3020:3026  _owner */\n  0x05\n  0x00\n    /* \"@openzeppelin/contracts/access/Ownable.sol\":3020:3037  _owner = newOwner */\n  0x0100\n  exp\n  dup2\n  sload\n  dup2\n  0xffffffffffffffffffffffffffffffffffffffff\n  mul\n  not\n  and\n  swap1\n  dup4\n  0xffffffffffffffffffffffffffffffffffffffff\n  and\n  mul\n  or\n  swap1\n  sstore\n  pop\n    /* \"@openzeppelin/contracts/access/Ownable.sol\":3083:3091  newOwner */\n  dup2\n    /* \"@openzeppelin/contracts/access/Ownable.sol\":3052:3092  OwnershipTransferred(oldOwner, newOwner) */\n  0xffffffffffffffffffffffffffffffffffffffff\n  and\n    /* \"@openzeppelin/contracts/access/Ownable.sol\":3073:3081  oldOwner */\n  dup2\n    /* \"@openzeppelin/contracts/access/Ownable.sol\":3052:3092  OwnershipTransferred(oldOwner, newOwner) */\n  0xffffffffffffffffffffffffffffffffffffffff\n  and\n  0x8be0079c531659141344cd1fd0a4f28419497f9722a3daafe3b4186f6b6457e0\n  mload(0x40)\n  mload(0x40)\n  dup1\n  swap2\n  sub\n  swap1\n  log3\n    /* \"@openzeppelin/contracts/access/Ownable.sol\":2975:3099  {... */\n  pop\n    /* \"@openzeppelin/contracts/access/Ownable.sol\":2912:3099  function _transferOwnership(address newOwner) internal virtual {... */\n  pop\n  jump\t// out\n    /* \"@openzeppelin/contracts/token/ERC20/ERC20.sol\":2707:2789  function decimals() public view virtual returns (uint8) {... */\ntag_23:\n    /* \"@openzeppelin/contracts/token/ERC20/ERC20.sol\":2756:2761  uint8 */\n  0x00\n    /* \"@openzeppelin/contracts/token/ERC20/ERC20.sol\":2780:2782  18 */\n  0x12\n    /* \"@openzeppelin/contracts/token/ERC20/ERC20.sol\":2773:2782  return 18 */\n  swap1\n  pop\n    /* \"@openzeppelin/contracts/token/ERC20/ERC20.sol\":2707:2789  function decimals() public view virtual returns (uint8) {... */\n  swap1\n  jump\t// out\n    /* \"@openzeppelin/contracts/token/ERC20/ERC20.sol\":7458:7666  function _mint(address account, uint256 value) internal {... */\ntag_28:\n    /* \"@openzeppelin/contracts/token/ERC20/ERC20.sol\":7547:7548  0 */\n  0x00\n    /* \"@openzeppelin/contracts/token/ERC20/ERC20.sol\":7528:7549  account == address(0) */\n  0xffffffffffffffffffffffffffffffffffffffff\n  and\n    /* \"@openzeppelin/contracts/token/ERC20/ERC20.sol\":7528:7535  account */\n  dup3\n    /* \"@openzeppelin/contracts/token/ERC20/ERC20.sol\":7528:7549  account == address(0) */\n  0xffffffffffffffffffffffffffffffffffffffff\n  and\n  sub\n    /* \"@openzeppelin/contracts/token/ERC20/ERC20.sol\":7524:7615  if (account == address(0)) {... */\n  tag_33\n  jumpi\n    /* \"@openzeppelin/contracts/token/ERC20/ERC20.sol\":7601:7602  0 */\n  0x00\n    /* \"@openzeppelin/contracts/token/ERC20/ERC20.sol\":7572:7604  ERC20InvalidReceiver(address(0)) */\n  mload(0x40)\n  0xec442f0500000000000000000000000000000000000000000000000000000000\n  dup2\n  mstore\n  0x04\n  add\n  tag_34\n  swap2\n  swap1\n  tag_14\n  jump\t// in\ntag_34:\n  mload(0x40)\n  dup1\n  swap2\n  sub\n  swap1\n  revert\n    /* \"@openzeppelin/contracts/token/ERC20/ERC20.sol\":7524:7615  if (account == address(0)) {... */\ntag_33:\n    /* \"@openzeppelin/contracts/token/ERC20/ERC20.sol\":7624:7659  _update(address(0), account, value) */\n  tag_35\n    /* \"@openzeppelin/contracts/token/ERC20/ERC20.sol\":7640:7641  0 */\n  0x00\n    /* \"@openzeppelin/contracts/token/ERC20/ERC20.sol\":7644:7651  account */\n  dup4\n    /* \"@openzeppelin/contracts/token/ERC20/ERC20.sol\":7653:7658  value */\n  dup4\n    /* \"@openzeppelin/contracts/token/ERC20/ERC20.sol\":7624:7631  _update */\n  shl(0x20, tag_36)\n    /* \"@openzeppelin/contracts/token/ERC20/ERC20.sol\":7624:7659  _update(address(0), account, value) */\n  0x20\n  shr\n  jump\t// in\ntag_35:\n    /* \"@openzeppelin/contracts/token/ERC20/ERC20.sol\":7458:7666  function _mint(address account, uint256 value) internal {... */\n  pop\n  pop\n  jump\t// out\n    /* \"@openzeppelin/contracts/token/ERC20/ERC20.sol\":6008:7115  function _update(address from, address to, uint256 value) internal virtual {... */\ntag_36:\n    /* \"@openzeppelin/contracts/token/ERC20/ERC20.sol\":6113:6114  0 */\n  0x00\n    /* \"@openzeppelin/contracts/token/ERC20/ERC20.sol\":6097:6115  from == address(0) */\n  0xffffffffffffffffffffffffffffffffffffffff\n  and\n    /* \"@openzeppelin/contracts/token/ERC20/ERC20.sol\":6097:6101  from */\n  dup4\n    /* \"@openzeppelin/contracts/token/ERC20/ERC20.sol\":6097:6115  from == address(0) */\n  0xffffffffffffffffffffffffffffffffffffffff\n  and\n  sub\n    /* \"@openzeppelin/contracts/token/ERC20/ERC20.sol\":6093:6633  if (from == address(0)) {... */\n  tag_38\n  jumpi\n    /* \"@openzeppelin/contracts/token/ERC20/ERC20.sol\":6249:6254  value */\n  dup1\n    /* \"@openzeppelin/contracts/token/ERC20/ERC20.sol\":6233:6245  _totalSupply */\n  0x02\n  0x00\n    /* \"@openzeppelin/contracts/token/ERC20/ERC20.sol\":6233:6254  _totalSupply += value */\n  dup3\n  dup3\n  sload\n  tag_39\n  swap2\n  swap1\n  tag_40\n  jump\t// in\ntag_39:\n  swap3\n  pop\n  pop\n  dup2\n  swap1\n  sstore\n  pop\n    /* \"@openzeppelin/contracts/token/ERC20/ERC20.sol\":6093:6633  if (from == address(0)) {... */\n  jump(tag_41)\ntag_38:\n    /* \"@openzeppelin/contracts/token/ERC20/ERC20.sol\":6285:6304  uint256 fromBalance */\n  0x00\n    /* \"@openzeppelin/contracts/token/ERC20/ERC20.sol\":6307:6316  _balances */\n  dup1\n    /* \"@openzeppelin/contracts/token/ERC20/ERC20.sol\":6307:6322  _balances[from] */\n  0x00\n    /* \"@openzeppelin/contracts/token/ERC20/ERC20.sol\":6317:6321  from */\n  dup6\n    /* \"@openzeppelin/contracts/token/ERC20/ERC20.sol\":6307:6322  _balances[from] */\n  0xffffffffffffffffffffffffffffffffffffffff\n  and\n  0xffffffffffffffffffffffffffffffffffffffff\n  and\n  dup2\n  mstore\n  0x20\n  add\n  swap1\n  dup2\n  mstore\n  0x20\n  add\n  0x00\n  keccak256\n  sload\n    /* \"@openzeppelin/contracts/token/ERC20/ERC20.sol\":6285:6322  uint256 fromBalance = _balances[from] */\n  swap1\n  pop\n    /* \"@openzeppelin/contracts/token/ERC20/ERC20.sol\":6354:6359  value */\n  dup2\n    /* \"@openzeppelin/contracts/token/ERC20/ERC20.sol\":6340:6351  fromBalance */\n  dup2\n    /* \"@openzeppelin/contracts/token/ERC20/ERC20.sol\":6340:6359  fromBalance < value */\n  lt\n    /* \"@openzeppelin/contracts/token/ERC20/ERC20.sol\":6336:6451  if (fromBalance < value) {... */\n  iszero\n  tag_42\n  jumpi\n    /* \"@openzeppelin/contracts/token/ERC20/ERC20.sol\":6411:6415  from */\n  dup4\n    /* \"@openzeppelin/contracts/token/ERC20/ERC20.sol\":6417:6428  fromBalance */\n  dup2\n    /* \"@openzeppelin/contracts/token/ERC20/ERC20.sol\":6430:6435  value */\n  dup4\n    /* \"@openzeppelin/contracts/token/ERC20/ERC20.sol\":6386:6436  ERC20InsufficientBalance(from, fromBalance, value) */\n  mload(0x40)\n  0xe450d38c00000000000000000000000000000000000000000000000000000000\n  dup2\n  mstore\n  0x04\n  add\n  tag_43\n  swap4\n  swap3\n  swap2\n  swap1\n  tag_44\n  jump\t// in\ntag_43:\n  mload(0x40)\n  dup1\n  swap2\n  sub\n  swap1\n  revert\n    /* \"@openzeppelin/contracts/token/ERC20/ERC20.sol\":6336:6451  if (fromBalance < value) {... */\ntag_42:\n    /* \"@openzeppelin/contracts/token/ERC20/ERC20.sol\":6603:6608  value */\n  dup2\n    /* \"@openzeppelin/contracts/token/ERC20/ERC20.sol\":6589:6600  fromBalance */\n  dup2\n    /* \"@openzeppelin/contracts/token/ERC20/ERC20.sol\":6589:6608  fromBalance - value */\n  sub\n    /* \"@openzeppelin/contracts/token/ERC20/ERC20.sol\":6571:6580  _balances */\n  0x00\n    /* \"@openzeppelin/contracts/token/ERC20/ERC20.sol\":6571:6586  _balances[from] */\n  dup1\n    /* \"@openzeppelin/contracts/token/ERC20/ERC20.sol\":6581:6585  from */\n  dup7\n    /* \"@openzeppelin/contracts/token/ERC20/ERC20.sol\":6571:6586  _balances[from] */\n  0xffffffffffffffffffffffffffffffffffffffff\n  and\n  0xffffffffffffffffffffffffffffffffffffffff\n  and\n  dup2\n  mstore\n  0x20\n  add\n  swap1\n  dup2\n  mstore\n  0x20\n  add\n  0x00\n  keccak256\n    /* \"@openzeppelin/contracts/token/ERC20/ERC20.sol\":6571:6608  _balances[from] = fromBalance - value */\n  dup2\n  swap1\n  sstore\n  pop\n    /* \"@openzeppelin/contracts/token/ERC20/ERC20.sol\":6271:6633  {... */\n  pop\n    /* \"@openzeppelin/contracts/token/ERC20/ERC20.sol\":6093:6633  if (from == address(0)) {... */\ntag_41:\n    /* \"@openzeppelin/contracts/token/ERC20/ERC20.sol\":6661:6662  0 */\n  0x00\n    /* \"@openzeppelin/contracts/token/ERC20/ERC20.sol\":6647:6663  to == address(0) */\n  0xffffffffffffffffffffffffffffffffffffffff\n  and\n    /* \"@openzeppelin/contracts/token/ERC20/ERC20.sol\":6647:6649  to */\n  dup3\n    /* \"@openzeppelin/contracts/token/ERC20/ERC20.sol\":6647:6663  to == address(0) */\n  0xffffffffffffffffffffffffffffffffffffffff\n  and\n  sub\n    /* \"@openzeppelin/contracts/token/ERC20/ERC20.sol\":6643:7068  if (to == address(0)) {... */\n  tag_45\n  jumpi\n    /* \"@openzeppelin/contracts/token/ERC20/ERC20.sol\":6826:6831  value */\n  dup1\n    /* \"@openzeppelin/contracts/token/ERC20/ERC20.sol\":6810:6822  _totalSupply */\n  0x02\n  0x00\n    /* \"@openzeppelin/contracts/token/ERC20/ERC20.sol\":6810:6831  _totalSupply -= value */\n  dup3\n  dup3\n  sload\n  sub\n  swap3\n  pop\n  pop\n  dup2\n  swap1\n  sstore\n  pop\n    /* \"@openzeppelin/contracts/token/ERC20/ERC20.sol\":6643:7068  if (to == address(0)) {... */\n  jump(tag_46)\ntag_45:\n    /* \"@openzeppelin/contracts/token/ERC20/ERC20.sol\":7038:7043  value */\n  dup1\n    /* \"@openzeppelin/contracts/token/ERC20/ERC20.sol\":7021:7030  _balances */\n  0x00\n    /* \"@openzeppelin/contracts/token/ERC20/ERC20.sol\":7021:7034  _balances[to] */\n  dup1\n    /* \"@openzeppelin/contracts/token/ERC20/ERC20.sol\":7031:7033  to */\n  dup5\n    /* \"@openzeppelin/contracts/token/ERC20/ERC20.sol\":7021:7034  _balances[to] */\n  0xffffffffffffffffffffffffffffffffffffffff\n  and\n  0xffffffffffffffffffffffffffffffffffffffff\n  and\n  dup2\n  mstore\n  0x20\n  add\n  swap1\n  dup2\n  mstore\n  0x20\n  add\n  0x00\n  keccak256\n  0x00\n    /* \"@openzeppelin/contracts/token/ERC20/ERC20.sol\":7021:7043  _balances[to] += value */\n  dup3\n  dup3\n  sload\n  add\n  swap3\n  pop\n  pop\n  dup2\n  swap1\n  sstore\n  pop\n    /* \"@openzeppelin/contracts/token/ERC20/ERC20.sol\":6643:7068  if (to == address(0)) {... */\ntag_46:\n    /* \"@openzeppelin/contracts/token/ERC20/ERC20.sol\":7098:7100  to */\n  dup2\n    /* \"@openzeppelin/contracts/token/ERC20/ERC20.sol\":7083:7108  Transfer(from, to, value) */\n  0xffffffffffffffffffffffffffffffffffffffff\n  and\n    /* \"@openzeppelin/contracts/token/ERC20/ERC20.sol\":7092:7096  from */\n  dup4\n    /* \"@openzeppelin/contracts/token/ERC20/ERC20.sol\":7083:7108  Transfer(from, to, value) */\n  0xffffffffffffffffffffffffffffffffffffffff\n  and\n  0xddf252ad1be2c89b69c2b068fc378daa952ba7f163c4a11628f55a4df523b3ef\n    /* \"@openzeppelin/contracts/token/ERC20/ERC20.sol\":7102:7107  value */\n  dup4\n    /* \"@openzeppelin/contracts/token/ERC20/ERC20.sol\":7083:7108  Transfer(from, to, value) */\n  mload(0x40)\n  tag_47\n  swap2\n  swap1\n  tag_48\n  jump\t// in\ntag_47:\n  mload(0x40)\n  dup1\n  swap2\n  sub\n  swap1\n  log3\n    /* \"@openzeppelin/contracts/token/ERC20/ERC20.sol\":6008:7115  function _update(address from, address to, uint256 value) internal virtual {... */\n  pop\n  pop\n  pop\n  jump\t// out\n    /* \"#utility.yul\":7:82   */\ntag_49:\n    /* \"#utility.yul\":40:46   */\n  0x00\n    /* \"#utility.yul\":73:75   */\n  0x40\n    /* \"#utility.yul\":67:76   */\n  mload\n    /* \"#utility.yul\":57:76   */\n  swap1\n  pop\n    /* \"#utility.yul\":7:82   */\n  swap1\n  jump\t// out\n    /* \"#utility.yul\":88:205   */\ntag_50:\n    /* \"#utility.yul\":197:198   */\n  0x00\n    /* \"#utility.yul\":194:195   */\n  dup1\n    /* \"#utility.yul\":187:199   */\n  revert\n    /* \"#utility.yul\":211:328   */\ntag_51:\n    /* \"#utility.yul\":320:321   */\n  0x00\n    /* \"#utility.yul\":317:318   */\n  dup1\n    /* \"#utility.yul\":310:322   */\n  revert\n    /* \"#utility.yul\":334:451   */\ntag_52:\n    /* \"#utility.yul\":443:444   */\n  0x00\n    /* \"#utility.yul\":440:441   */\n  dup1\n    /* \"#utility.yul\":433:445   */\n  revert\n    /* \"#utility.yul\":457:574   */\ntag_53:\n    /* \"#utility.yul\":566:567   */\n  0x00\n    /* \"#utility.yul\":563:564   */\n  dup1\n    /* \"#utility.yul\":556:568   */\n  revert\n    /* \"#utility.yul\":580:682   */\ntag_54:\n    /* \"#utility.yul\":621:627   */\n  0x00\n    /* \"#utility.yul\":672:674   */\n  0x1f\n    /* \"#utility.yul\":668:675   */\n  not\n    /* \"#utility.yul\":663:665   */\n  0x1f\n    /* \"#utility.yul\":656:661   */\n  dup4\n    /* \"#utility.yul\":652:666   */\n  add\n    /* \"#utility.yul\":648:676   */\n  and\n    /* \"#utility.yul\":638:676   */\n  swap1\n  pop\n    /* \"#utility.yul\":580:682   */\n  swap2\n  swap1\n  pop\n  jump\t// out\n    /* \"#utility.yul\":688:868   */\ntag_55:\n    /* \"#utility.yul\":736:813   */\n  0x4e487b7100000000000000000000000000000000000000000000000000000000\n    /* \"#utility.yul\":733:734   */\n  0x00\n    /* \"#utility.yul\":726:814   */\n  mstore\n    /* \"#utility.yul\":833:837   */\n  0x41\n    /* \"#utility.yul\":830:831   */\n  0x04\n    /* \"#utility.yul\":823:838   */\n  mstore\n    /* \"#utility.yul\":857:861   */\n  0x24\n    /* \"#utility.yul\":854:855   */\n  0x00\n    /* \"#utility.yul\":847:862   */\n  revert\n    /* \"#utility.yul\":874:1155   */\ntag_56:\n    /* \"#utility.yul\":957:984   */\n  tag_104\n    /* \"#utility.yul\":979:983   */\n  dup3\n    /* \"#utility.yul\":957:984   */\n  tag_54\n  jump\t// in\ntag_104:\n    /* \"#utility.yul\":949:955   */\n  dup2\n    /* \"#utility.yul\":945:985   */\n  add\n    /* \"#utility.yul\":1087:1093   */\n  dup2\n    /* \"#utility.yul\":1075:1085   */\n  dup2\n    /* \"#utility.yul\":1072:1094   */\n  lt\n    /* \"#utility.yul\":1051:1069   */\n  0xffffffffffffffff\n    /* \"#utility.yul\":1039:1049   */\n  dup3\n    /* \"#utility.yul\":1036:1070   */\n  gt\n    /* \"#utility.yul\":1033:1095   */\n  or\n    /* \"#utility.yul\":1030:1118   */\n  iszero\n  tag_105\n  jumpi\n    /* \"#utility.yul\":1098:1116   */\n  tag_106\n  tag_55\n  jump\t// in\ntag_106:\n    /* \"#utility.yul\":1030:1118   */\ntag_105:\n    /* \"#utility.yul\":1138:1148   */\n  dup1\n    /* \"#utility.yul\":1134:1136   */\n  0x40\n    /* \"#utility.yul\":1127:1149   */\n  mstore\n    /* \"#utility.yul\":917:1155   */\n  pop\n    /* \"#utility.yul\":874:1155   */\n  pop\n  pop\n  jump\t// out\n    /* \"#utility.yul\":1161:1290   */\ntag_57:\n    /* \"#utility.yul\":1195:1201   */\n  0x00\n    /* \"#utility.yul\":1222:1242   */\n  tag_108\n  tag_49\n  jump\t// in\ntag_108:\n    /* \"#utility.yul\":1212:1242   */\n  swap1\n  pop\n    /* \"#utility.yul\":1251:1284   */\n  tag_109\n    /* \"#utility.yul\":1279:1283   */\n  dup3\n    /* \"#utility.yul\":1271:1277   */\n  dup3\n    /* \"#utility.yul\":1251:1284   */\n  tag_56\n  jump\t// in\ntag_109:\n    /* \"#utility.yul\":1161:1290   */\n  swap2\n  swap1\n  pop\n  jump\t// out\n    /* \"#utility.yul\":1296:1604   */\ntag_58:\n    /* \"#utility.yul\":1358:1362   */\n  0x00\n    /* \"#utility.yul\":1448:1466   */\n  0xffffffffffffffff\n    /* \"#utility.yul\":1440:1446   */\n  dup3\n    /* \"#utility.yul\":1437:1467   */\n  gt\n    /* \"#utility.yul\":1434:1490   */\n  iszero\n  tag_111\n  jumpi\n    /* \"#utility.yul\":1470:1488   */\n  tag_112\n  tag_55\n  jump\t// in\ntag_112:\n    /* \"#utility.yul\":1434:1490   */\ntag_111:\n    /* \"#utility.yul\":1508:1537   */\n  tag_113\n    /* \"#utility.yul\":1530:1536   */\n  dup3\n    /* \"#utility.yul\":1508:1537   */\n  tag_54\n  jump\t// in\ntag_113:\n    /* \"#utility.yul\":1500:1537   */\n  swap1\n  pop\n    /* \"#utility.yul\":1592:1596   */\n  0x20\n    /* \"#utility.yul\":1586:1590   */\n  dup2\n    /* \"#utility.yul\":1582:1597   */\n  add\n    /* \"#utility.yul\":1574:1597   */\n  swap1\n  pop\n    /* \"#utility.yul\":1296:1604   */\n  swap2\n  swap1\n  pop\n  jump\t// out\n    /* \"#utility.yul\":1610:1749   */\ntag_59:\n    /* \"#utility.yul\":1699:1705   */\n  dup3\n    /* \"#utility.yul\":1694:1697   */\n  dup2\n    /* \"#utility.yul\":1689:1692   */\n  dup4\n    /* \"#utility.yul\":1683:1706   */\n  mcopy\n    /* \"#utility.yul\":1740:1741   */\n  0x00\n    /* \"#utility.yul\":1731:1737   */\n  dup4\n    /* \"#utility.yul\":1726:1729   */\n  dup4\n    /* \"#utility.yul\":1722:1738   */\n  add\n    /* \"#utility.yul\":1715:1742   */\n  mstore\n    /* \"#utility.yul\":1610:1749   */\n  pop\n  pop\n  pop\n  jump\t// out\n    /* \"#utility.yul\":1755:2189   */\ntag_60:\n    /* \"#utility.yul\":1844:1849   */\n  0x00\n    /* \"#utility.yul\":1869:1935   */\n  tag_116\n    /* \"#utility.yul\":1885:1934   */\n  tag_117\n    /* \"#utility.yul\":1927:1933   */\n  dup5\n    /* \"#utility.yul\":1885:1934   */\n  tag_58\n  jump\t// in\ntag_117:\n    /* \"#utility.yul\":1869:1935   */\n  tag_57\n  jump\t// in\ntag_116:\n    /* \"#utility.yul\":1860:1935   */\n  swap1\n  pop\n    /* \"#utility.yul\":1958:1964   */\n  dup3\n    /* \"#utility.yul\":1951:1956   */\n  dup2\n    /* \"#utility.yul\":1944:1965   */\n  mstore\n    /* \"#utility.yul\":1996:2000   */\n  0x20\n    /* \"#utility.yul\":1989:1994   */\n  dup2\n    /* \"#utility.yul\":1985:2001   */\n  add\n    /* \"#utility.yul\":2034:2037   */\n  dup5\n    /* \"#utility.yul\":2025:2031   */\n  dup5\n    /* \"#utility.yul\":2020:2023   */\n  dup5\n    /* \"#utility.yul\":2016:2032   */\n  add\n    /* \"#utility.yul\":2013:2038   */\n  gt\n    /* \"#utility.yul\":2010:2122   */\n  iszero\n  tag_118\n  jumpi\n    /* \"#utility.yul\":2041:2120   */\n  tag_119\n  tag_53\n  jump\t// in\ntag_119:\n    /* \"#utility.yul\":2010:2122   */\ntag_118:\n    /* \"#utility.yul\":2131:2183   */\n  tag_120\n    /* \"#utility.yul\":2176:2182   */\n  dup5\n    /* \"#utility.yul\":2171:2174   */\n  dup3\n    /* \"#utility.yul\":2166:2169   */\n  dup6\n    /* \"#utility.yul\":2131:2183   */\n  tag_59\n  jump\t// in\ntag_120:\n    /* \"#utility.yul\":1850:2189   */\n  pop\n    /* \"#utility.yul\":1755:2189   */\n  swap4\n  swap3\n  pop\n  pop\n  pop\n  jump\t// out\n    /* \"#utility.yul\":2209:2564   */\ntag_61:\n    /* \"#utility.yul\":2276:2281   */\n  0x00\n    /* \"#utility.yul\":2325:2328   */\n  dup3\n    /* \"#utility.yul\":2318:2322   */\n  0x1f\n    /* \"#utility.yul\":2310:2316   */\n  dup4\n    /* \"#utility.yul\":2306:2323   */\n  add\n    /* \"#utility.yul\":2302:2329   */\n  slt\n    /* \"#utility.yul\":2292:2414   */\n  tag_122\n  jumpi\n    /* \"#utility.yul\":2333:2412   */\n  tag_123\n  tag_52\n  jump\t// in\ntag_123:\n    /* \"#utility.yul\":2292:2414   */\ntag_122:\n    /* \"#utility.yul\":2443:2449   */\n  dup2\n    /* \"#utility.yul\":2437:2450   */\n  mload\n    /* \"#utility.yul\":2468:2558   */\n  tag_124\n    /* \"#utility.yul\":2554:2557   */\n  dup5\n    /* \"#utility.yul\":2546:2552   */\n  dup3\n    /* \"#utility.yul\":2539:2543   */\n  0x20\n    /* \"#utility.yul\":2531:2537   */\n  dup7\n    /* \"#utility.yul\":2527:2544   */\n  add\n    /* \"#utility.yul\":2468:2558   */\n  tag_60\n  jump\t// in\ntag_124:\n    /* \"#utility.yul\":2459:2558   */\n  swap2\n  pop\n    /* \"#utility.yul\":2282:2564   */\n  pop\n    /* \"#utility.yul\":2209:2564   */\n  swap3\n  swap2\n  pop\n  pop\n  jump\t// out\n    /* \"#utility.yul\":2570:2647   */\ntag_62:\n    /* \"#utility.yul\":2607:2614   */\n  0x00\n    /* \"#utility.yul\":2636:2641   */\n  dup2\n    /* \"#utility.yul\":2625:2641   */\n  swap1\n  pop\n    /* \"#utility.yul\":2570:2647   */\n  swap2\n  swap1\n  pop\n  jump\t// out\n    /* \"#utility.yul\":2653:2775   */\ntag_63:\n    /* \"#utility.yul\":2726:2750   */\n  tag_127\n    /* \"#utility.yul\":2744:2749   */\n  dup2\n    /* \"#utility.yul\":2726:2750   */\n  tag_62\n  jump\t// in\ntag_127:\n    /* \"#utility.yul\":2719:2724   */\n  dup2\n    /* \"#utility.yul\":2716:2751   */\n  eq\n    /* \"#utility.yul\":2706:2769   */\n  tag_128\n  jumpi\n    /* \"#utility.yul\":2765:2766   */\n  0x00\n    /* \"#utility.yul\":2762:2763   */\n  dup1\n    /* \"#utility.yul\":2755:2767   */\n  revert\n    /* \"#utility.yul\":2706:2769   */\ntag_128:\n    /* \"#utility.yul\":2653:2775   */\n  pop\n  jump\t// out\n    /* \"#utility.yul\":2781:2924   */\ntag_64:\n    /* \"#utility.yul\":2838:2843   */\n  0x00\n    /* \"#utility.yul\":2869:2875   */\n  dup2\n    /* \"#utility.yul\":2863:2876   */\n  mload\n    /* \"#utility.yul\":2854:2876   */\n  swap1\n  pop\n    /* \"#utility.yul\":2885:2918   */\n  tag_130\n    /* \"#utility.yul\":2912:2917   */\n  dup2\n    /* \"#utility.yul\":2885:2918   */\n  tag_63\n  jump\t// in\ntag_130:\n    /* \"#utility.yul\":2781:2924   */\n  swap3\n  swap2\n  pop\n  pop\n  jump\t// out\n    /* \"#utility.yul\":2930:4253   */\ntag_3:\n    /* \"#utility.yul\":3056:3062   */\n  0x00\n    /* \"#utility.yul\":3064:3070   */\n  dup1\n    /* \"#utility.yul\":3072:3078   */\n  0x00\n    /* \"#utility.yul\":3080:3086   */\n  dup1\n    /* \"#utility.yul\":3088:3094   */\n  0x00\n    /* \"#utility.yul\":3137:3140   */\n  0xa0\n    /* \"#utility.yul\":3125:3134   */\n  dup7\n    /* \"#utility.yul\":3116:3123   */\n  dup9\n    /* \"#utility.yul\":3112:3135   */\n  sub\n    /* \"#utility.yul\":3108:3141   */\n  slt\n    /* \"#utility.yul\":3105:3225   */\n  iszero\n  tag_132\n  jumpi\n    /* \"#utility.yul\":3144:3223   */\n  tag_133\n  tag_50\n  jump\t// in\ntag_133:\n    /* \"#utility.yul\":3105:3225   */\ntag_132:\n    /* \"#utility.yul\":3285:3286   */\n  0x00\n    /* \"#utility.yul\":3274:3283   */\n  dup7\n    /* \"#utility.yul\":3270:3287   */\n  add\n    /* \"#utility.yul\":3264:3288   */\n  mload\n    /* \"#utility.yul\":3315:3333   */\n  0xffffffffffffffff\n    /* \"#utility.yul\":3307:3313   */\n  dup2\n    /* \"#utility.yul\":3304:3334   */\n  gt\n    /* \"#utility.yul\":3301:3418   */\n  iszero\n  tag_134\n  jumpi\n    /* \"#utility.yul\":3337:3416   */\n  tag_135\n  tag_51\n  jump\t// in\ntag_135:\n    /* \"#utility.yul\":3301:3418   */\ntag_134:\n    /* \"#utility.yul\":3442:3516   */\n  tag_136\n    /* \"#utility.yul\":3508:3515   */\n  dup9\n    /* \"#utility.yul\":3499:3505   */\n  dup3\n    /* \"#utility.yul\":3488:3497   */\n  dup10\n    /* \"#utility.yul\":3484:3506   */\n  add\n    /* \"#utility.yul\":3442:3516   */\n  tag_61\n  jump\t// in\ntag_136:\n    /* \"#utility.yul\":3432:3516   */\n  swap6\n  pop\n    /* \"#utility.yul\":3235:3526   */\n  pop\n    /* \"#utility.yul\":3586:3588   */\n  0x20\n    /* \"#utility.yul\":3575:3584   */\n  dup7\n    /* \"#utility.yul\":3571:3589   */\n  add\n    /* \"#utility.yul\":3565:3590   */\n  mload\n    /* \"#utility.yul\":3617:3635   */\n  0xffffffffffffffff\n    /* \"#utility.yul\":3609:3615   */\n  dup2\n    /* \"#utility.yul\":3606:3636   */\n  gt\n    /* \"#utility.yul\":3603:3720   */\n  iszero\n  tag_137\n  jumpi\n    /* \"#utility.yul\":3639:3718   */\n  tag_138\n  tag_51\n  jump\t// in\ntag_138:\n    /* \"#utility.yul\":3603:3720   */\ntag_137:\n    /* \"#utility.yul\":3744:3818   */\n  tag_139\n    /* \"#utility.yul\":3810:3817   */\n  dup9\n    /* \"#utility.yul\":3801:3807   */\n  dup3\n    /* \"#utility.yul\":3790:3799   */\n  dup10\n    /* \"#utility.yul\":3786:3808   */\n  add\n    /* \"#utility.yul\":3744:3818   */\n  tag_61\n  jump\t// in\ntag_139:\n    /* \"#utility.yul\":3734:3818   */\n  swap5\n  pop\n    /* \"#utility.yul\":3536:3828   */\n  pop\n    /* \"#utility.yul\":3867:3869   */\n  0x40\n    /* \"#utility.yul\":3893:3957   */\n  tag_140\n    /* \"#utility.yul\":3949:3956   */\n  dup9\n    /* \"#utility.yul\":3940:3946   */\n  dup3\n    /* \"#utility.yul\":3929:3938   */\n  dup10\n    /* \"#utility.yul\":3925:3947   */\n  add\n    /* \"#utility.yul\":3893:3957   */\n  tag_64\n  jump\t// in\ntag_140:\n    /* \"#utility.yul\":3883:3957   */\n  swap4\n  pop\n    /* \"#utility.yul\":3838:3967   */\n  pop\n    /* \"#utility.yul\":4006:4008   */\n  0x60\n    /* \"#utility.yul\":4032:4096   */\n  tag_141\n    /* \"#utility.yul\":4088:4095   */\n  dup9\n    /* \"#utility.yul\":4079:4085   */\n  dup3\n    /* \"#utility.yul\":4068:4077   */\n  dup10\n    /* \"#utility.yul\":4064:4086   */\n  add\n    /* \"#utility.yul\":4032:4096   */\n  tag_64\n  jump\t// in\ntag_141:\n    /* \"#utility.yul\":4022:4096   */\n  swap3\n  pop\n    /* \"#utility.yul\":3977:4106   */\n  pop\n    /* \"#utility.yul\":4145:4148   */\n  0x80\n    /* \"#utility.yul\":4172:4236   */\n  tag_142\n    /* \"#utility.yul\":4228:4235   */\n  dup9\n    /* \"#utility.yul\":4219:4225   */\n  dup3\n    /* \"#utility.yul\":4208:4217   */\n  dup10\n    /* \"#utility.yul\":4204:4226   */\n  add\n    /* \"#utility.yul\":4172:4236   */\n  tag_64\n  jump\t// in\ntag_142:\n    /* \"#utility.yul\":4162:4236   */\n  swap2\n  pop\n    /* \"#utility.yul\":4116:4246   */\n  pop\n    /* \"#utility.yul\":2930:4253   */\n  swap3\n  swap6\n  pop\n  swap3\n  swap6\n  swap1\n  swap4\n  pop\n  jump\t// out\n    /* \"#utility.yul\":4259:4358   */\ntag_65:\n    /* \"#utility.yul\":4311:4317   */\n  0x00\n    /* \"#utility.yul\":4345:4350   */\n  dup2\n    /* \"#utility.yul\":4339:4351   */\n  mload\n    /* \"#utility.yul\":4329:4351   */\n  swap1\n  pop\n    /* \"#utility.yul\":4259:4358   */\n  swap2\n  swap1\n  pop\n  jump\t// out\n    /* \"#utility.yul\":4364:4544   */\ntag_66:\n    /* \"#utility.yul\":4412:4489   */\n  0x4e487b7100000000000000000000000000000000000000000000000000000000\n    /* \"#utility.yul\":4409:4410   */\n  0x00\n    /* \"#utility.yul\":4402:4490   */\n  mstore\n    /* \"#utility.yul\":4509:4513   */\n  0x22\n    /* \"#utility.yul\":4506:4507   */\n  0x04\n    /* \"#utility.yul\":4499:4514   */\n  mstore\n    /* \"#utility.yul\":4533:4537   */\n  0x24\n    /* \"#utility.yul\":4530:4531   */\n  0x00\n    /* \"#utility.yul\":4523:4538   */\n  revert\n    /* \"#utility.yul\":4550:4870   */\ntag_67:\n    /* \"#utility.yul\":4594:4600   */\n  0x00\n    /* \"#utility.yul\":4631:4632   */\n  0x02\n    /* \"#utility.yul\":4625:4629   */\n  dup3\n    /* \"#utility.yul\":4621:4633   */\n  div\n    /* \"#utility.yul\":4611:4633   */\n  swap1\n  pop\n    /* \"#utility.yul\":4678:4679   */\n  0x01\n    /* \"#utility.yul\":4672:4676   */\n  dup3\n    /* \"#utility.yul\":4668:4680   */\n  and\n    /* \"#utility.yul\":4699:4717   */\n  dup1\n    /* \"#utility.yul\":4689:4770   */\n  tag_146\n  jumpi\n    /* \"#utility.yul\":4755:4759   */\n  0x7f\n    /* \"#utility.yul\":4747:4753   */\n  dup3\n    /* \"#utility.yul\":4743:4760   */\n  and\n    /* \"#utility.yul\":4733:4760   */\n  swap2\n  pop\n    /* \"#utility.yul\":4689:4770   */\ntag_146:\n    /* \"#utility.yul\":4817:4819   */\n  0x20\n    /* \"#utility.yul\":4809:4815   */\n  dup3\n    /* \"#utility.yul\":4806:4820   */\n  lt\n    /* \"#utility.yul\":4786:4804   */\n  dup2\n    /* \"#utility.yul\":4783:4821   */\n  sub\n    /* \"#utility.yul\":4780:4864   */\n  tag_147\n  jumpi\n    /* \"#utility.yul\":4836:4854   */\n  tag_148\n  tag_66\n  jump\t// in\ntag_148:\n    /* \"#utility.yul\":4780:4864   */\ntag_147:\n    /* \"#utility.yul\":4601:4870   */\n  pop\n    /* \"#utility.yul\":4550:4870   */\n  swap2\n  swap1\n  pop\n  jump\t// out\n    /* \"#utility.yul\":4876:5017   */\ntag_68:\n    /* \"#utility.yul\":4925:4929   */\n  0x00\n    /* \"#utility.yul\":4948:4951   */\n  dup2\n    /* \"#utility.yul\":4940:4951   */\n  swap1\n  pop\n    /* \"#utility.yul\":4971:4974   */\n  dup2\n    /* \"#utility.yul\":4968:4969   */\n  0x00\n    /* \"#utility.yul\":4961:4975   */\n  mstore\n    /* \"#utility.yul\":5005:5009   */\n  0x20\n    /* \"#utility.yul\":5002:5003   */\n  0x00\n    /* \"#utility.yul\":4992:5010   */\n  keccak256\n    /* \"#utility.yul\":4984:5010   */\n  swap1\n  pop\n    /* \"#utility.yul\":4876:5017   */\n  swap2\n  swap1\n  pop\n  jump\t// out\n    /* \"#utility.yul\":5023:5116   */\ntag_69:\n    /* \"#utility.yul\":5060:5066   */\n  0x00\n    /* \"#utility.yul\":5107:5109   */\n  0x20\n    /* \"#utility.yul\":5102:5104   */\n  0x1f\n    /* \"#utility.yul\":5095:5100   */\n  dup4\n    /* \"#utility.yul\":5091:5105   */\n  add\n    /* \"#utility.yul\":5087:5110   */\n  div\n    /* \"#utility.yul\":5077:5110   */\n  swap1\n  pop\n    /* \"#utility.yul\":5023:5116   */\n  swap2\n  swap1\n  pop\n  jump\t// out\n    /* \"#utility.yul\":5122:5229   */\ntag_70:\n    /* \"#utility.yul\":5166:5174   */\n  0x00\n    /* \"#utility.yul\":5216:5221   */\n  dup3\n    /* \"#utility.yul\":5210:5214   */\n  dup3\n    /* \"#utility.yul\":5206:5222   */\n  shl\n    /* \"#utility.yul\":5185:5222   */\n  swap1\n  pop\n    /* \"#utility.yul\":5122:5229   */\n  swap3\n  swap2\n  pop\n  pop\n  jump\t// out\n    /* \"#utility.yul\":5235:5628   */\ntag_71:\n    /* \"#utility.yul\":5304:5310   */\n  0x00\n    /* \"#utility.yul\":5354:5355   */\n  0x08\n    /* \"#utility.yul\":5342:5352   */\n  dup4\n    /* \"#utility.yul\":5338:5356   */\n  mul\n    /* \"#utility.yul\":5377:5474   */\n  tag_153\n    /* \"#utility.yul\":5407:5473   */\n  0xffffffffffffffffffffffffffffffffffffffffffffffffffffffffffffffff\n    /* \"#utility.yul\":5396:5405   */\n  dup3\n    /* \"#utility.yul\":5377:5474   */\n  tag_70\n  jump\t// in\ntag_153:\n    /* \"#utility.yul\":5495:5534   */\n  tag_154\n    /* \"#utility.yul\":5525:5533   */\n  dup7\n    /* \"#utility.yul\":5514:5523   */\n  dup4\n    /* \"#utility.yul\":5495:5534   */\n  tag_70\n  jump\t// in\ntag_154:\n    /* \"#utility.yul\":5483:5534   */\n  swap6\n  pop\n    /* \"#utility.yul\":5567:5571   */\n  dup1\n    /* \"#utility.yul\":5563:5572   */\n  not\n    /* \"#utility.yul\":5556:5561   */\n  dup5\n    /* \"#utility.yul\":5552:5573   */\n  and\n    /* \"#utility.yul\":5543:5573   */\n  swap4\n  pop\n    /* \"#utility.yul\":5616:5620   */\n  dup1\n    /* \"#utility.yul\":5606:5614   */\n  dup7\n    /* \"#utility.yul\":5602:5621   */\n  and\n    /* \"#utility.yul\":5595:5600   */\n  dup5\n    /* \"#utility.yul\":5592:5622   */\n  or\n    /* \"#utility.yul\":5582:5622   */\n  swap3\n  pop\n    /* \"#utility.yul\":5311:5628   */\n  pop\n  pop\n    /* \"#utility.yul\":5235:5628   */\n  swap4\n  swap3\n  pop\n  pop\n  pop\n  jump\t// out\n    /* \"#utility.yul\":5634:5694   */\ntag_72:\n    /* \"#utility.yul\":5662:5665   */\n  0x00\n    /* \"#utility.yul\":5683:5688   */\n  dup2\n    /* \"#utility.yul\":5676:5688   */\n  swap1\n  pop\n    /* \"#utility.yul\":5634:5694   */\n  swap2\n  swap1\n  pop\n  jump\t// out\n    /* \"#utility.yul\":5700:5842   */\ntag_73:\n    /* \"#utility.yul\":5750:5759   */\n  0x00\n    /* \"#utility.yul\":5783:5836   */\n  tag_157\n    /* \"#utility.yul\":5801:5835   */\n  tag_158\n    /* \"#utility.yul\":5810:5834   */\n  tag_159\n    /* \"#utility.yul\":5828:5833   */\n  dup5\n    /* \"#utility.yul\":5810:5834   */\n  tag_62\n  jump\t// in\ntag_159:\n    /* \"#utility.yul\":5801:5835   */\n  tag_72\n  jump\t// in\ntag_158:\n    /* \"#utility.yul\":5783:5836   */\n  tag_62\n  jump\t// in\ntag_157:\n    /* \"#utility.yul\":5770:5836   */\n  swap1\n  pop\n    /* \"#utility.yul\":5700:5842   */\n  swap2\n  swap1\n  pop\n  jump\t// out\n    /* \"#utility.yul\":5848:5923   */\ntag_74:\n    /* \"#utility.yul\":5891:5894   */\n  0x00\n    /* \"#utility.yul\":5912:5917   */\n  dup2\n    /* \"#utility.yul\":5905:5917   */\n  swap1\n  pop\n    /* \"#utility.yul\":5848:5923   */\n  swap2\n  swap1\n  pop\n  jump\t// out\n    /* \"#utility.yul\":5929:6198   */\ntag_75:\n    /* \"#utility.yul\":6039:6078   */\n  tag_162\n    /* \"#utility.yul\":6070:6077   */\n  dup4\n    /* \"#utility.yul\":6039:6078   */\n  tag_73\n  jump\t// in\ntag_162:\n    /* \"#utility.yul\":6100:6191   */\n  tag_163\n    /* \"#utility.yul\":6149:6190   */\n  tag_164\n    /* \"#utility.yul\":6173:6189   */\n  dup3\n    /* \"#utility.yul\":6149:6190   */\n  tag_74\n  jump\t// in\ntag_164:\n    /* \"#utility.yul\":6141:6147   */\n  dup5\n    /* \"#utility.yul\":6134:6138   */\n  dup5\n    /* \"#utility.yul\":6128:6139   */\n  sload\n    /* \"#utility.yul\":6100:6191   */\n  tag_71\n  jump\t// in\ntag_163:\n    /* \"#utility.yul\":6094:6098   */\n  dup3\n    /* \"#utility.yul\":6087:6192   */\n  sstore\n    /* \"#utility.yul\":6005:6198   */\n  pop\n    /* \"#utility.yul\":5929:6198   */\n  pop\n  pop\n  pop\n  jump\t// out\n    /* \"#utility.yul\":6204:6277   */\ntag_76:\n    /* \"#utility.yul\":6249:6252   */\n  0x00\n    /* \"#utility.yul\":6204:6277   */\n  swap1\n  jump\t// out\n    /* \"#utility.yul\":6283:6472   */\ntag_77:\n    /* \"#utility.yul\":6360:6392   */\n  tag_167\n  tag_76\n  jump\t// in\ntag_167:\n    /* \"#utility.yul\":6401:6466   */\n  tag_168\n    /* \"#utility.yul\":6459:6465   */\n  dup2\n    /* \"#utility.yul\":6451:6457   */\n  dup5\n    /* \"#utility.yul\":6445:6449   */\n  dup5\n    /* \"#utility.yul\":6401:6466   */\n  tag_75\n  jump\t// in\ntag_168:\n    /* \"#utility.yul\":6336:6472   */\n  pop\n    /* \"#utility.yul\":6283:6472   */\n  pop\n  pop\n  jump\t// out\n    /* \"#utility.yul\":6478:6664   */\ntag_78:\n    /* \"#utility.yul\":6538:6658   */\ntag_170:\n    /* \"#utility.yul\":6555:6558   */\n  dup2\n    /* \"#utility.yul\":6548:6553   */\n  dup2\n    /* \"#utility.yul\":6545:6559   */\n  lt\n    /* \"#utility.yul\":6538:6658   */\n  iszero\n  tag_172\n  jumpi\n    /* \"#utility.yul\":6609:6648   */\n  tag_173\n    /* \"#utility.yul\":6646:6647   */\n  0x00\n    /* \"#utility.yul\":6639:6644   */\n  dup3\n    /* \"#utility.yul\":6609:6648   */\n  tag_77\n  jump\t// in\ntag_173:\n    /* \"#utility.yul\":6582:6583   */\n  0x01\n    /* \"#utility.yul\":6575:6580   */\n  dup2\n    /* \"#utility.yul\":6571:6584   */\n  add\n    /* \"#utility.yul\":6562:6584   */\n  swap1\n  pop\n    /* \"#utility.yul\":6538:6658   */\n  jump(tag_170)\ntag_172:\n    /* \"#utility.yul\":6478:6664   */\n  pop\n  pop\n  jump\t// out\n    /* \"#utility.yul\":6670:7213   */\ntag_79:\n    /* \"#utility.yul\":6771:6773   */\n  0x1f\n    /* \"#utility.yul\":6766:6769   */\n  dup3\n    /* \"#utility.yul\":6763:6774   */\n  gt\n    /* \"#utility.yul\":6760:7206   */\n  iszero\n  tag_175\n  jumpi\n    /* \"#utility.yul\":6805:6843   */\n  tag_176\n    /* \"#utility.yul\":6837:6842   */\n  dup2\n    /* \"#utility.yul\":6805:6843   */\n  tag_68\n  jump\t// in\ntag_176:\n    /* \"#utility.yul\":6889:6918   */\n  tag_177\n    /* \"#utility.yul\":6907:6917   */\n  dup5\n    /* \"#utility.yul\":6889:6918   */\n  tag_69\n  jump\t// in\ntag_177:\n    /* \"#utility.yul\":6879:6887   */\n  dup2\n    /* \"#utility.yul\":6875:6919   */\n  add\n    /* \"#utility.yul\":7072:7074   */\n  0x20\n    /* \"#utility.yul\":7060:7070   */\n  dup6\n    /* \"#utility.yul\":7057:7075   */\n  lt\n    /* \"#utility.yul\":7054:7103   */\n  iszero\n  tag_178\n  jumpi\n    /* \"#utility.yul\":7093:7101   */\n  dup2\n    /* \"#utility.yul\":7078:7101   */\n  swap1\n  pop\n    /* \"#utility.yul\":7054:7103   */\ntag_178:\n    /* \"#utility.yul\":7116:7196   */\n  tag_179\n    /* \"#utility.yul\":7172:7194   */\n  tag_180\n    /* \"#utility.yul\":7190:7193   */\n  dup6\n    /* \"#utility.yul\":7172:7194   */\n  tag_69\n  jump\t// in\ntag_180:\n    /* \"#utility.yul\":7162:7170   */\n  dup4\n    /* \"#utility.yul\":7158:7195   */\n  add\n    /* \"#utility.yul\":7145:7156   */\n  dup3\n    /* \"#utility.yul\":7116:7196   */\n  tag_78\n  jump\t// in\ntag_179:\n    /* \"#utility.yul\":6775:7206   */\n  pop\n  pop\n    /* \"#utility.yul\":6760:7206   */\ntag_175:\n    /* \"#utility.yul\":6670:7213   */\n  pop\n  pop\n  pop\n  jump\t// out\n    /* \"#utility.yul\":7219:7336   */\ntag_80:\n    /* \"#utility.yul\":7273:7281   */\n  0x00\n    /* \"#utility.yul\":7323:7328   */\n  dup3\n    /* \"#utility.yul\":7317:7321   */\n  dup3\n    /* \"#utility.yul\":7313:7329   */\n  shr\n    /* \"#utility.yul\":7292:7329   */\n  swap1\n  pop\n    /* \"#utility.yul\":7219:7336   */\n  swap3\n  swap2\n  pop\n  pop\n  jump\t// out\n    /* \"#utility.yul\":7342:7511   */\ntag_81:\n    /* \"#utility.yul\":7386:7392   */\n  0x00\n    /* \"#utility.yul\":7419:7470   */\n  tag_183\n    /* \"#utility.yul\":7467:7468   */\n  0x00\n    /* \"#utility.yul\":7463:7469   */\n  not\n    /* \"#utility.yul\":7455:7460   */\n  dup5\n    /* \"#utility.yul\":7452:7453   */\n  0x08\n    /* \"#utility.yul\":7448:7461   */\n  mul\n    /* \"#utility.yul\":7419:7470   */\n  tag_80\n  jump\t// in\ntag_183:\n    /* \"#utility.yul\":7415:7471   */\n  not\n    /* \"#utility.yul\":7500:7504   */\n  dup1\n    /* \"#utility.yul\":7494:7498   */\n  dup4\n    /* \"#utility.yul\":7490:7505   */\n  and\n    /* \"#utility.yul\":7480:7505   */\n  swap2\n  pop\n    /* \"#utility.yul\":7393:7511   */\n  pop\n    /* \"#utility.yul\":7342:7511   */\n  swap3\n  swap2\n  pop\n  pop\n  jump\t// out\n    /* \"#utility.yul\":7516:7811   */\ntag_82:\n    /* \"#utility.yul\":7592:7596   */\n  0x00\n    /* \"#utility.yul\":7738:7767   */\n  tag_185\n    /* \"#utility.yul\":7763:7766   */\n  dup4\n    /* \"#utility.yul\":7757:7761   */\n  dup4\n    /* \"#utility.yul\":7738:7767   */\n  tag_81\n  jump\t// in\ntag_185:\n    /* \"#utility.yul\":7730:7767   */\n  swap2\n  pop\n    /* \"#utility.yul\":7800:7803   */\n  dup3\n    /* \"#utility.yul\":7797:7798   */\n  0x02\n    /* \"#utility.yul\":7793:7804   */\n  mul\n    /* \"#utility.yul\":7787:7791   */\n  dup3\n    /* \"#utility.yul\":7784:7805   */\n  or\n    /* \"#utility.yul\":7776:7805   */\n  swap1\n  pop\n    /* \"#utility.yul\":7516:7811   */\n  swap3\n  swap2\n  pop\n  pop\n  jump\t// out\n    /* \"#utility.yul\":7816:9211   */\ntag_9:\n    /* \"#utility.yul\":7933:7970   */\n  tag_187\n    /* \"#utility.yul\":7966:7969   */\n  dup3\n    /* \"#utility.yul\":7933:7970   */\n  tag_65\n  jump\t// in\ntag_187:\n    /* \"#utility.yul\":8035:8053   */\n  0xffffffffffffffff\n    /* \"#utility.yul\":8027:8033   */\n  dup2\n    /* \"#utility.yul\":8024:8054   */\n  gt\n    /* \"#utility.yul\":8021:8077   */\n  iszero\n  tag_188\n  jumpi\n    /* \"#utility.yul\":8057:8075   */\n  tag_189\n  tag_55\n  jump\t// in\ntag_189:\n    /* \"#utility.yul\":8021:8077   */\ntag_188:\n    /* \"#utility.yul\":8101:8139   */\n  tag_190\n    /* \"#utility.yul\":8133:8137   */\n  dup3\n    /* \"#utility.yul\":8127:8138   */\n  sload\n    /* \"#utility.yul\":8101:8139   */\n  tag_67\n  jump\t// in\ntag_190:\n    /* \"#utility.yul\":8186:8253   */\n  tag_191\n    /* \"#utility.yul\":8246:8252   */\n  dup3\n    /* \"#utility.yul\":8238:8244   */\n  dup3\n    /* \"#utility.yul\":8232:8236   */\n  dup6\n    /* \"#utility.yul\":8186:8253   */\n  tag_79\n  jump\t// in\ntag_191:\n    /* \"#utility.yul\":8280:8281   */\n  0x00\n    /* \"#utility.yul\":8304:8308   */\n  0x20\n    /* \"#utility.yul\":8291:8308   */\n  swap1\n  pop\n    /* \"#utility.yul\":8336:8338   */\n  0x1f\n    /* \"#utility.yul\":8328:8334   */\n  dup4\n    /* \"#utility.yul\":8325:8339   */\n  gt\n    /* \"#utility.yul\":8353:8354   */\n  0x01\n    /* \"#utility.yul\":8348:8966   */\n  dup2\n  eq\n  tag_193\n  jumpi\n    /* \"#utility.yul\":9010:9011   */\n  0x00\n    /* \"#utility.yul\":9027:9033   */\n  dup5\n    /* \"#utility.yul\":9024:9101   */\n  iszero\n  tag_194\n  jumpi\n    /* \"#utility.yul\":9076:9085   */\n  dup3\n    /* \"#utility.yul\":9071:9074   */\n  dup8\n    /* \"#utility.yul\":9067:9086   */\n  add\n    /* \"#utility.yul\":9061:9087   */\n  mload\n    /* \"#utility.yul\":9052:9087   */\n  swap1\n  pop\n    /* \"#utility.yul\":9024:9101   */\ntag_194:\n    /* \"#utility.yul\":9127:9194   */\n  tag_195\n    /* \"#utility.yul\":9187:9193   */\n  dup6\n    /* \"#utility.yul\":9180:9185   */\n  dup3\n    /* \"#utility.yul\":9127:9194   */\n  tag_82\n  jump\t// in\ntag_195:\n    /* \"#utility.yul\":9121:9125   */\n  dup7\n    /* \"#utility.yul\":9114:9195   */\n  sstore\n    /* \"#utility.yul\":8983:9205   */\n  pop\n    /* \"#utility.yul\":8318:9205   */\n  jump(tag_192)\n    /* \"#utility.yul\":8348:8966   */\ntag_193:\n    /* \"#utility.yul\":8400:8404   */\n  0x1f\n    /* \"#utility.yul\":8396:8405   */\n  not\n    /* \"#utility.yul\":8388:8394   */\n  dup5\n    /* \"#utility.yul\":8384:8406   */\n  and\n    /* \"#utility.yul\":8434:8471   */\n  tag_196\n    /* \"#utility.yul\":8466:8470   */\n  dup7\n    /* \"#utility.yul\":8434:8471   */\n  tag_68\n  jump\t// in\ntag_196:\n    /* \"#utility.yul\":8493:8494   */\n  0x00\n    /* \"#utility.yul\":8507:8715   */\ntag_197:\n    /* \"#utility.yul\":8521:8528   */\n  dup3\n    /* \"#utility.yul\":8518:8519   */\n  dup2\n    /* \"#utility.yul\":8515:8529   */\n  lt\n    /* \"#utility.yul\":8507:8715   */\n  iszero\n  tag_199\n  jumpi\n    /* \"#utility.yul\":8600:8609   */\n  dup5\n    /* \"#utility.yul\":8595:8598   */\n  dup10\n    /* \"#utility.yul\":8591:8610   */\n  add\n    /* \"#utility.yul\":8585:8611   */\n  mload\n    /* \"#utility.yul\":8577:8583   */\n  dup3\n    /* \"#utility.yul\":8570:8612   */\n  sstore\n    /* \"#utility.yul\":8651:8652   */\n  0x01\n    /* \"#utility.yul\":8643:8649   */\n  dup3\n    /* \"#utility.yul\":8639:8653   */\n  add\n    /* \"#utility.yul\":8629:8653   */\n  swap2\n  pop\n    /* \"#utility.yul\":8698:8700   */\n  0x20\n    /* \"#utility.yul\":8687:8696   */\n  dup6\n    /* \"#utility.yul\":8683:8701   */\n  add\n    /* \"#utility.yul\":8670:8701   */\n  swap5\n  pop\n    /* \"#utility.yul\":8544:8548   */\n  0x20\n    /* \"#utility.yul\":8541:8542   */\n  dup2\n    /* \"#utility.yul\":8537:8549   */\n  add\n    /* \"#utility.yul\":8532:8549   */\n  swap1\n  pop\n    /* \"#utility.yul\":8507:8715   */\n  jump(tag_197)\ntag_199:\n    /* \"#utility.yul\":8743:8749   */\n  dup7\n    /* \"#utility.yul\":8734:8741   */\n  dup4\n    /* \"#utility.yul\":8731:8750   */\n  lt\n    /* \"#utility.yul\":8728:8907   */\n  iszero\n  tag_200\n  jumpi\n    /* \"#utility.yul\":8801:8810   */\n  dup5\n    /* \"#utility.yul\":8796:8799   */\n  dup10\n    /* \"#utility.yul\":8792:8811   */\n  add\n    /* \"#utility.yul\":8786:8812   */\n  mload\n    /* \"#utility.yul\":8844:8892   */\n  tag_201\n    /* \"#utility.yul\":8886:8890   */\n  0x1f\n    /* \"#utility.yul\":8878:8884   */\n  dup10\n    /* \"#utility.yul\":8874:8891   */\n  and\n    /* \"#utility.yul\":8863:8872   */\n  dup3\n    /* \"#utility.yul\":8844:8892   */\n  tag_81\n  jump\t// in\ntag_201:\n    /* \"#utility.yul\":8836:8842   */\n  dup4\n    /* \"#utility.yul\":8829:8893   */\n  sstore\n    /* \"#utility.yul\":8751:8907   */\n  pop\n    /* \"#utility.yul\":8728:8907   */\ntag_200:\n    /* \"#utility.yul\":8953:8954   */\n  0x01\n    /* \"#utility.yul\":8949:8950   */\n  0x02\n    /* \"#utility.yul\":8941:8947   */\n  dup9\n    /* \"#utility.yul\":8937:8951   */\n  mul\n    /* \"#utility.yul\":8933:8955   */\n  add\n    /* \"#utility.yul\":8927:8931   */\n  dup9\n    /* \"#utility.yul\":8920:8956   */\n  sstore\n    /* \"#utility.yul\":8355:8966   */\n  pop\n  pop\n  pop\n    /* \"#utility.yul\":8318:9205   */\ntag_192:\n  pop\n    /* \"#utility.yul\":7908:9211   */\n  pop\n  pop\n  pop\n    /* \"#utility.yul\":7816:9211   */\n  pop\n  pop\n  jump\t// out\n    /* \"#utility.yul\":9217:9343   */\ntag_83:\n    /* \"#utility.yul\":9254:9261   */\n  0x00\n    /* \"#utility.yul\":9294:9336   */\n  0xffffffffffffffffffffffffffffffffffffffff\n    /* \"#utility.yul\":9287:9292   */\n  dup3\n    /* \"#utility.yul\":9283:9337   */\n  and\n    /* \"#utility.yul\":9272:9337   */\n  swap1\n  pop\n    /* \"#utility.yul\":9217:9343   */\n  swap2\n  swap1\n  pop\n  jump\t// out\n    /* \"#utility.yul\":9349:9445   */\ntag_84:\n    /* \"#utility.yul\":9386:9393   */\n  0x00\n    /* \"#utility.yul\":9415:9439   */\n  tag_204\n    /* \"#utility.yul\":9433:9438   */\n  dup3\n    /* \"#utility.yul\":9415:9439   */\n  tag_83\n  jump\t// in\ntag_204:\n    /* \"#utility.yul\":9404:9439   */\n  swap1\n  pop\n    /* \"#utility.yul\":9349:9445   */\n  swap2\n  swap1\n  pop\n  jump\t// out\n    /* \"#utility.yul\":9451:9569   */\ntag_85:\n    /* \"#utility.yul\":9538:9562   */\n  tag_206\n    /* \"#utility.yul\":9556:9561   */\n  dup2\n    /* \"#utility.yul\":9538:9562   */\n  tag_84\n  jump\t// in\ntag_206:\n    /* \"#utility.yul\":9533:9536   */\n  dup3\n    /* \"#utility.yul\":9526:9563   */\n  mstore\n    /* \"#utility.yul\":9451:9569   */\n  pop\n  pop\n  jump\t// out\n    /* \"#utility.yul\":9575:9797   */\ntag_14:\n    /* \"#utility.yul\":9668:9672   */\n  0x00\n    /* \"#utility.yul\":9706:9708   */\n  0x20\n    /* \"#utility.yul\":9695:9704   */\n  dup3\n    /* \"#utility.yul\":9691:9709   */\n  add\n    /* \"#utility.yul\":9683:9709   */\n  swap1\n  pop\n    /* \"#utility.yul\":9719:9790   */\n  tag_208\n    /* \"#utility.yul\":9787:9788   */\n  0x00\n    /* \"#utility.yul\":9776:9785   */\n  dup4\n    /* \"#utility.yul\":9772:9789   */\n  add\n    /* \"#utility.yul\":9763:9769   */\n  dup5\n    /* \"#utility.yul\":9719:9790   */\n  tag_85\n  jump\t// in\ntag_208:\n    /* \"#utility.yul\":9575:9797   */\n  swap3\n  swap2\n  pop\n  pop\n  jump\t// out\n    /* \"#utility.yul\":9803:9972   */\ntag_86:\n    /* \"#utility.yul\":9887:9898   */\n  0x00\n    /* \"#utility.yul\":9921:9927   */\n  dup3\n    /* \"#utility.yul\":9916:9919   */\n  dup3\n    /* \"#utility.yul\":9909:9928   */\n  mstore\n    /* \"#utility.yul\":9961:9965   */\n  0x20\n    /* \"#utility.yul\":9956:9959   */\n  dup3\n    /* \"#utility.yul\":9952:9966   */\n  add\n    /* \"#utility.yul\":9937:9966   */\n  swap1\n  pop\n    /* \"#utility.yul\":9803:9972   */\n  swap3\n  swap2\n  pop\n  pop\n  jump\t// out\n    /* \"#utility.yul\":9978:10204   */\ntag_87:\n    /* \"#utility.yul\":10118:10152   */\n  0x496e697469616c20737570706c792063616e6e6f7420657863656564206d6178\n    /* \"#utility.yul\":10114:10115   */\n  0x00\n    /* \"#utility.yul\":10106:10112   */\n  dup3\n    /* \"#utility.yul\":10102:10116   */\n  add\n    /* \"#utility.yul\":10095:10153   */\n  mstore\n    /* \"#utility.yul\":10187:10196   */\n  0x20737570706c7900000000000000000000000000000000000000000000000000\n    /* \"#utility.yul\":10182:10184   */\n  0x20\n    /* \"#utility.yul\":10174:10180   */\n  dup3\n    /* \"#utility.yul\":10170:10185   */\n  add\n    /* \"#utility.yul\":10163:10197   */\n  mstore\n    /* \"#utility.yul\":9978:10204   */\n  pop\n  jump\t// out\n    /* \"#utility.yul\":10210:10576   */\ntag_88:\n    /* \"#utility.yul\":10352:10355   */\n  0x00\n    /* \"#utility.yul\":10373:10440   */\n  tag_212\n    /* \"#utility.yul\":10437:10439   */\n  0x27\n    /* \"#utility.yul\":10432:10435   */\n  dup4\n    /* \"#utility.yul\":10373:10440   */\n  tag_86\n  jump\t// in\ntag_212:\n    /* \"#utility.yul\":10366:10440   */\n  swap2\n  pop\n    /* \"#utility.yul\":10449:10542   */\n  tag_213\n    /* \"#utility.yul\":10538:10541   */\n  dup3\n    /* \"#utility.yul\":10449:10542   */\n  tag_87\n  jump\t// in\ntag_213:\n    /* \"#utility.yul\":10567:10569   */\n  0x40\n    /* \"#utility.yul\":10562:10565   */\n  dup3\n    /* \"#utility.yul\":10558:10570   */\n  add\n    /* \"#utility.yul\":10551:10570   */\n  swap1\n  pop\n    /* \"#utility.yul\":10210:10576   */\n  swap2\n  swap1\n  pop\n  jump\t// out\n    /* \"#utility.yul\":10582:11001   */\ntag_20:\n    /* \"#utility.yul\":10748:10752   */\n  0x00\n    /* \"#utility.yul\":10786:10788   */\n  0x20\n    /* \"#utility.yul\":10775:10784   */\n  dup3\n    /* \"#utility.yul\":10771:10789   */\n  add\n    /* \"#utility.yul\":10763:10789   */\n  swap1\n  pop\n    /* \"#utility.yul\":10835:10844   */\n  dup2\n    /* \"#utility.yul\":10829:10833   */\n  dup2\n    /* \"#utility.yul\":10825:10845   */\n  sub\n    /* \"#utility.yul\":10821:10822   */\n  0x00\n    /* \"#utility.yul\":10810:10819   */\n  dup4\n    /* \"#utility.yul\":10806:10823   */\n  add\n    /* \"#utility.yul\":10799:10846   */\n  mstore\n    /* \"#utility.yul\":10863:10994   */\n  tag_215\n    /* \"#utility.yul\":10989:10993   */\n  dup2\n    /* \"#utility.yul\":10863:10994   */\n  tag_88\n  jump\t// in\ntag_215:\n    /* \"#utility.yul\":10855:10994   */\n  swap1\n  pop\n    /* \"#utility.yul\":10582:11001   */\n  swap2\n  swap1\n  pop\n  jump\t// out\n    /* \"#utility.yul\":11007:11187   */\ntag_89:\n    /* \"#utility.yul\":11055:11132   */\n  0x4e487b7100000000000000000000000000000000000000000000000000000000\n    /* \"#utility.yul\":11052:11053   */\n  0x00\n    /* \"#utility.yul\":11045:11133   */\n  mstore\n    /* \"#utility.yul\":11152:11156   */\n  0x11\n    /* \"#utility.yul\":11149:11150   */\n  0x04\n    /* \"#utility.yul\":11142:11157   */\n  mstore\n    /* \"#utility.yul\":11176:11180   */\n  0x24\n    /* \"#utility.yul\":11173:11174   */\n  0x00\n    /* \"#utility.yul\":11166:11181   */\n  revert\n    /* \"#utility.yul\":11193:11295   */\ntag_90:\n    /* \"#utility.yul\":11235:11243   */\n  0x00\n    /* \"#utility.yul\":11282:11287   */\n  dup2\n    /* \"#utility.yul\":11279:11280   */\n  0x01\n    /* \"#utility.yul\":11275:11288   */\n  shr\n    /* \"#utility.yul\":11254:11288   */\n  swap1\n  pop\n    /* \"#utility.yul\":11193:11295   */\n  swap2\n  swap1\n  pop\n  jump\t// out\n    /* \"#utility.yul\":11301:12149   */\ntag_91:\n    /* \"#utility.yul\":11362:11367   */\n  0x00\n    /* \"#utility.yul\":11369:11373   */\n  dup1\n    /* \"#utility.yul\":11393:11399   */\n  dup3\n    /* \"#utility.yul\":11384:11399   */\n  swap2\n  pop\n    /* \"#utility.yul\":11417:11422   */\n  dup4\n    /* \"#utility.yul\":11408:11422   */\n  swap1\n  pop\n    /* \"#utility.yul\":11431:12143   */\ntag_219:\n    /* \"#utility.yul\":11452:11453   */\n  0x01\n    /* \"#utility.yul\":11442:11450   */\n  dup6\n    /* \"#utility.yul\":11439:11454   */\n  gt\n    /* \"#utility.yul\":11431:12143   */\n  iszero\n  tag_221\n  jumpi\n    /* \"#utility.yul\":11547:11551   */\n  dup1\n    /* \"#utility.yul\":11542:11545   */\n  dup7\n    /* \"#utility.yul\":11538:11552   */\n  div\n    /* \"#utility.yul\":11532:11536   */\n  dup2\n    /* \"#utility.yul\":11529:11553   */\n  gt\n    /* \"#utility.yul\":11526:11576   */\n  iszero\n  tag_222\n  jumpi\n    /* \"#utility.yul\":11556:11574   */\n  tag_223\n  tag_89\n  jump\t// in\ntag_223:\n    /* \"#utility.yul\":11526:11576   */\ntag_222:\n    /* \"#utility.yul\":11606:11607   */\n  0x01\n    /* \"#utility.yul\":11596:11604   */\n  dup6\n    /* \"#utility.yul\":11592:11608   */\n  and\n    /* \"#utility.yul\":11589:12040   */\n  iszero\n  tag_224\n  jumpi\n    /* \"#utility.yul\":12021:12025   */\n  dup1\n    /* \"#utility.yul\":12014:12019   */\n  dup3\n    /* \"#utility.yul\":12010:12026   */\n  mul\n    /* \"#utility.yul\":12001:12026   */\n  swap2\n  pop\n    /* \"#utility.yul\":11589:12040   */\ntag_224:\n    /* \"#utility.yul\":12071:12075   */\n  dup1\n    /* \"#utility.yul\":12065:12069   */\n  dup2\n    /* \"#utility.yul\":12061:12076   */\n  mul\n    /* \"#utility.yul\":12053:12076   */\n  swap1\n  pop\n    /* \"#utility.yul\":12101:12133   */\n  tag_225\n    /* \"#utility.yul\":12124:12132   */\n  dup6\n    /* \"#utility.yul\":12101:12133   */\n  tag_90\n  jump\t// in\ntag_225:\n    /* \"#utility.yul\":12089:12133   */\n  swap5\n  pop\n    /* \"#utility.yul\":11431:12143   */\n  jump(tag_219)\ntag_221:\n    /* \"#utility.yul\":11301:12149   */\n  swap5\n  pop\n  swap5\n  swap3\n  pop\n  pop\n  pop\n  jump\t// out\n    /* \"#utility.yul\":12155:13228   */\ntag_92:\n    /* \"#utility.yul\":12209:12214   */\n  0x00\n    /* \"#utility.yul\":12400:12408   */\n  dup3\n    /* \"#utility.yul\":12390:12430   */\n  tag_227\n  jumpi\n    /* \"#utility.yul\":12421:12422   */\n  0x01\n    /* \"#utility.yul\":12412:12422   */\n  swap1\n  pop\n    /* \"#utility.yul\":12423:12428   */\n  jump(tag_226)\n    /* \"#utility.yul\":12390:12430   */\ntag_227:\n    /* \"#utility.yul\":12449:12453   */\n  dup2\n    /* \"#utility.yul\":12439:12475   */\n  tag_228\n  jumpi\n    /* \"#utility.yul\":12466:12467   */\n  0x00\n    /* \"#utility.yul\":12457:12467   */\n  swap1\n  pop\n    /* \"#utility.yul\":12468:12473   */\n  jump(tag_226)\n    /* \"#utility.yul\":12439:12475   */\ntag_228:\n    /* \"#utility.yul\":12535:12539   */\n  dup2\n    /* \"#utility.yul\":12583:12584   */\n  0x01\n    /* \"#utility.yul\":12578:12605   */\n  dup2\n  eq\n  tag_230\n  jumpi\n    /* \"#utility.yul\":12619:12620   */\n  0x02\n    /* \"#utility.yul\":12614:12805   */\n  dup2\n  eq\n  tag_231\n  jumpi\n    /* \"#utility.yul\":12528:12805   */\n  jump(tag_229)\n    /* \"#utility.yul\":12578:12605   */\ntag_230:\n    /* \"#utility.yul\":12596:12597   */\n  0x01\n    /* \"#utility.yul\":12587:12597   */\n  swap2\n  pop\n    /* \"#utility.yul\":12598:12603   */\n  pop\n  jump(tag_226)\n    /* \"#utility.yul\":12614:12805   */\ntag_231:\n    /* \"#utility.yul\":12659:12662   */\n  0xff\n    /* \"#utility.yul\":12649:12657   */\n  dup5\n    /* \"#utility.yul\":12646:12663   */\n  gt\n    /* \"#utility.yul\":12643:12686   */\n  iszero\n  tag_232\n  jumpi\n    /* \"#utility.yul\":12666:12684   */\n  tag_233\n  tag_89\n  jump\t// in\ntag_233:\n    /* \"#utility.yul\":12643:12686   */\ntag_232:\n    /* \"#utility.yul\":12715:12723   */\n  dup4\n    /* \"#utility.yul\":12712:12713   */\n  0x02\n    /* \"#utility.yul\":12708:12724   */\n  exp\n    /* \"#utility.yul\":12699:12724   */\n  swap2\n  pop\n    /* \"#utility.yul\":12750:12753   */\n  dup5\n    /* \"#utility.yul\":12743:12748   */\n  dup3\n    /* \"#utility.yul\":12740:12754   */\n  gt\n    /* \"#utility.yul\":12737:12777   */\n  iszero\n  tag_234\n  jumpi\n    /* \"#utility.yul\":12757:12775   */\n  tag_235\n  tag_89\n  jump\t// in\ntag_235:\n    /* \"#utility.yul\":12737:12777   */\ntag_234:\n    /* \"#utility.yul\":12790:12795   */\n  pop\n  jump(tag_226)\n    /* \"#utility.yul\":12528:12805   */\ntag_229:\n  pop\n    /* \"#utility.yul\":12914:12916   */\n  0x20\n    /* \"#utility.yul\":12904:12912   */\n  dup4\n    /* \"#utility.yul\":12901:12917   */\n  lt\n    /* \"#utility.yul\":12895:12898   */\n  0x0133\n    /* \"#utility.yul\":12889:12893   */\n  dup4\n    /* \"#utility.yul\":12886:12899   */\n  lt\n    /* \"#utility.yul\":12882:12918   */\n  and\n    /* \"#utility.yul\":12864:12866   */\n  0x4e\n    /* \"#utility.yul\":12854:12862   */\n  dup5\n    /* \"#utility.yul\":12851:12867   */\n  lt\n    /* \"#utility.yul\":12846:12848   */\n  0x0b\n    /* \"#utility.yul\":12840:12844   */\n  dup5\n    /* \"#utility.yul\":12837:12849   */\n  lt\n    /* \"#utility.yul\":12833:12868   */\n  and\n    /* \"#utility.yul\":12817:12928   */\n  or\n    /* \"#utility.yul\":12814:13060   */\n  iszero\n  tag_236\n  jumpi\n    /* \"#utility.yul\":12970:12978   */\n  dup3\n    /* \"#utility.yul\":12964:12968   */\n  dup3\n    /* \"#utility.yul\":12960:12979   */\n  exp\n    /* \"#utility.yul\":12951:12979   */\n  swap1\n  pop\n    /* \"#utility.yul\":13005:13008   */\n  dup4\n    /* \"#utility.yul\":12998:13003   */\n  dup2\n    /* \"#utility.yul\":12995:13009   */\n  gt\n    /* \"#utility.yul\":12992:13032   */\n  iszero\n  tag_237\n  jumpi\n    /* \"#utility.yul\":13012:13030   */\n  tag_238\n  tag_89\n  jump\t// in\ntag_238:\n    /* \"#utility.yul\":12992:13032   */\ntag_237:\n    /* \"#utility.yul\":13045:13050   */\n  jump(tag_226)\n    /* \"#utility.yul\":12814:13060   */\ntag_236:\n    /* \"#utility.yul\":13085:13127   */\n  tag_239\n    /* \"#utility.yul\":13123:13126   */\n  dup5\n    /* \"#utility.yul\":13113:13121   */\n  dup5\n    /* \"#utility.yul\":13107:13111   */\n  dup5\n    /* \"#utility.yul\":13104:13105   */\n  0x01\n    /* \"#utility.yul\":13085:13127   */\n  tag_91\n  jump\t// in\ntag_239:\n    /* \"#utility.yul\":13070:13127   */\n  swap3\n  pop\n  swap1\n  pop\n    /* \"#utility.yul\":13159:13163   */\n  dup2\n    /* \"#utility.yul\":13154:13157   */\n  dup5\n    /* \"#utility.yul\":13150:13164   */\n  div\n    /* \"#utility.yul\":13143:13148   */\n  dup2\n    /* \"#utility.yul\":13140:13165   */\n  gt\n    /* \"#utility.yul\":13137:13188   */\n  iszero\n  tag_240\n  jumpi\n    /* \"#utility.yul\":13168:13186   */\n  tag_241\n  tag_89\n  jump\t// in\ntag_241:\n    /* \"#utility.yul\":13137:13188   */\ntag_240:\n    /* \"#utility.yul\":13217:13221   */\n  dup2\n    /* \"#utility.yul\":13210:13215   */\n  dup2\n    /* \"#utility.yul\":13206:13222   */\n  mul\n    /* \"#utility.yul\":13197:13222   */\n  swap1\n  pop\n    /* \"#utility.yul\":12155:13228   */\ntag_226:\n  swap4\n  swap3\n  pop\n  pop\n  pop\n  jump\t// out\n    /* \"#utility.yul\":13234:13320   */\ntag_93:\n    /* \"#utility.yul\":13269:13276   */\n  0x00\n    /* \"#utility.yul\":13309:13313   */\n  0xff\n    /* \"#utility.yul\":13302:13307   */\n  dup3\n    /* \"#utility.yul\":13298:13314   */\n  and\n    /* \"#utility.yul\":13287:13314   */\n  swap1\n  pop\n    /* \"#utility.yul\":13234:13320   */\n  swap2\n  swap1\n  pop\n  jump\t// out\n    /* \"#utility.yul\":13326:13607   */\ntag_25:\n    /* \"#utility.yul\":13384:13389   */\n  0x00\n    /* \"#utility.yul\":13408:13431   */\n  tag_244\n    /* \"#utility.yul\":13426:13430   */\n  dup3\n    /* \"#utility.yul\":13408:13431   */\n  tag_62\n  jump\t// in\ntag_244:\n    /* \"#utility.yul\":13400:13431   */\n  swap2\n  pop\n    /* \"#utility.yul\":13452:13477   */\n  tag_245\n    /* \"#utility.yul\":13468:13476   */\n  dup4\n    /* \"#utility.yul\":13452:13477   */\n  tag_93\n  jump\t// in\ntag_245:\n    /* \"#utility.yul\":13440:13477   */\n  swap3\n  pop\n    /* \"#utility.yul\":13496:13600   */\n  tag_246\n    /* \"#utility.yul\":13533:13599   */\n  0xffffffffffffffffffffffffffffffffffffffffffffffffffffffffffffffff\n    /* \"#utility.yul\":13523:13531   */\n  dup5\n    /* \"#utility.yul\":13517:13521   */\n  dup5\n    /* \"#utility.yul\":13496:13600   */\n  tag_92\n  jump\t// in\ntag_246:\n    /* \"#utility.yul\":13487:13600   */\n  swap1\n  pop\n    /* \"#utility.yul\":13326:13607   */\n  swap3\n  swap2\n  pop\n  pop\n  jump\t// out\n    /* \"#utility.yul\":13613:14023   */\ntag_27:\n    /* \"#utility.yul\":13653:13660   */\n  0x00\n    /* \"#utility.yul\":13676:13696   */\n  tag_248\n    /* \"#utility.yul\":13694:13695   */\n  dup3\n    /* \"#utility.yul\":13676:13696   */\n  tag_62\n  jump\t// in\ntag_248:\n    /* \"#utility.yul\":13671:13696   */\n  swap2\n  pop\n    /* \"#utility.yul\":13710:13730   */\n  tag_249\n    /* \"#utility.yul\":13728:13729   */\n  dup4\n    /* \"#utility.yul\":13710:13730   */\n  tag_62\n  jump\t// in\ntag_249:\n    /* \"#utility.yul\":13705:13730   */\n  swap3\n  pop\n    /* \"#utility.yul\":13765:13766   */\n  dup3\n    /* \"#utility.yul\":13762:13763   */\n  dup3\n    /* \"#utility.yul\":13758:13767   */\n  mul\n    /* \"#utility.yul\":13787:13817   */\n  tag_250\n    /* \"#utility.yul\":13805:13816   */\n  dup2\n    /* \"#utility.yul\":13787:13817   */\n  tag_62\n  jump\t// in\ntag_250:\n    /* \"#utility.yul\":13776:13817   */\n  swap2\n  pop\n    /* \"#utility.yul\":13966:13967   */\n  dup3\n    /* \"#utility.yul\":13957:13964   */\n  dup3\n    /* \"#utility.yul\":13953:13968   */\n  div\n    /* \"#utility.yul\":13950:13951   */\n  dup5\n    /* \"#utility.yul\":13947:13969   */\n  eq\n    /* \"#utility.yul\":13927:13928   */\n  dup4\n    /* \"#utility.yul\":13920:13929   */\n  iszero\n    /* \"#utility.yul\":13900:13983   */\n  or\n    /* \"#utility.yul\":13877:14016   */\n  tag_251\n  jumpi\n    /* \"#utility.yul\":13996:14014   */\n  tag_252\n  tag_89\n  jump\t// in\ntag_252:\n    /* \"#utility.yul\":13877:14016   */\ntag_251:\n    /* \"#utility.yul\":13661:14023   */\n  pop\n    /* \"#utility.yul\":13613:14023   */\n  swap3\n  swap2\n  pop\n  pop\n  jump\t// out\n    /* \"#utility.yul\":14029:14220   */\ntag_40:\n    /* \"#utility.yul\":14069:14072   */\n  0x00\n    /* \"#utility.yul\":14088:14108   */\n  tag_254\n    /* \"#utility.yul\":14106:14107   */\n  dup3\n    /* \"#utility.yul\":14088:14108   */\n  tag_62\n  jump\t// in\ntag_254:\n    /* \"#utility.yul\":14083:14108   */\n  swap2\n  pop\n    /* \"#utility.yul\":14122:14142   */\n  tag_255\n    /* \"#utility.yul\":14140:14141   */\n  dup4\n    /* \"#utility.yul\":14122:14142   */\n  tag_62\n  jump\t// in\ntag_255:\n    /* \"#utility.yul\":14117:14142   */\n  swap3\n  pop\n    /* \"#utility.yul\":14165:14166   */\n  dup3\n    /* \"#utility.yul\":14162:14163   */\n  dup3\n    /* \"#utility.yul\":14158:14167   */\n  add\n    /* \"#utility.yul\":14151:14167   */\n  swap1\n  pop\n    /* \"#utility.yul\":14186:14189   */\n  dup1\n    /* \"#utility.yul\":14183:14184   */\n  dup3\n    /* \"#utility.yul\":14180:14190   */\n  gt\n    /* \"#utility.yul\":14177:14213   */\n  iszero\n  tag_256\n  jumpi\n    /* \"#utility.yul\":14193:14211   */\n  tag_257\n  tag_89\n  jump\t// in\ntag_257:\n    /* \"#utility.yul\":14177:14213   */\ntag_256:\n    /* \"#utility.yul\":14029:14220   */\n  swap3\n  swap2\n  pop\n  pop\n  jump\t// out\n    /* \"#utility.yul\":14226:14344   */\ntag_94:\n    /* \"#utility.yul\":14313:14337   */\n  tag_259\n    /* \"#utility.yul\":14331:14336   */\n  dup2\n    /* \"#utility.yul\":14313:14337   */\n  tag_62\n  jump\t// in\ntag_259:\n    /* \"#utility.yul\":14308:14311   */\n  dup3\n    /* \"#utility.yul\":14301:14338   */\n  mstore\n    /* \"#utility.yul\":14226:14344   */\n  pop\n  pop\n  jump\t// out\n    /* \"#utility.yul\":14350:14792   */\ntag_44:\n    /* \"#utility.yul\":14499:14503   */\n  0x00\n    /* \"#utility.yul\":14537:14539   */\n  0x60\n    /* \"#utility.yul\":14526:14535   */\n  dup3\n    /* \"#utility.yul\":14522:14540   */\n  add\n    /* \"#utility.yul\":14514:14540   */\n  swap1\n  pop\n    /* \"#utility.yul\":14550:14621   */\n  tag_261\n    /* \"#utility.yul\":14618:14619   */\n  0x00\n    /* \"#utility.yul\":14607:14616   */\n  dup4\n    /* \"#utility.yul\":14603:14620   */\n  add\n    /* \"#utility.yul\":14594:14600   */\n  dup7\n    /* \"#utility.yul\":14550:14621   */\n  tag_85\n  jump\t// in\ntag_261:\n    /* \"#utility.yul\":14631:14703   */\n  tag_262\n    /* \"#utility.yul\":14699:14701   */\n  0x20\n    /* \"#utility.yul\":14688:14697   */\n  dup4\n    /* \"#utility.yul\":14684:14702   */\n  add\n    /* \"#utility.yul\":14675:14681   */\n  dup6\n    /* \"#utility.yul\":14631:14703   */\n  tag_94\n  jump\t// in\ntag_262:\n    /* \"#utility.yul\":14713:14785   */\n  tag_263\n    /* \"#utility.yul\":14781:14783   */\n  0x40\n    /* \"#utility.yul\":14770:14779   */\n  dup4\n    /* \"#utility.yul\":14766:14784   */\n  add\n    /* \"#utility.yul\":14757:14763   */\n  dup5\n    /* \"#utility.yul\":14713:14785   */\n  tag_94\n  jump\t// in\ntag_263:\n    /* \"#utility.yul\":14350:14792   */\n  swap5\n  swap4\n  pop\n  pop\n  pop\n  pop\n  jump\t// out\n    /* \"#utility.yul\":14798:15020   */\ntag_48:\n    /* \"#utility.yul\":14891:14895   */\n  0x00\n    /* \"#utility.yul\":14929:14931   */\n  0x20\n    /* \"#utility.yul\":14918:14927   */\n  dup3\n    /* \"#utility.yul\":14914:14932   */\n  add\n    /* \"#utility.yul\":14906:14932   */\n  swap1\n  pop\n    /* \"#utility.yul\":14942:15013   */\n  tag_265\n    /* \"#utility.yul\":15010:15011   */\n  0x00\n    /* \"#utility.yul\":14999:15008   */\n  dup4\n    /* \"#utility.yul\":14995:15012   */\n  add\n    /* \"#utility.yul\":14986:14992   */\n  dup5\n    /* \"#utility.yul\":14942:15013   */\n  tag_94\n  jump\t// in\ntag_265:\n    /* \"#utility.yul\":14798:15020   */\n  swap3\n  swap2\n  pop\n  pop\n  jump\t// out\n    /* \"contracts/MyToken.sol\":315:3783  contract MyToken is ERC20, Ownable {... */\ntag_29:\n  dataSize(sub_0)\n  dup1\n  dataOffset(sub_0)\n  0x00\n  codecopy\n  0x00\n  return\nstop\n\nsub_0: assembly {\n        /* \"contracts/MyToken.sol\":315:3783  contract MyToken is ERC20, Ownable {... */\n      mstore(0x40, 0x80)\n      jumpi(tag_1, lt(calldatasize, 0x04))\n      shr(0xe0, calldataload(0x00))\n      dup1\n      0x7ff9b596\n      gt\n      tag_24\n      jumpi\n      dup1\n      0xd0febe4c\n      gt\n      tag_25\n      jumpi\n      dup1\n      0xd0febe4c\n      eq\n      tag_18\n      jumpi\n      dup1\n      0xd5abeb01\n      eq\n      tag_19\n      jumpi\n      dup1\n      0xdd62ed3e\n      eq\n      tag_20\n      jumpi\n      dup1\n      0xe086e5ec\n      eq\n      tag_21\n      jumpi\n      dup1\n      0xe4b7fb73\n      eq\n      tag_22\n      jumpi\n      dup1\n      0xf2fde38b\n      eq\n      tag_23\n      jumpi\n      jump(tag_1)\n    tag_25:\n      dup1\n      0x7ff9b596\n      eq\n      tag_13\n      jumpi\n      dup1\n      0x8da5cb5b\n      eq\n      tag_14\n      jumpi\n      dup1\n      0x95d89b41\n      eq\n      tag_15\n      jumpi\n      dup1\n      0xa9059cbb\n      eq\n      tag_16\n      jumpi\n      dup1\n      0xc4e41b22\n      eq\n      tag_17\n      jumpi\n      jump(tag_1)\n    tag_24:\n      dup1\n      0x40c10f19\n      gt\n      tag_26\n      jumpi\n      dup1\n      0x40c10f19\n      eq\n      tag_7\n      jumpi\n      dup1\n      0x5f515226\n      eq\n      tag_8\n      jumpi\n      dup1\n      0x6a61e5fc\n      eq\n      tag_9\n      jumpi\n      dup1\n      0x6f9fb98a\n      eq\n      tag_10\n      jumpi\n      dup1\n      0x70a08231\n      eq\n      tag_11\n      jumpi\n      dup1\n      0x715018a6\n      eq\n      tag_12\n      jumpi\n      jump(tag_1)\n    tag_26:\n      dup1\n      0x06fdde03\n      eq\n      tag_2\n      jumpi\n      dup1\n      0x095ea7b3\n      eq\n      tag_3\n      jumpi\n      dup1\n      0x18160ddd\n      eq\n      tag_4\n      jumpi\n      dup1\n      0x23b872dd\n      eq\n      tag_5\n      jumpi\n      dup1\n      0x313ce567\n      eq\n      tag_6\n      jumpi\n    tag_1:\n      0x00\n      dup1\n      revert\n        /* \"@openzeppelin/contracts/token/ERC20/ERC20.sol\":1779:1868  function name() public view virtual returns (string memory) {... */\n    tag_2:\n      callvalue\n      dup1\n      iszero\n      tag_27\n      jumpi\n      0x00\n      dup1\n      revert\n    tag_27:\n      pop\n      tag_28\n      tag_29\n      jump\t// in\n    tag_28:\n      mload(0x40)\n      tag_30\n      swap2\n      swap1\n      tag_31\n      jump\t// in\n    tag_30:\n      mload(0x40)\n      dup1\n      swap2\n      sub\n      swap1\n      return\n        /* \"@openzeppelin/contracts/token/ERC20/ERC20.sol\":3998:4184  function approve(address spender, uint256 value) public virtual returns (bool) {... */\n    tag_3:\n      callvalue\n      dup1\n      iszero\n      tag_32\n      jumpi\n      0x00\n      dup1\n      revert\n    tag_32:\n      pop\n      tag_33\n      0x04\n      dup1\n      calldatasize\n      sub\n      dup2\n      add\n      swap1\n      tag_34\n      swap2\n      swap1\n      tag_35\n      jump\t// in\n    tag_34:\n      tag_36\n      jump\t// in\n    tag_33:\n      mload(0x40)\n      tag_37\n      swap2\n      swap1\n      tag_38\n      jump\t// in\n    tag_37:\n      mload(0x40)\n      dup1\n      swap2\n      sub\n      swap1\n      return\n        /* \"@openzeppelin/contracts/token/ERC20/ERC20.sol\":2849:2946  function totalSupply() public view virtual returns (uint256) {... */\n    tag_4:\n      callvalue\n      dup1\n      iszero\n      tag_39\n      jumpi\n      0x00\n      dup1\n      revert\n    tag_39:\n      pop\n      tag_40\n      tag_41\n      jump\t// in\n    tag_40:\n      mload(0x40)\n      tag_42\n      swap2\n      swap1\n      tag_43\n      jump\t// in\n    tag_42:\n      mload(0x40)\n      dup1\n      swap2\n      sub\n      swap1\n      return\n        /* \"@openzeppelin/contracts/token/ERC20/ERC20.sol\":4776:5020  function transferFrom(address from, address to, uint256 value) public virtual returns (bool) {... */\n    tag_5:\n      callvalue\n      dup1\n      iszero\n      tag_44\n      jumpi\n      0x00\n      dup1\n      revert\n    tag_44:\n      pop\n      tag_45\n      0x04\n      dup1\n      calldatasize\n      sub\n      dup2\n      add\n      swap1\n      tag_46\n      swap2\n      swap1\n      tag_47\n      jump\t// in\n    tag_46:\n      tag_48\n      jump\t// in\n    tag_45:\n      mload(0x40)\n      tag_49\n      swap2\n      swap1\n      tag_38\n      jump\t// in\n    tag_49:\n      mload(0x40)\n      dup1\n      swap2\n      sub\n      swap1\n      return\n        /* \"@openzeppelin/contracts/token/ERC20/ERC20.sol\":2707:2789  function decimals() public view virtual returns (uint8) {... */\n    tag_6:\n      callvalue\n      dup1\n      iszero\n      tag_50\n      jumpi\n      0x00\n      dup1\n      revert\n    tag_50:\n      pop\n      tag_51\n      tag_52\n      jump\t// in\n    tag_51:\n      mload(0x40)\n      tag_53\n      swap2\n      swap1\n      tag_54\n      jump\t// in\n    tag_53:\n      mload(0x40)\n      dup1\n      swap2\n      sub\n      swap1\n      return\n        /* \"contracts/MyToken.sol\":1563:1749  function mint(address to, uint256 amount) public onlyOwner {... */\n    tag_7:\n      callvalue\n      dup1\n      iszero\n      tag_55\n      jumpi\n      0x00\n      dup1\n      revert\n    tag_55:\n      pop\n      tag_56\n      0x04\n      dup1\n      calldatasize\n      sub\n      dup2\n      add\n      swap1\n      tag_57\n      swap2\n      swap1\n      tag_35\n      jump\t// in\n    tag_57:\n      tag_58\n      jump\t// in\n    tag_56:\n      stop\n        /* \"contracts/MyToken.sol\":3231:3342  function checkBalance(address account) public view returns (uint256) {... */\n    tag_8:\n      callvalue\n      dup1\n      iszero\n      tag_59\n      jumpi\n      0x00\n      dup1\n      revert\n    tag_59:\n      pop\n      tag_60\n      0x04\n      dup1\n      calldatasize\n      sub\n      dup2\n      add\n      swap1\n      tag_61\n      swap2\n      swap1\n      tag_62\n      jump\t// in\n    tag_61:\n      tag_63\n      jump\t// in\n    tag_60:\n      mload(0x40)\n      tag_64\n      swap2\n      swap1\n      tag_43\n      jump\t// in\n    tag_64:\n      mload(0x40)\n      dup1\n      swap2\n      sub\n      swap1\n      return\n        /* \"contracts/MyToken.sol\":2925:3087  function setTokenPrice(uint256 _newPrice) public onlyOwner {... */\n    tag_9:\n      callvalue\n      dup1\n      iszero\n      tag_65\n      jumpi\n      0x00\n      dup1\n      revert\n    tag_65:\n      pop\n      tag_66\n      0x04\n      dup1\n      calldatasize\n      sub\n      dup2\n      add\n      swap1\n      tag_67\n      swap2\n      swap1\n      tag_68\n      jump\t// in\n    tag_67:\n      tag_69\n      jump\t// in\n    tag_66:\n      stop\n        /* \"contracts/MyToken.sol\":2419:2534  function getContractBalance() public view onlyOwner returns (uint256) {... */\n    tag_10:\n      callvalue\n      dup1\n      iszero\n      tag_70\n      jumpi\n      0x00\n      dup1\n      revert\n    tag_70:\n      pop\n      tag_71\n      tag_72\n      jump\t// in\n    tag_71:\n      mload(0x40)\n      tag_73\n      swap2\n      swap1\n      tag_43\n      jump\t// in\n    tag_73:\n      mload(0x40)\n      dup1\n      swap2\n      sub\n      swap1\n      return\n        /* \"@openzeppelin/contracts/token/ERC20/ERC20.sol\":3004:3120  function balanceOf(address account) public view virtual returns (uint256) {... */\n    tag_11:\n      callvalue\n      dup1\n      iszero\n      tag_74\n      jumpi\n      0x00\n      dup1\n      revert\n    tag_74:\n      pop\n      tag_75\n      0x04\n      dup1\n      calldatasize\n      sub\n      dup2\n      add\n      swap1\n      tag_76\n      swap2\n      swap1\n      tag_62\n      jump\t// in\n    tag_76:\n      tag_77\n      jump\t// in\n    tag_75:\n      mload(0x40)\n      tag_78\n      swap2\n      swap1\n      tag_43\n      jump\t// in\n    tag_78:\n      mload(0x40)\n      dup1\n      swap2\n      sub\n      swap1\n      return\n        /* \"@openzeppelin/contracts/access/Ownable.sol\":2293:2394  function renounceOwnership() public virtual onlyOwner {... */\n    tag_12:\n      callvalue\n      dup1\n      iszero\n      tag_79\n      jumpi\n      0x00\n      dup1\n      revert\n    tag_79:\n      pop\n      tag_80\n      tag_81\n      jump\t// in\n    tag_80:\n      stop\n        /* \"contracts/MyToken.sol\":399:424  uint256 public tokenPrice */\n    tag_13:\n      callvalue\n      dup1\n      iszero\n      tag_82\n      jumpi\n      0x00\n      dup1\n      revert\n    tag_82:\n      pop\n      tag_83\n      tag_84\n      jump\t// in\n    tag_83:\n      mload(0x40)\n      tag_85\n      swap2\n      swap1\n      tag_43\n      jump\t// in\n    tag_85:\n      mload(0x40)\n      dup1\n      swap2\n      sub\n      swap1\n      return\n        /* \"@openzeppelin/contracts/access/Ownable.sol\":1638:1723  function owner() public view virtual returns (address) {... */\n    tag_14:\n      callvalue\n      dup1\n      iszero\n      tag_86\n      jumpi\n      0x00\n      dup1\n      revert\n    tag_86:\n      pop\n      tag_87\n      tag_88\n      jump\t// in\n    tag_87:\n      mload(0x40)\n      tag_89\n      swap2\n      swap1\n      tag_90\n      jump\t// in\n    tag_89:\n      mload(0x40)\n      dup1\n      swap2\n      sub\n      swap1\n      return\n        /* \"@openzeppelin/contracts/token/ERC20/ERC20.sol\":1981:2074  function symbol() public view virtual returns (string memory) {... */\n    tag_15:\n      callvalue\n      dup1\n      iszero\n      tag_91\n      jumpi\n      0x00\n      dup1\n      revert\n    tag_91:\n      pop\n      tag_92\n      tag_93\n      jump\t// in\n    tag_92:\n      mload(0x40)\n      tag_94\n      swap2\n      swap1\n      tag_31\n      jump\t// in\n    tag_94:\n      mload(0x40)\n      dup1\n      swap2\n      sub\n      swap1\n      return\n        /* \"@openzeppelin/contracts/token/ERC20/ERC20.sol\":3315:3493  function transfer(address to, uint256 value) public virtual returns (bool) {... */\n    tag_16:\n      callvalue\n      dup1\n      iszero\n      tag_95\n      jumpi\n      0x00\n      dup1\n      revert\n    tag_95:\n      pop\n      tag_96\n      0x04\n      dup1\n      calldatasize\n      sub\n      dup2\n      add\n      swap1\n      tag_97\n      swap2\n      swap1\n      tag_35\n      jump\t// in\n    tag_97:\n      tag_98\n      jump\t// in\n    tag_96:\n      mload(0x40)\n      tag_99\n      swap2\n      swap1\n      tag_38\n      jump\t// in\n    tag_99:\n      mload(0x40)\n      dup1\n      swap2\n      sub\n      swap1\n      return\n        /* \"contracts/MyToken.sol\":3441:3534  function getTotalSupply() public view returns (uint256) {... */\n    tag_17:\n      callvalue\n      dup1\n      iszero\n      tag_100\n      jumpi\n      0x00\n      dup1\n      revert\n    tag_100:\n      pop\n      tag_101\n      tag_102\n      jump\t// in\n    tag_101:\n      mload(0x40)\n      tag_103\n      swap2\n      swap1\n      tag_43\n      jump\t// in\n    tag_103:\n      mload(0x40)\n      dup1\n      swap2\n      sub\n      swap1\n      return\n        /* \"contracts/MyToken.sol\":1814:2336  function buyTokens() public payable {... */\n    tag_18:\n      tag_104\n      tag_105\n      jump\t// in\n    tag_104:\n      stop\n        /* \"contracts/MyToken.sol\":463:487  uint256 public maxSupply */\n    tag_19:\n      callvalue\n      dup1\n      iszero\n      tag_106\n      jumpi\n      0x00\n      dup1\n      revert\n    tag_106:\n      pop\n      tag_107\n      tag_108\n      jump\t// in\n    tag_107:\n      mload(0x40)\n      tag_109\n      swap2\n      swap1\n      tag_43\n      jump\t// in\n    tag_109:\n      mload(0x40)\n      dup1\n      swap2\n      sub\n      swap1\n      return\n        /* \"@openzeppelin/contracts/token/ERC20/ERC20.sol\":3551:3691  function allowance(address owner, address spender) public view virtual returns (uint256) {... */\n    tag_20:\n      callvalue\n      dup1\n      iszero\n      tag_110\n      jumpi\n      0x00\n      dup1\n      revert\n    tag_110:\n      pop\n      tag_111\n      0x04\n      dup1\n      calldatasize\n      sub\n      dup2\n      add\n      swap1\n      tag_112\n      swap2\n      swap1\n      tag_113\n      jump\t// in\n    tag_112:\n      tag_114\n      jump\t// in\n    tag_111:\n      mload(0x40)\n      tag_115\n      swap2\n      swap1\n      tag_43\n      jump\t// in\n    tag_115:\n      mload(0x40)\n      dup1\n      swap2\n      sub\n      swap1\n      return\n        /* \"contracts/MyToken.sol\":2618:2796  function withdrawETH() public onlyOwner {... */\n    tag_21:\n      callvalue\n      dup1\n      iszero\n      tag_116\n      jumpi\n      0x00\n      dup1\n      revert\n    tag_116:\n      pop\n      tag_117\n      tag_118\n      jump\t// in\n    tag_117:\n      stop\n        /* \"contracts/MyToken.sol\":3653:3781  function getRemainingSupply() public view returns (uint256) {... */\n    tag_22:\n      callvalue\n      dup1\n      iszero\n      tag_119\n      jumpi\n      0x00\n      dup1\n      revert\n    tag_119:\n      pop\n      tag_120\n      tag_121\n      jump\t// in\n    tag_120:\n      mload(0x40)\n      tag_122\n      swap2\n      swap1\n      tag_43\n      jump\t// in\n    tag_122:\n      mload(0x40)\n      dup1\n      swap2\n      sub\n      swap1\n      return\n        /* \"@openzeppelin/contracts/access/Ownable.sol\":2543:2758  function transferOwnership(address newOwner) public virtual onlyOwner {... */\n    tag_23:\n      callvalue\n      dup1\n      iszero\n      tag_123\n      jumpi\n      0x00\n      dup1\n      revert\n    tag_123:\n      pop\n      tag_124\n      0x04\n      dup1\n      calldatasize\n      sub\n      dup2\n      add\n      swap1\n      tag_125\n      swap2\n      swap1\n      tag_62\n      jump\t// in\n    tag_125:\n      tag_126\n      jump\t// in\n    tag_124:\n      stop\n        /* \"@openzeppelin/contracts/token/ERC20/ERC20.sol\":1779:1868  function name() public view virtual returns (string memory) {... */\n    tag_29:\n        /* \"@openzeppelin/contracts/token/ERC20/ERC20.sol\":1824:1837  string memory */\n      0x60\n        /* \"@openzeppelin/contracts/token/ERC20/ERC20.sol\":1856:1861  _name */\n      0x03\n        /* \"@openzeppelin/contracts/token/ERC20/ERC20.sol\":1849:1861  return _name */\n      dup1\n      sload\n      tag_128\n      swap1\n      tag_129\n      jump\t// in\n    tag_128:\n      dup1\n      0x1f\n      add\n      0x20\n      dup1\n      swap2\n      div\n      mul\n      0x20\n      add\n      mload(0x40)\n      swap1\n      dup2\n      add\n      0x40\n      mstore\n      dup1\n      swap3\n      swap2\n      swap1\n      dup2\n      dup2\n      mstore\n      0x20\n      add\n      dup3\n      dup1\n      sload\n      tag_130\n      swap1\n      tag_129\n      jump\t// in\n    tag_130:\n      dup1\n      iszero\n      tag_131\n      jumpi\n      dup1\n      0x1f\n      lt\n      tag_132\n      jumpi\n      0x0100\n      dup1\n      dup4\n      sload\n      div\n      mul\n      dup4\n      mstore\n      swap2\n      0x20\n      add\n      swap2\n      jump(tag_131)\n    tag_132:\n      dup3\n      add\n      swap2\n      swap1\n      0x00\n      mstore\n      keccak256(0x00, 0x20)\n      swap1\n    tag_133:\n      dup2\n      sload\n      dup2\n      mstore\n      swap1\n      0x01\n      add\n      swap1\n      0x20\n      add\n      dup1\n      dup4\n      gt\n      tag_133\n      jumpi\n      dup3\n      swap1\n      sub\n      0x1f\n      and\n      dup3\n      add\n      swap2\n    tag_131:\n      pop\n      pop\n      pop\n      pop\n      pop\n      swap1\n      pop\n        /* \"@openzeppelin/contracts/token/ERC20/ERC20.sol\":1779:1868  function name() public view virtual returns (string memory) {... */\n      swap1\n      jump\t// out\n        /* \"@openzeppelin/contracts/token/ERC20/ERC20.sol\":3998:4184  function approve(address spender, uint256 value) public virtual returns (bool) {... */\n    tag_36:\n        /* \"@openzeppelin/contracts/token/ERC20/ERC20.sol\":4071:4075  bool */\n      0x00\n        /* \"@openzeppelin/contracts/token/ERC20/ERC20.sol\":4087:4100  address owner */\n      dup1\n        /* \"@openzeppelin/contracts/token/ERC20/ERC20.sol\":4103:4115  _msgSender() */\n      tag_135\n        /* \"@openzeppelin/contracts/token/ERC20/ERC20.sol\":4103:4113  _msgSender */\n      tag_136\n        /* \"@openzeppelin/contracts/token/ERC20/ERC20.sol\":4103:4115  _msgSender() */\n      jump\t// in\n    tag_135:\n        /* \"@openzeppelin/contracts/token/ERC20/ERC20.sol\":4087:4115  address owner = _msgSender() */\n      swap1\n      pop\n        /* \"@openzeppelin/contracts/token/ERC20/ERC20.sol\":4125:4156  _approve(owner, spender, value) */\n      tag_137\n        /* \"@openzeppelin/contracts/token/ERC20/ERC20.sol\":4134:4139  owner */\n      dup2\n        /* \"@openzeppelin/contracts/token/ERC20/ERC20.sol\":4141:4148  spender */\n      dup6\n        /* \"@openzeppelin/contracts/token/ERC20/ERC20.sol\":4150:4155  value */\n      dup6\n        /* \"@openzeppelin/contracts/token/ERC20/ERC20.sol\":4125:4133  _approve */\n      tag_138\n        /* \"@openzeppelin/contracts/token/ERC20/ERC20.sol\":4125:4156  _approve(owner, spender, value) */\n      jump\t// in\n    tag_137:\n        /* \"@openzeppelin/contracts/token/ERC20/ERC20.sol\":4173:4177  true */\n      0x01\n        /* \"@openzeppelin/contracts/token/ERC20/ERC20.sol\":4166:4177  return true */\n      swap2\n      pop\n      pop\n        /* \"@openzeppelin/contracts/token/ERC20/ERC20.sol\":3998:4184  function approve(address spender, uint256 value) public virtual returns (bool) {... */\n      swap3\n      swap2\n      pop\n      pop\n      jump\t// out\n        /* \"@openzeppelin/contracts/token/ERC20/ERC20.sol\":2849:2946  function totalSupply() public view virtual returns (uint256) {... */\n    tag_41:\n        /* \"@openzeppelin/contracts/token/ERC20/ERC20.sol\":2901:2908  uint256 */\n      0x00\n        /* \"@openzeppelin/contracts/token/ERC20/ERC20.sol\":2927:2939  _totalSupply */\n      sload(0x02)\n        /* \"@openzeppelin/contracts/token/ERC20/ERC20.sol\":2920:2939  return _totalSupply */\n      swap1\n      pop\n        /* \"@openzeppelin/contracts/token/ERC20/ERC20.sol\":2849:2946  function totalSupply() public view virtual returns (uint256) {... */\n      swap1\n      jump\t// out\n        /* \"@openzeppelin/contracts/token/ERC20/ERC20.sol\":4776:5020  function transferFrom(address from, address to, uint256 value) public virtual returns (bool) {... */\n    tag_48:\n        /* \"@openzeppelin/contracts/token/ERC20/ERC20.sol\":4863:4867  bool */\n      0x00\n        /* \"@openzeppelin/contracts/token/ERC20/ERC20.sol\":4879:4894  address spender */\n      dup1\n        /* \"@openzeppelin/contracts/token/ERC20/ERC20.sol\":4897:4909  _msgSender() */\n      tag_141\n        /* \"@openzeppelin/contracts/token/ERC20/ERC20.sol\":4897:4907  _msgSender */\n      tag_136\n        /* \"@openzeppelin/contracts/token/ERC20/ERC20.sol\":4897:4909  _msgSender() */\n      jump\t// in\n    tag_141:\n        /* \"@openzeppelin/contracts/token/ERC20/ERC20.sol\":4879:4909  address spender = _msgSender() */\n      swap1\n      pop\n        /* \"@openzeppelin/contracts/token/ERC20/ERC20.sol\":4919:4956  _spendAllowance(from, spender, value) */\n      tag_142\n        /* \"@openzeppelin/contracts/token/ERC20/ERC20.sol\":4935:4939  from */\n      dup6\n        /* \"@openzeppelin/contracts/token/ERC20/ERC20.sol\":4941:4948  spender */\n      dup3\n        /* \"@openzeppelin/contracts/token/ERC20/ERC20.sol\":4950:4955  value */\n      dup6\n        /* \"@openzeppelin/contracts/token/ERC20/ERC20.sol\":4919:4934  _spendAllowance */\n      tag_143\n        /* \"@openzeppelin/contracts/token/ERC20/ERC20.sol\":4919:4956  _spendAllowance(from, spender, value) */\n      jump\t// in\n    tag_142:\n        /* \"@openzeppelin/contracts/token/ERC20/ERC20.sol\":4966:4992  _transfer(from, to, value) */\n      tag_144\n        /* \"@openzeppelin/contracts/token/ERC20/ERC20.sol\":4976:4980  from */\n      dup6\n        /* \"@openzeppelin/contracts/token/ERC20/ERC20.sol\":4982:4984  to */\n      dup6\n        /* \"@openzeppelin/contracts/token/ERC20/ERC20.sol\":4986:4991  value */\n      dup6\n        /* \"@openzeppelin/contracts/token/ERC20/ERC20.sol\":4966:4975  _transfer */\n      tag_145\n        /* \"@openzeppelin/contracts/token/ERC20/ERC20.sol\":4966:4992  _transfer(from, to, value) */\n      jump\t// in\n    tag_144:\n        /* \"@openzeppelin/contracts/token/ERC20/ERC20.sol\":5009:5013  true */\n      0x01\n        /* \"@openzeppelin/contracts/token/ERC20/ERC20.sol\":5002:5013  return true */\n      swap2\n      pop\n      pop\n        /* \"@openzeppelin/contracts/token/ERC20/ERC20.sol\":4776:5020  function transferFrom(address from, address to, uint256 value) public virtual returns (bool) {... */\n      swap4\n      swap3\n      pop\n      pop\n      pop\n      jump\t// out\n        /* \"@openzeppelin/contracts/token/ERC20/ERC20.sol\":2707:2789  function decimals() public view virtual returns (uint8) {... */\n    tag_52:\n        /* \"@openzeppelin/contracts/token/ERC20/ERC20.sol\":2756:2761  uint8 */\n      0x00\n        /* \"@openzeppelin/contracts/token/ERC20/ERC20.sol\":2780:2782  18 */\n      0x12\n        /* \"@openzeppelin/contracts/token/ERC20/ERC20.sol\":2773:2782  return 18 */\n      swap1\n      pop\n        /* \"@openzeppelin/contracts/token/ERC20/ERC20.sol\":2707:2789  function decimals() public view virtual returns (uint8) {... */\n      swap1\n      jump\t// out\n        /* \"contracts/MyToken.sol\":1563:1749  function mint(address to, uint256 amount) public onlyOwner {... */\n    tag_58:\n        /* \"@openzeppelin/contracts/access/Ownable.sol\":1531:1544  _checkOwner() */\n      tag_148\n        /* \"@openzeppelin/contracts/access/Ownable.sol\":1531:1542  _checkOwner */\n      tag_149\n        /* \"@openzeppelin/contracts/access/Ownable.sol\":1531:1544  _checkOwner() */\n      jump\t// in\n    tag_148:\n        /* \"contracts/MyToken.sol\":1682:1692  decimals() */\n      tag_151\n        /* \"contracts/MyToken.sol\":1682:1690  decimals */\n      tag_52\n        /* \"contracts/MyToken.sol\":1682:1692  decimals() */\n      jump\t// in\n    tag_151:\n        /* \"contracts/MyToken.sol\":1678:1680  10 */\n      0x0a\n        /* \"contracts/MyToken.sol\":1678:1692  10**decimals() */\n      tag_152\n      swap2\n      swap1\n      tag_153\n      jump\t// in\n    tag_152:\n        /* \"contracts/MyToken.sol\":1666:1675  maxSupply */\n      sload(0x07)\n        /* \"contracts/MyToken.sol\":1666:1692  maxSupply * 10**decimals() */\n      tag_154\n      swap2\n      swap1\n      tag_155\n      jump\t// in\n    tag_154:\n        /* \"contracts/MyToken.sol\":1656:1662  amount */\n      dup2\n        /* \"contracts/MyToken.sol\":1640:1653  totalSupply() */\n      tag_156\n        /* \"contracts/MyToken.sol\":1640:1651  totalSupply */\n      tag_41\n        /* \"contracts/MyToken.sol\":1640:1653  totalSupply() */\n      jump\t// in\n    tag_156:\n        /* \"contracts/MyToken.sol\":1640:1662  totalSupply() + amount */\n      tag_157\n      swap2\n      swap1\n      tag_158\n      jump\t// in\n    tag_157:\n        /* \"contracts/MyToken.sol\":1640:1692  totalSupply() + amount <= maxSupply * 10**decimals() */\n      gt\n      iszero\n        /* \"contracts/MyToken.sol\":1632:1715  require(totalSupply() + amount <= maxSupply * 10**decimals(), \"Exceeds max supply\") */\n      tag_159\n      jumpi\n      mload(0x40)\n      0x08c379a000000000000000000000000000000000000000000000000000000000\n      dup2\n      mstore\n      0x04\n      add\n      tag_160\n      swap1\n      tag_161\n      jump\t// in\n    tag_160:\n      mload(0x40)\n      dup1\n      swap2\n      sub\n      swap1\n      revert\n    tag_159:\n        /* \"contracts/MyToken.sol\":1725:1742  _mint(to, amount) */\n      tag_162\n        /* \"contracts/MyToken.sol\":1731:1733  to */\n      dup3\n        /* \"contracts/MyToken.sol\":1735:1741  amount */\n      dup3\n        /* \"contracts/MyToken.sol\":1725:1730  _mint */\n      tag_163\n        /* \"contracts/MyToken.sol\":1725:1742  _mint(to, amount) */\n      jump\t// in\n    tag_162:\n        /* \"contracts/MyToken.sol\":1563:1749  function mint(address to, uint256 amount) public onlyOwner {... */\n      pop\n      pop\n      jump\t// out\n        /* \"contracts/MyToken.sol\":3231:3342  function checkBalance(address account) public view returns (uint256) {... */\n    tag_63:\n        /* \"contracts/MyToken.sol\":3291:3298  uint256 */\n      0x00\n        /* \"contracts/MyToken.sol\":3317:3335  balanceOf(account) */\n      tag_165\n        /* \"contracts/MyToken.sol\":3327:3334  account */\n      dup3\n        /* \"contracts/MyToken.sol\":3317:3326  balanceOf */\n      tag_77\n        /* \"contracts/MyToken.sol\":3317:3335  balanceOf(account) */\n      jump\t// in\n    tag_165:\n        /* \"contracts/MyToken.sol\":3310:3335  return balanceOf(account) */\n      swap1\n      pop\n        /* \"contracts/MyToken.sol\":3231:3342  function checkBalance(address account) public view returns (uint256) {... */\n      swap2\n      swap1\n      pop\n      jump\t// out\n        /* \"contracts/MyToken.sol\":2925:3087  function setTokenPrice(uint256 _newPrice) public onlyOwner {... */\n    tag_69:\n        /* \"@openzeppelin/contracts/access/Ownable.sol\":1531:1544  _checkOwner() */\n      tag_167\n        /* \"@openzeppelin/contracts/access/Ownable.sol\":1531:1542  _checkOwner */\n      tag_149\n        /* \"@openzeppelin/contracts/access/Ownable.sol\":1531:1544  _checkOwner() */\n      jump\t// in\n    tag_167:\n        /* \"contracts/MyToken.sol\":3014:3015  0 */\n      0x00\n        /* \"contracts/MyToken.sol\":3002:3011  _newPrice */\n      dup2\n        /* \"contracts/MyToken.sol\":3002:3015  _newPrice > 0 */\n      gt\n        /* \"contracts/MyToken.sol\":2994:3048  require(_newPrice > 0, \"Price must be greater than 0\") */\n      tag_169\n      jumpi\n      mload(0x40)\n      0x08c379a000000000000000000000000000000000000000000000000000000000\n      dup2\n      mstore\n      0x04\n      add\n      tag_170\n      swap1\n      tag_171\n      jump\t// in\n    tag_170:\n      mload(0x40)\n      dup1\n      swap2\n      sub\n      swap1\n      revert\n    tag_169:\n        /* \"contracts/MyToken.sol\":3071:3080  _newPrice */\n      dup1\n        /* \"contracts/MyToken.sol\":3058:3068  tokenPrice */\n      0x06\n        /* \"contracts/MyToken.sol\":3058:3080  tokenPrice = _newPrice */\n      dup2\n      swap1\n      sstore\n      pop\n        /* \"contracts/MyToken.sol\":2925:3087  function setTokenPrice(uint256 _newPrice) public onlyOwner {... */\n      pop\n      jump\t// out\n        /* \"contracts/MyToken.sol\":2419:2534  function getContractBalance() public view onlyOwner returns (uint256) {... */\n    tag_72:\n        /* \"contracts/MyToken.sol\":2480:2487  uint256 */\n      0x00\n        /* \"@openzeppelin/contracts/access/Ownable.sol\":1531:1544  _checkOwner() */\n      tag_173\n        /* \"@openzeppelin/contracts/access/Ownable.sol\":1531:1542  _checkOwner */\n      tag_149\n        /* \"@openzeppelin/contracts/access/Ownable.sol\":1531:1544  _checkOwner() */\n      jump\t// in\n    tag_173:\n        /* \"contracts/MyToken.sol\":2506:2527  address(this).balance */\n      selfbalance\n        /* \"contracts/MyToken.sol\":2499:2527  return address(this).balance */\n      swap1\n      pop\n        /* \"contracts/MyToken.sol\":2419:2534  function getContractBalance() public view onlyOwner returns (uint256) {... */\n      swap1\n      jump\t// out\n        /* \"@openzeppelin/contracts/token/ERC20/ERC20.sol\":3004:3120  function balanceOf(address account) public view virtual returns (uint256) {... */\n    tag_77:\n        /* \"@openzeppelin/contracts/token/ERC20/ERC20.sol\":3069:3076  uint256 */\n      0x00\n        /* \"@openzeppelin/contracts/token/ERC20/ERC20.sol\":3095:3104  _balances */\n      dup1\n        /* \"@openzeppelin/contracts/token/ERC20/ERC20.sol\":3095:3113  _balances[account] */\n      0x00\n        /* \"@openzeppelin/contracts/token/ERC20/ERC20.sol\":3105:3112  account */\n      dup4\n        /* \"@openzeppelin/contracts/token/ERC20/ERC20.sol\":3095:3113  _balances[account] */\n      0xffffffffffffffffffffffffffffffffffffffff\n      and\n      0xffffffffffffffffffffffffffffffffffffffff\n      and\n      dup2\n      mstore\n      0x20\n      add\n      swap1\n      dup2\n      mstore\n      0x20\n      add\n      0x00\n      keccak256\n      sload\n        /* \"@openzeppelin/contracts/token/ERC20/ERC20.sol\":3088:3113  return _balances[account] */\n      swap1\n      pop\n        /* \"@openzeppelin/contracts/token/ERC20/ERC20.sol\":3004:3120  function balanceOf(address account) public view virtual returns (uint256) {... */\n      swap2\n      swap1\n      pop\n      jump\t// out\n        /* \"@openzeppelin/contracts/access/Ownable.sol\":2293:2394  function renounceOwnership() public virtual onlyOwner {... */\n    tag_81:\n        /* \"@openzeppelin/contracts/access/Ownable.sol\":1531:1544  _checkOwner() */\n      tag_177\n        /* \"@openzeppelin/contracts/access/Ownable.sol\":1531:1542  _checkOwner */\n      tag_149\n        /* \"@openzeppelin/contracts/access/Ownable.sol\":1531:1544  _checkOwner() */\n      jump\t// in\n    tag_177:\n        /* \"@openzeppelin/contracts/access/Ownable.sol\":2357:2387  _transferOwnership(address(0)) */\n      tag_179\n        /* \"@openzeppelin/contracts/access/Ownable.sol\":2384:2385  0 */\n      0x00\n        /* \"@openzeppelin/contracts/access/Ownable.sol\":2357:2375  _transferOwnership */\n      tag_180\n        /* \"@openzeppelin/contracts/access/Ownable.sol\":2357:2387  _transferOwnership(address(0)) */\n      jump\t// in\n    tag_179:\n        /* \"@openzeppelin/contracts/access/Ownable.sol\":2293:2394  function renounceOwnership() public virtual onlyOwner {... */\n      jump\t// out\n        /* \"contracts/MyToken.sol\":399:424  uint256 public tokenPrice */\n    tag_84:\n      sload(0x06)\n      dup2\n      jump\t// out\n        /* \"@openzeppelin/contracts/access/Ownable.sol\":1638:1723  function owner() public view virtual returns (address) {... */\n    tag_88:\n        /* \"@openzeppelin/contracts/access/Ownable.sol\":1684:1691  address */\n      0x00\n        /* \"@openzeppelin/contracts/access/Ownable.sol\":1710:1716  _owner */\n      0x05\n      0x00\n      swap1\n      sload\n      swap1\n      0x0100\n      exp\n      swap1\n      div\n      0xffffffffffffffffffffffffffffffffffffffff\n      and\n        /* \"@openzeppelin/contracts/access/Ownable.sol\":1703:1716  return _owner */\n      swap1\n      pop\n        /* \"@openzeppelin/contracts/access/Ownable.sol\":1638:1723  function owner() public view virtual returns (address) {... */\n      swap1\n      jump\t// out\n        /* \"@openzeppelin/contracts/token/ERC20/ERC20.sol\":1981:2074  function symbol() public view virtual returns (string memory) {... */\n    tag_93:\n        /* \"@openzeppelin/contracts/token/ERC20/ERC20.sol\":2028:2041  string memory */\n      0x60\n        /* \"@openzeppelin/contracts/token/ERC20/ERC20.sol\":2060:2067  _symbol */\n      0x04\n        /* \"@openzeppelin/contracts/token/ERC20/ERC20.sol\":2053:2067  return _symbol */\n      dup1\n      sload\n      tag_183\n      swap1\n      tag_129\n      jump\t// in\n    tag_183:\n      dup1\n      0x1f\n      add\n      0x20\n      dup1\n      swap2\n      div\n      mul\n      0x20\n      add\n      mload(0x40)\n      swap1\n      dup2\n      add\n      0x40\n      mstore\n      dup1\n      swap3\n      swap2\n      swap1\n      dup2\n      dup2\n      mstore\n      0x20\n      add\n      dup3\n      dup1\n      sload\n      tag_184\n      swap1\n      tag_129\n      jump\t// in\n    tag_184:\n      dup1\n      iszero\n      tag_185\n      jumpi\n      dup1\n      0x1f\n      lt\n      tag_186\n      jumpi\n      0x0100\n      dup1\n      dup4\n      sload\n      div\n      mul\n      dup4\n      mstore\n      swap2\n      0x20\n      add\n      swap2\n      jump(tag_185)\n    tag_186:\n      dup3\n      add\n      swap2\n      swap1\n      0x00\n      mstore\n      keccak256(0x00, 0x20)\n      swap1\n    tag_187:\n      dup2\n      sload\n      dup2\n      mstore\n      swap1\n      0x01\n      add\n      swap1\n      0x20\n      add\n      dup1\n      dup4\n      gt\n      tag_187\n      jumpi\n      dup3\n      swap1\n      sub\n      0x1f\n      and\n      dup3\n      add\n      swap2\n    tag_185:\n      pop\n      pop\n      pop\n      pop\n      pop\n      swap1\n      pop\n        /* \"@openzeppelin/contracts/token/ERC20/ERC20.sol\":1981:2074  function symbol() public view virtual returns (string memory) {... */\n      swap1\n      jump\t// out\n        /* \"@openzeppelin/contracts/token/ERC20/ERC20.sol\":3315:3493  function transfer(address to, uint256 value) public virtual returns (bool) {... */\n    tag_98:\n        /* \"@openzeppelin/contracts/token/ERC20/ERC20.sol\":3384:3388  bool */\n      0x00\n        /* \"@openzeppelin/contracts/token/ERC20/ERC20.sol\":3400:3413  address owner */\n      dup1\n        /* \"@openzeppelin/contracts/token/ERC20/ERC20.sol\":3416:3428  _msgSender() */\n      tag_189\n        /* \"@openzeppelin/contracts/token/ERC20/ERC20.sol\":3416:3426  _msgSender */\n      tag_136\n        /* \"@openzeppelin/contracts/token/ERC20/ERC20.sol\":3416:3428  _msgSender() */\n      jump\t// in\n    tag_189:\n        /* \"@openzeppelin/contracts/token/ERC20/ERC20.sol\":3400:3428  address owner = _msgSender() */\n      swap1\n      pop\n        /* \"@openzeppelin/contracts/token/ERC20/ERC20.sol\":3438:3465  _transfer(owner, to, value) */\n      tag_190\n        /* \"@openzeppelin/contracts/token/ERC20/ERC20.sol\":3448:3453  owner */\n      dup2\n        /* \"@openzeppelin/contracts/token/ERC20/ERC20.sol\":3455:3457  to */\n      dup6\n        /* \"@openzeppelin/contracts/token/ERC20/ERC20.sol\":3459:3464  value */\n      dup6\n        /* \"@openzeppelin/contracts/token/ERC20/ERC20.sol\":3438:3447  _transfer */\n      tag_145\n        /* \"@openzeppelin/contracts/token/ERC20/ERC20.sol\":3438:3465  _transfer(owner, to, value) */\n      jump\t// in\n    tag_190:\n        /* \"@openzeppelin/contracts/token/ERC20/ERC20.sol\":3482:3486  true */\n      0x01\n        /* \"@openzeppelin/contracts/token/ERC20/ERC20.sol\":3475:3486  return true */\n      swap2\n      pop\n      pop\n        /* \"@openzeppelin/contracts/token/ERC20/ERC20.sol\":3315:3493  function transfer(address to, uint256 value) public virtual returns (bool) {... */\n      swap3\n      swap2\n      pop\n      pop\n      jump\t// out\n        /* \"contracts/MyToken.sol\":3441:3534  function getTotalSupply() public view returns (uint256) {... */\n    tag_102:\n        /* \"contracts/MyToken.sol\":3488:3495  uint256 */\n      0x00\n        /* \"contracts/MyToken.sol\":3514:3527  totalSupply() */\n      tag_192\n        /* \"contracts/MyToken.sol\":3514:3525  totalSupply */\n      tag_41\n        /* \"contracts/MyToken.sol\":3514:3527  totalSupply() */\n      jump\t// in\n    tag_192:\n        /* \"contracts/MyToken.sol\":3507:3527  return totalSupply() */\n      swap1\n      pop\n        /* \"contracts/MyToken.sol\":3441:3534  function getTotalSupply() public view returns (uint256) {... */\n      swap1\n      jump\t// out\n        /* \"contracts/MyToken.sol\":1814:2336  function buyTokens() public payable {... */\n    tag_105:\n        /* \"contracts/MyToken.sol\":1880:1881  0 */\n      0x00\n        /* \"contracts/MyToken.sol\":1868:1877  msg.value */\n      callvalue\n        /* \"contracts/MyToken.sol\":1868:1881  msg.value > 0 */\n      gt\n        /* \"contracts/MyToken.sol\":1860:1908  require(msg.value > 0, \"Send ETH to buy tokens\") */\n      tag_194\n      jumpi\n      mload(0x40)\n      0x08c379a000000000000000000000000000000000000000000000000000000000\n      dup2\n      mstore\n      0x04\n      add\n      tag_195\n      swap1\n      tag_196\n      jump\t// in\n    tag_195:\n      mload(0x40)\n      dup1\n      swap2\n      sub\n      swap1\n      revert\n    tag_194:\n        /* \"contracts/MyToken.sol\":1966:1985  uint256 tokenAmount */\n      0x00\n        /* \"contracts/MyToken.sol\":2000:2010  tokenPrice */\n      sload(0x06)\n        /* \"contracts/MyToken.sol\":1988:1997  msg.value */\n      callvalue\n        /* \"contracts/MyToken.sol\":1988:2010  msg.value * tokenPrice */\n      tag_197\n      swap2\n      swap1\n      tag_155\n      jump\t// in\n    tag_197:\n        /* \"contracts/MyToken.sol\":1966:2010  uint256 tokenAmount = msg.value * tokenPrice */\n      swap1\n      pop\n        /* \"contracts/MyToken.sol\":2119:2129  decimals() */\n      tag_198\n        /* \"contracts/MyToken.sol\":2119:2127  decimals */\n      tag_52\n        /* \"contracts/MyToken.sol\":2119:2129  decimals() */\n      jump\t// in\n    tag_198:\n        /* \"contracts/MyToken.sol\":2115:2117  10 */\n      0x0a\n        /* \"contracts/MyToken.sol\":2115:2129  10**decimals() */\n      tag_199\n      swap2\n      swap1\n      tag_153\n      jump\t// in\n    tag_199:\n        /* \"contracts/MyToken.sol\":2103:2112  maxSupply */\n      sload(0x07)\n        /* \"contracts/MyToken.sol\":2103:2129  maxSupply * 10**decimals() */\n      tag_200\n      swap2\n      swap1\n      tag_155\n      jump\t// in\n    tag_200:\n        /* \"contracts/MyToken.sol\":2088:2099  tokenAmount */\n      dup2\n        /* \"contracts/MyToken.sol\":2072:2085  totalSupply() */\n      tag_201\n        /* \"contracts/MyToken.sol\":2072:2083  totalSupply */\n      tag_41\n        /* \"contracts/MyToken.sol\":2072:2085  totalSupply() */\n      jump\t// in\n    tag_201:\n        /* \"contracts/MyToken.sol\":2072:2099  totalSupply() + tokenAmount */\n      tag_202\n      swap2\n      swap1\n      tag_158\n      jump\t// in\n    tag_202:\n        /* \"contracts/MyToken.sol\":2072:2129  totalSupply() + tokenAmount <= maxSupply * 10**decimals() */\n      gt\n      iszero\n        /* \"contracts/MyToken.sol\":2064:2152  require(totalSupply() + tokenAmount <= maxSupply * 10**decimals(), \"Exceeds max supply\") */\n      tag_203\n      jumpi\n      mload(0x40)\n      0x08c379a000000000000000000000000000000000000000000000000000000000\n      dup2\n      mstore\n      0x04\n      add\n      tag_204\n      swap1\n      tag_161\n      jump\t// in\n    tag_204:\n      mload(0x40)\n      dup1\n      swap2\n      sub\n      swap1\n      revert\n    tag_203:\n        /* \"contracts/MyToken.sol\":2196:2226  _mint(msg.sender, tokenAmount) */\n      tag_205\n        /* \"contracts/MyToken.sol\":2202:2212  msg.sender */\n      caller\n        /* \"contracts/MyToken.sol\":2214:2225  tokenAmount */\n      dup3\n        /* \"contracts/MyToken.sol\":2196:2201  _mint */\n      tag_163\n        /* \"contracts/MyToken.sol\":2196:2226  _mint(msg.sender, tokenAmount) */\n      jump\t// in\n    tag_205:\n        /* \"contracts/MyToken.sol\":2294:2304  msg.sender */\n      caller\n        /* \"contracts/MyToken.sol\":2278:2329  TokensPurchased(msg.sender, msg.value, tokenAmount) */\n      0xffffffffffffffffffffffffffffffffffffffff\n      and\n      0x8fafebcaf9d154343dad25669bfa277f4fbacd7ac6b0c4fed522580e040a0f33\n        /* \"contracts/MyToken.sol\":2306:2315  msg.value */\n      callvalue\n        /* \"contracts/MyToken.sol\":2317:2328  tokenAmount */\n      dup4\n        /* \"contracts/MyToken.sol\":2278:2329  TokensPurchased(msg.sender, msg.value, tokenAmount) */\n      mload(0x40)\n      tag_206\n      swap3\n      swap2\n      swap1\n      tag_207\n      jump\t// in\n    tag_206:\n      mload(0x40)\n      dup1\n      swap2\n      sub\n      swap1\n      log2\n        /* \"contracts/MyToken.sol\":1850:2336  {... */\n      pop\n        /* \"contracts/MyToken.sol\":1814:2336  function buyTokens() public payable {... */\n      jump\t// out\n        /* \"contracts/MyToken.sol\":463:487  uint256 public maxSupply */\n    tag_108:\n      sload(0x07)\n      dup2\n      jump\t// out\n        /* \"@openzeppelin/contracts/token/ERC20/ERC20.sol\":3551:3691  function allowance(address owner, address spender) public view virtual returns (uint256) {... */\n    tag_114:\n        /* \"@openzeppelin/contracts/token/ERC20/ERC20.sol\":3631:3638  uint256 */\n      0x00\n        /* \"@openzeppelin/contracts/token/ERC20/ERC20.sol\":3657:3668  _allowances */\n      0x01\n        /* \"@openzeppelin/contracts/token/ERC20/ERC20.sol\":3657:3675  _allowances[owner] */\n      0x00\n        /* \"@openzeppelin/contracts/token/ERC20/ERC20.sol\":3669:3674  owner */\n      dup5\n        /* \"@openzeppelin/contracts/token/ERC20/ERC20.sol\":3657:3675  _allowances[owner] */\n      0xffffffffffffffffffffffffffffffffffffffff\n      and\n      0xffffffffffffffffffffffffffffffffffffffff\n      and\n      dup2\n      mstore\n      0x20\n      add\n      swap1\n      dup2\n      mstore\n      0x20\n      add\n      0x00\n      keccak256\n        /* \"@openzeppelin/contracts/token/ERC20/ERC20.sol\":3657:3684  _allowances[owner][spender] */\n      0x00\n        /* \"@openzeppelin/contracts/token/ERC20/ERC20.sol\":3676:3683  spender */\n      dup4\n        /* \"@openzeppelin/contracts/token/ERC20/ERC20.sol\":3657:3684  _allowances[owner][spender] */\n      0xffffffffffffffffffffffffffffffffffffffff\n      and\n      0xffffffffffffffffffffffffffffffffffffffff\n      and\n      dup2\n      mstore\n      0x20\n      add\n      swap1\n      dup2\n      mstore\n      0x20\n      add\n      0x00\n      keccak256\n      sload\n        /* \"@openzeppelin/contracts/token/ERC20/ERC20.sol\":3650:3684  return _allowances[owner][spender] */\n      swap1\n      pop\n        /* \"@openzeppelin/contracts/token/ERC20/ERC20.sol\":3551:3691  function allowance(address owner, address spender) public view virtual returns (uint256) {... */\n      swap3\n      swap2\n      pop\n      pop\n      jump\t// out\n        /* \"contracts/MyToken.sol\":2618:2796  function withdrawETH() public onlyOwner {... */\n    tag_118:\n        /* \"@openzeppelin/contracts/access/Ownable.sol\":1531:1544  _checkOwner() */\n      tag_210\n        /* \"@openzeppelin/contracts/access/Ownable.sol\":1531:1542  _checkOwner */\n      tag_149\n        /* \"@openzeppelin/contracts/access/Ownable.sol\":1531:1544  _checkOwner() */\n      jump\t// in\n    tag_210:\n        /* \"contracts/MyToken.sol\":2669:2681  bool success */\n      0x00\n        /* \"contracts/MyToken.sol\":2695:2702  owner() */\n      tag_212\n        /* \"contracts/MyToken.sol\":2695:2700  owner */\n      tag_88\n        /* \"contracts/MyToken.sol\":2695:2702  owner() */\n      jump\t// in\n    tag_212:\n        /* \"contracts/MyToken.sol\":2687:2708  payable(owner()).call */\n      0xffffffffffffffffffffffffffffffffffffffff\n      and\n        /* \"contracts/MyToken.sol\":2716:2737  address(this).balance */\n      selfbalance\n        /* \"contracts/MyToken.sol\":2687:2742  payable(owner()).call{value: address(this).balance}(\"\") */\n      mload(0x40)\n      tag_213\n      swap1\n      tag_214\n      jump\t// in\n    tag_213:\n      0x00\n      mload(0x40)\n      dup1\n      dup4\n      sub\n      dup2\n      dup6\n      dup8\n      gas\n      call\n      swap3\n      pop\n      pop\n      pop\n      returndatasize\n      dup1\n      0x00\n      dup2\n      eq\n      tag_217\n      jumpi\n      mload(0x40)\n      swap2\n      pop\n      and(add(returndatasize, 0x3f), not(0x1f))\n      dup3\n      add\n      0x40\n      mstore\n      returndatasize\n      dup3\n      mstore\n      returndatasize\n      0x00\n      0x20\n      dup5\n      add\n      returndatacopy\n      jump(tag_216)\n    tag_217:\n      0x60\n      swap2\n      pop\n    tag_216:\n      pop\n        /* \"contracts/MyToken.sol\":2668:2742  (bool success, ) = payable(owner()).call{value: address(this).balance}(\"\") */\n      pop\n      swap1\n      pop\n        /* \"contracts/MyToken.sol\":2760:2767  success */\n      dup1\n        /* \"contracts/MyToken.sol\":2752:2789  require(success, \"Withdrawal failed\") */\n      tag_218\n      jumpi\n      mload(0x40)\n      0x08c379a000000000000000000000000000000000000000000000000000000000\n      dup2\n      mstore\n      0x04\n      add\n      tag_219\n      swap1\n      tag_220\n      jump\t// in\n    tag_219:\n      mload(0x40)\n      dup1\n      swap2\n      sub\n      swap1\n      revert\n    tag_218:\n        /* \"contracts/MyToken.sol\":2658:2796  {... */\n      pop\n        /* \"contracts/MyToken.sol\":2618:2796  function withdrawETH() public onlyOwner {... */\n      jump\t// out\n        /* \"contracts/MyToken.sol\":3653:3781  function getRemainingSupply() public view returns (uint256) {... */\n    tag_121:\n        /* \"contracts/MyToken.sol\":3704:3711  uint256 */\n      0x00\n        /* \"contracts/MyToken.sol\":3761:3774  totalSupply() */\n      tag_222\n        /* \"contracts/MyToken.sol\":3761:3772  totalSupply */\n      tag_41\n        /* \"contracts/MyToken.sol\":3761:3774  totalSupply() */\n      jump\t// in\n    tag_222:\n        /* \"contracts/MyToken.sol\":3747:3757  decimals() */\n      tag_223\n        /* \"contracts/MyToken.sol\":3747:3755  decimals */\n      tag_52\n        /* \"contracts/MyToken.sol\":3747:3757  decimals() */\n      jump\t// in\n    tag_223:\n        /* \"contracts/MyToken.sol\":3743:3745  10 */\n      0x0a\n        /* \"contracts/MyToken.sol\":3743:3757  10**decimals() */\n      tag_224\n      swap2\n      swap1\n      tag_153\n      jump\t// in\n    tag_224:\n        /* \"contracts/MyToken.sol\":3731:3740  maxSupply */\n      sload(0x07)\n        /* \"contracts/MyToken.sol\":3731:3757  maxSupply * 10**decimals() */\n      tag_225\n      swap2\n      swap1\n      tag_155\n      jump\t// in\n    tag_225:\n        /* \"contracts/MyToken.sol\":3730:3774  (maxSupply * 10**decimals()) - totalSupply() */\n      tag_226\n      swap2\n      swap1\n      tag_227\n      jump\t// in\n    tag_226:\n        /* \"contracts/MyToken.sol\":3723:3774  return (maxSupply * 10**decimals()) - totalSupply() */\n      swap1\n      pop\n        /* \"contracts/MyToken.sol\":3653:3781  function getRemainingSupply() public view returns (uint256) {... */\n      swap1\n      jump\t// out\n        /* \"@openzeppelin/contracts/access/Ownable.sol\":2543:2758  function transferOwnership(address newOwner) public virtual onlyOwner {... */\n    tag_126:\n        /* \"@openzeppelin/contracts/access/Ownable.sol\":1531:1544  _checkOwner() */\n      tag_229\n        /* \"@openzeppelin/contracts/access/Ownable.sol\":1531:1542  _checkOwner */\n      tag_149\n        /* \"@openzeppelin/contracts/access/Ownable.sol\":1531:1544  _checkOwner() */\n      jump\t// in\n    tag_229:\n        /* \"@openzeppelin/contracts/access/Ownable.sol\":2647:2648  0 */\n      0x00\n        /* \"@openzeppelin/contracts/access/Ownable.sol\":2627:2649  newOwner == address(0) */\n      0xffffffffffffffffffffffffffffffffffffffff\n      and\n        /* \"@openzeppelin/contracts/access/Ownable.sol\":2627:2635  newOwner */\n      dup2\n        /* \"@openzeppelin/contracts/access/Ownable.sol\":2627:2649  newOwner == address(0) */\n      0xffffffffffffffffffffffffffffffffffffffff\n      and\n      sub\n        /* \"@openzeppelin/contracts/access/Ownable.sol\":2623:2714  if (newOwner == address(0)) {... */\n      tag_231\n      jumpi\n        /* \"@openzeppelin/contracts/access/Ownable.sol\":2700:2701  0 */\n      0x00\n        /* \"@openzeppelin/contracts/access/Ownable.sol\":2672:2703  OwnableInvalidOwner(address(0)) */\n      mload(0x40)\n      0x1e4fbdf700000000000000000000000000000000000000000000000000000000\n      dup2\n      mstore\n      0x04\n      add\n      tag_232\n      swap2\n      swap1\n      tag_90\n      jump\t// in\n    tag_232:\n      mload(0x40)\n      dup1\n      swap2\n      sub\n      swap1\n      revert\n        /* \"@openzeppelin/contracts/access/Ownable.sol\":2623:2714  if (newOwner == address(0)) {... */\n    tag_231:\n        /* \"@openzeppelin/contracts/access/Ownable.sol\":2723:2751  _transferOwnership(newOwner) */\n      tag_233\n        /* \"@openzeppelin/contracts/access/Ownable.sol\":2742:2750  newOwner */\n      dup2\n        /* \"@openzeppelin/contracts/access/Ownable.sol\":2723:2741  _transferOwnership */\n      tag_180\n        /* \"@openzeppelin/contracts/access/Ownable.sol\":2723:2751  _transferOwnership(newOwner) */\n      jump\t// in\n    tag_233:\n        /* \"@openzeppelin/contracts/access/Ownable.sol\":2543:2758  function transferOwnership(address newOwner) public virtual onlyOwner {... */\n      pop\n      jump\t// out\n        /* \"@openzeppelin/contracts/utils/Context.sol\":656:752  function _msgSender() internal view virtual returns (address) {... */\n    tag_136:\n        /* \"@openzeppelin/contracts/utils/Context.sol\":709:716  address */\n      0x00\n        /* \"@openzeppelin/contracts/utils/Context.sol\":735:745  msg.sender */\n      caller\n        /* \"@openzeppelin/contracts/utils/Context.sol\":728:745  return msg.sender */\n      swap1\n      pop\n        /* \"@openzeppelin/contracts/utils/Context.sol\":656:752  function _msgSender() internal view virtual returns (address) {... */\n      swap1\n      jump\t// out\n        /* \"@openzeppelin/contracts/token/ERC20/ERC20.sol\":8726:8854  function _approve(address owner, address spender, uint256 value) internal {... */\n    tag_138:\n        /* \"@openzeppelin/contracts/token/ERC20/ERC20.sol\":8810:8847  _approve(owner, spender, value, true) */\n      tag_236\n        /* \"@openzeppelin/contracts/token/ERC20/ERC20.sol\":8819:8824  owner */\n      dup4\n        /* \"@openzeppelin/contracts/token/ERC20/ERC20.sol\":8826:8833  spender */\n      dup4\n        /* \"@openzeppelin/contracts/token/ERC20/ERC20.sol\":8835:8840  value */\n      dup4\n        /* \"@openzeppelin/contracts/token/ERC20/ERC20.sol\":8842:8846  true */\n      0x01\n        /* \"@openzeppelin/contracts/token/ERC20/ERC20.sol\":8810:8818  _approve */\n      tag_237\n        /* \"@openzeppelin/contracts/token/ERC20/ERC20.sol\":8810:8847  _approve(owner, spender, value, true) */\n      jump\t// in\n    tag_236:\n        /* \"@openzeppelin/contracts/token/ERC20/ERC20.sol\":8726:8854  function _approve(address owner, address spender, uint256 value) internal {... */\n      pop\n      pop\n      pop\n      jump\t// out\n        /* \"@openzeppelin/contracts/token/ERC20/ERC20.sol\":10415:10891  function _spendAllowance(address owner, address spender, uint256 value) internal virtual {... */\n    tag_143:\n        /* \"@openzeppelin/contracts/token/ERC20/ERC20.sol\":10514:10538  uint256 currentAllowance */\n      0x00\n        /* \"@openzeppelin/contracts/token/ERC20/ERC20.sol\":10541:10566  allowance(owner, spender) */\n      tag_239\n        /* \"@openzeppelin/contracts/token/ERC20/ERC20.sol\":10551:10556  owner */\n      dup5\n        /* \"@openzeppelin/contracts/token/ERC20/ERC20.sol\":10558:10565  spender */\n      dup5\n        /* \"@openzeppelin/contracts/token/ERC20/ERC20.sol\":10541:10550  allowance */\n      tag_114\n        /* \"@openzeppelin/contracts/token/ERC20/ERC20.sol\":10541:10566  allowance(owner, spender) */\n      jump\t// in\n    tag_239:\n        /* \"@openzeppelin/contracts/token/ERC20/ERC20.sol\":10514:10566  uint256 currentAllowance = allowance(owner, spender) */\n      swap1\n      pop\n        /* \"@openzeppelin/contracts/token/ERC20/ERC20.sol\":10599:10616  type(uint256).max */\n      0xffffffffffffffffffffffffffffffffffffffffffffffffffffffffffffffff\n        /* \"@openzeppelin/contracts/token/ERC20/ERC20.sol\":10580:10596  currentAllowance */\n      dup2\n        /* \"@openzeppelin/contracts/token/ERC20/ERC20.sol\":10580:10616  currentAllowance < type(uint256).max */\n      lt\n        /* \"@openzeppelin/contracts/token/ERC20/ERC20.sol\":10576:10885  if (currentAllowance < type(uint256).max) {... */\n      iszero\n      tag_240\n      jumpi\n        /* \"@openzeppelin/contracts/token/ERC20/ERC20.sol\":10655:10660  value */\n      dup2\n        /* \"@openzeppelin/contracts/token/ERC20/ERC20.sol\":10636:10652  currentAllowance */\n      dup2\n        /* \"@openzeppelin/contracts/token/ERC20/ERC20.sol\":10636:10660  currentAllowance < value */\n      lt\n        /* \"@openzeppelin/contracts/token/ERC20/ERC20.sol\":10632:10762  if (currentAllowance < value) {... */\n      iszero\n      tag_241\n      jumpi\n        /* \"@openzeppelin/contracts/token/ERC20/ERC20.sol\":10714:10721  spender */\n      dup3\n        /* \"@openzeppelin/contracts/token/ERC20/ERC20.sol\":10723:10739  currentAllowance */\n      dup2\n        /* \"@openzeppelin/contracts/token/ERC20/ERC20.sol\":10741:10746  value */\n      dup4\n        /* \"@openzeppelin/contracts/token/ERC20/ERC20.sol\":10687:10747  ERC20InsufficientAllowance(spender, currentAllowance, value) */\n      mload(0x40)\n      0xfb8f41b200000000000000000000000000000000000000000000000000000000\n      dup2\n      mstore\n      0x04\n      add\n      tag_242\n      swap4\n      swap3\n      swap2\n      swap1\n      tag_243\n      jump\t// in\n    tag_242:\n      mload(0x40)\n      dup1\n      swap2\n      sub\n      swap1\n      revert\n        /* \"@openzeppelin/contracts/token/ERC20/ERC20.sol\":10632:10762  if (currentAllowance < value) {... */\n    tag_241:\n        /* \"@openzeppelin/contracts/token/ERC20/ERC20.sol\":10803:10860  _approve(owner, spender, currentAllowance - value, false) */\n      tag_244\n        /* \"@openzeppelin/contracts/token/ERC20/ERC20.sol\":10812:10817  owner */\n      dup5\n        /* \"@openzeppelin/contracts/token/ERC20/ERC20.sol\":10819:10826  spender */\n      dup5\n        /* \"@openzeppelin/contracts/token/ERC20/ERC20.sol\":10847:10852  value */\n      dup5\n        /* \"@openzeppelin/contracts/token/ERC20/ERC20.sol\":10828:10844  currentAllowance */\n      dup5\n        /* \"@openzeppelin/contracts/token/ERC20/ERC20.sol\":10828:10852  currentAllowance - value */\n      sub\n        /* \"@openzeppelin/contracts/token/ERC20/ERC20.sol\":10854:10859  false */\n      0x00\n        /* \"@openzeppelin/contracts/token/ERC20/ERC20.sol\":10803:10811  _approve */\n      tag_237\n        /* \"@openzeppelin/contracts/token/ERC20/ERC20.sol\":10803:10860  _approve(owner, spender, currentAllowance - value, false) */\n      jump\t// in\n    tag_244:\n        /* \"@openzeppelin/contracts/token/ERC20/ERC20.sol\":10576:10885  if (currentAllowance < type(uint256).max) {... */\n    tag_240:\n        /* \"@openzeppelin/contracts/token/ERC20/ERC20.sol\":10504:10891  {... */\n      pop\n        /* \"@openzeppelin/contracts/token/ERC20/ERC20.sol\":10415:10891  function _spendAllowance(address owner, address spender, uint256 value) internal virtual {... */\n      pop\n      pop\n      pop\n      jump\t// out\n        /* \"@openzeppelin/contracts/token/ERC20/ERC20.sol\":5393:5693  function _transfer(address from, address to, uint256 value) internal {... */\n    tag_145:\n        /* \"@openzeppelin/contracts/token/ERC20/ERC20.sol\":5492:5493  0 */\n      0x00\n        /* \"@openzeppelin/contracts/token/ERC20/ERC20.sol\":5476:5494  from == address(0) */\n      0xffffffffffffffffffffffffffffffffffffffff\n      and\n        /* \"@openzeppelin/contracts/token/ERC20/ERC20.sol\":5476:5480  from */\n      dup4\n        /* \"@openzeppelin/contracts/token/ERC20/ERC20.sol\":5476:5494  from == address(0) */\n      0xffffffffffffffffffffffffffffffffffffffff\n      and\n      sub\n        /* \"@openzeppelin/contracts/token/ERC20/ERC20.sol\":5472:5558  if (from == address(0)) {... */\n      tag_246\n      jumpi\n        /* \"@openzeppelin/contracts/token/ERC20/ERC20.sol\":5544:5545  0 */\n      0x00\n        /* \"@openzeppelin/contracts/token/ERC20/ERC20.sol\":5517:5547  ERC20InvalidSender(address(0)) */\n      mload(0x40)\n      0x96c6fd1e00000000000000000000000000000000000000000000000000000000\n      dup2\n      mstore\n      0x04\n      add\n      tag_247\n      swap2\n      swap1\n      tag_90\n      jump\t// in\n    tag_247:\n      mload(0x40)\n      dup1\n      swap2\n      sub\n      swap1\n      revert\n        /* \"@openzeppelin/contracts/token/ERC20/ERC20.sol\":5472:5558  if (from == address(0)) {... */\n    tag_246:\n        /* \"@openzeppelin/contracts/token/ERC20/ERC20.sol\":5585:5586  0 */\n      0x00\n        /* \"@openzeppelin/contracts/token/ERC20/ERC20.sol\":5571:5587  to == address(0) */\n      0xffffffffffffffffffffffffffffffffffffffff\n      and\n        /* \"@openzeppelin/contracts/token/ERC20/ERC20.sol\":5571:5573  to */\n      dup3\n        /* \"@openzeppelin/contracts/token/ERC20/ERC20.sol\":5571:5587  to == address(0) */\n      0xffffffffffffffffffffffffffffffffffffffff\n      and\n      sub\n        /* \"@openzeppelin/contracts/token/ERC20/ERC20.sol\":5567:5653  if (to == address(0)) {... */\n      tag_248\n      jumpi\n        /* \"@openzeppelin/contracts/token/ERC20/ERC20.sol\":5639:5640  0 */\n      0x00\n        /* \"@openzeppelin/contracts/token/ERC20/ERC20.sol\":5610:5642  ERC20InvalidReceiver(address(0)) */\n      mload(0x40)\n      0xec442f0500000000000000000000000000000000000000000000000000000000\n      dup2\n      mstore\n      0x04\n      add\n      tag_249\n      swap2\n      swap1\n      tag_90\n      jump\t// in\n    tag_249:\n      mload(0x40)\n      dup1\n      swap2\n      sub\n      swap1\n      revert\n        /* \"@openzeppelin/contracts/token/ERC20/ERC20.sol\":5567:5653  if (to == address(0)) {... */\n    tag_248:\n        /* \"@openzeppelin/contracts/token/ERC20/ERC20.sol\":5662:5686  _update(from, to, value) */\n      tag_250\n        /* \"@openzeppelin/contracts/token/ERC20/ERC20.sol\":5670:5674  from */\n      dup4\n        /* \"@openzeppelin/contracts/token/ERC20/ERC20.sol\":5676:5678  to */\n      dup4\n        /* \"@openzeppelin/contracts/token/ERC20/ERC20.sol\":5680:5685  value */\n      dup4\n        /* \"@openzeppelin/contracts/token/ERC20/ERC20.sol\":5662:5669  _update */\n      tag_251\n        /* \"@openzeppelin/contracts/token/ERC20/ERC20.sol\":5662:5686  _update(from, to, value) */\n      jump\t// in\n    tag_250:\n        /* \"@openzeppelin/contracts/token/ERC20/ERC20.sol\":5393:5693  function _transfer(address from, address to, uint256 value) internal {... */\n      pop\n      pop\n      pop\n      jump\t// out\n        /* \"@openzeppelin/contracts/access/Ownable.sol\":1796:1958  function _checkOwner() internal view virtual {... */\n    tag_149:\n        /* \"@openzeppelin/contracts/access/Ownable.sol\":1866:1878  _msgSender() */\n      tag_253\n        /* \"@openzeppelin/contracts/access/Ownable.sol\":1866:1876  _msgSender */\n      tag_136\n        /* \"@openzeppelin/contracts/access/Ownable.sol\":1866:1878  _msgSender() */\n      jump\t// in\n    tag_253:\n        /* \"@openzeppelin/contracts/access/Ownable.sol\":1855:1878  owner() != _msgSender() */\n      0xffffffffffffffffffffffffffffffffffffffff\n      and\n        /* \"@openzeppelin/contracts/access/Ownable.sol\":1855:1862  owner() */\n      tag_254\n        /* \"@openzeppelin/contracts/access/Ownable.sol\":1855:1860  owner */\n      tag_88\n        /* \"@openzeppelin/contracts/access/Ownable.sol\":1855:1862  owner() */\n      jump\t// in\n    tag_254:\n        /* \"@openzeppelin/contracts/access/Ownable.sol\":1855:1878  owner() != _msgSender() */\n      0xffffffffffffffffffffffffffffffffffffffff\n      and\n      eq\n        /* \"@openzeppelin/contracts/access/Ownable.sol\":1851:1952  if (owner() != _msgSender()) {... */\n      tag_255\n      jumpi\n        /* \"@openzeppelin/contracts/access/Ownable.sol\":1928:1940  _msgSender() */\n      tag_256\n        /* \"@openzeppelin/contracts/access/Ownable.sol\":1928:1938  _msgSender */\n      tag_136\n        /* \"@openzeppelin/contracts/access/Ownable.sol\":1928:1940  _msgSender() */\n      jump\t// in\n    tag_256:\n        /* \"@openzeppelin/contracts/access/Ownable.sol\":1901:1941  OwnableUnauthorizedAccount(_msgSender()) */\n      mload(0x40)\n      0x118cdaa700000000000000000000000000000000000000000000000000000000\n      dup2\n      mstore\n      0x04\n      add\n      tag_257\n      swap2\n      swap1\n      tag_90\n      jump\t// in\n    tag_257:\n      mload(0x40)\n      dup1\n      swap2\n      sub\n      swap1\n      revert\n        /* \"@openzeppelin/contracts/access/Ownable.sol\":1851:1952  if (owner() != _msgSender()) {... */\n    tag_255:\n        /* \"@openzeppelin/contracts/access/Ownable.sol\":1796:1958  function _checkOwner() internal view virtual {... */\n      jump\t// out\n        /* \"@openzeppelin/contracts/token/ERC20/ERC20.sol\":7458:7666  function _mint(address account, uint256 value) internal {... */\n    tag_163:\n        /* \"@openzeppelin/contracts/token/ERC20/ERC20.sol\":7547:7548  0 */\n      0x00\n        /* \"@openzeppelin/contracts/token/ERC20/ERC20.sol\":7528:7549  account == address(0) */\n      0xffffffffffffffffffffffffffffffffffffffff\n      and\n        /* \"@openzeppelin/contracts/token/ERC20/ERC20.sol\":7528:7535  account */\n      dup3\n        /* \"@openzeppelin/contracts/token/ERC20/ERC20.sol\":7528:7549  account == address(0) */\n      0xffffffffffffffffffffffffffffffffffffffff\n      and\n      sub\n        /* \"@openzeppelin/contracts/token/ERC20/ERC20.sol\":7524:7615  if (account == address(0)) {... */\n      tag_259\n      jumpi\n        /* \"@openzeppelin/contracts/token/ERC20/ERC20.sol\":7601:7602  0 */\n      0x00\n        /* \"@openzeppelin/contracts/token/ERC20/ERC20.sol\":7572:7604  ERC20InvalidReceiver(address(0)) */\n      mload(0x40)\n      0xec442f0500000000000000000000000000000000000000000000000000000000\n      dup2\n      mstore\n      0x04\n      add\n      tag_260\n      swap2\n      swap1\n      tag_90\n      jump\t// in\n    tag_260:\n      mload(0x40)\n      dup1\n      swap2\n      sub\n      swap1\n      revert\n        /* \"@openzeppelin/contracts/token/ERC20/ERC20.sol\":7524:7615  if (account == address(0)) {... */\n    tag_259:\n        /* \"@openzeppelin/contracts/token/ERC20/ERC20.sol\":7624:7659  _update(address(0), account, value) */\n      tag_261\n        /* \"@openzeppelin/contracts/token/ERC20/ERC20.sol\":7640:7641  0 */\n      0x00\n        /* \"@openzeppelin/contracts/token/ERC20/ERC20.sol\":7644:7651  account */\n      dup4\n        /* \"@openzeppelin/contracts/token/ERC20/ERC20.sol\":7653:7658  value */\n      dup4\n        /* \"@openzeppelin/contracts/token/ERC20/ERC20.sol\":7624:7631  _update */\n      tag_251\n        /* \"@openzeppelin/contracts/token/ERC20/ERC20.sol\":7624:7659  _update(address(0), account, value) */\n      jump\t// in\n    tag_261:\n        /* \"@openzeppelin/contracts/token/ERC20/ERC20.sol\":7458:7666  function _mint(address account, uint256 value) internal {... */\n      pop\n      pop\n      jump\t// out\n        /* \"@openzeppelin/contracts/access/Ownable.sol\":2912:3099  function _transferOwnership(address newOwner) internal virtual {... */\n    tag_180:\n        /* \"@openzeppelin/contracts/access/Ownable.sol\":2985:3001  address oldOwner */\n      0x00\n        /* \"@openzeppelin/contracts/access/Ownable.sol\":3004:3010  _owner */\n      0x05\n      0x00\n      swap1\n      sload\n      swap1\n      0x0100\n      exp\n      swap1\n      div\n      0xffffffffffffffffffffffffffffffffffffffff\n      and\n        /* \"@openzeppelin/contracts/access/Ownable.sol\":2985:3010  address oldOwner = _owner */\n      swap1\n      pop\n        /* \"@openzeppelin/contracts/access/Ownable.sol\":3029:3037  newOwner */\n      dup2\n        /* \"@openzeppelin/contracts/access/Ownable.sol\":3020:3026  _owner */\n      0x05\n      0x00\n        /* \"@openzeppelin/contracts/access/Ownable.sol\":3020:3037  _owner = newOwner */\n      0x0100\n      exp\n      dup2\n      sload\n      dup2\n      0xffffffffffffffffffffffffffffffffffffffff\n      mul\n      not\n      and\n      swap1\n      dup4\n      0xffffffffffffffffffffffffffffffffffffffff\n      and\n      mul\n      or\n      swap1\n      sstore\n      pop\n        /* \"@openzeppelin/contracts/access/Ownable.sol\":3083:3091  newOwner */\n      dup2\n        /* \"@openzeppelin/contracts/access/Ownable.sol\":3052:3092  OwnershipTransferred(oldOwner, newOwner) */\n      0xffffffffffffffffffffffffffffffffffffffff\n      and\n        /* \"@openzeppelin/contracts/access/Ownable.sol\":3073:3081  oldOwner */\n      dup2\n        /* \"@openzeppelin/contracts/access/Ownable.sol\":3052:3092  OwnershipTransferred(oldOwner, newOwner) */\n      0xffffffffffffffffffffffffffffffffffffffff\n      and\n      0x8be0079c531659141344cd1fd0a4f28419497f9722a3daafe3b4186f6b6457e0\n      mload(0x40)\n      mload(0x40)\n      dup1\n      swap2\n      sub\n      swap1\n      log3\n        /* \"@openzeppelin/contracts/access/Ownable.sol\":2975:3099  {... */\n      pop\n        /* \"@openzeppelin/contracts/access/Ownable.sol\":2912:3099  function _transferOwnership(address newOwner) internal virtual {... */\n      pop\n      jump\t// out\n        /* \"@openzeppelin/contracts/token/ERC20/ERC20.sol\":9701:10133  function _approve(address owner, address spender, uint256 value, bool emitEvent) internal virtual {... */\n    tag_237:\n        /* \"@openzeppelin/contracts/token/ERC20/ERC20.sol\":9830:9831  0 */\n      0x00\n        /* \"@openzeppelin/contracts/token/ERC20/ERC20.sol\":9813:9832  owner == address(0) */\n      0xffffffffffffffffffffffffffffffffffffffff\n      and\n        /* \"@openzeppelin/contracts/token/ERC20/ERC20.sol\":9813:9818  owner */\n      dup5\n        /* \"@openzeppelin/contracts/token/ERC20/ERC20.sol\":9813:9832  owner == address(0) */\n      0xffffffffffffffffffffffffffffffffffffffff\n      and\n      sub\n        /* \"@openzeppelin/contracts/token/ERC20/ERC20.sol\":9809:9898  if (owner == address(0)) {... */\n      tag_264\n      jumpi\n        /* \"@openzeppelin/contracts/token/ERC20/ERC20.sol\":9884:9885  0 */\n      0x00\n        /* \"@openzeppelin/contracts/token/ERC20/ERC20.sol\":9855:9887  ERC20InvalidApprover(address(0)) */\n      mload(0x40)\n      0xe602df0500000000000000000000000000000000000000000000000000000000\n      dup2\n      mstore\n      0x04\n      add\n      tag_265\n      swap2\n      swap1\n      tag_90\n      jump\t// in\n    tag_265:\n      mload(0x40)\n      dup1\n      swap2\n      sub\n      swap1\n      revert\n        /* \"@openzeppelin/contracts/token/ERC20/ERC20.sol\":9809:9898  if (owner == address(0)) {... */\n    tag_264:\n        /* \"@openzeppelin/contracts/token/ERC20/ERC20.sol\":9930:9931  0 */\n      0x00\n        /* \"@openzeppelin/contracts/token/ERC20/ERC20.sol\":9911:9932  spender == address(0) */\n      0xffffffffffffffffffffffffffffffffffffffff\n      and\n        /* \"@openzeppelin/contracts/token/ERC20/ERC20.sol\":9911:9918  spender */\n      dup4\n        /* \"@openzeppelin/contracts/token/ERC20/ERC20.sol\":9911:9932  spender == address(0) */\n      0xffffffffffffffffffffffffffffffffffffffff\n      and\n      sub\n        /* \"@openzeppelin/contracts/token/ERC20/ERC20.sol\":9907:9997  if (spender == address(0)) {... */\n      tag_266\n      jumpi\n        /* \"@openzeppelin/contracts/token/ERC20/ERC20.sol\":9983:9984  0 */\n      0x00\n        /* \"@openzeppelin/contracts/token/ERC20/ERC20.sol\":9955:9986  ERC20InvalidSpender(address(0)) */\n      mload(0x40)\n      0x94280d6200000000000000000000000000000000000000000000000000000000\n      dup2\n      mstore\n      0x04\n      add\n      tag_267\n      swap2\n      swap1\n      tag_90\n      jump\t// in\n    tag_267:\n      mload(0x40)\n      dup1\n      swap2\n      sub\n      swap1\n      revert\n        /* \"@openzeppelin/contracts/token/ERC20/ERC20.sol\":9907:9997  if (spender == address(0)) {... */\n    tag_266:\n        /* \"@openzeppelin/contracts/token/ERC20/ERC20.sol\":10036:10041  value */\n      dup2\n        /* \"@openzeppelin/contracts/token/ERC20/ERC20.sol\":10006:10017  _allowances */\n      0x01\n        /* \"@openzeppelin/contracts/token/ERC20/ERC20.sol\":10006:10024  _allowances[owner] */\n      0x00\n        /* \"@openzeppelin/contracts/token/ERC20/ERC20.sol\":10018:10023  owner */\n      dup7\n        /* \"@openzeppelin/contracts/token/ERC20/ERC20.sol\":10006:10024  _allowances[owner] */\n      0xffffffffffffffffffffffffffffffffffffffff\n      and\n      0xffffffffffffffffffffffffffffffffffffffff\n      and\n      dup2\n      mstore\n      0x20\n      add\n      swap1\n      dup2\n      mstore\n      0x20\n      add\n      0x00\n      keccak256\n        /* \"@openzeppelin/contracts/token/ERC20/ERC20.sol\":10006:10033  _allowances[owner][spender] */\n      0x00\n        /* \"@openzeppelin/contracts/token/ERC20/ERC20.sol\":10025:10032  spender */\n      dup6\n        /* \"@openzeppelin/contracts/token/ERC20/ERC20.sol\":10006:10033  _allowances[owner][spender] */\n      0xffffffffffffffffffffffffffffffffffffffff\n      and\n      0xffffffffffffffffffffffffffffffffffffffff\n      and\n      dup2\n      mstore\n      0x20\n      add\n      swap1\n      dup2\n      mstore\n      0x20\n      add\n      0x00\n      keccak256\n        /* \"@openzeppelin/contracts/token/ERC20/ERC20.sol\":10006:10041  _allowances[owner][spender] = value */\n      dup2\n      swap1\n      sstore\n      pop\n        /* \"@openzeppelin/contracts/token/ERC20/ERC20.sol\":10055:10064  emitEvent */\n      dup1\n        /* \"@openzeppelin/contracts/token/ERC20/ERC20.sol\":10051:10127  if (emitEvent) {... */\n      iszero\n      tag_268\n      jumpi\n        /* \"@openzeppelin/contracts/token/ERC20/ERC20.sol\":10101:10108  spender */\n      dup3\n        /* \"@openzeppelin/contracts/token/ERC20/ERC20.sol\":10085:10116  Approval(owner, spender, value) */\n      0xffffffffffffffffffffffffffffffffffffffff\n      and\n        /* \"@openzeppelin/contracts/token/ERC20/ERC20.sol\":10094:10099  owner */\n      dup5\n        /* \"@openzeppelin/contracts/token/ERC20/ERC20.sol\":10085:10116  Approval(owner, spender, value) */\n      0xffffffffffffffffffffffffffffffffffffffff\n      and\n      0x8c5be1e5ebec7d5bd14f71427d1e84f3dd0314c0f7b2291e5b200ac8c7c3b925\n        /* \"@openzeppelin/contracts/token/ERC20/ERC20.sol\":10110:10115  value */\n      dup5\n        /* \"@openzeppelin/contracts/token/ERC20/ERC20.sol\":10085:10116  Approval(owner, spender, value) */\n      mload(0x40)\n      tag_269\n      swap2\n      swap1\n      tag_43\n      jump\t// in\n    tag_269:\n      mload(0x40)\n      dup1\n      swap2\n      sub\n      swap1\n      log3\n        /* \"@openzeppelin/contracts/token/ERC20/ERC20.sol\":10051:10127  if (emitEvent) {... */\n    tag_268:\n        /* \"@openzeppelin/contracts/token/ERC20/ERC20.sol\":9701:10133  function _approve(address owner, address spender, uint256 value, bool emitEvent) internal virtual {... */\n      pop\n      pop\n      pop\n      pop\n      jump\t// out\n        /* \"@openzeppelin/contracts/token/ERC20/ERC20.sol\":6008:7115  function _update(address from, address to, uint256 value) internal virtual {... */\n    tag_251:\n        /* \"@openzeppelin/contracts/token/ERC20/ERC20.sol\":6113:6114  0 */\n      0x00\n        /* \"@openzeppelin/contracts/token/ERC20/ERC20.sol\":6097:6115  from == address(0) */\n      0xffffffffffffffffffffffffffffffffffffffff\n      and\n        /* \"@openzeppelin/contracts/token/ERC20/ERC20.sol\":6097:6101  from */\n      dup4\n        /* \"@openzeppelin/contracts/token/ERC20/ERC20.sol\":6097:6115  from == address(0) */\n      0xffffffffffffffffffffffffffffffffffffffff\n      and\n      sub\n        /* \"@openzeppelin/contracts/token/ERC20/ERC20.sol\":6093:6633  if (from == address(0)) {... */\n      tag_271\n      jumpi\n        /* \"@openzeppelin/contracts/token/ERC20/ERC20.sol\":6249:6254  value */\n      dup1\n        /* \"@openzeppelin/contracts/token/ERC20/ERC20.sol\":6233:6245  _totalSupply */\n      0x02\n      0x00\n        /* \"@openzeppelin/contracts/token/ERC20/ERC20.sol\":6233:6254  _totalSupply += value */\n      dup3\n      dup3\n      sload\n      tag_272\n      swap2\n      swap1\n      tag_158\n      jump\t// in\n    tag_272:\n      swap3\n      pop\n      pop\n      dup2\n      swap1\n      sstore\n      pop\n        /* \"@openzeppelin/contracts/token/ERC20/ERC20.sol\":6093:6633  if (from == address(0)) {... */\n      jump(tag_273)\n    tag_271:\n        /* \"@openzeppelin/contracts/token/ERC20/ERC20.sol\":6285:6304  uint256 fromBalance */\n      0x00\n        /* \"@openzeppelin/contracts/token/ERC20/ERC20.sol\":6307:6316  _balances */\n      dup1\n        /* \"@openzeppelin/contracts/token/ERC20/ERC20.sol\":6307:6322  _balances[from] */\n      0x00\n        /* \"@openzeppelin/contracts/token/ERC20/ERC20.sol\":6317:6321  from */\n      dup6\n        /* \"@openzeppelin/contracts/token/ERC20/ERC20.sol\":6307:6322  _balances[from] */\n      0xffffffffffffffffffffffffffffffffffffffff\n      and\n      0xffffffffffffffffffffffffffffffffffffffff\n      and\n      dup2\n      mstore\n      0x20\n      add\n      swap1\n      dup2\n      mstore\n      0x20\n      add\n      0x00\n      keccak256\n      sload\n        /* \"@openzeppelin/contracts/token/ERC20/ERC20.sol\":6285:6322  uint256 fromBalance = _balances[from] */\n      swap1\n      pop\n        /* \"@openzeppelin/contracts/token/ERC20/ERC20.sol\":6354:6359  value */\n      dup2\n        /* \"@openzeppelin/contracts/token/ERC20/ERC20.sol\":6340:6351  fromBalance */\n      dup2\n        /* \"@openzeppelin/contracts/token/ERC20/ERC20.sol\":6340:6359  fromBalance < value */\n      lt\n        /* \"@openzeppelin/contracts/token/ERC20/ERC20.sol\":6336:6451  if (fromBalance < value) {... */\n      iszero\n      tag_274\n      jumpi\n        /* \"@openzeppelin/contracts/token/ERC20/ERC20.sol\":6411:6415  from */\n      dup4\n        /* \"@openzeppelin/contracts/token/ERC20/ERC20.sol\":6417:6428  fromBalance */\n      dup2\n        /* \"@openzeppelin/contracts/token/ERC20/ERC20.sol\":6430:6435  value */\n      dup4\n        /* \"@openzeppelin/contracts/token/ERC20/ERC20.sol\":6386:6436  ERC20InsufficientBalance(from, fromBalance, value) */\n      mload(0x40)\n      0xe450d38c00000000000000000000000000000000000000000000000000000000\n      dup2\n      mstore\n      0x04\n      add\n      tag_275\n      swap4\n      swap3\n      swap2\n      swap1\n      tag_243\n      jump\t// in\n    tag_275:\n      mload(0x40)\n      dup1\n      swap2\n      sub\n      swap1\n      revert\n        /* \"@openzeppelin/contracts/token/ERC20/ERC20.sol\":6336:6451  if (fromBalance < value) {... */\n    tag_274:\n        /* \"@openzeppelin/contracts/token/ERC20/ERC20.sol\":6603:6608  value */\n      dup2\n        /* \"@openzeppelin/contracts/token/ERC20/ERC20.sol\":6589:6600  fromBalance */\n      dup2\n        /* \"@openzeppelin/contracts/token/ERC20/ERC20.sol\":6589:6608  fromBalance - value */\n      sub\n        /* \"@openzeppelin/contracts/token/ERC20/ERC20.sol\":6571:6580  _balances */\n      0x00\n        /* \"@openzeppelin/contracts/token/ERC20/ERC20.sol\":6571:6586  _balances[from] */\n      dup1\n        /* \"@openzeppelin/contracts/token/ERC20/ERC20.sol\":6581:6585  from */\n      dup7\n        /* \"@openzeppelin/contracts/token/ERC20/ERC20.sol\":6571:6586  _balances[from] */\n      0xffffffffffffffffffffffffffffffffffffffff\n      and\n      0xffffffffffffffffffffffffffffffffffffffff\n      and\n      dup2\n      mstore\n      0x20\n      add\n      swap1\n      dup2\n      mstore\n      0x20\n      add\n      0x00\n      keccak256\n        /* \"@openzeppelin/contracts/token/ERC20/ERC20.sol\":6571:6608  _balances[from] = fromBalance - value */\n      dup2\n      swap1\n      sstore\n      pop\n        /* \"@openzeppelin/contracts/token/ERC20/ERC20.sol\":6271:6633  {... */\n      pop\n        /* \"@openzeppelin/contracts/token/ERC20/ERC20.sol\":6093:6633  if (from == address(0)) {... */\n    tag_273:\n        /* \"@openzeppelin/contracts/token/ERC20/ERC20.sol\":6661:6662  0 */\n      0x00\n        /* \"@openzeppelin/contracts/token/ERC20/ERC20.sol\":6647:6663  to == address(0) */\n      0xffffffffffffffffffffffffffffffffffffffff\n      and\n        /* \"@openzeppelin/contracts/token/ERC20/ERC20.sol\":6647:6649  to */\n      dup3\n        /* \"@openzeppelin/contracts/token/ERC20/ERC20.sol\":6647:6663  to == address(0) */\n      0xffffffffffffffffffffffffffffffffffffffff\n      and\n      sub\n        /* \"@openzeppelin/contracts/token/ERC20/ERC20.sol\":6643:7068  if (to == address(0)) {... */\n      tag_276\n      jumpi\n        /* \"@openzeppelin/contracts/token/ERC20/ERC20.sol\":6826:6831  value */\n      dup1\n        /* \"@openzeppelin/contracts/token/ERC20/ERC20.sol\":6810:6822  _totalSupply */\n      0x02\n      0x00\n        /* \"@openzeppelin/contracts/token/ERC20/ERC20.sol\":6810:6831  _totalSupply -= value */\n      dup3\n      dup3\n      sload\n      sub\n      swap3\n      pop\n      pop\n      dup2\n      swap1\n      sstore\n      pop\n        /* \"@openzeppelin/contracts/token/ERC20/ERC20.sol\":6643:7068  if (to == address(0)) {... */\n      jump(tag_277)\n    tag_276:\n        /* \"@openzeppelin/contracts/token/ERC20/ERC20.sol\":7038:7043  value */\n      dup1\n        /* \"@openzeppelin/contracts/token/ERC20/ERC20.sol\":7021:7030  _balances */\n      0x00\n        /* \"@openzeppelin/contracts/token/ERC20/ERC20.sol\":7021:7034  _balances[to] */\n      dup1\n        /* \"@openzeppelin/contracts/token/ERC20/ERC20.sol\":7031:7033  to */\n      dup5\n        /* \"@openzeppelin/contracts/token/ERC20/ERC20.sol\":7021:7034  _balances[to] */\n      0xffffffffffffffffffffffffffffffffffffffff\n      and\n      0xffffffffffffffffffffffffffffffffffffffff\n      and\n      dup2\n      mstore\n      0x20\n      add\n      swap1\n      dup2\n      mstore\n      0x20\n      add\n      0x00\n      keccak256\n      0x00\n        /* \"@openzeppelin/contracts/token/ERC20/ERC20.sol\":7021:7043  _balances[to] += value */\n      dup3\n      dup3\n      sload\n      add\n      swap3\n      pop\n      pop\n      dup2\n      swap1\n      sstore\n      pop\n        /* \"@openzeppelin/contracts/token/ERC20/ERC20.sol\":6643:7068  if (to == address(0)) {... */\n    tag_277:\n        /* \"@openzeppelin/contracts/token/ERC20/ERC20.sol\":7098:7100  to */\n      dup2\n        /* \"@openzeppelin/contracts/token/ERC20/ERC20.sol\":7083:7108  Transfer(from, to, value) */\n      0xffffffffffffffffffffffffffffffffffffffff\n      and\n        /* \"@openzeppelin/contracts/token/ERC20/ERC20.sol\":7092:7096  from */\n      dup4\n        /* \"@openzeppelin/contracts/token/ERC20/ERC20.sol\":7083:7108  Transfer(from, to, value) */\n      0xffffffffffffffffffffffffffffffffffffffff\n      and\n      0xddf252ad1be2c89b69c2b068fc378daa952ba7f163c4a11628f55a4df523b3ef\n        /* \"@openzeppelin/contracts/token/ERC20/ERC20.sol\":7102:7107  value */\n      dup4\n        /* \"@openzeppelin/contracts/token/ERC20/ERC20.sol\":7083:7108  Transfer(from, to, value) */\n      mload(0x40)\n      tag_278\n      swap2\n      swap1\n      tag_43\n      jump\t// in\n    tag_278:\n      mload(0x40)\n      dup1\n      swap2\n      sub\n      swap1\n      log3\n        /* \"@openzeppelin/contracts/token/ERC20/ERC20.sol\":6008:7115  function _update(address from, address to, uint256 value) internal virtual {... */\n      pop\n      pop\n      pop\n      jump\t// out\n        /* \"#utility.yul\":7:106   */\n    tag_279:\n        /* \"#utility.yul\":59:65   */\n      0x00\n        /* \"#utility.yul\":93:98   */\n      dup2\n        /* \"#utility.yul\":87:99   */\n      mload\n        /* \"#utility.yul\":77:99   */\n      swap1\n      pop\n        /* \"#utility.yul\":7:106   */\n      swap2\n      swap1\n      pop\n      jump\t// out\n        /* \"#utility.yul\":112:281   */\n    tag_280:\n        /* \"#utility.yul\":196:207   */\n      0x00\n        /* \"#utility.yul\":230:236   */\n      dup3\n        /* \"#utility.yul\":225:228   */\n      dup3\n        /* \"#utility.yul\":218:237   */\n      mstore\n        /* \"#utility.yul\":270:274   */\n      0x20\n        /* \"#utility.yul\":265:268   */\n      dup3\n        /* \"#utility.yul\":261:275   */\n      add\n        /* \"#utility.yul\":246:275   */\n      swap1\n      pop\n        /* \"#utility.yul\":112:281   */\n      swap3\n      swap2\n      pop\n      pop\n      jump\t// out\n        /* \"#utility.yul\":287:426   */\n    tag_281:\n        /* \"#utility.yul\":376:382   */\n      dup3\n        /* \"#utility.yul\":371:374   */\n      dup2\n        /* \"#utility.yul\":366:369   */\n      dup4\n        /* \"#utility.yul\":360:383   */\n      mcopy\n        /* \"#utility.yul\":417:418   */\n      0x00\n        /* \"#utility.yul\":408:414   */\n      dup4\n        /* \"#utility.yul\":403:406   */\n      dup4\n        /* \"#utility.yul\":399:415   */\n      add\n        /* \"#utility.yul\":392:419   */\n      mstore\n        /* \"#utility.yul\":287:426   */\n      pop\n      pop\n      pop\n      jump\t// out\n        /* \"#utility.yul\":432:534   */\n    tag_282:\n        /* \"#utility.yul\":473:479   */\n      0x00\n        /* \"#utility.yul\":524:526   */\n      0x1f\n        /* \"#utility.yul\":520:527   */\n      not\n        /* \"#utility.yul\":515:517   */\n      0x1f\n        /* \"#utility.yul\":508:513   */\n      dup4\n        /* \"#utility.yul\":504:518   */\n      add\n        /* \"#utility.yul\":500:528   */\n      and\n        /* \"#utility.yul\":490:528   */\n      swap1\n      pop\n        /* \"#utility.yul\":432:534   */\n      swap2\n      swap1\n      pop\n      jump\t// out\n        /* \"#utility.yul\":540:917   */\n    tag_283:\n        /* \"#utility.yul\":628:631   */\n      0x00\n        /* \"#utility.yul\":656:695   */\n      tag_322\n        /* \"#utility.yul\":689:694   */\n      dup3\n        /* \"#utility.yul\":656:695   */\n      tag_279\n      jump\t// in\n    tag_322:\n        /* \"#utility.yul\":711:782   */\n      tag_323\n        /* \"#utility.yul\":775:781   */\n      dup2\n        /* \"#utility.yul\":770:773   */\n      dup6\n        /* \"#utility.yul\":711:782   */\n      tag_280\n      jump\t// in\n    tag_323:\n        /* \"#utility.yul\":704:782   */\n      swap4\n      pop\n        /* \"#utility.yul\":791:856   */\n      tag_324\n        /* \"#utility.yul\":849:855   */\n      dup2\n        /* \"#utility.yul\":844:847   */\n      dup6\n        /* \"#utility.yul\":837:841   */\n      0x20\n        /* \"#utility.yul\":830:835   */\n      dup7\n        /* \"#utility.yul\":826:842   */\n      add\n        /* \"#utility.yul\":791:856   */\n      tag_281\n      jump\t// in\n    tag_324:\n        /* \"#utility.yul\":881:910   */\n      tag_325\n        /* \"#utility.yul\":903:909   */\n      dup2\n        /* \"#utility.yul\":881:910   */\n      tag_282\n      jump\t// in\n    tag_325:\n        /* \"#utility.yul\":876:879   */\n      dup5\n        /* \"#utility.yul\":872:911   */\n      add\n        /* \"#utility.yul\":865:911   */\n      swap2\n      pop\n        /* \"#utility.yul\":632:917   */\n      pop\n        /* \"#utility.yul\":540:917   */\n      swap3\n      swap2\n      pop\n      pop\n      jump\t// out\n        /* \"#utility.yul\":923:1236   */\n    tag_31:\n        /* \"#utility.yul\":1036:1040   */\n      0x00\n        /* \"#utility.yul\":1074:1076   */\n      0x20\n        /* \"#utility.yul\":1063:1072   */\n      dup3\n        /* \"#utility.yul\":1059:1077   */\n      add\n        /* \"#utility.yul\":1051:1077   */\n      swap1\n      pop\n        /* \"#utility.yul\":1123:1132   */\n      dup2\n        /* \"#utility.yul\":1117:1121   */\n      dup2\n        /* \"#utility.yul\":1113:1133   */\n      sub\n        /* \"#utility.yul\":1109:1110   */\n      0x00\n        /* \"#utility.yul\":1098:1107   */\n      dup4\n        /* \"#utility.yul\":1094:1111   */\n      add\n        /* \"#utility.yul\":1087:1134   */\n      mstore\n        /* \"#utility.yul\":1151:1229   */\n      tag_327\n        /* \"#utility.yul\":1224:1228   */\n      dup2\n        /* \"#utility.yul\":1215:1221   */\n      dup5\n        /* \"#utility.yul\":1151:1229   */\n      tag_283\n      jump\t// in\n    tag_327:\n        /* \"#utility.yul\":1143:1229   */\n      swap1\n      pop\n        /* \"#utility.yul\":923:1236   */\n      swap3\n      swap2\n      pop\n      pop\n      jump\t// out\n        /* \"#utility.yul\":1323:1440   */\n    tag_285:\n        /* \"#utility.yul\":1432:1433   */\n      0x00\n        /* \"#utility.yul\":1429:1430   */\n      dup1\n        /* \"#utility.yul\":1422:1434   */\n      revert\n        /* \"#utility.yul\":1569:1695   */\n    tag_287:\n        /* \"#utility.yul\":1606:1613   */\n      0x00\n        /* \"#utility.yul\":1646:1688   */\n      0xffffffffffffffffffffffffffffffffffffffff\n        /* \"#utility.yul\":1639:1644   */\n      dup3\n        /* \"#utility.yul\":1635:1689   */\n      and\n        /* \"#utility.yul\":1624:1689   */\n      swap1\n      pop\n        /* \"#utility.yul\":1569:1695   */\n      swap2\n      swap1\n      pop\n      jump\t// out\n        /* \"#utility.yul\":1701:1797   */\n    tag_288:\n        /* \"#utility.yul\":1738:1745   */\n      0x00\n        /* \"#utility.yul\":1767:1791   */\n      tag_333\n        /* \"#utility.yul\":1785:1790   */\n      dup3\n        /* \"#utility.yul\":1767:1791   */\n      tag_287\n      jump\t// in\n    tag_333:\n        /* \"#utility.yul\":1756:1791   */\n      swap1\n      pop\n        /* \"#utility.yul\":1701:1797   */\n      swap2\n      swap1\n      pop\n      jump\t// out\n        /* \"#utility.yul\":1803:1925   */\n    tag_289:\n        /* \"#utility.yul\":1876:1900   */\n      tag_335\n        /* \"#utility.yul\":1894:1899   */\n      dup2\n        /* \"#utility.yul\":1876:1900   */\n      tag_288\n      jump\t// in\n    tag_335:\n        /* \"#utility.yul\":1869:1874   */\n      dup2\n        /* \"#utility.yul\":1866:1901   */\n      eq\n        /* \"#utility.yul\":1856:1919   */\n      tag_336\n      jumpi\n        /* \"#utility.yul\":1915:1916   */\n      0x00\n        /* \"#utility.yul\":1912:1913   */\n      dup1\n        /* \"#utility.yul\":1905:1917   */\n      revert\n        /* \"#utility.yul\":1856:1919   */\n    tag_336:\n        /* \"#utility.yul\":1803:1925   */\n      pop\n      jump\t// out\n        /* \"#utility.yul\":1931:2070   */\n    tag_290:\n        /* \"#utility.yul\":1977:1982   */\n      0x00\n        /* \"#utility.yul\":2015:2021   */\n      dup2\n        /* \"#utility.yul\":2002:2022   */\n      calldataload\n        /* \"#utility.yul\":1993:2022   */\n      swap1\n      pop\n        /* \"#utility.yul\":2031:2064   */\n      tag_338\n        /* \"#utility.yul\":2058:2063   */\n      dup2\n        /* \"#utility.yul\":2031:2064   */\n      tag_289\n      jump\t// in\n    tag_338:\n        /* \"#utility.yul\":1931:2070   */\n      swap3\n      swap2\n      pop\n      pop\n      jump\t// out\n        /* \"#utility.yul\":2076:2153   */\n    tag_291:\n        /* \"#utility.yul\":2113:2120   */\n      0x00\n        /* \"#utility.yul\":2142:2147   */\n      dup2\n        /* \"#utility.yul\":2131:2147   */\n      swap1\n      pop\n        /* \"#utility.yul\":2076:2153   */\n      swap2\n      swap1\n      pop\n      jump\t// out\n        /* \"#utility.yul\":2159:2281   */\n    tag_292:\n        /* \"#utility.yul\":2232:2256   */\n      tag_341\n        /* \"#utility.yul\":2250:2255   */\n      dup2\n        /* \"#utility.yul\":2232:2256   */\n      tag_291\n      jump\t// in\n    tag_341:\n        /* \"#utility.yul\":2225:2230   */\n      dup2\n        /* \"#utility.yul\":2222:2257   */\n      eq\n        /* \"#utility.yul\":2212:2275   */\n      tag_342\n      jumpi\n        /* \"#utility.yul\":2271:2272   */\n      0x00\n        /* \"#utility.yul\":2268:2269   */\n      dup1\n        /* \"#utility.yul\":2261:2273   */\n      revert\n        /* \"#utility.yul\":2212:2275   */\n    tag_342:\n        /* \"#utility.yul\":2159:2281   */\n      pop\n      jump\t// out\n        /* \"#utility.yul\":2287:2426   */\n    tag_293:\n        /* \"#utility.yul\":2333:2338   */\n      0x00\n        /* \"#utility.yul\":2371:2377   */\n      dup2\n        /* \"#utility.yul\":2358:2378   */\n      calldataload\n        /* \"#utility.yul\":2349:2378   */\n      swap1\n      pop\n        /* \"#utility.yul\":2387:2420   */\n      tag_344\n        /* \"#utility.yul\":2414:2419   */\n      dup2\n        /* \"#utility.yul\":2387:2420   */\n      tag_292\n      jump\t// in\n    tag_344:\n        /* \"#utility.yul\":2287:2426   */\n      swap3\n      swap2\n      pop\n      pop\n      jump\t// out\n        /* \"#utility.yul\":2432:2906   */\n    tag_35:\n        /* \"#utility.yul\":2500:2506   */\n      0x00\n        /* \"#utility.yul\":2508:2514   */\n      dup1\n        /* \"#utility.yul\":2557:2559   */\n      0x40\n        /* \"#utility.yul\":2545:2554   */\n      dup4\n        /* \"#utility.yul\":2536:2543   */\n      dup6\n        /* \"#utility.yul\":2532:2555   */\n      sub\n        /* \"#utility.yul\":2528:2560   */\n      slt\n        /* \"#utility.yul\":2525:2644   */\n      iszero\n      tag_346\n      jumpi\n        /* \"#utility.yul\":2563:2642   */\n      tag_347\n      tag_285\n      jump\t// in\n    tag_347:\n        /* \"#utility.yul\":2525:2644   */\n    tag_346:\n        /* \"#utility.yul\":2683:2684   */\n      0x00\n        /* \"#utility.yul\":2708:2761   */\n      tag_348\n        /* \"#utility.yul\":2753:2760   */\n      dup6\n        /* \"#utility.yul\":2744:2750   */\n      dup3\n        /* \"#utility.yul\":2733:2742   */\n      dup7\n        /* \"#utility.yul\":2729:2751   */\n      add\n        /* \"#utility.yul\":2708:2761   */\n      tag_290\n      jump\t// in\n    tag_348:\n        /* \"#utility.yul\":2698:2761   */\n      swap3\n      pop\n        /* \"#utility.yul\":2654:2771   */\n      pop\n        /* \"#utility.yul\":2810:2812   */\n      0x20\n        /* \"#utility.yul\":2836:2889   */\n      tag_349\n        /* \"#utility.yul\":2881:2888   */\n      dup6\n        /* \"#utility.yul\":2872:2878   */\n      dup3\n        /* \"#utility.yul\":2861:2870   */\n      dup7\n        /* \"#utility.yul\":2857:2879   */\n      add\n        /* \"#utility.yul\":2836:2889   */\n      tag_293\n      jump\t// in\n    tag_349:\n        /* \"#utility.yul\":2826:2889   */\n      swap2\n      pop\n        /* \"#utility.yul\":2781:2899   */\n      pop\n        /* \"#utility.yul\":2432:2906   */\n      swap3\n      pop\n      swap3\n      swap1\n      pop\n      jump\t// out\n        /* \"#utility.yul\":2912:3002   */\n    tag_294:\n        /* \"#utility.yul\":2946:2953   */\n      0x00\n        /* \"#utility.yul\":2989:2994   */\n      dup2\n        /* \"#utility.yul\":2982:2995   */\n      iszero\n        /* \"#utility.yul\":2975:2996   */\n      iszero\n        /* \"#utility.yul\":2964:2996   */\n      swap1\n      pop\n        /* \"#utility.yul\":2912:3002   */\n      swap2\n      swap1\n      pop\n      jump\t// out\n        /* \"#utility.yul\":3008:3117   */\n    tag_295:\n        /* \"#utility.yul\":3089:3110   */\n      tag_352\n        /* \"#utility.yul\":3104:3109   */\n      dup2\n        /* \"#utility.yul\":3089:3110   */\n      tag_294\n      jump\t// in\n    tag_352:\n        /* \"#utility.yul\":3084:3087   */\n      dup3\n        /* \"#utility.yul\":3077:3111   */\n      mstore\n        /* \"#utility.yul\":3008:3117   */\n      pop\n      pop\n      jump\t// out\n        /* \"#utility.yul\":3123:3333   */\n    tag_38:\n        /* \"#utility.yul\":3210:3214   */\n      0x00\n        /* \"#utility.yul\":3248:3250   */\n      0x20\n        /* \"#utility.yul\":3237:3246   */\n      dup3\n        /* \"#utility.yul\":3233:3251   */\n      add\n        /* \"#utility.yul\":3225:3251   */\n      swap1\n      pop\n        /* \"#utility.yul\":3261:3326   */\n      tag_354\n        /* \"#utility.yul\":3323:3324   */\n      0x00\n        /* \"#utility.yul\":3312:3321   */\n      dup4\n        /* \"#utility.yul\":3308:3325   */\n      add\n        /* \"#utility.yul\":3299:3305   */\n      dup5\n        /* \"#utility.yul\":3261:3326   */\n      tag_295\n      jump\t// in\n    tag_354:\n        /* \"#utility.yul\":3123:3333   */\n      swap3\n      swap2\n      pop\n      pop\n      jump\t// out\n        /* \"#utility.yul\":3339:3457   */\n    tag_296:\n        /* \"#utility.yul\":3426:3450   */\n      tag_356\n        /* \"#utility.yul\":3444:3449   */\n      dup2\n        /* \"#utility.yul\":3426:3450   */\n      tag_291\n      jump\t// in\n    tag_356:\n        /* \"#utility.yul\":3421:3424   */\n      dup3\n        /* \"#utility.yul\":3414:3451   */\n      mstore\n        /* \"#utility.yul\":3339:3457   */\n      pop\n      pop\n      jump\t// out\n        /* \"#utility.yul\":3463:3685   */\n    tag_43:\n        /* \"#utility.yul\":3556:3560   */\n      0x00\n        /* \"#utility.yul\":3594:3596   */\n      0x20\n        /* \"#utility.yul\":3583:3592   */\n      dup3\n        /* \"#utility.yul\":3579:3597   */\n      add\n        /* \"#utility.yul\":3571:3597   */\n      swap1\n      pop\n        /* \"#utility.yul\":3607:3678   */\n      tag_358\n        /* \"#utility.yul\":3675:3676   */\n      0x00\n        /* \"#utility.yul\":3664:3673   */\n      dup4\n        /* \"#utility.yul\":3660:3677   */\n      add\n        /* \"#utility.yul\":3651:3657   */\n      dup5\n        /* \"#utility.yul\":3607:3678   */\n      tag_296\n      jump\t// in\n    tag_358:\n        /* \"#utility.yul\":3463:3685   */\n      swap3\n      swap2\n      pop\n      pop\n      jump\t// out\n        /* \"#utility.yul\":3691:4310   */\n    tag_47:\n        /* \"#utility.yul\":3768:3774   */\n      0x00\n        /* \"#utility.yul\":3776:3782   */\n      dup1\n        /* \"#utility.yul\":3784:3790   */\n      0x00\n        /* \"#utility.yul\":3833:3835   */\n      0x60\n        /* \"#utility.yul\":3821:3830   */\n      dup5\n        /* \"#utility.yul\":3812:3819   */\n      dup7\n        /* \"#utility.yul\":3808:3831   */\n      sub\n        /* \"#utility.yul\":3804:3836   */\n      slt\n        /* \"#utility.yul\":3801:3920   */\n      iszero\n      tag_360\n      jumpi\n        /* \"#utility.yul\":3839:3918   */\n      tag_361\n      tag_285\n      jump\t// in\n    tag_361:\n        /* \"#utility.yul\":3801:3920   */\n    tag_360:\n        /* \"#utility.yul\":3959:3960   */\n      0x00\n        /* \"#utility.yul\":3984:4037   */\n      tag_362\n        /* \"#utility.yul\":4029:4036   */\n      dup7\n        /* \"#utility.yul\":4020:4026   */\n      dup3\n        /* \"#utility.yul\":4009:4018   */\n      dup8\n        /* \"#utility.yul\":4005:4027   */\n      add\n        /* \"#utility.yul\":3984:4037   */\n      tag_290\n      jump\t// in\n    tag_362:\n        /* \"#utility.yul\":3974:4037   */\n      swap4\n      pop\n        /* \"#utility.yul\":3930:4047   */\n      pop\n        /* \"#utility.yul\":4086:4088   */\n      0x20\n        /* \"#utility.yul\":4112:4165   */\n      tag_363\n        /* \"#utility.yul\":4157:4164   */\n      dup7\n        /* \"#utility.yul\":4148:4154   */\n      dup3\n        /* \"#utility.yul\":4137:4146   */\n      dup8\n        /* \"#utility.yul\":4133:4155   */\n      add\n        /* \"#utility.yul\":4112:4165   */\n      tag_290\n      jump\t// in\n    tag_363:\n        /* \"#utility.yul\":4102:4165   */\n      swap3\n      pop\n        /* \"#utility.yul\":4057:4175   */\n      pop\n        /* \"#utility.yul\":4214:4216   */\n      0x40\n        /* \"#utility.yul\":4240:4293   */\n      tag_364\n        /* \"#utility.yul\":4285:4292   */\n      dup7\n        /* \"#utility.yul\":4276:4282   */\n      dup3\n        /* \"#utility.yul\":4265:4274   */\n      dup8\n        /* \"#utility.yul\":4261:4283   */\n      add\n        /* \"#utility.yul\":4240:4293   */\n      tag_293\n      jump\t// in\n    tag_364:\n        /* \"#utility.yul\":4230:4293   */\n      swap2\n      pop\n        /* \"#utility.yul\":4185:4303   */\n      pop\n        /* \"#utility.yul\":3691:4310   */\n      swap3\n      pop\n      swap3\n      pop\n      swap3\n      jump\t// out\n        /* \"#utility.yul\":4316:4402   */\n    tag_297:\n        /* \"#utility.yul\":4351:4358   */\n      0x00\n        /* \"#utility.yul\":4391:4395   */\n      0xff\n        /* \"#utility.yul\":4384:4389   */\n      dup3\n        /* \"#utility.yul\":4380:4396   */\n      and\n        /* \"#utility.yul\":4369:4396   */\n      swap1\n      pop\n        /* \"#utility.yul\":4316:4402   */\n      swap2\n      swap1\n      pop\n      jump\t// out\n        /* \"#utility.yul\":4408:4520   */\n    tag_298:\n        /* \"#utility.yul\":4491:4513   */\n      tag_367\n        /* \"#utility.yul\":4507:4512   */\n      dup2\n        /* \"#utility.yul\":4491:4513   */\n      tag_297\n      jump\t// in\n    tag_367:\n        /* \"#utility.yul\":4486:4489   */\n      dup3\n        /* \"#utility.yul\":4479:4514   */\n      mstore\n        /* \"#utility.yul\":4408:4520   */\n      pop\n      pop\n      jump\t// out\n        /* \"#utility.yul\":4526:4740   */\n    tag_54:\n        /* \"#utility.yul\":4615:4619   */\n      0x00\n        /* \"#utility.yul\":4653:4655   */\n      0x20\n        /* \"#utility.yul\":4642:4651   */\n      dup3\n        /* \"#utility.yul\":4638:4656   */\n      add\n        /* \"#utility.yul\":4630:4656   */\n      swap1\n      pop\n        /* \"#utility.yul\":4666:4733   */\n      tag_369\n        /* \"#utility.yul\":4730:4731   */\n      0x00\n        /* \"#utility.yul\":4719:4728   */\n      dup4\n        /* \"#utility.yul\":4715:4732   */\n      add\n        /* \"#utility.yul\":4706:4712   */\n      dup5\n        /* \"#utility.yul\":4666:4733   */\n      tag_298\n      jump\t// in\n    tag_369:\n        /* \"#utility.yul\":4526:4740   */\n      swap3\n      swap2\n      pop\n      pop\n      jump\t// out\n        /* \"#utility.yul\":4746:5075   */\n    tag_62:\n        /* \"#utility.yul\":4805:4811   */\n      0x00\n        /* \"#utility.yul\":4854:4856   */\n      0x20\n        /* \"#utility.yul\":4842:4851   */\n      dup3\n        /* \"#utility.yul\":4833:4840   */\n      dup5\n        /* \"#utility.yul\":4829:4852   */\n      sub\n        /* \"#utility.yul\":4825:4857   */\n      slt\n        /* \"#utility.yul\":4822:4941   */\n      iszero\n      tag_371\n      jumpi\n        /* \"#utility.yul\":4860:4939   */\n      tag_372\n      tag_285\n      jump\t// in\n    tag_372:\n        /* \"#utility.yul\":4822:4941   */\n    tag_371:\n        /* \"#utility.yul\":4980:4981   */\n      0x00\n        /* \"#utility.yul\":5005:5058   */\n      tag_373\n        /* \"#utility.yul\":5050:5057   */\n      dup5\n        /* \"#utility.yul\":5041:5047   */\n      dup3\n        /* \"#utility.yul\":5030:5039   */\n      dup6\n        /* \"#utility.yul\":5026:5048   */\n      add\n        /* \"#utility.yul\":5005:5058   */\n      tag_290\n      jump\t// in\n    tag_373:\n        /* \"#utility.yul\":4995:5058   */\n      swap2\n      pop\n        /* \"#utility.yul\":4951:5068   */\n      pop\n        /* \"#utility.yul\":4746:5075   */\n      swap3\n      swap2\n      pop\n      pop\n      jump\t// out\n        /* \"#utility.yul\":5081:5410   */\n    tag_68:\n        /* \"#utility.yul\":5140:5146   */\n      0x00\n        /* \"#utility.yul\":5189:5191   */\n      0x20\n        /* \"#utility.yul\":5177:5186   */\n      dup3\n        /* \"#utility.yul\":5168:5175   */\n      dup5\n        /* \"#utility.yul\":5164:5187   */\n      sub\n        /* \"#utility.yul\":5160:5192   */\n      slt\n        /* \"#utility.yul\":5157:5276   */\n      iszero\n      tag_375\n      jumpi\n        /* \"#utility.yul\":5195:5274   */\n      tag_376\n      tag_285\n      jump\t// in\n    tag_376:\n        /* \"#utility.yul\":5157:5276   */\n    tag_375:\n        /* \"#utility.yul\":5315:5316   */\n      0x00\n        /* \"#utility.yul\":5340:5393   */\n      tag_377\n        /* \"#utility.yul\":5385:5392   */\n      dup5\n        /* \"#utility.yul\":5376:5382   */\n      dup3\n        /* \"#utility.yul\":5365:5374   */\n      dup6\n        /* \"#utility.yul\":5361:5383   */\n      add\n        /* \"#utility.yul\":5340:5393   */\n      tag_293\n      jump\t// in\n    tag_377:\n        /* \"#utility.yul\":5330:5393   */\n      swap2\n      pop\n        /* \"#utility.yul\":5286:5403   */\n      pop\n        /* \"#utility.yul\":5081:5410   */\n      swap3\n      swap2\n      pop\n      pop\n      jump\t// out\n        /* \"#utility.yul\":5416:5534   */\n    tag_299:\n        /* \"#utility.yul\":5503:5527   */\n      tag_379\n        /* \"#utility.yul\":5521:5526   */\n      dup2\n        /* \"#utility.yul\":5503:5527   */\n      tag_288\n      jump\t// in\n    tag_379:\n        /* \"#utility.yul\":5498:5501   */\n      dup3\n        /* \"#utility.yul\":5491:5528   */\n      mstore\n        /* \"#utility.yul\":5416:5534   */\n      pop\n      pop\n      jump\t// out\n        /* \"#utility.yul\":5540:5762   */\n    tag_90:\n        /* \"#utility.yul\":5633:5637   */\n      0x00\n        /* \"#utility.yul\":5671:5673   */\n      0x20\n        /* \"#utility.yul\":5660:5669   */\n      dup3\n        /* \"#utility.yul\":5656:5674   */\n      add\n        /* \"#utility.yul\":5648:5674   */\n      swap1\n      pop\n        /* \"#utility.yul\":5684:5755   */\n      tag_381\n        /* \"#utility.yul\":5752:5753   */\n      0x00\n        /* \"#utility.yul\":5741:5750   */\n      dup4\n        /* \"#utility.yul\":5737:5754   */\n      add\n        /* \"#utility.yul\":5728:5734   */\n      dup5\n        /* \"#utility.yul\":5684:5755   */\n      tag_299\n      jump\t// in\n    tag_381:\n        /* \"#utility.yul\":5540:5762   */\n      swap3\n      swap2\n      pop\n      pop\n      jump\t// out\n        /* \"#utility.yul\":5768:6242   */\n    tag_113:\n        /* \"#utility.yul\":5836:5842   */\n      0x00\n        /* \"#utility.yul\":5844:5850   */\n      dup1\n        /* \"#utility.yul\":5893:5895   */\n      0x40\n        /* \"#utility.yul\":5881:5890   */\n      dup4\n        /* \"#utility.yul\":5872:5879   */\n      dup6\n        /* \"#utility.yul\":5868:5891   */\n      sub\n        /* \"#utility.yul\":5864:5896   */\n      slt\n        /* \"#utility.yul\":5861:5980   */\n      iszero\n      tag_383\n      jumpi\n        /* \"#utility.yul\":5899:5978   */\n      tag_384\n      tag_285\n      jump\t// in\n    tag_384:\n        /* \"#utility.yul\":5861:5980   */\n    tag_383:\n        /* \"#utility.yul\":6019:6020   */\n      0x00\n        /* \"#utility.yul\":6044:6097   */\n      tag_385\n        /* \"#utility.yul\":6089:6096   */\n      dup6\n        /* \"#utility.yul\":6080:6086   */\n      dup3\n        /* \"#utility.yul\":6069:6078   */\n      dup7\n        /* \"#utility.yul\":6065:6087   */\n      add\n        /* \"#utility.yul\":6044:6097   */\n      tag_290\n      jump\t// in\n    tag_385:\n        /* \"#utility.yul\":6034:6097   */\n      swap3\n      pop\n        /* \"#utility.yul\":5990:6107   */\n      pop\n        /* \"#utility.yul\":6146:6148   */\n      0x20\n        /* \"#utility.yul\":6172:6225   */\n      tag_386\n        /* \"#utility.yul\":6217:6224   */\n      dup6\n        /* \"#utility.yul\":6208:6214   */\n      dup3\n        /* \"#utility.yul\":6197:6206   */\n      dup7\n        /* \"#utility.yul\":6193:6215   */\n      add\n        /* \"#utility.yul\":6172:6225   */\n      tag_290\n      jump\t// in\n    tag_386:\n        /* \"#utility.yul\":6162:6225   */\n      swap2\n      pop\n        /* \"#utility.yul\":6117:6235   */\n      pop\n        /* \"#utility.yul\":5768:6242   */\n      swap3\n      pop\n      swap3\n      swap1\n      pop\n      jump\t// out\n        /* \"#utility.yul\":6248:6428   */\n    tag_300:\n        /* \"#utility.yul\":6296:6373   */\n      0x4e487b7100000000000000000000000000000000000000000000000000000000\n        /* \"#utility.yul\":6293:6294   */\n      0x00\n        /* \"#utility.yul\":6286:6374   */\n      mstore\n        /* \"#utility.yul\":6393:6397   */\n      0x22\n        /* \"#utility.yul\":6390:6391   */\n      0x04\n        /* \"#utility.yul\":6383:6398   */\n      mstore\n        /* \"#utility.yul\":6417:6421   */\n      0x24\n        /* \"#utility.yul\":6414:6415   */\n      0x00\n        /* \"#utility.yul\":6407:6422   */\n      revert\n        /* \"#utility.yul\":6434:6754   */\n    tag_129:\n        /* \"#utility.yul\":6478:6484   */\n      0x00\n        /* \"#utility.yul\":6515:6516   */\n      0x02\n        /* \"#utility.yul\":6509:6513   */\n      dup3\n        /* \"#utility.yul\":6505:6517   */\n      div\n        /* \"#utility.yul\":6495:6517   */\n      swap1\n      pop\n        /* \"#utility.yul\":6562:6563   */\n      0x01\n        /* \"#utility.yul\":6556:6560   */\n      dup3\n        /* \"#utility.yul\":6552:6564   */\n      and\n        /* \"#utility.yul\":6583:6601   */\n      dup1\n        /* \"#utility.yul\":6573:6654   */\n      tag_389\n      jumpi\n        /* \"#utility.yul\":6639:6643   */\n      0x7f\n        /* \"#utility.yul\":6631:6637   */\n      dup3\n        /* \"#utility.yul\":6627:6644   */\n      and\n        /* \"#utility.yul\":6617:6644   */\n      swap2\n      pop\n        /* \"#utility.yul\":6573:6654   */\n    tag_389:\n        /* \"#utility.yul\":6701:6703   */\n      0x20\n        /* \"#utility.yul\":6693:6699   */\n      dup3\n        /* \"#utility.yul\":6690:6704   */\n      lt\n        /* \"#utility.yul\":6670:6688   */\n      dup2\n        /* \"#utility.yul\":6667:6705   */\n      sub\n        /* \"#utility.yul\":6664:6748   */\n      tag_390\n      jumpi\n        /* \"#utility.yul\":6720:6738   */\n      tag_391\n      tag_300\n      jump\t// in\n    tag_391:\n        /* \"#utility.yul\":6664:6748   */\n    tag_390:\n        /* \"#utility.yul\":6485:6754   */\n      pop\n        /* \"#utility.yul\":6434:6754   */\n      swap2\n      swap1\n      pop\n      jump\t// out\n        /* \"#utility.yul\":6760:6940   */\n    tag_301:\n        /* \"#utility.yul\":6808:6885   */\n      0x4e487b7100000000000000000000000000000000000000000000000000000000\n        /* \"#utility.yul\":6805:6806   */\n      0x00\n        /* \"#utility.yul\":6798:6886   */\n      mstore\n        /* \"#utility.yul\":6905:6909   */\n      0x11\n        /* \"#utility.yul\":6902:6903   */\n      0x04\n        /* \"#utility.yul\":6895:6910   */\n      mstore\n        /* \"#utility.yul\":6929:6933   */\n      0x24\n        /* \"#utility.yul\":6926:6927   */\n      0x00\n        /* \"#utility.yul\":6919:6934   */\n      revert\n        /* \"#utility.yul\":6946:7048   */\n    tag_302:\n        /* \"#utility.yul\":6988:6996   */\n      0x00\n        /* \"#utility.yul\":7035:7040   */\n      dup2\n        /* \"#utility.yul\":7032:7033   */\n      0x01\n        /* \"#utility.yul\":7028:7041   */\n      shr\n        /* \"#utility.yul\":7007:7041   */\n      swap1\n      pop\n        /* \"#utility.yul\":6946:7048   */\n      swap2\n      swap1\n      pop\n      jump\t// out\n        /* \"#utility.yul\":7054:7902   */\n    tag_303:\n        /* \"#utility.yul\":7115:7120   */\n      0x00\n        /* \"#utility.yul\":7122:7126   */\n      dup1\n        /* \"#utility.yul\":7146:7152   */\n      dup3\n        /* \"#utility.yul\":7137:7152   */\n      swap2\n      pop\n        /* \"#utility.yul\":7170:7175   */\n      dup4\n        /* \"#utility.yul\":7161:7175   */\n      swap1\n      pop\n        /* \"#utility.yul\":7184:7896   */\n    tag_395:\n        /* \"#utility.yul\":7205:7206   */\n      0x01\n        /* \"#utility.yul\":7195:7203   */\n      dup6\n        /* \"#utility.yul\":7192:7207   */\n      gt\n        /* \"#utility.yul\":7184:7896   */\n      iszero\n      tag_397\n      jumpi\n        /* \"#utility.yul\":7300:7304   */\n      dup1\n        /* \"#utility.yul\":7295:7298   */\n      dup7\n        /* \"#utility.yul\":7291:7305   */\n      div\n        /* \"#utility.yul\":7285:7289   */\n      dup2\n        /* \"#utility.yul\":7282:7306   */\n      gt\n        /* \"#utility.yul\":7279:7329   */\n      iszero\n      tag_398\n      jumpi\n        /* \"#utility.yul\":7309:7327   */\n      tag_399\n      tag_301\n      jump\t// in\n    tag_399:\n        /* \"#utility.yul\":7279:7329   */\n    tag_398:\n        /* \"#utility.yul\":7359:7360   */\n      0x01\n        /* \"#utility.yul\":7349:7357   */\n      dup6\n        /* \"#utility.yul\":7345:7361   */\n      and\n        /* \"#utility.yul\":7342:7793   */\n      iszero\n      tag_400\n      jumpi\n        /* \"#utility.yul\":7774:7778   */\n      dup1\n        /* \"#utility.yul\":7767:7772   */\n      dup3\n        /* \"#utility.yul\":7763:7779   */\n      mul\n        /* \"#utility.yul\":7754:7779   */\n      swap2\n      pop\n        /* \"#utility.yul\":7342:7793   */\n    tag_400:\n        /* \"#utility.yul\":7824:7828   */\n      dup1\n        /* \"#utility.yul\":7818:7822   */\n      dup2\n        /* \"#utility.yul\":7814:7829   */\n      mul\n        /* \"#utility.yul\":7806:7829   */\n      swap1\n      pop\n        /* \"#utility.yul\":7854:7886   */\n      tag_401\n        /* \"#utility.yul\":7877:7885   */\n      dup6\n        /* \"#utility.yul\":7854:7886   */\n      tag_302\n      jump\t// in\n    tag_401:\n        /* \"#utility.yul\":7842:7886   */\n      swap5\n      pop\n        /* \"#utility.yul\":7184:7896   */\n      jump(tag_395)\n    tag_397:\n        /* \"#utility.yul\":7054:7902   */\n      swap5\n      pop\n      swap5\n      swap3\n      pop\n      pop\n      pop\n      jump\t// out\n        /* \"#utility.yul\":7908:8981   */\n    tag_304:\n        /* \"#utility.yul\":7962:7967   */\n      0x00\n        /* \"#utility.yul\":8153:8161   */\n      dup3\n        /* \"#utility.yul\":8143:8183   */\n      tag_403\n      jumpi\n        /* \"#utility.yul\":8174:8175   */\n      0x01\n        /* \"#utility.yul\":8165:8175   */\n      swap1\n      pop\n        /* \"#utility.yul\":8176:8181   */\n      jump(tag_402)\n        /* \"#utility.yul\":8143:8183   */\n    tag_403:\n        /* \"#utility.yul\":8202:8206   */\n      dup2\n        /* \"#utility.yul\":8192:8228   */\n      tag_404\n      jumpi\n        /* \"#utility.yul\":8219:8220   */\n      0x00\n        /* \"#utility.yul\":8210:8220   */\n      swap1\n      pop\n        /* \"#utility.yul\":8221:8226   */\n      jump(tag_402)\n        /* \"#utility.yul\":8192:8228   */\n    tag_404:\n        /* \"#utility.yul\":8288:8292   */\n      dup2\n        /* \"#utility.yul\":8336:8337   */\n      0x01\n        /* \"#utility.yul\":8331:8358   */\n      dup2\n      eq\n      tag_406\n      jumpi\n        /* \"#utility.yul\":8372:8373   */\n      0x02\n        /* \"#utility.yul\":8367:8558   */\n      dup2\n      eq\n      tag_407\n      jumpi\n        /* \"#utility.yul\":8281:8558   */\n      jump(tag_405)\n        /* \"#utility.yul\":8331:8358   */\n    tag_406:\n        /* \"#utility.yul\":8349:8350   */\n      0x01\n        /* \"#utility.yul\":8340:8350   */\n      swap2\n      pop\n        /* \"#utility.yul\":8351:8356   */\n      pop\n      jump(tag_402)\n        /* \"#utility.yul\":8367:8558   */\n    tag_407:\n        /* \"#utility.yul\":8412:8415   */\n      0xff\n        /* \"#utility.yul\":8402:8410   */\n      dup5\n        /* \"#utility.yul\":8399:8416   */\n      gt\n        /* \"#utility.yul\":8396:8439   */\n      iszero\n      tag_408\n      jumpi\n        /* \"#utility.yul\":8419:8437   */\n      tag_409\n      tag_301\n      jump\t// in\n    tag_409:\n        /* \"#utility.yul\":8396:8439   */\n    tag_408:\n        /* \"#utility.yul\":8468:8476   */\n      dup4\n        /* \"#utility.yul\":8465:8466   */\n      0x02\n        /* \"#utility.yul\":8461:8477   */\n      exp\n        /* \"#utility.yul\":8452:8477   */\n      swap2\n      pop\n        /* \"#utility.yul\":8503:8506   */\n      dup5\n        /* \"#utility.yul\":8496:8501   */\n      dup3\n        /* \"#utility.yul\":8493:8507   */\n      gt\n        /* \"#utility.yul\":8490:8530   */\n      iszero\n      tag_410\n      jumpi\n        /* \"#utility.yul\":8510:8528   */\n      tag_411\n      tag_301\n      jump\t// in\n    tag_411:\n        /* \"#utility.yul\":8490:8530   */\n    tag_410:\n        /* \"#utility.yul\":8543:8548   */\n      pop\n      jump(tag_402)\n        /* \"#utility.yul\":8281:8558   */\n    tag_405:\n      pop\n        /* \"#utility.yul\":8667:8669   */\n      0x20\n        /* \"#utility.yul\":8657:8665   */\n      dup4\n        /* \"#utility.yul\":8654:8670   */\n      lt\n        /* \"#utility.yul\":8648:8651   */\n      0x0133\n        /* \"#utility.yul\":8642:8646   */\n      dup4\n        /* \"#utility.yul\":8639:8652   */\n      lt\n        /* \"#utility.yul\":8635:8671   */\n      and\n        /* \"#utility.yul\":8617:8619   */\n      0x4e\n        /* \"#utility.yul\":8607:8615   */\n      dup5\n        /* \"#utility.yul\":8604:8620   */\n      lt\n        /* \"#utility.yul\":8599:8601   */\n      0x0b\n        /* \"#utility.yul\":8593:8597   */\n      dup5\n        /* \"#utility.yul\":8590:8602   */\n      lt\n        /* \"#utility.yul\":8586:8621   */\n      and\n        /* \"#utility.yul\":8570:8681   */\n      or\n        /* \"#utility.yul\":8567:8813   */\n      iszero\n      tag_412\n      jumpi\n        /* \"#utility.yul\":8723:8731   */\n      dup3\n        /* \"#utility.yul\":8717:8721   */\n      dup3\n        /* \"#utility.yul\":8713:8732   */\n      exp\n        /* \"#utility.yul\":8704:8732   */\n      swap1\n      pop\n        /* \"#utility.yul\":8758:8761   */\n      dup4\n        /* \"#utility.yul\":8751:8756   */\n      dup2\n        /* \"#utility.yul\":8748:8762   */\n      gt\n        /* \"#utility.yul\":8745:8785   */\n      iszero\n      tag_413\n      jumpi\n        /* \"#utility.yul\":8765:8783   */\n      tag_414\n      tag_301\n      jump\t// in\n    tag_414:\n        /* \"#utility.yul\":8745:8785   */\n    tag_413:\n        /* \"#utility.yul\":8798:8803   */\n      jump(tag_402)\n        /* \"#utility.yul\":8567:8813   */\n    tag_412:\n        /* \"#utility.yul\":8838:8880   */\n      tag_415\n        /* \"#utility.yul\":8876:8879   */\n      dup5\n        /* \"#utility.yul\":8866:8874   */\n      dup5\n        /* \"#utility.yul\":8860:8864   */\n      dup5\n        /* \"#utility.yul\":8857:8858   */\n      0x01\n        /* \"#utility.yul\":8838:8880   */\n      tag_303\n      jump\t// in\n    tag_415:\n        /* \"#utility.yul\":8823:8880   */\n      swap3\n      pop\n      swap1\n      pop\n        /* \"#utility.yul\":8912:8916   */\n      dup2\n        /* \"#utility.yul\":8907:8910   */\n      dup5\n        /* \"#utility.yul\":8903:8917   */\n      div\n        /* \"#utility.yul\":8896:8901   */\n      dup2\n        /* \"#utility.yul\":8893:8918   */\n      gt\n        /* \"#utility.yul\":8890:8941   */\n      iszero\n      tag_416\n      jumpi\n        /* \"#utility.yul\":8921:8939   */\n      tag_417\n      tag_301\n      jump\t// in\n    tag_417:\n        /* \"#utility.yul\":8890:8941   */\n    tag_416:\n        /* \"#utility.yul\":8970:8974   */\n      dup2\n        /* \"#utility.yul\":8963:8968   */\n      dup2\n        /* \"#utility.yul\":8959:8975   */\n      mul\n        /* \"#utility.yul\":8950:8975   */\n      swap1\n      pop\n        /* \"#utility.yul\":7908:8981   */\n    tag_402:\n      swap4\n      swap3\n      pop\n      pop\n      pop\n      jump\t// out\n        /* \"#utility.yul\":8987:9268   */\n    tag_153:\n        /* \"#utility.yul\":9045:9050   */\n      0x00\n        /* \"#utility.yul\":9069:9092   */\n      tag_419\n        /* \"#utility.yul\":9087:9091   */\n      dup3\n        /* \"#utility.yul\":9069:9092   */\n      tag_291\n      jump\t// in\n    tag_419:\n        /* \"#utility.yul\":9061:9092   */\n      swap2\n      pop\n        /* \"#utility.yul\":9113:9138   */\n      tag_420\n        /* \"#utility.yul\":9129:9137   */\n      dup4\n        /* \"#utility.yul\":9113:9138   */\n      tag_297\n      jump\t// in\n    tag_420:\n        /* \"#utility.yul\":9101:9138   */\n      swap3\n      pop\n        /* \"#utility.yul\":9157:9261   */\n      tag_421\n        /* \"#utility.yul\":9194:9260   */\n      0xffffffffffffffffffffffffffffffffffffffffffffffffffffffffffffffff\n        /* \"#utility.yul\":9184:9192   */\n      dup5\n        /* \"#utility.yul\":9178:9182   */\n      dup5\n        /* \"#utility.yul\":9157:9261   */\n      tag_304\n      jump\t// in\n    tag_421:\n        /* \"#utility.yul\":9148:9261   */\n      swap1\n      pop\n        /* \"#utility.yul\":8987:9268   */\n      swap3\n      swap2\n      pop\n      pop\n      jump\t// out\n        /* \"#utility.yul\":9274:9684   */\n    tag_155:\n        /* \"#utility.yul\":9314:9321   */\n      0x00\n        /* \"#utility.yul\":9337:9357   */\n      tag_423\n        /* \"#utility.yul\":9355:9356   */\n      dup3\n        /* \"#utility.yul\":9337:9357   */\n      tag_291\n      jump\t// in\n    tag_423:\n        /* \"#utility.yul\":9332:9357   */\n      swap2\n      pop\n        /* \"#utility.yul\":9371:9391   */\n      tag_424\n        /* \"#utility.yul\":9389:9390   */\n      dup4\n        /* \"#utility.yul\":9371:9391   */\n      tag_291\n      jump\t// in\n    tag_424:\n        /* \"#utility.yul\":9366:9391   */\n      swap3\n      pop\n        /* \"#utility.yul\":9426:9427   */\n      dup3\n        /* \"#utility.yul\":9423:9424   */\n      dup3\n        /* \"#utility.yul\":9419:9428   */\n      mul\n        /* \"#utility.yul\":9448:9478   */\n      tag_425\n        /* \"#utility.yul\":9466:9477   */\n      dup2\n        /* \"#utility.yul\":9448:9478   */\n      tag_291\n      jump\t// in\n    tag_425:\n        /* \"#utility.yul\":9437:9478   */\n      swap2\n      pop\n        /* \"#utility.yul\":9627:9628   */\n      dup3\n        /* \"#utility.yul\":9618:9625   */\n      dup3\n        /* \"#utility.yul\":9614:9629   */\n      div\n        /* \"#utility.yul\":9611:9612   */\n      dup5\n        /* \"#utility.yul\":9608:9630   */\n      eq\n        /* \"#utility.yul\":9588:9589   */\n      dup4\n        /* \"#utility.yul\":9581:9590   */\n      iszero\n        /* \"#utility.yul\":9561:9644   */\n      or\n        /* \"#utility.yul\":9538:9677   */\n      tag_426\n      jumpi\n        /* \"#utility.yul\":9657:9675   */\n      tag_427\n      tag_301\n      jump\t// in\n    tag_427:\n        /* \"#utility.yul\":9538:9677   */\n    tag_426:\n        /* \"#utility.yul\":9322:9684   */\n      pop\n        /* \"#utility.yul\":9274:9684   */\n      swap3\n      swap2\n      pop\n      pop\n      jump\t// out\n        /* \"#utility.yul\":9690:9881   */\n    tag_158:\n        /* \"#utility.yul\":9730:9733   */\n      0x00\n        /* \"#utility.yul\":9749:9769   */\n      tag_429\n        /* \"#utility.yul\":9767:9768   */\n      dup3\n        /* \"#utility.yul\":9749:9769   */\n      tag_291\n      jump\t// in\n    tag_429:\n        /* \"#utility.yul\":9744:9769   */\n      swap2\n      pop\n        /* \"#utility.yul\":9783:9803   */\n      tag_430\n        /* \"#utility.yul\":9801:9802   */\n      dup4\n        /* \"#utility.yul\":9783:9803   */\n      tag_291\n      jump\t// in\n    tag_430:\n        /* \"#utility.yul\":9778:9803   */\n      swap3\n      pop\n        /* \"#utility.yul\":9826:9827   */\n      dup3\n        /* \"#utility.yul\":9823:9824   */\n      dup3\n        /* \"#utility.yul\":9819:9828   */\n      add\n        /* \"#utility.yul\":9812:9828   */\n      swap1\n      pop\n        /* \"#utility.yul\":9847:9850   */\n      dup1\n        /* \"#utility.yul\":9844:9845   */\n      dup3\n        /* \"#utility.yul\":9841:9851   */\n      gt\n        /* \"#utility.yul\":9838:9874   */\n      iszero\n      tag_431\n      jumpi\n        /* \"#utility.yul\":9854:9872   */\n      tag_432\n      tag_301\n      jump\t// in\n    tag_432:\n        /* \"#utility.yul\":9838:9874   */\n    tag_431:\n        /* \"#utility.yul\":9690:9881   */\n      swap3\n      swap2\n      pop\n      pop\n      jump\t// out\n        /* \"#utility.yul\":9887:10055   */\n    tag_305:\n        /* \"#utility.yul\":10027:10047   */\n      0x45786365656473206d617820737570706c790000000000000000000000000000\n        /* \"#utility.yul\":10023:10024   */\n      0x00\n        /* \"#utility.yul\":10015:10021   */\n      dup3\n        /* \"#utility.yul\":10011:10025   */\n      add\n        /* \"#utility.yul\":10004:10048   */\n      mstore\n        /* \"#utility.yul\":9887:10055   */\n      pop\n      jump\t// out\n        /* \"#utility.yul\":10061:10427   */\n    tag_306:\n        /* \"#utility.yul\":10203:10206   */\n      0x00\n        /* \"#utility.yul\":10224:10291   */\n      tag_435\n        /* \"#utility.yul\":10288:10290   */\n      0x12\n        /* \"#utility.yul\":10283:10286   */\n      dup4\n        /* \"#utility.yul\":10224:10291   */\n      tag_280\n      jump\t// in\n    tag_435:\n        /* \"#utility.yul\":10217:10291   */\n      swap2\n      pop\n        /* \"#utility.yul\":10300:10393   */\n      tag_436\n        /* \"#utility.yul\":10389:10392   */\n      dup3\n        /* \"#utility.yul\":10300:10393   */\n      tag_305\n      jump\t// in\n    tag_436:\n        /* \"#utility.yul\":10418:10420   */\n      0x20\n        /* \"#utility.yul\":10413:10416   */\n      dup3\n        /* \"#utility.yul\":10409:10421   */\n      add\n        /* \"#utility.yul\":10402:10421   */\n      swap1\n      pop\n        /* \"#utility.yul\":10061:10427   */\n      swap2\n      swap1\n      pop\n      jump\t// out\n        /* \"#utility.yul\":10433:10852   */\n    tag_161:\n        /* \"#utility.yul\":10599:10603   */\n      0x00\n        /* \"#utility.yul\":10637:10639   */\n      0x20\n        /* \"#utility.yul\":10626:10635   */\n      dup3\n        /* \"#utility.yul\":10622:10640   */\n      add\n        /* \"#utility.yul\":10614:10640   */\n      swap1\n      pop\n        /* \"#utility.yul\":10686:10695   */\n      dup2\n        /* \"#utility.yul\":10680:10684   */\n      dup2\n        /* \"#utility.yul\":10676:10696   */\n      sub\n        /* \"#utility.yul\":10672:10673   */\n      0x00\n        /* \"#utility.yul\":10661:10670   */\n      dup4\n        /* \"#utility.yul\":10657:10674   */\n      add\n        /* \"#utility.yul\":10650:10697   */\n      mstore\n        /* \"#utility.yul\":10714:10845   */\n      tag_438\n        /* \"#utility.yul\":10840:10844   */\n      dup2\n        /* \"#utility.yul\":10714:10845   */\n      tag_306\n      jump\t// in\n    tag_438:\n        /* \"#utility.yul\":10706:10845   */\n      swap1\n      pop\n        /* \"#utility.yul\":10433:10852   */\n      swap2\n      swap1\n      pop\n      jump\t// out\n        /* \"#utility.yul\":10858:11036   */\n    tag_307:\n        /* \"#utility.yul\":10998:11028   */\n      0x5072696365206d7573742062652067726561746572207468616e203000000000\n        /* \"#utility.yul\":10994:10995   */\n      0x00\n        /* \"#utility.yul\":10986:10992   */\n      dup3\n        /* \"#utility.yul\":10982:10996   */\n      add\n        /* \"#utility.yul\":10975:11029   */\n      mstore\n        /* \"#utility.yul\":10858:11036   */\n      pop\n      jump\t// out\n        /* \"#utility.yul\":11042:11408   */\n    tag_308:\n        /* \"#utility.yul\":11184:11187   */\n      0x00\n        /* \"#utility.yul\":11205:11272   */\n      tag_441\n        /* \"#utility.yul\":11269:11271   */\n      0x1c\n        /* \"#utility.yul\":11264:11267   */\n      dup4\n        /* \"#utility.yul\":11205:11272   */\n      tag_280\n      jump\t// in\n    tag_441:\n        /* \"#utility.yul\":11198:11272   */\n      swap2\n      pop\n        /* \"#utility.yul\":11281:11374   */\n      tag_442\n        /* \"#utility.yul\":11370:11373   */\n      dup3\n        /* \"#utility.yul\":11281:11374   */\n      tag_307\n      jump\t// in\n    tag_442:\n        /* \"#utility.yul\":11399:11401   */\n      0x20\n        /* \"#utility.yul\":11394:11397   */\n      dup3\n        /* \"#utility.yul\":11390:11402   */\n      add\n        /* \"#utility.yul\":11383:11402   */\n      swap1\n      pop\n        /* \"#utility.yul\":11042:11408   */\n      swap2\n      swap1\n      pop\n      jump\t// out\n        /* \"#utility.yul\":11414:11833   */\n    tag_171:\n        /* \"#utility.yul\":11580:11584   */\n      0x00\n        /* \"#utility.yul\":11618:11620   */\n      0x20\n        /* \"#utility.yul\":11607:11616   */\n      dup3\n        /* \"#utility.yul\":11603:11621   */\n      add\n        /* \"#utility.yul\":11595:11621   */\n      swap1\n      pop\n        /* \"#utility.yul\":11667:11676   */\n      dup2\n        /* \"#utility.yul\":11661:11665   */\n      dup2\n        /* \"#utility.yul\":11657:11677   */\n      sub\n        /* \"#utility.yul\":11653:11654   */\n      0x00\n        /* \"#utility.yul\":11642:11651   */\n      dup4\n        /* \"#utility.yul\":11638:11655   */\n      add\n        /* \"#utility.yul\":11631:11678   */\n      mstore\n        /* \"#utility.yul\":11695:11826   */\n      tag_444\n        /* \"#utility.yul\":11821:11825   */\n      dup2\n        /* \"#utility.yul\":11695:11826   */\n      tag_308\n      jump\t// in\n    tag_444:\n        /* \"#utility.yul\":11687:11826   */\n      swap1\n      pop\n        /* \"#utility.yul\":11414:11833   */\n      swap2\n      swap1\n      pop\n      jump\t// out\n        /* \"#utility.yul\":11839:12011   */\n    tag_309:\n        /* \"#utility.yul\":11979:12003   */\n      0x53656e642045544820746f2062757920746f6b656e7300000000000000000000\n        /* \"#utility.yul\":11975:11976   */\n      0x00\n        /* \"#utility.yul\":11967:11973   */\n      dup3\n        /* \"#utility.yul\":11963:11977   */\n      add\n        /* \"#utility.yul\":11956:12004   */\n      mstore\n        /* \"#utility.yul\":11839:12011   */\n      pop\n      jump\t// out\n        /* \"#utility.yul\":12017:12383   */\n    tag_310:\n        /* \"#utility.yul\":12159:12162   */\n      0x00\n        /* \"#utility.yul\":12180:12247   */\n      tag_447\n        /* \"#utility.yul\":12244:12246   */\n      0x16\n        /* \"#utility.yul\":12239:12242   */\n      dup4\n        /* \"#utility.yul\":12180:12247   */\n      tag_280\n      jump\t// in\n    tag_447:\n        /* \"#utility.yul\":12173:12247   */\n      swap2\n      pop\n        /* \"#utility.yul\":12256:12349   */\n      tag_448\n        /* \"#utility.yul\":12345:12348   */\n      dup3\n        /* \"#utility.yul\":12256:12349   */\n      tag_309\n      jump\t// in\n    tag_448:\n        /* \"#utility.yul\":12374:12376   */\n      0x20\n        /* \"#utility.yul\":12369:12372   */\n      dup3\n        /* \"#utility.yul\":12365:12377   */\n      add\n        /* \"#utility.yul\":12358:12377   */\n      swap1\n      pop\n        /* \"#utility.yul\":12017:12383   */\n      swap2\n      swap1\n      pop\n      jump\t// out\n        /* \"#utility.yul\":12389:12808   */\n    tag_196:\n        /* \"#utility.yul\":12555:12559   */\n      0x00\n        /* \"#utility.yul\":12593:12595   */\n      0x20\n        /* \"#utility.yul\":12582:12591   */\n      dup3\n        /* \"#utility.yul\":12578:12596   */\n      add\n        /* \"#utility.yul\":12570:12596   */\n      swap1\n      pop\n        /* \"#utility.yul\":12642:12651   */\n      dup2\n        /* \"#utility.yul\":12636:12640   */\n      dup2\n        /* \"#utility.yul\":12632:12652   */\n      sub\n        /* \"#utility.yul\":12628:12629   */\n      0x00\n        /* \"#utility.yul\":12617:12626   */\n      dup4\n        /* \"#utility.yul\":12613:12630   */\n      add\n        /* \"#utility.yul\":12606:12653   */\n      mstore\n        /* \"#utility.yul\":12670:12801   */\n      tag_450\n        /* \"#utility.yul\":12796:12800   */\n      dup2\n        /* \"#utility.yul\":12670:12801   */\n      tag_310\n      jump\t// in\n    tag_450:\n        /* \"#utility.yul\":12662:12801   */\n      swap1\n      pop\n        /* \"#utility.yul\":12389:12808   */\n      swap2\n      swap1\n      pop\n      jump\t// out\n        /* \"#utility.yul\":12814:13146   */\n    tag_207:\n        /* \"#utility.yul\":12935:12939   */\n      0x00\n        /* \"#utility.yul\":12973:12975   */\n      0x40\n        /* \"#utility.yul\":12962:12971   */\n      dup3\n        /* \"#utility.yul\":12958:12976   */\n      add\n        /* \"#utility.yul\":12950:12976   */\n      swap1\n      pop\n        /* \"#utility.yul\":12986:13057   */\n      tag_452\n        /* \"#utility.yul\":13054:13055   */\n      0x00\n        /* \"#utility.yul\":13043:13052   */\n      dup4\n        /* \"#utility.yul\":13039:13056   */\n      add\n        /* \"#utility.yul\":13030:13036   */\n      dup6\n        /* \"#utility.yul\":12986:13057   */\n      tag_296\n      jump\t// in\n    tag_452:\n        /* \"#utility.yul\":13067:13139   */\n      tag_453\n        /* \"#utility.yul\":13135:13137   */\n      0x20\n        /* \"#utility.yul\":13124:13133   */\n      dup4\n        /* \"#utility.yul\":13120:13138   */\n      add\n        /* \"#utility.yul\":13111:13117   */\n      dup5\n        /* \"#utility.yul\":13067:13139   */\n      tag_296\n      jump\t// in\n    tag_453:\n        /* \"#utility.yul\":12814:13146   */\n      swap4\n      swap3\n      pop\n      pop\n      pop\n      jump\t// out\n        /* \"#utility.yul\":13152:13299   */\n    tag_311:\n        /* \"#utility.yul\":13253:13264   */\n      0x00\n        /* \"#utility.yul\":13290:13293   */\n      dup2\n        /* \"#utility.yul\":13275:13293   */\n      swap1\n      pop\n        /* \"#utility.yul\":13152:13299   */\n      swap3\n      swap2\n      pop\n      pop\n      jump\t// out\n        /* \"#utility.yul\":13305:13419   */\n    tag_312:\n      pop\n      jump\t// out\n        /* \"#utility.yul\":13425:13823   */\n    tag_313:\n        /* \"#utility.yul\":13584:13587   */\n      0x00\n        /* \"#utility.yul\":13605:13688   */\n      tag_457\n        /* \"#utility.yul\":13686:13687   */\n      0x00\n        /* \"#utility.yul\":13681:13684   */\n      dup4\n        /* \"#utility.yul\":13605:13688   */\n      tag_311\n      jump\t// in\n    tag_457:\n        /* \"#utility.yul\":13598:13688   */\n      swap2\n      pop\n        /* \"#utility.yul\":13697:13790   */\n      tag_458\n        /* \"#utility.yul\":13786:13789   */\n      dup3\n        /* \"#utility.yul\":13697:13790   */\n      tag_312\n      jump\t// in\n    tag_458:\n        /* \"#utility.yul\":13815:13816   */\n      0x00\n        /* \"#utility.yul\":13810:13813   */\n      dup3\n        /* \"#utility.yul\":13806:13817   */\n      add\n        /* \"#utility.yul\":13799:13817   */\n      swap1\n      pop\n        /* \"#utility.yul\":13425:13823   */\n      swap2\n      swap1\n      pop\n      jump\t// out\n        /* \"#utility.yul\":13829:14208   */\n    tag_214:\n        /* \"#utility.yul\":14013:14016   */\n      0x00\n        /* \"#utility.yul\":14035:14182   */\n      tag_460\n        /* \"#utility.yul\":14178:14181   */\n      dup3\n        /* \"#utility.yul\":14035:14182   */\n      tag_313\n      jump\t// in\n    tag_460:\n        /* \"#utility.yul\":14028:14182   */\n      swap2\n      pop\n        /* \"#utility.yul\":14199:14202   */\n      dup2\n        /* \"#utility.yul\":14192:14202   */\n      swap1\n      pop\n        /* \"#utility.yul\":13829:14208   */\n      swap2\n      swap1\n      pop\n      jump\t// out\n        /* \"#utility.yul\":14214:14381   */\n    tag_314:\n        /* \"#utility.yul\":14354:14373   */\n      0x5769746864726177616c206661696c6564000000000000000000000000000000\n        /* \"#utility.yul\":14350:14351   */\n      0x00\n        /* \"#utility.yul\":14342:14348   */\n      dup3\n        /* \"#utility.yul\":14338:14352   */\n      add\n        /* \"#utility.yul\":14331:14374   */\n      mstore\n        /* \"#utility.yul\":14214:14381   */\n      pop\n      jump\t// out\n        /* \"#utility.yul\":14387:14753   */\n    tag_315:\n        /* \"#utility.yul\":14529:14532   */\n      0x00\n        /* \"#utility.yul\":14550:14617   */\n      tag_463\n        /* \"#utility.yul\":14614:14616   */\n      0x11\n        /* \"#utility.yul\":14609:14612   */\n      dup4\n        /* \"#utility.yul\":14550:14617   */\n      tag_280\n      jump\t// in\n    tag_463:\n        /* \"#utility.yul\":14543:14617   */\n      swap2\n      pop\n        /* \"#utility.yul\":14626:14719   */\n      tag_464\n        /* \"#utility.yul\":14715:14718   */\n      dup3\n        /* \"#utility.yul\":14626:14719   */\n      tag_314\n      jump\t// in\n    tag_464:\n        /* \"#utility.yul\":14744:14746   */\n      0x20\n        /* \"#utility.yul\":14739:14742   */\n      dup3\n        /* \"#utility.yul\":14735:14747   */\n      add\n        /* \"#utility.yul\":14728:14747   */\n      swap1\n      pop\n        /* \"#utility.yul\":14387:14753   */\n      swap2\n      swap1\n      pop\n      jump\t// out\n        /* \"#utility.yul\":14759:15178   */\n    tag_220:\n        /* \"#utility.yul\":14925:14929   */\n      0x00\n        /* \"#utility.yul\":14963:14965   */\n      0x20\n        /* \"#utility.yul\":14952:14961   */\n      dup3\n        /* \"#utility.yul\":14948:14966   */\n      add\n        /* \"#utility.yul\":14940:14966   */\n      swap1\n      pop\n        /* \"#utility.yul\":15012:15021   */\n      dup2\n        /* \"#utility.yul\":15006:15010   */\n      dup2\n        /* \"#utility.yul\":15002:15022   */\n      sub\n        /* \"#utility.yul\":14998:14999   */\n      0x00\n        /* \"#utility.yul\":14987:14996   */\n      dup4\n        /* \"#utility.yul\":14983:15000   */\n      add\n        /* \"#utility.yul\":14976:15023   */\n      mstore\n        /* \"#utility.yul\":15040:15171   */\n      tag_466\n        /* \"#utility.yul\":15166:15170   */\n      dup2\n        /* \"#utility.yul\":15040:15171   */\n      tag_315\n      jump\t// in\n    tag_466:\n        /* \"#utility.yul\":15032:15171   */\n      swap1\n      pop\n        /* \"#utility.yul\":14759:15178   */\n      swap2\n      swap1\n      pop\n      jump\t// out\n        /* \"#utility.yul\":15184:15378   */\n    tag_227:\n        /* \"#utility.yul\":15224:15228   */\n      0x00\n        /* \"#utility.yul\":15244:15264   */\n      tag_468\n        /* \"#utility.yul\":15262:15263   */\n      dup3\n        /* \"#utility.yul\":15244:15264   */\n      tag_291\n      jump\t// in\n    tag_468:\n        /* \"#utility.yul\":15239:15264   */\n      swap2\n      pop\n        /* \"#utility.yul\":15278:15298   */\n      tag_469\n        /* \"#utility.yul\":15296:15297   */\n      dup4\n        /* \"#utility.yul\":15278:15298   */\n      tag_291\n      jump\t// in\n    tag_469:\n        /* \"#utility.yul\":15273:15298   */\n      swap3\n      pop\n        /* \"#utility.yul\":15322:15323   */\n      dup3\n        /* \"#utility.yul\":15319:15320   */\n      dup3\n        /* \"#utility.yul\":15315:15324   */\n      sub\n        /* \"#utility.yul\":15307:15324   */\n      swap1\n      pop\n        /* \"#utility.yul\":15346:15347   */\n      dup2\n        /* \"#utility.yul\":15340:15344   */\n      dup2\n        /* \"#utility.yul\":15337:15348   */\n      gt\n        /* \"#utility.yul\":15334:15371   */\n      iszero\n      tag_470\n      jumpi\n        /* \"#utility.yul\":15351:15369   */\n      tag_471\n      tag_301\n      jump\t// in\n    tag_471:\n        /* \"#utility.yul\":15334:15371   */\n    tag_470:\n        /* \"#utility.yul\":15184:15378   */\n      swap3\n      swap2\n      pop\n      pop\n      jump\t// out\n        /* \"#utility.yul\":15384:15826   */\n    tag_243:\n        /* \"#utility.yul\":15533:15537   */\n      0x00\n        /* \"#utility.yul\":15571:15573   */\n      0x60\n        /* \"#utility.yul\":15560:15569   */\n      dup3\n        /* \"#utility.yul\":15556:15574   */\n      add\n        /* \"#utility.yul\":15548:15574   */\n      swap1\n      pop\n        /* \"#utility.yul\":15584:15655   */\n      tag_473\n        /* \"#utility.yul\":15652:15653   */\n      0x00\n        /* \"#utility.yul\":15641:15650   */\n      dup4\n        /* \"#utility.yul\":15637:15654   */\n      add\n        /* \"#utility.yul\":15628:15634   */\n      dup7\n        /* \"#utility.yul\":15584:15655   */\n      tag_299\n      jump\t// in\n    tag_473:\n        /* \"#utility.yul\":15665:15737   */\n      tag_474\n        /* \"#utility.yul\":15733:15735   */\n      0x20\n        /* \"#utility.yul\":15722:15731   */\n      dup4\n        /* \"#utility.yul\":15718:15736   */\n      add\n        /* \"#utility.yul\":15709:15715   */\n      dup6\n        /* \"#utility.yul\":15665:15737   */\n      tag_296\n      jump\t// in\n    tag_474:\n        /* \"#utility.yul\":15747:15819   */\n      tag_475\n        /* \"#utility.yul\":15815:15817   */\n      0x40\n        /* \"#utility.yul\":15804:15813   */\n      dup4\n        /* \"#utility.yul\":15800:15818   */\n      add\n        /* \"#utility.yul\":15791:15797   */\n      dup5\n        /* \"#utility.yul\":15747:15819   */\n      tag_296\n      jump\t// in\n    tag_475:\n        /* \"#utility.yul\":15384:15826   */\n      swap5\n      swap4\n      pop\n      pop\n      pop\n      pop\n      jump\t// out\n\n    auxdata: 0xa2646970667358221220badebb1a6ee2406dcef8fd6d95b13f6d8ba9fd155041d54519e4d9ff02ef7f8164736f6c634300081a0033\n}\n",
				"bytecode": {
					"linkReferences": {},
					"object": "608060405234801561000f575f80fd5b506040516128063803806128068339818101604052810190610031919061064e565b33858581600390816100439190610901565b5080600490816100539190610901565b5050505f73ffffffffffffffffffffffffffffffffffffffff168173ffffffffffffffffffffffffffffffffffffffff16036100c6575f6040517f1e4fbdf70000000000000000000000000000000000000000000000000000000081526004016100bd9190610a0f565b60405180910390fd5b6100d58161016560201b60201c565b5080831115610119576040517f08c379a000000000000000000000000000000000000000000000000000000000815260040161011090610aa8565b60405180910390fd5b816006819055508060078190555061015b3361013961022860201b60201c565b600a6101459190610c2e565b856101509190610c78565b61023060201b60201c565b5050505050610d49565b5f60055f9054906101000a900473ffffffffffffffffffffffffffffffffffffffff1690508160055f6101000a81548173ffffffffffffffffffffffffffffffffffffffff021916908373ffffffffffffffffffffffffffffffffffffffff1602179055508173ffffffffffffffffffffffffffffffffffffffff168173ffffffffffffffffffffffffffffffffffffffff167f8be0079c531659141344cd1fd0a4f28419497f9722a3daafe3b4186f6b6457e060405160405180910390a35050565b5f6012905090565b5f73ffffffffffffffffffffffffffffffffffffffff168273ffffffffffffffffffffffffffffffffffffffff16036102a0575f6040517fec442f050000000000000000000000000000000000000000000000000000000081526004016102979190610a0f565b60405180910390fd5b6102b15f83836102b560201b60201c565b5050565b5f73ffffffffffffffffffffffffffffffffffffffff168373ffffffffffffffffffffffffffffffffffffffff1603610305578060025f8282546102f99190610cb9565b925050819055506103d3565b5f805f8573ffffffffffffffffffffffffffffffffffffffff1673ffffffffffffffffffffffffffffffffffffffff1681526020019081526020015f205490508181101561038e578381836040517fe450d38c00000000000000000000000000000000000000000000000000000000815260040161038593929190610cfb565b60405180910390fd5b8181035f808673ffffffffffffffffffffffffffffffffffffffff1673ffffffffffffffffffffffffffffffffffffffff1681526020019081526020015f2081905550505b5f73ffffffffffffffffffffffffffffffffffffffff168273ffffffffffffffffffffffffffffffffffffffff160361041a578060025f8282540392505081905550610464565b805f808473ffffffffffffffffffffffffffffffffffffffff1673ffffffffffffffffffffffffffffffffffffffff1681526020019081526020015f205f82825401925050819055505b8173ffffffffffffffffffffffffffffffffffffffff168373ffffffffffffffffffffffffffffffffffffffff167fddf252ad1be2c89b69c2b068fc378daa952ba7f163c4a11628f55a4df523b3ef836040516104c19190610d30565b60405180910390a3505050565b5f604051905090565b5f80fd5b5f80fd5b5f80fd5b5f80fd5b5f601f19601f8301169050919050565b7f4e487b71000000000000000000000000000000000000000000000000000000005f52604160045260245ffd5b61052d826104e7565b810181811067ffffffffffffffff8211171561054c5761054b6104f7565b5b80604052505050565b5f61055e6104ce565b905061056a8282610524565b919050565b5f67ffffffffffffffff821115610589576105886104f7565b5b610592826104e7565b9050602081019050919050565b8281835e5f83830152505050565b5f6105bf6105ba8461056f565b610555565b9050828152602081018484840111156105db576105da6104e3565b5b6105e684828561059f565b509392505050565b5f82601f830112610602576106016104df565b5b81516106128482602086016105ad565b91505092915050565b5f819050919050565b61062d8161061b565b8114610637575f80fd5b50565b5f8151905061064881610624565b92915050565b5f805f805f60a08688031215610667576106666104d7565b5b5f86015167ffffffffffffffff811115610684576106836104db565b5b610690888289016105ee565b955050602086015167ffffffffffffffff8111156106b1576106b06104db565b5b6106bd888289016105ee565b94505060406106ce8882890161063a565b93505060606106df8882890161063a565b92505060806106f08882890161063a565b9150509295509295909350565b5f81519050919050565b7f4e487b71000000000000000000000000000000000000000000000000000000005f52602260045260245ffd5b5f600282049050600182168061074b57607f821691505b60208210810361075e5761075d610707565b5b50919050565b5f819050815f5260205f209050919050565b5f6020601f8301049050919050565b5f82821b905092915050565b5f600883026107c07fffffffffffffffffffffffffffffffffffffffffffffffffffffffffffffffff82610785565b6107ca8683610785565b95508019841693508086168417925050509392505050565b5f819050919050565b5f6108056108006107fb8461061b565b6107e2565b61061b565b9050919050565b5f819050919050565b61081e836107eb565b61083261082a8261080c565b848454610791565b825550505050565b5f90565b61084661083a565b610851818484610815565b505050565b5b81811015610874576108695f8261083e565b600181019050610857565b5050565b601f8211156108b95761088a81610764565b61089384610776565b810160208510156108a2578190505b6108b66108ae85610776565b830182610856565b50505b505050565b5f82821c905092915050565b5f6108d95f19846008026108be565b1980831691505092915050565b5f6108f183836108ca565b9150826002028217905092915050565b61090a826106fd565b67ffffffffffffffff811115610923576109226104f7565b5b61092d8254610734565b610938828285610878565b5f60209050601f831160018114610969575f8415610957578287015190505b61096185826108e6565b8655506109c8565b601f19841661097786610764565b5f5b8281101561099e57848901518255600182019150602085019450602081019050610979565b868310156109bb57848901516109b7601f8916826108ca565b8355505b6001600288020188555050505b505050505050565b5f73ffffffffffffffffffffffffffffffffffffffff82169050919050565b5f6109f9826109d0565b9050919050565b610a09816109ef565b82525050565b5f602082019050610a225f830184610a00565b92915050565b5f82825260208201905092915050565b7f496e697469616c20737570706c792063616e6e6f7420657863656564206d61785f8201527f20737570706c7900000000000000000000000000000000000000000000000000602082015250565b5f610a92602783610a28565b9150610a9d82610a38565b604082019050919050565b5f6020820190508181035f830152610abf81610a86565b9050919050565b7f4e487b71000000000000000000000000000000000000000000000000000000005f52601160045260245ffd5b5f8160011c9050919050565b5f808291508390505b6001851115610b4857808604811115610b2457610b23610ac6565b5b6001851615610b335780820291505b8081029050610b4185610af3565b9450610b08565b94509492505050565b5f82610b605760019050610c1b565b81610b6d575f9050610c1b565b8160018114610b835760028114610b8d57610bbc565b6001915050610c1b565b60ff841115610b9f57610b9e610ac6565b5b8360020a915084821115610bb657610bb5610ac6565b5b50610c1b565b5060208310610133831016604e8410600b8410161715610bf15782820a905083811115610bec57610beb610ac6565b5b610c1b565b610bfe8484846001610aff565b92509050818404811115610c1557610c14610ac6565b5b81810290505b9392505050565b5f60ff82169050919050565b5f610c388261061b565b9150610c4383610c22565b9250610c707fffffffffffffffffffffffffffffffffffffffffffffffffffffffffffffffff8484610b51565b905092915050565b5f610c828261061b565b9150610c8d8361061b565b9250828202610c9b8161061b565b91508282048414831517610cb257610cb1610ac6565b5b5092915050565b5f610cc38261061b565b9150610cce8361061b565b9250828201905080821115610ce657610ce5610ac6565b5b92915050565b610cf58161061b565b82525050565b5f606082019050610d0e5f830186610a00565b610d1b6020830185610cec565b610d286040830184610cec565b949350505050565b5f602082019050610d435f830184610cec565b92915050565b611ab080610d565f395ff3fe608060405260043610610134575f3560e01c80637ff9b596116100aa578063d0febe4c1161006e578063d0febe4c1461041a578063d5abeb0114610424578063dd62ed3e1461044e578063e086e5ec1461048a578063e4b7fb73146104a0578063f2fde38b146104ca57610134565b80637ff9b596146103365780638da5cb5b1461036057806395d89b411461038a578063a9059cbb146103b4578063c4e41b22146103f057610134565b806340c10f19116100fc57806340c10f191461022e5780635f515226146102565780636a61e5fc146102925780636f9fb98a146102ba57806370a08231146102e4578063715018a61461032057610134565b806306fdde0314610138578063095ea7b31461016257806318160ddd1461019e57806323b872dd146101c8578063313ce56714610204575b5f80fd5b348015610143575f80fd5b5061014c6104f2565b6040516101599190611309565b60405180910390f35b34801561016d575f80fd5b50610188600480360381019061018391906113ba565b610582565b6040516101959190611412565b60405180910390f35b3480156101a9575f80fd5b506101b26105a4565b6040516101bf919061143a565b60405180910390f35b3480156101d3575f80fd5b506101ee60048036038101906101e99190611453565b6105ad565b6040516101fb9190611412565b60405180910390f35b34801561020f575f80fd5b506102186105db565b60405161022591906114be565b60405180910390f35b348015610239575f80fd5b50610254600480360381019061024f91906113ba565b6105e3565b005b348015610261575f80fd5b5061027c600480360381019061027791906114d7565b61066e565b604051610289919061143a565b60405180910390f35b34801561029d575f80fd5b506102b860048036038101906102b39190611502565b61067f565b005b3480156102c5575f80fd5b506102ce6106d3565b6040516102db919061143a565b60405180910390f35b3480156102ef575f80fd5b5061030a600480360381019061030591906114d7565b6106e2565b604051610317919061143a565b60405180910390f35b34801561032b575f80fd5b50610334610727565b005b348015610341575f80fd5b5061034a61073a565b604051610357919061143a565b60405180910390f35b34801561036b575f80fd5b50610374610740565b604051610381919061153c565b60405180910390f35b348015610395575f80fd5b5061039e610768565b6040516103ab9190611309565b60405180910390f35b3480156103bf575f80fd5b506103da60048036038101906103d591906113ba565b6107f8565b6040516103e79190611412565b60405180910390f35b3480156103fb575f80fd5b5061040461081a565b604051610411919061143a565b60405180910390f35b610422610828565b005b34801561042f575f80fd5b5061043861094d565b604051610445919061143a565b60405180910390f35b348015610459575f80fd5b50610474600480360381019061046f9190611555565b610953565b604051610481919061143a565b60405180910390f35b348015610495575f80fd5b5061049e6109d5565b005b3480156104ab575f80fd5b506104b4610a8f565b6040516104c1919061143a565b60405180910390f35b3480156104d5575f80fd5b506104f060048036038101906104eb91906114d7565b610ac8565b005b606060038054610501906115c0565b80601f016020809104026020016040519081016040528092919081815260200182805461052d906115c0565b80156105785780601f1061054f57610100808354040283529160200191610578565b820191905f5260205f20905b81548152906001019060200180831161055b57829003601f168201915b5050505050905090565b5f8061058c610b4c565b9050610599818585610b53565b600191505092915050565b5f600254905090565b5f806105b7610b4c565b90506105c4858285610b65565b6105cf858585610bf8565b60019150509392505050565b5f6012905090565b6105eb610ce8565b6105f36105db565b600a6105ff919061174c565b60075461060c9190611796565b816106156105a4565b61061f91906117d7565b1115610660576040517f08c379a000000000000000000000000000000000000000000000000000000000815260040161065790611854565b60405180910390fd5b61066a8282610d6f565b5050565b5f610678826106e2565b9050919050565b610687610ce8565b5f81116106c9576040517f08c379a00000000000000000000000000000000000000000000000000000000081526004016106c0906118bc565b60405180910390fd5b8060068190555050565b5f6106dc610ce8565b47905090565b5f805f8373ffffffffffffffffffffffffffffffffffffffff1673ffffffffffffffffffffffffffffffffffffffff1681526020019081526020015f20549050919050565b61072f610ce8565b6107385f610dee565b565b60065481565b5f60055f9054906101000a900473ffffffffffffffffffffffffffffffffffffffff16905090565b606060048054610777906115c0565b80601f01602080910402602001604051908101604052809291908181526020018280546107a3906115c0565b80156107ee5780601f106107c5576101008083540402835291602001916107ee565b820191905f5260205f20905b8154815290600101906020018083116107d157829003601f168201915b5050505050905090565b5f80610802610b4c565b905061080f818585610bf8565b600191505092915050565b5f6108236105a4565b905090565b5f341161086a576040517f08c379a000000000000000000000000000000000000000000000000000000000815260040161086190611924565b60405180910390fd5b5f600654346108799190611796565b90506108836105db565b600a61088f919061174c565b60075461089c9190611796565b816108a56105a4565b6108af91906117d7565b11156108f0576040517f08c379a00000000000000000000000000000000000000000000000000000000081526004016108e790611854565b60405180910390fd5b6108fa3382610d6f565b3373ffffffffffffffffffffffffffffffffffffffff167f8fafebcaf9d154343dad25669bfa277f4fbacd7ac6b0c4fed522580e040a0f333483604051610942929190611942565b60405180910390a250565b60075481565b5f60015f8473ffffffffffffffffffffffffffffffffffffffff1673ffffffffffffffffffffffffffffffffffffffff1681526020019081526020015f205f8373ffffffffffffffffffffffffffffffffffffffff1673ffffffffffffffffffffffffffffffffffffffff1681526020019081526020015f2054905092915050565b6109dd610ce8565b5f6109e6610740565b73ffffffffffffffffffffffffffffffffffffffff1647604051610a0990611996565b5f6040518083038185875af1925050503d805f8114610a43576040519150601f19603f3d011682016040523d82523d5f602084013e610a48565b606091505b5050905080610a8c576040517f08c379a0000000000000000000000000000000000000000000000000000000008152600401610a83906119f4565b60405180910390fd5b50565b5f610a986105a4565b610aa06105db565b600a610aac919061174c565b600754610ab99190611796565b610ac39190611a12565b905090565b610ad0610ce8565b5f73ffffffffffffffffffffffffffffffffffffffff168173ffffffffffffffffffffffffffffffffffffffff1603610b40575f6040517f1e4fbdf7000000000000000000000000000000000000000000000000000000008152600401610b37919061153c565b60405180910390fd5b610b4981610dee565b50565b5f33905090565b610b608383836001610eb1565b505050565b5f610b708484610953565b90507fffffffffffffffffffffffffffffffffffffffffffffffffffffffffffffffff811015610bf25781811015610be3578281836040517ffb8f41b2000000000000000000000000000000000000000000000000000000008152600401610bda93929190611a45565b60405180910390fd5b610bf184848484035f610eb1565b5b50505050565b5f73ffffffffffffffffffffffffffffffffffffffff168373ffffffffffffffffffffffffffffffffffffffff1603610c68575f6040517f96c6fd1e000000000000000000000000000000000000000000000000000000008152600401610c5f919061153c565b60405180910390fd5b5f73ffffffffffffffffffffffffffffffffffffffff168273ffffffffffffffffffffffffffffffffffffffff1603610cd8575f6040517fec442f05000000000000000000000000000000000000000000000000000000008152600401610ccf919061153c565b60405180910390fd5b610ce3838383611080565b505050565b610cf0610b4c565b73ffffffffffffffffffffffffffffffffffffffff16610d0e610740565b73ffffffffffffffffffffffffffffffffffffffff1614610d6d57610d31610b4c565b6040517f118cdaa7000000000000000000000000000000000000000000000000000000008152600401610d64919061153c565b60405180910390fd5b565b5f73ffffffffffffffffffffffffffffffffffffffff168273ffffffffffffffffffffffffffffffffffffffff1603610ddf575f6040517fec442f05000000000000000000000000000000000000000000000000000000008152600401610dd6919061153c565b60405180910390fd5b610dea5f8383611080565b5050565b5f60055f9054906101000a900473ffffffffffffffffffffffffffffffffffffffff1690508160055f6101000a81548173ffffffffffffffffffffffffffffffffffffffff021916908373ffffffffffffffffffffffffffffffffffffffff1602179055508173ffffffffffffffffffffffffffffffffffffffff168173ffffffffffffffffffffffffffffffffffffffff167f8be0079c531659141344cd1fd0a4f28419497f9722a3daafe3b4186f6b6457e060405160405180910390a35050565b5f73ffffffffffffffffffffffffffffffffffffffff168473ffffffffffffffffffffffffffffffffffffffff1603610f21575f6040517fe602df05000000000000000000000000000000000000000000000000000000008152600401610f18919061153c565b60405180910390fd5b5f73ffffffffffffffffffffffffffffffffffffffff168373ffffffffffffffffffffffffffffffffffffffff1603610f91575f6040517f94280d62000000000000000000000000000000000000000000000000000000008152600401610f88919061153c565b60405180910390fd5b8160015f8673ffffffffffffffffffffffffffffffffffffffff1673ffffffffffffffffffffffffffffffffffffffff1681526020019081526020015f205f8573ffffffffffffffffffffffffffffffffffffffff1673ffffffffffffffffffffffffffffffffffffffff1681526020019081526020015f2081905550801561107a578273ffffffffffffffffffffffffffffffffffffffff168473ffffffffffffffffffffffffffffffffffffffff167f8c5be1e5ebec7d5bd14f71427d1e84f3dd0314c0f7b2291e5b200ac8c7c3b92584604051611071919061143a565b60405180910390a35b50505050565b5f73ffffffffffffffffffffffffffffffffffffffff168373ffffffffffffffffffffffffffffffffffffffff16036110d0578060025f8282546110c491906117d7565b9250508190555061119e565b5f805f8573ffffffffffffffffffffffffffffffffffffffff1673ffffffffffffffffffffffffffffffffffffffff1681526020019081526020015f2054905081811015611159578381836040517fe450d38c00000000000000000000000000000000000000000000000000000000815260040161115093929190611a45565b60405180910390fd5b8181035f808673ffffffffffffffffffffffffffffffffffffffff1673ffffffffffffffffffffffffffffffffffffffff1681526020019081526020015f2081905550505b5f73ffffffffffffffffffffffffffffffffffffffff168273ffffffffffffffffffffffffffffffffffffffff16036111e5578060025f828254039250508190555061122f565b805f808473ffffffffffffffffffffffffffffffffffffffff1673ffffffffffffffffffffffffffffffffffffffff1681526020019081526020015f205f82825401925050819055505b8173ffffffffffffffffffffffffffffffffffffffff168373ffffffffffffffffffffffffffffffffffffffff167fddf252ad1be2c89b69c2b068fc378daa952ba7f163c4a11628f55a4df523b3ef8360405161128c919061143a565b60405180910390a3505050565b5f81519050919050565b5f82825260208201905092915050565b8281835e5f83830152505050565b5f601f19601f8301169050919050565b5f6112db82611299565b6112e581856112a3565b93506112f58185602086016112b3565b6112fe816112c1565b840191505092915050565b5f6020820190508181035f83015261132181846112d1565b905092915050565b5f80fd5b5f73ffffffffffffffffffffffffffffffffffffffff82169050919050565b5f6113568261132d565b9050919050565b6113668161134c565b8114611370575f80fd5b50565b5f813590506113818161135d565b92915050565b5f819050919050565b61139981611387565b81146113a3575f80fd5b50565b5f813590506113b481611390565b92915050565b5f80604083850312156113d0576113cf611329565b5b5f6113dd85828601611373565b92505060206113ee858286016113a6565b9150509250929050565b5f8115159050919050565b61140c816113f8565b82525050565b5f6020820190506114255f830184611403565b92915050565b61143481611387565b82525050565b5f60208201905061144d5f83018461142b565b92915050565b5f805f6060848603121561146a57611469611329565b5b5f61147786828701611373565b935050602061148886828701611373565b9250506040611499868287016113a6565b9150509250925092565b5f60ff82169050919050565b6114b8816114a3565b82525050565b5f6020820190506114d15f8301846114af565b92915050565b5f602082840312156114ec576114eb611329565b5b5f6114f984828501611373565b91505092915050565b5f6020828403121561151757611516611329565b5b5f611524848285016113a6565b91505092915050565b6115368161134c565b82525050565b5f60208201905061154f5f83018461152d565b92915050565b5f806040838503121561156b5761156a611329565b5b5f61157885828601611373565b925050602061158985828601611373565b9150509250929050565b7f4e487b71000000000000000000000000000000000000000000000000000000005f52602260045260245ffd5b5f60028204905060018216806115d757607f821691505b6020821081036115ea576115e9611593565b5b50919050565b7f4e487b71000000000000000000000000000000000000000000000000000000005f52601160045260245ffd5b5f8160011c9050919050565b5f808291508390505b60018511156116725780860481111561164e5761164d6115f0565b5b600185161561165d5780820291505b808102905061166b8561161d565b9450611632565b94509492505050565b5f8261168a5760019050611745565b81611697575f9050611745565b81600181146116ad57600281146116b7576116e6565b6001915050611745565b60ff8411156116c9576116c86115f0565b5b8360020a9150848211156116e0576116df6115f0565b5b50611745565b5060208310610133831016604e8410600b841016171561171b5782820a905083811115611716576117156115f0565b5b611745565b6117288484846001611629565b9250905081840481111561173f5761173e6115f0565b5b81810290505b9392505050565b5f61175682611387565b9150611761836114a3565b925061178e7fffffffffffffffffffffffffffffffffffffffffffffffffffffffffffffffff848461167b565b905092915050565b5f6117a082611387565b91506117ab83611387565b92508282026117b981611387565b915082820484148315176117d0576117cf6115f0565b5b5092915050565b5f6117e182611387565b91506117ec83611387565b9250828201905080821115611804576118036115f0565b5b92915050565b7f45786365656473206d617820737570706c7900000000000000000000000000005f82015250565b5f61183e6012836112a3565b91506118498261180a565b602082019050919050565b5f6020820190508181035f83015261186b81611832565b9050919050565b7f5072696365206d7573742062652067726561746572207468616e2030000000005f82015250565b5f6118a6601c836112a3565b91506118b182611872565b602082019050919050565b5f6020820190508181035f8301526118d38161189a565b9050919050565b7f53656e642045544820746f2062757920746f6b656e73000000000000000000005f82015250565b5f61190e6016836112a3565b9150611919826118da565b602082019050919050565b5f6020820190508181035f83015261193b81611902565b9050919050565b5f6040820190506119555f83018561142b565b611962602083018461142b565b9392505050565b5f81905092915050565b50565b5f6119815f83611969565b915061198c82611973565b5f82019050919050565b5f6119a082611976565b9150819050919050565b7f5769746864726177616c206661696c65640000000000000000000000000000005f82015250565b5f6119de6011836112a3565b91506119e9826119aa565b602082019050919050565b5f6020820190508181035f830152611a0b816119d2565b9050919050565b5f611a1c82611387565b9150611a2783611387565b9250828203905081811115611a3f57611a3e6115f0565b5b92915050565b5f606082019050611a585f83018661152d565b611a65602083018561142b565b611a72604083018461142b565b94935050505056fea2646970667358221220badebb1a6ee2406dcef8fd6d95b13f6d8ba9fd155041d54519e4d9ff02ef7f8164736f6c634300081a0033",
					"opcodes": "PUSH1 0x80 PUSH1 0x40 MSTORE CALLVALUE DUP1 ISZERO PUSH2 0xF JUMPI PUSH0 DUP1 REVERT JUMPDEST POP PUSH1 0x40 MLOAD PUSH2 0x2806 CODESIZE SUB DUP1 PUSH2 0x2806 DUP4 CODECOPY DUP2 DUP2 ADD PUSH1 0x40 MSTORE DUP2 ADD SWAP1 PUSH2 0x31 SWAP2 SWAP1 PUSH2 0x64E JUMP JUMPDEST CALLER DUP6 DUP6 DUP2 PUSH1 0x3 SWAP1 DUP2 PUSH2 0x43 SWAP2 SWAP1 PUSH2 0x901 JUMP JUMPDEST POP DUP1 PUSH1 0x4 SWAP1 DUP2 PUSH2 0x53 SWAP2 SWAP1 PUSH2 0x901 JUMP JUMPDEST POP POP POP PUSH0 PUSH20 0xFFFFFFFFFFFFFFFFFFFFFFFFFFFFFFFFFFFFFFFF AND DUP2 PUSH20 0xFFFFFFFFFFFFFFFFFFFFFFFFFFFFFFFFFFFFFFFF AND SUB PUSH2 0xC6 JUMPI PUSH0 PUSH1 0x40 MLOAD PUSH32 0x1E4FBDF700000000000000000000000000000000000000000000000000000000 DUP2 MSTORE PUSH1 0x4 ADD PUSH2 0xBD SWAP2 SWAP1 PUSH2 0xA0F JUMP JUMPDEST PUSH1 0x40 MLOAD DUP1 SWAP2 SUB SWAP1 REVERT JUMPDEST PUSH2 0xD5 DUP2 PUSH2 0x165 PUSH1 0x20 SHL PUSH1 0x20 SHR JUMP JUMPDEST POP DUP1 DUP4 GT ISZERO PUSH2 0x119 JUMPI PUSH1 0x40 MLOAD PUSH32 0x8C379A000000000000000000000000000000000000000000000000000000000 DUP2 MSTORE PUSH1 0x4 ADD PUSH2 0x110 SWAP1 PUSH2 0xAA8 JUMP JUMPDEST PUSH1 0x40 MLOAD DUP1 SWAP2 SUB SWAP1 REVERT JUMPDEST DUP2 PUSH1 0x6 DUP2 SWAP1 SSTORE POP DUP1 PUSH1 0x7 DUP2 SWAP1 SSTORE POP PUSH2 0x15B CALLER PUSH2 0x139 PUSH2 0x228 PUSH1 0x20 SHL PUSH1 0x20 SHR JUMP JUMPDEST PUSH1 0xA PUSH2 0x145 SWAP2 SWAP1 PUSH2 0xC2E JUMP JUMPDEST DUP6 PUSH2 0x150 SWAP2 SWAP1 PUSH2 0xC78 JUMP JUMPDEST PUSH2 0x230 PUSH1 0x20 SHL PUSH1 0x20 SHR JUMP JUMPDEST POP POP POP POP POP PUSH2 0xD49 JUMP JUMPDEST PUSH0 PUSH1 0x5 PUSH0 SWAP1 SLOAD SWAP1 PUSH2 0x100 EXP SWAP1 DIV PUSH20 0xFFFFFFFFFFFFFFFFFFFFFFFFFFFFFFFFFFFFFFFF AND SWAP1 POP DUP2 PUSH1 0x5 PUSH0 PUSH2 0x100 EXP DUP2 SLOAD DUP2 PUSH20 0xFFFFFFFFFFFFFFFFFFFFFFFFFFFFFFFFFFFFFFFF MUL NOT AND SWAP1 DUP4 PUSH20 0xFFFFFFFFFFFFFFFFFFFFFFFFFFFFFFFFFFFFFFFF AND MUL OR SWAP1 SSTORE POP DUP2 PUSH20 0xFFFFFFFFFFFFFFFFFFFFFFFFFFFFFFFFFFFFFFFF AND DUP2 PUSH20 0xFFFFFFFFFFFFFFFFFFFFFFFFFFFFFFFFFFFFFFFF AND PUSH32 0x8BE0079C531659141344CD1FD0A4F28419497F9722A3DAAFE3B4186F6B6457E0 PUSH1 0x40 MLOAD PUSH1 0x40 MLOAD DUP1 SWAP2 SUB SWAP1 LOG3 POP POP JUMP JUMPDEST PUSH0 PUSH1 0x12 SWAP1 POP SWAP1 JUMP JUMPDEST PUSH0 PUSH20 0xFFFFFFFFFFFFFFFFFFFFFFFFFFFFFFFFFFFFFFFF AND DUP3 PUSH20 0xFFFFFFFFFFFFFFFFFFFFFFFFFFFFFFFFFFFFFFFF AND SUB PUSH2 0x2A0 JUMPI PUSH0 PUSH1 0x40 MLOAD PUSH32 0xEC442F0500000000000000000000000000000000000000000000000000000000 DUP2 MSTORE PUSH1 0x4 ADD PUSH2 0x297 SWAP2 SWAP1 PUSH2 0xA0F JUMP JUMPDEST PUSH1 0x40 MLOAD DUP1 SWAP2 SUB SWAP1 REVERT JUMPDEST PUSH2 0x2B1 PUSH0 DUP4 DUP4 PUSH2 0x2B5 PUSH1 0x20 SHL PUSH1 0x20 SHR JUMP JUMPDEST POP POP JUMP JUMPDEST PUSH0 PUSH20 0xFFFFFFFFFFFFFFFFFFFFFFFFFFFFFFFFFFFFFFFF AND DUP4 PUSH20 0xFFFFFFFFFFFFFFFFFFFFFFFFFFFFFFFFFFFFFFFF AND SUB PUSH2 0x305 JUMPI DUP1 PUSH1 0x2 PUSH0 DUP3 DUP3 SLOAD PUSH2 0x2F9 SWAP2 SWAP1 PUSH2 0xCB9 JUMP JUMPDEST SWAP3 POP POP DUP2 SWAP1 SSTORE POP PUSH2 0x3D3 JUMP JUMPDEST PUSH0 DUP1 PUSH0 DUP6 PUSH20 0xFFFFFFFFFFFFFFFFFFFFFFFFFFFFFFFFFFFFFFFF AND PUSH20 0xFFFFFFFFFFFFFFFFFFFFFFFFFFFFFFFFFFFFFFFF AND DUP2 MSTORE PUSH1 0x20 ADD SWAP1 DUP2 MSTORE PUSH1 0x20 ADD PUSH0 KECCAK256 SLOAD SWAP1 POP DUP2 DUP2 LT ISZERO PUSH2 0x38E JUMPI DUP4 DUP2 DUP4 PUSH1 0x40 MLOAD PUSH32 0xE450D38C00000000000000000000000000000000000000000000000000000000 DUP2 MSTORE PUSH1 0x4 ADD PUSH2 0x385 SWAP4 SWAP3 SWAP2 SWAP1 PUSH2 0xCFB JUMP JUMPDEST PUSH1 0x40 MLOAD DUP1 SWAP2 SUB SWAP1 REVERT JUMPDEST DUP2 DUP2 SUB PUSH0 DUP1 DUP7 PUSH20 0xFFFFFFFFFFFFFFFFFFFFFFFFFFFFFFFFFFFFFFFF AND PUSH20 0xFFFFFFFFFFFFFFFFFFFFFFFFFFFFFFFFFFFFFFFF AND DUP2 MSTORE PUSH1 0x20 ADD SWAP1 DUP2 MSTORE PUSH1 0x20 ADD PUSH0 KECCAK256 DUP2 SWAP1 SSTORE POP POP JUMPDEST PUSH0 PUSH20 0xFFFFFFFFFFFFFFFFFFFFFFFFFFFFFFFFFFFFFFFF AND DUP3 PUSH20 0xFFFFFFFFFFFFFFFFFFFFFFFFFFFFFFFFFFFFFFFF AND SUB PUSH2 0x41A JUMPI DUP1 PUSH1 0x2 PUSH0 DUP3 DUP3 SLOAD SUB SWAP3 POP POP DUP2 SWAP1 SSTORE POP PUSH2 0x464 JUMP JUMPDEST DUP1 PUSH0 DUP1 DUP5 PUSH20 0xFFFFFFFFFFFFFFFFFFFFFFFFFFFFFFFFFFFFFFFF AND PUSH20 0xFFFFFFFFFFFFFFFFFFFFFFFFFFFFFFFFFFFFFFFF AND DUP2 MSTORE PUSH1 0x20 ADD SWAP1 DUP2 MSTORE PUSH1 0x20 ADD PUSH0 KECCAK256 PUSH0 DUP3 DUP3 SLOAD ADD SWAP3 POP POP DUP2 SWAP1 SSTORE POP JUMPDEST DUP2 PUSH20 0xFFFFFFFFFFFFFFFFFFFFFFFFFFFFFFFFFFFFFFFF AND DUP4 PUSH20 0xFFFFFFFFFFFFFFFFFFFFFFFFFFFFFFFFFFFFFFFF AND PUSH32 0xDDF252AD1BE2C89B69C2B068FC378DAA952BA7F163C4A11628F55A4DF523B3EF DUP4 PUSH1 0x40 MLOAD PUSH2 0x4C1 SWAP2 SWAP1 PUSH2 0xD30 JUMP JUMPDEST PUSH1 0x40 MLOAD DUP1 SWAP2 SUB SWAP1 LOG3 POP POP POP JUMP JUMPDEST PUSH0 PUSH1 0x40 MLOAD SWAP1 POP SWAP1 JUMP JUMPDEST PUSH0 DUP1 REVERT JUMPDEST PUSH0 DUP1 REVERT JUMPDEST PUSH0 DUP1 REVERT JUMPDEST PUSH0 DUP1 REVERT JUMPDEST PUSH0 PUSH1 0x1F NOT PUSH1 0x1F DUP4 ADD AND SWAP1 POP SWAP2 SWAP1 POP JUMP JUMPDEST PUSH32 0x4E487B7100000000000000000000000000000000000000000000000000000000 PUSH0 MSTORE PUSH1 0x41 PUSH1 0x4 MSTORE PUSH1 0x24 PUSH0 REVERT JUMPDEST PUSH2 0x52D DUP3 PUSH2 0x4E7 JUMP JUMPDEST DUP2 ADD DUP2 DUP2 LT PUSH8 0xFFFFFFFFFFFFFFFF DUP3 GT OR ISZERO PUSH2 0x54C JUMPI PUSH2 0x54B PUSH2 0x4F7 JUMP JUMPDEST JUMPDEST DUP1 PUSH1 0x40 MSTORE POP POP POP JUMP JUMPDEST PUSH0 PUSH2 0x55E PUSH2 0x4CE JUMP JUMPDEST SWAP1 POP PUSH2 0x56A DUP3 DUP3 PUSH2 0x524 JUMP JUMPDEST SWAP2 SWAP1 POP JUMP JUMPDEST PUSH0 PUSH8 0xFFFFFFFFFFFFFFFF DUP3 GT ISZERO PUSH2 0x589 JUMPI PUSH2 0x588 PUSH2 0x4F7 JUMP JUMPDEST JUMPDEST PUSH2 0x592 DUP3 PUSH2 0x4E7 JUMP JUMPDEST SWAP1 POP PUSH1 0x20 DUP2 ADD SWAP1 POP SWAP2 SWAP1 POP JUMP JUMPDEST DUP3 DUP2 DUP4 MCOPY PUSH0 DUP4 DUP4 ADD MSTORE POP POP POP JUMP JUMPDEST PUSH0 PUSH2 0x5BF PUSH2 0x5BA DUP5 PUSH2 0x56F JUMP JUMPDEST PUSH2 0x555 JUMP JUMPDEST SWAP1 POP DUP3 DUP2 MSTORE PUSH1 0x20 DUP2 ADD DUP5 DUP5 DUP5 ADD GT ISZERO PUSH2 0x5DB JUMPI PUSH2 0x5DA PUSH2 0x4E3 JUMP JUMPDEST JUMPDEST PUSH2 0x5E6 DUP5 DUP3 DUP6 PUSH2 0x59F JUMP JUMPDEST POP SWAP4 SWAP3 POP POP POP JUMP JUMPDEST PUSH0 DUP3 PUSH1 0x1F DUP4 ADD SLT PUSH2 0x602 JUMPI PUSH2 0x601 PUSH2 0x4DF JUMP JUMPDEST JUMPDEST DUP2 MLOAD PUSH2 0x612 DUP5 DUP3 PUSH1 0x20 DUP7 ADD PUSH2 0x5AD JUMP JUMPDEST SWAP2 POP POP SWAP3 SWAP2 POP POP JUMP JUMPDEST PUSH0 DUP2 SWAP1 POP SWAP2 SWAP1 POP JUMP JUMPDEST PUSH2 0x62D DUP2 PUSH2 0x61B JUMP JUMPDEST DUP2 EQ PUSH2 0x637 JUMPI PUSH0 DUP1 REVERT JUMPDEST POP JUMP JUMPDEST PUSH0 DUP2 MLOAD SWAP1 POP PUSH2 0x648 DUP2 PUSH2 0x624 JUMP JUMPDEST SWAP3 SWAP2 POP POP JUMP JUMPDEST PUSH0 DUP1 PUSH0 DUP1 PUSH0 PUSH1 0xA0 DUP7 DUP9 SUB SLT ISZERO PUSH2 0x667 JUMPI PUSH2 0x666 PUSH2 0x4D7 JUMP JUMPDEST JUMPDEST PUSH0 DUP7 ADD MLOAD PUSH8 0xFFFFFFFFFFFFFFFF DUP2 GT ISZERO PUSH2 0x684 JUMPI PUSH2 0x683 PUSH2 0x4DB JUMP JUMPDEST JUMPDEST PUSH2 0x690 DUP9 DUP3 DUP10 ADD PUSH2 0x5EE JUMP JUMPDEST SWAP6 POP POP PUSH1 0x20 DUP7 ADD MLOAD PUSH8 0xFFFFFFFFFFFFFFFF DUP2 GT ISZERO PUSH2 0x6B1 JUMPI PUSH2 0x6B0 PUSH2 0x4DB JUMP JUMPDEST JUMPDEST PUSH2 0x6BD DUP9 DUP3 DUP10 ADD PUSH2 0x5EE JUMP JUMPDEST SWAP5 POP POP PUSH1 0x40 PUSH2 0x6CE DUP9 DUP3 DUP10 ADD PUSH2 0x63A JUMP JUMPDEST SWAP4 POP POP PUSH1 0x60 PUSH2 0x6DF DUP9 DUP3 DUP10 ADD PUSH2 0x63A JUMP JUMPDEST SWAP3 POP POP PUSH1 0x80 PUSH2 0x6F0 DUP9 DUP3 DUP10 ADD PUSH2 0x63A JUMP JUMPDEST SWAP2 POP POP SWAP3 SWAP6 POP SWAP3 SWAP6 SWAP1 SWAP4 POP JUMP JUMPDEST PUSH0 DUP2 MLOAD SWAP1 POP SWAP2 SWAP1 POP JUMP JUMPDEST PUSH32 0x4E487B7100000000000000000000000000000000000000000000000000000000 PUSH0 MSTORE PUSH1 0x22 PUSH1 0x4 MSTORE PUSH1 0x24 PUSH0 REVERT JUMPDEST PUSH0 PUSH1 0x2 DUP3 DIV SWAP1 POP PUSH1 0x1 DUP3 AND DUP1 PUSH2 0x74B JUMPI PUSH1 0x7F DUP3 AND SWAP2 POP JUMPDEST PUSH1 0x20 DUP3 LT DUP2 SUB PUSH2 0x75E JUMPI PUSH2 0x75D PUSH2 0x707 JUMP JUMPDEST JUMPDEST POP SWAP2 SWAP1 POP JUMP JUMPDEST PUSH0 DUP2 SWAP1 POP DUP2 PUSH0 MSTORE PUSH1 0x20 PUSH0 KECCAK256 SWAP1 POP SWAP2 SWAP1 POP JUMP JUMPDEST PUSH0 PUSH1 0x20 PUSH1 0x1F DUP4 ADD DIV SWAP1 POP SWAP2 SWAP1 POP JUMP JUMPDEST PUSH0 DUP3 DUP3 SHL SWAP1 POP SWAP3 SWAP2 POP POP JUMP JUMPDEST PUSH0 PUSH1 0x8 DUP4 MUL PUSH2 0x7C0 PUSH32 0xFFFFFFFFFFFFFFFFFFFFFFFFFFFFFFFFFFFFFFFFFFFFFFFFFFFFFFFFFFFFFFFF DUP3 PUSH2 0x785 JUMP JUMPDEST PUSH2 0x7CA DUP7 DUP4 PUSH2 0x785 JUMP JUMPDEST SWAP6 POP DUP1 NOT DUP5 AND SWAP4 POP DUP1 DUP7 AND DUP5 OR SWAP3 POP POP POP SWAP4 SWAP3 POP POP POP JUMP JUMPDEST PUSH0 DUP2 SWAP1 POP SWAP2 SWAP1 POP JUMP JUMPDEST PUSH0 PUSH2 0x805 PUSH2 0x800 PUSH2 0x7FB DUP5 PUSH2 0x61B JUMP JUMPDEST PUSH2 0x7E2 JUMP JUMPDEST PUSH2 0x61B JUMP JUMPDEST SWAP1 POP SWAP2 SWAP1 POP JUMP JUMPDEST PUSH0 DUP2 SWAP1 POP SWAP2 SWAP1 POP JUMP JUMPDEST PUSH2 0x81E DUP4 PUSH2 0x7EB JUMP JUMPDEST PUSH2 0x832 PUSH2 0x82A DUP3 PUSH2 0x80C JUMP JUMPDEST DUP5 DUP5 SLOAD PUSH2 0x791 JUMP JUMPDEST DUP3 SSTORE POP POP POP POP JUMP JUMPDEST PUSH0 SWAP1 JUMP JUMPDEST PUSH2 0x846 PUSH2 0x83A JUMP JUMPDEST PUSH2 0x851 DUP2 DUP5 DUP5 PUSH2 0x815 JUMP JUMPDEST POP POP POP JUMP JUMPDEST JUMPDEST DUP2 DUP2 LT ISZERO PUSH2 0x874 JUMPI PUSH2 0x869 PUSH0 DUP3 PUSH2 0x83E JUMP JUMPDEST PUSH1 0x1 DUP2 ADD SWAP1 POP PUSH2 0x857 JUMP JUMPDEST POP POP JUMP JUMPDEST PUSH1 0x1F DUP3 GT ISZERO PUSH2 0x8B9 JUMPI PUSH2 0x88A DUP2 PUSH2 0x764 JUMP JUMPDEST PUSH2 0x893 DUP5 PUSH2 0x776 JUMP JUMPDEST DUP2 ADD PUSH1 0x20 DUP6 LT ISZERO PUSH2 0x8A2 JUMPI DUP2 SWAP1 POP JUMPDEST PUSH2 0x8B6 PUSH2 0x8AE DUP6 PUSH2 0x776 JUMP JUMPDEST DUP4 ADD DUP3 PUSH2 0x856 JUMP JUMPDEST POP POP JUMPDEST POP POP POP JUMP JUMPDEST PUSH0 DUP3 DUP3 SHR SWAP1 POP SWAP3 SWAP2 POP POP JUMP JUMPDEST PUSH0 PUSH2 0x8D9 PUSH0 NOT DUP5 PUSH1 0x8 MUL PUSH2 0x8BE JUMP JUMPDEST NOT DUP1 DUP4 AND SWAP2 POP POP SWAP3 SWAP2 POP POP JUMP JUMPDEST PUSH0 PUSH2 0x8F1 DUP4 DUP4 PUSH2 0x8CA JUMP JUMPDEST SWAP2 POP DUP3 PUSH1 0x2 MUL DUP3 OR SWAP1 POP SWAP3 SWAP2 POP POP JUMP JUMPDEST PUSH2 0x90A DUP3 PUSH2 0x6FD JUMP JUMPDEST PUSH8 0xFFFFFFFFFFFFFFFF DUP2 GT ISZERO PUSH2 0x923 JUMPI PUSH2 0x922 PUSH2 0x4F7 JUMP JUMPDEST JUMPDEST PUSH2 0x92D DUP3 SLOAD PUSH2 0x734 JUMP JUMPDEST PUSH2 0x938 DUP3 DUP3 DUP6 PUSH2 0x878 JUMP JUMPDEST PUSH0 PUSH1 0x20 SWAP1 POP PUSH1 0x1F DUP4 GT PUSH1 0x1 DUP2 EQ PUSH2 0x969 JUMPI PUSH0 DUP5 ISZERO PUSH2 0x957 JUMPI DUP3 DUP8 ADD MLOAD SWAP1 POP JUMPDEST PUSH2 0x961 DUP6 DUP3 PUSH2 0x8E6 JUMP JUMPDEST DUP7 SSTORE POP PUSH2 0x9C8 JUMP JUMPDEST PUSH1 0x1F NOT DUP5 AND PUSH2 0x977 DUP7 PUSH2 0x764 JUMP JUMPDEST PUSH0 JUMPDEST DUP3 DUP2 LT ISZERO PUSH2 0x99E JUMPI DUP5 DUP10 ADD MLOAD DUP3 SSTORE PUSH1 0x1 DUP3 ADD SWAP2 POP PUSH1 0x20 DUP6 ADD SWAP5 POP PUSH1 0x20 DUP2 ADD SWAP1 POP PUSH2 0x979 JUMP JUMPDEST DUP7 DUP4 LT ISZERO PUSH2 0x9BB JUMPI DUP5 DUP10 ADD MLOAD PUSH2 0x9B7 PUSH1 0x1F DUP10 AND DUP3 PUSH2 0x8CA JUMP JUMPDEST DUP4 SSTORE POP JUMPDEST PUSH1 0x1 PUSH1 0x2 DUP9 MUL ADD DUP9 SSTORE POP POP POP JUMPDEST POP POP POP POP POP POP JUMP JUMPDEST PUSH0 PUSH20 0xFFFFFFFFFFFFFFFFFFFFFFFFFFFFFFFFFFFFFFFF DUP3 AND SWAP1 POP SWAP2 SWAP1 POP JUMP JUMPDEST PUSH0 PUSH2 0x9F9 DUP3 PUSH2 0x9D0 JUMP JUMPDEST SWAP1 POP SWAP2 SWAP1 POP JUMP JUMPDEST PUSH2 0xA09 DUP2 PUSH2 0x9EF JUMP JUMPDEST DUP3 MSTORE POP POP JUMP JUMPDEST PUSH0 PUSH1 0x20 DUP3 ADD SWAP1 POP PUSH2 0xA22 PUSH0 DUP4 ADD DUP5 PUSH2 0xA00 JUMP JUMPDEST SWAP3 SWAP2 POP POP JUMP JUMPDEST PUSH0 DUP3 DUP3 MSTORE PUSH1 0x20 DUP3 ADD SWAP1 POP SWAP3 SWAP2 POP POP JUMP JUMPDEST PUSH32 0x496E697469616C20737570706C792063616E6E6F7420657863656564206D6178 PUSH0 DUP3 ADD MSTORE PUSH32 0x20737570706C7900000000000000000000000000000000000000000000000000 PUSH1 0x20 DUP3 ADD MSTORE POP JUMP JUMPDEST PUSH0 PUSH2 0xA92 PUSH1 0x27 DUP4 PUSH2 0xA28 JUMP JUMPDEST SWAP2 POP PUSH2 0xA9D DUP3 PUSH2 0xA38 JUMP JUMPDEST PUSH1 0x40 DUP3 ADD SWAP1 POP SWAP2 SWAP1 POP JUMP JUMPDEST PUSH0 PUSH1 0x20 DUP3 ADD SWAP1 POP DUP2 DUP2 SUB PUSH0 DUP4 ADD MSTORE PUSH2 0xABF DUP2 PUSH2 0xA86 JUMP JUMPDEST SWAP1 POP SWAP2 SWAP1 POP JUMP JUMPDEST PUSH32 0x4E487B7100000000000000000000000000000000000000000000000000000000 PUSH0 MSTORE PUSH1 0x11 PUSH1 0x4 MSTORE PUSH1 0x24 PUSH0 REVERT JUMPDEST PUSH0 DUP2 PUSH1 0x1 SHR SWAP1 POP SWAP2 SWAP1 POP JUMP JUMPDEST PUSH0 DUP1 DUP3 SWAP2 POP DUP4 SWAP1 POP JUMPDEST PUSH1 0x1 DUP6 GT ISZERO PUSH2 0xB48 JUMPI DUP1 DUP7 DIV DUP2 GT ISZERO PUSH2 0xB24 JUMPI PUSH2 0xB23 PUSH2 0xAC6 JUMP JUMPDEST JUMPDEST PUSH1 0x1 DUP6 AND ISZERO PUSH2 0xB33 JUMPI DUP1 DUP3 MUL SWAP2 POP JUMPDEST DUP1 DUP2 MUL SWAP1 POP PUSH2 0xB41 DUP6 PUSH2 0xAF3 JUMP JUMPDEST SWAP5 POP PUSH2 0xB08 JUMP JUMPDEST SWAP5 POP SWAP5 SWAP3 POP POP POP JUMP JUMPDEST PUSH0 DUP3 PUSH2 0xB60 JUMPI PUSH1 0x1 SWAP1 POP PUSH2 0xC1B JUMP JUMPDEST DUP2 PUSH2 0xB6D JUMPI PUSH0 SWAP1 POP PUSH2 0xC1B JUMP JUMPDEST DUP2 PUSH1 0x1 DUP2 EQ PUSH2 0xB83 JUMPI PUSH1 0x2 DUP2 EQ PUSH2 0xB8D JUMPI PUSH2 0xBBC JUMP JUMPDEST PUSH1 0x1 SWAP2 POP POP PUSH2 0xC1B JUMP JUMPDEST PUSH1 0xFF DUP5 GT ISZERO PUSH2 0xB9F JUMPI PUSH2 0xB9E PUSH2 0xAC6 JUMP JUMPDEST JUMPDEST DUP4 PUSH1 0x2 EXP SWAP2 POP DUP5 DUP3 GT ISZERO PUSH2 0xBB6 JUMPI PUSH2 0xBB5 PUSH2 0xAC6 JUMP JUMPDEST JUMPDEST POP PUSH2 0xC1B JUMP JUMPDEST POP PUSH1 0x20 DUP4 LT PUSH2 0x133 DUP4 LT AND PUSH1 0x4E DUP5 LT PUSH1 0xB DUP5 LT AND OR ISZERO PUSH2 0xBF1 JUMPI DUP3 DUP3 EXP SWAP1 POP DUP4 DUP2 GT ISZERO PUSH2 0xBEC JUMPI PUSH2 0xBEB PUSH2 0xAC6 JUMP JUMPDEST JUMPDEST PUSH2 0xC1B JUMP JUMPDEST PUSH2 0xBFE DUP5 DUP5 DUP5 PUSH1 0x1 PUSH2 0xAFF JUMP JUMPDEST SWAP3 POP SWAP1 POP DUP2 DUP5 DIV DUP2 GT ISZERO PUSH2 0xC15 JUMPI PUSH2 0xC14 PUSH2 0xAC6 JUMP JUMPDEST JUMPDEST DUP2 DUP2 MUL SWAP1 POP JUMPDEST SWAP4 SWAP3 POP POP POP JUMP JUMPDEST PUSH0 PUSH1 0xFF DUP3 AND SWAP1 POP SWAP2 SWAP1 POP JUMP JUMPDEST PUSH0 PUSH2 0xC38 DUP3 PUSH2 0x61B JUMP JUMPDEST SWAP2 POP PUSH2 0xC43 DUP4 PUSH2 0xC22 JUMP JUMPDEST SWAP3 POP PUSH2 0xC70 PUSH32 0xFFFFFFFFFFFFFFFFFFFFFFFFFFFFFFFFFFFFFFFFFFFFFFFFFFFFFFFFFFFFFFFF DUP5 DUP5 PUSH2 0xB51 JUMP JUMPDEST SWAP1 POP SWAP3 SWAP2 POP POP JUMP JUMPDEST PUSH0 PUSH2 0xC82 DUP3 PUSH2 0x61B JUMP JUMPDEST SWAP2 POP PUSH2 0xC8D DUP4 PUSH2 0x61B JUMP JUMPDEST SWAP3 POP DUP3 DUP3 MUL PUSH2 0xC9B DUP2 PUSH2 0x61B JUMP JUMPDEST SWAP2 POP DUP3 DUP3 DIV DUP5 EQ DUP4 ISZERO OR PUSH2 0xCB2 JUMPI PUSH2 0xCB1 PUSH2 0xAC6 JUMP JUMPDEST JUMPDEST POP SWAP3 SWAP2 POP POP JUMP JUMPDEST PUSH0 PUSH2 0xCC3 DUP3 PUSH2 0x61B JUMP JUMPDEST SWAP2 POP PUSH2 0xCCE DUP4 PUSH2 0x61B JUMP JUMPDEST SWAP3 POP DUP3 DUP3 ADD SWAP1 POP DUP1 DUP3 GT ISZERO PUSH2 0xCE6 JUMPI PUSH2 0xCE5 PUSH2 0xAC6 JUMP JUMPDEST JUMPDEST SWAP3 SWAP2 POP POP JUMP JUMPDEST PUSH2 0xCF5 DUP2 PUSH2 0x61B JUMP JUMPDEST DUP3 MSTORE POP POP JUMP JUMPDEST PUSH0 PUSH1 0x60 DUP3 ADD SWAP1 POP PUSH2 0xD0E PUSH0 DUP4 ADD DUP7 PUSH2 0xA00 JUMP JUMPDEST PUSH2 0xD1B PUSH1 0x20 DUP4 ADD DUP6 PUSH2 0xCEC JUMP JUMPDEST PUSH2 0xD28 PUSH1 0x40 DUP4 ADD DUP5 PUSH2 0xCEC JUMP JUMPDEST SWAP5 SWAP4 POP POP POP POP JUMP JUMPDEST PUSH0 PUSH1 0x20 DUP3 ADD SWAP1 POP PUSH2 0xD43 PUSH0 DUP4 ADD DUP5 PUSH2 0xCEC JUMP JUMPDEST SWAP3 SWAP2 POP POP JUMP JUMPDEST PUSH2 0x1AB0 DUP1 PUSH2 0xD56 PUSH0 CODECOPY PUSH0 RETURN INVALID PUSH1 0x80 PUSH1 0x40 MSTORE PUSH1 0x4 CALLDATASIZE LT PUSH2 0x134 JUMPI PUSH0 CALLDATALOAD PUSH1 0xE0 SHR DUP1 PUSH4 0x7FF9B596 GT PUSH2 0xAA JUMPI DUP1 PUSH4 0xD0FEBE4C GT PUSH2 0x6E JUMPI DUP1 PUSH4 0xD0FEBE4C EQ PUSH2 0x41A JUMPI DUP1 PUSH4 0xD5ABEB01 EQ PUSH2 0x424 JUMPI DUP1 PUSH4 0xDD62ED3E EQ PUSH2 0x44E JUMPI DUP1 PUSH4 0xE086E5EC EQ PUSH2 0x48A JUMPI DUP1 PUSH4 0xE4B7FB73 EQ PUSH2 0x4A0 JUMPI DUP1 PUSH4 0xF2FDE38B EQ PUSH2 0x4CA JUMPI PUSH2 0x134 JUMP JUMPDEST DUP1 PUSH4 0x7FF9B596 EQ PUSH2 0x336 JUMPI DUP1 PUSH4 0x8DA5CB5B EQ PUSH2 0x360 JUMPI DUP1 PUSH4 0x95D89B41 EQ PUSH2 0x38A JUMPI DUP1 PUSH4 0xA9059CBB EQ PUSH2 0x3B4 JUMPI DUP1 PUSH4 0xC4E41B22 EQ PUSH2 0x3F0 JUMPI PUSH2 0x134 JUMP JUMPDEST DUP1 PUSH4 0x40C10F19 GT PUSH2 0xFC JUMPI DUP1 PUSH4 0x40C10F19 EQ PUSH2 0x22E JUMPI DUP1 PUSH4 0x5F515226 EQ PUSH2 0x256 JUMPI DUP1 PUSH4 0x6A61E5FC EQ PUSH2 0x292 JUMPI DUP1 PUSH4 0x6F9FB98A EQ PUSH2 0x2BA JUMPI DUP1 PUSH4 0x70A08231 EQ PUSH2 0x2E4 JUMPI DUP1 PUSH4 0x715018A6 EQ PUSH2 0x320 JUMPI PUSH2 0x134 JUMP JUMPDEST DUP1 PUSH4 0x6FDDE03 EQ PUSH2 0x138 JUMPI DUP1 PUSH4 0x95EA7B3 EQ PUSH2 0x162 JUMPI DUP1 PUSH4 0x18160DDD EQ PUSH2 0x19E JUMPI DUP1 PUSH4 0x23B872DD EQ PUSH2 0x1C8 JUMPI DUP1 PUSH4 0x313CE567 EQ PUSH2 0x204 JUMPI JUMPDEST PUSH0 DUP1 REVERT JUMPDEST CALLVALUE DUP1 ISZERO PUSH2 0x143 JUMPI PUSH0 DUP1 REVERT JUMPDEST POP PUSH2 0x14C PUSH2 0x4F2 JUMP JUMPDEST PUSH1 0x40 MLOAD PUSH2 0x159 SWAP2 SWAP1 PUSH2 0x1309 JUMP JUMPDEST PUSH1 0x40 MLOAD DUP1 SWAP2 SUB SWAP1 RETURN JUMPDEST CALLVALUE DUP1 ISZERO PUSH2 0x16D JUMPI PUSH0 DUP1 REVERT JUMPDEST POP PUSH2 0x188 PUSH1 0x4 DUP1 CALLDATASIZE SUB DUP2 ADD SWAP1 PUSH2 0x183 SWAP2 SWAP1 PUSH2 0x13BA JUMP JUMPDEST PUSH2 0x582 JUMP JUMPDEST PUSH1 0x40 MLOAD PUSH2 0x195 SWAP2 SWAP1 PUSH2 0x1412 JUMP JUMPDEST PUSH1 0x40 MLOAD DUP1 SWAP2 SUB SWAP1 RETURN JUMPDEST CALLVALUE DUP1 ISZERO PUSH2 0x1A9 JUMPI PUSH0 DUP1 REVERT JUMPDEST POP PUSH2 0x1B2 PUSH2 0x5A4 JUMP JUMPDEST PUSH1 0x40 MLOAD PUSH2 0x1BF SWAP2 SWAP1 PUSH2 0x143A JUMP JUMPDEST PUSH1 0x40 MLOAD DUP1 SWAP2 SUB SWAP1 RETURN JUMPDEST CALLVALUE DUP1 ISZERO PUSH2 0x1D3 JUMPI PUSH0 DUP1 REVERT JUMPDEST POP PUSH2 0x1EE PUSH1 0x4 DUP1 CALLDATASIZE SUB DUP2 ADD SWAP1 PUSH2 0x1E9 SWAP2 SWAP1 PUSH2 0x1453 JUMP JUMPDEST PUSH2 0x5AD JUMP JUMPDEST PUSH1 0x40 MLOAD PUSH2 0x1FB SWAP2 SWAP1 PUSH2 0x1412 JUMP JUMPDEST PUSH1 0x40 MLOAD DUP1 SWAP2 SUB SWAP1 RETURN JUMPDEST CALLVALUE DUP1 ISZERO PUSH2 0x20F JUMPI PUSH0 DUP1 REVERT JUMPDEST POP PUSH2 0x218 PUSH2 0x5DB JUMP JUMPDEST PUSH1 0x40 MLOAD PUSH2 0x225 SWAP2 SWAP1 PUSH2 0x14BE JUMP JUMPDEST PUSH1 0x40 MLOAD DUP1 SWAP2 SUB SWAP1 RETURN JUMPDEST CALLVALUE DUP1 ISZERO PUSH2 0x239 JUMPI PUSH0 DUP1 REVERT JUMPDEST POP PUSH2 0x254 PUSH1 0x4 DUP1 CALLDATASIZE SUB DUP2 ADD SWAP1 PUSH2 0x24F SWAP2 SWAP1 PUSH2 0x13BA JUMP JUMPDEST PUSH2 0x5E3 JUMP JUMPDEST STOP JUMPDEST CALLVALUE DUP1 ISZERO PUSH2 0x261 JUMPI PUSH0 DUP1 REVERT JUMPDEST POP PUSH2 0x27C PUSH1 0x4 DUP1 CALLDATASIZE SUB DUP2 ADD SWAP1 PUSH2 0x277 SWAP2 SWAP1 PUSH2 0x14D7 JUMP JUMPDEST PUSH2 0x66E JUMP JUMPDEST PUSH1 0x40 MLOAD PUSH2 0x289 SWAP2 SWAP1 PUSH2 0x143A JUMP JUMPDEST PUSH1 0x40 MLOAD DUP1 SWAP2 SUB SWAP1 RETURN JUMPDEST CALLVALUE DUP1 ISZERO PUSH2 0x29D JUMPI PUSH0 DUP1 REVERT JUMPDEST POP PUSH2 0x2B8 PUSH1 0x4 DUP1 CALLDATASIZE SUB DUP2 ADD SWAP1 PUSH2 0x2B3 SWAP2 SWAP1 PUSH2 0x1502 JUMP JUMPDEST PUSH2 0x67F JUMP JUMPDEST STOP JUMPDEST CALLVALUE DUP1 ISZERO PUSH2 0x2C5 JUMPI PUSH0 DUP1 REVERT JUMPDEST POP PUSH2 0x2CE PUSH2 0x6D3 JUMP JUMPDEST PUSH1 0x40 MLOAD PUSH2 0x2DB SWAP2 SWAP1 PUSH2 0x143A JUMP JUMPDEST PUSH1 0x40 MLOAD DUP1 SWAP2 SUB SWAP1 RETURN JUMPDEST CALLVALUE DUP1 ISZERO PUSH2 0x2EF JUMPI PUSH0 DUP1 REVERT JUMPDEST POP PUSH2 0x30A PUSH1 0x4 DUP1 CALLDATASIZE SUB DUP2 ADD SWAP1 PUSH2 0x305 SWAP2 SWAP1 PUSH2 0x14D7 JUMP JUMPDEST PUSH2 0x6E2 JUMP JUMPDEST PUSH1 0x40 MLOAD PUSH2 0x317 SWAP2 SWAP1 PUSH2 0x143A JUMP JUMPDEST PUSH1 0x40 MLOAD DUP1 SWAP2 SUB SWAP1 RETURN JUMPDEST CALLVALUE DUP1 ISZERO PUSH2 0x32B JUMPI PUSH0 DUP1 REVERT JUMPDEST POP PUSH2 0x334 PUSH2 0x727 JUMP JUMPDEST STOP JUMPDEST CALLVALUE DUP1 ISZERO PUSH2 0x341 JUMPI PUSH0 DUP1 REVERT JUMPDEST POP PUSH2 0x34A PUSH2 0x73A JUMP JUMPDEST PUSH1 0x40 MLOAD PUSH2 0x357 SWAP2 SWAP1 PUSH2 0x143A JUMP JUMPDEST PUSH1 0x40 MLOAD DUP1 SWAP2 SUB SWAP1 RETURN JUMPDEST CALLVALUE DUP1 ISZERO PUSH2 0x36B JUMPI PUSH0 DUP1 REVERT JUMPDEST POP PUSH2 0x374 PUSH2 0x740 JUMP JUMPDEST PUSH1 0x40 MLOAD PUSH2 0x381 SWAP2 SWAP1 PUSH2 0x153C JUMP JUMPDEST PUSH1 0x40 MLOAD DUP1 SWAP2 SUB SWAP1 RETURN JUMPDEST CALLVALUE DUP1 ISZERO PUSH2 0x395 JUMPI PUSH0 DUP1 REVERT JUMPDEST POP PUSH2 0x39E PUSH2 0x768 JUMP JUMPDEST PUSH1 0x40 MLOAD PUSH2 0x3AB SWAP2 SWAP1 PUSH2 0x1309 JUMP JUMPDEST PUSH1 0x40 MLOAD DUP1 SWAP2 SUB SWAP1 RETURN JUMPDEST CALLVALUE DUP1 ISZERO PUSH2 0x3BF JUMPI PUSH0 DUP1 REVERT JUMPDEST POP PUSH2 0x3DA PUSH1 0x4 DUP1 CALLDATASIZE SUB DUP2 ADD SWAP1 PUSH2 0x3D5 SWAP2 SWAP1 PUSH2 0x13BA JUMP JUMPDEST PUSH2 0x7F8 JUMP JUMPDEST PUSH1 0x40 MLOAD PUSH2 0x3E7 SWAP2 SWAP1 PUSH2 0x1412 JUMP JUMPDEST PUSH1 0x40 MLOAD DUP1 SWAP2 SUB SWAP1 RETURN JUMPDEST CALLVALUE DUP1 ISZERO PUSH2 0x3FB JUMPI PUSH0 DUP1 REVERT JUMPDEST POP PUSH2 0x404 PUSH2 0x81A JUMP JUMPDEST PUSH1 0x40 MLOAD PUSH2 0x411 SWAP2 SWAP1 PUSH2 0x143A JUMP JUMPDEST PUSH1 0x40 MLOAD DUP1 SWAP2 SUB SWAP1 RETURN JUMPDEST PUSH2 0x422 PUSH2 0x828 JUMP JUMPDEST STOP JUMPDEST CALLVALUE DUP1 ISZERO PUSH2 0x42F JUMPI PUSH0 DUP1 REVERT JUMPDEST POP PUSH2 0x438 PUSH2 0x94D JUMP JUMPDEST PUSH1 0x40 MLOAD PUSH2 0x445 SWAP2 SWAP1 PUSH2 0x143A JUMP JUMPDEST PUSH1 0x40 MLOAD DUP1 SWAP2 SUB SWAP1 RETURN JUMPDEST CALLVALUE DUP1 ISZERO PUSH2 0x459 JUMPI PUSH0 DUP1 REVERT JUMPDEST POP PUSH2 0x474 PUSH1 0x4 DUP1 CALLDATASIZE SUB DUP2 ADD SWAP1 PUSH2 0x46F SWAP2 SWAP1 PUSH2 0x1555 JUMP JUMPDEST PUSH2 0x953 JUMP JUMPDEST PUSH1 0x40 MLOAD PUSH2 0x481 SWAP2 SWAP1 PUSH2 0x143A JUMP JUMPDEST PUSH1 0x40 MLOAD DUP1 SWAP2 SUB SWAP1 RETURN JUMPDEST CALLVALUE DUP1 ISZERO PUSH2 0x495 JUMPI PUSH0 DUP1 REVERT JUMPDEST POP PUSH2 0x49E PUSH2 0x9D5 JUMP JUMPDEST STOP JUMPDEST CALLVALUE DUP1 ISZERO PUSH2 0x4AB JUMPI PUSH0 DUP1 REVERT JUMPDEST POP PUSH2 0x4B4 PUSH2 0xA8F JUMP JUMPDEST PUSH1 0x40 MLOAD PUSH2 0x4C1 SWAP2 SWAP1 PUSH2 0x143A JUMP JUMPDEST PUSH1 0x40 MLOAD DUP1 SWAP2 SUB SWAP1 RETURN JUMPDEST CALLVALUE DUP1 ISZERO PUSH2 0x4D5 JUMPI PUSH0 DUP1 REVERT JUMPDEST POP PUSH2 0x4F0 PUSH1 0x4 DUP1 CALLDATASIZE SUB DUP2 ADD SWAP1 PUSH2 0x4EB SWAP2 SWAP1 PUSH2 0x14D7 JUMP JUMPDEST PUSH2 0xAC8 JUMP JUMPDEST STOP JUMPDEST PUSH1 0x60 PUSH1 0x3 DUP1 SLOAD PUSH2 0x501 SWAP1 PUSH2 0x15C0 JUMP JUMPDEST DUP1 PUSH1 0x1F ADD PUSH1 0x20 DUP1 SWAP2 DIV MUL PUSH1 0x20 ADD PUSH1 0x40 MLOAD SWAP1 DUP2 ADD PUSH1 0x40 MSTORE DUP1 SWAP3 SWAP2 SWAP1 DUP2 DUP2 MSTORE PUSH1 0x20 ADD DUP3 DUP1 SLOAD PUSH2 0x52D SWAP1 PUSH2 0x15C0 JUMP JUMPDEST DUP1 ISZERO PUSH2 0x578 JUMPI DUP1 PUSH1 0x1F LT PUSH2 0x54F JUMPI PUSH2 0x100 DUP1 DUP4 SLOAD DIV MUL DUP4 MSTORE SWAP2 PUSH1 0x20 ADD SWAP2 PUSH2 0x578 JUMP JUMPDEST DUP3 ADD SWAP2 SWAP1 PUSH0 MSTORE PUSH1 0x20 PUSH0 KECCAK256 SWAP1 JUMPDEST DUP2 SLOAD DUP2 MSTORE SWAP1 PUSH1 0x1 ADD SWAP1 PUSH1 0x20 ADD DUP1 DUP4 GT PUSH2 0x55B JUMPI DUP3 SWAP1 SUB PUSH1 0x1F AND DUP3 ADD SWAP2 JUMPDEST POP POP POP POP POP SWAP1 POP SWAP1 JUMP JUMPDEST PUSH0 DUP1 PUSH2 0x58C PUSH2 0xB4C JUMP JUMPDEST SWAP1 POP PUSH2 0x599 DUP2 DUP6 DUP6 PUSH2 0xB53 JUMP JUMPDEST PUSH1 0x1 SWAP2 POP POP SWAP3 SWAP2 POP POP JUMP JUMPDEST PUSH0 PUSH1 0x2 SLOAD SWAP1 POP SWAP1 JUMP JUMPDEST PUSH0 DUP1 PUSH2 0x5B7 PUSH2 0xB4C JUMP JUMPDEST SWAP1 POP PUSH2 0x5C4 DUP6 DUP3 DUP6 PUSH2 0xB65 JUMP JUMPDEST PUSH2 0x5CF DUP6 DUP6 DUP6 PUSH2 0xBF8 JUMP JUMPDEST PUSH1 0x1 SWAP2 POP POP SWAP4 SWAP3 POP POP POP JUMP JUMPDEST PUSH0 PUSH1 0x12 SWAP1 POP SWAP1 JUMP JUMPDEST PUSH2 0x5EB PUSH2 0xCE8 JUMP JUMPDEST PUSH2 0x5F3 PUSH2 0x5DB JUMP JUMPDEST PUSH1 0xA PUSH2 0x5FF SWAP2 SWAP1 PUSH2 0x174C JUMP JUMPDEST PUSH1 0x7 SLOAD PUSH2 0x60C SWAP2 SWAP1 PUSH2 0x1796 JUMP JUMPDEST DUP2 PUSH2 0x615 PUSH2 0x5A4 JUMP JUMPDEST PUSH2 0x61F SWAP2 SWAP1 PUSH2 0x17D7 JUMP JUMPDEST GT ISZERO PUSH2 0x660 JUMPI PUSH1 0x40 MLOAD PUSH32 0x8C379A000000000000000000000000000000000000000000000000000000000 DUP2 MSTORE PUSH1 0x4 ADD PUSH2 0x657 SWAP1 PUSH2 0x1854 JUMP JUMPDEST PUSH1 0x40 MLOAD DUP1 SWAP2 SUB SWAP1 REVERT JUMPDEST PUSH2 0x66A DUP3 DUP3 PUSH2 0xD6F JUMP JUMPDEST POP POP JUMP JUMPDEST PUSH0 PUSH2 0x678 DUP3 PUSH2 0x6E2 JUMP JUMPDEST SWAP1 POP SWAP2 SWAP1 POP JUMP JUMPDEST PUSH2 0x687 PUSH2 0xCE8 JUMP JUMPDEST PUSH0 DUP2 GT PUSH2 0x6C9 JUMPI PUSH1 0x40 MLOAD PUSH32 0x8C379A000000000000000000000000000000000000000000000000000000000 DUP2 MSTORE PUSH1 0x4 ADD PUSH2 0x6C0 SWAP1 PUSH2 0x18BC JUMP JUMPDEST PUSH1 0x40 MLOAD DUP1 SWAP2 SUB SWAP1 REVERT JUMPDEST DUP1 PUSH1 0x6 DUP2 SWAP1 SSTORE POP POP JUMP JUMPDEST PUSH0 PUSH2 0x6DC PUSH2 0xCE8 JUMP JUMPDEST SELFBALANCE SWAP1 POP SWAP1 JUMP JUMPDEST PUSH0 DUP1 PUSH0 DUP4 PUSH20 0xFFFFFFFFFFFFFFFFFFFFFFFFFFFFFFFFFFFFFFFF AND PUSH20 0xFFFFFFFFFFFFFFFFFFFFFFFFFFFFFFFFFFFFFFFF AND DUP2 MSTORE PUSH1 0x20 ADD SWAP1 DUP2 MSTORE PUSH1 0x20 ADD PUSH0 KECCAK256 SLOAD SWAP1 POP SWAP2 SWAP1 POP JUMP JUMPDEST PUSH2 0x72F PUSH2 0xCE8 JUMP JUMPDEST PUSH2 0x738 PUSH0 PUSH2 0xDEE JUMP JUMPDEST JUMP JUMPDEST PUSH1 0x6 SLOAD DUP2 JUMP JUMPDEST PUSH0 PUSH1 0x5 PUSH0 SWAP1 SLOAD SWAP1 PUSH2 0x100 EXP SWAP1 DIV PUSH20 0xFFFFFFFFFFFFFFFFFFFFFFFFFFFFFFFFFFFFFFFF AND SWAP1 POP SWAP1 JUMP JUMPDEST PUSH1 0x60 PUSH1 0x4 DUP1 SLOAD PUSH2 0x777 SWAP1 PUSH2 0x15C0 JUMP JUMPDEST DUP1 PUSH1 0x1F ADD PUSH1 0x20 DUP1 SWAP2 DIV MUL PUSH1 0x20 ADD PUSH1 0x40 MLOAD SWAP1 DUP2 ADD PUSH1 0x40 MSTORE DUP1 SWAP3 SWAP2 SWAP1 DUP2 DUP2 MSTORE PUSH1 0x20 ADD DUP3 DUP1 SLOAD PUSH2 0x7A3 SWAP1 PUSH2 0x15C0 JUMP JUMPDEST DUP1 ISZERO PUSH2 0x7EE JUMPI DUP1 PUSH1 0x1F LT PUSH2 0x7C5 JUMPI PUSH2 0x100 DUP1 DUP4 SLOAD DIV MUL DUP4 MSTORE SWAP2 PUSH1 0x20 ADD SWAP2 PUSH2 0x7EE JUMP JUMPDEST DUP3 ADD SWAP2 SWAP1 PUSH0 MSTORE PUSH1 0x20 PUSH0 KECCAK256 SWAP1 JUMPDEST DUP2 SLOAD DUP2 MSTORE SWAP1 PUSH1 0x1 ADD SWAP1 PUSH1 0x20 ADD DUP1 DUP4 GT PUSH2 0x7D1 JUMPI DUP3 SWAP1 SUB PUSH1 0x1F AND DUP3 ADD SWAP2 JUMPDEST POP POP POP POP POP SWAP1 POP SWAP1 JUMP JUMPDEST PUSH0 DUP1 PUSH2 0x802 PUSH2 0xB4C JUMP JUMPDEST SWAP1 POP PUSH2 0x80F DUP2 DUP6 DUP6 PUSH2 0xBF8 JUMP JUMPDEST PUSH1 0x1 SWAP2 POP POP SWAP3 SWAP2 POP POP JUMP JUMPDEST PUSH0 PUSH2 0x823 PUSH2 0x5A4 JUMP JUMPDEST SWAP1 POP SWAP1 JUMP JUMPDEST PUSH0 CALLVALUE GT PUSH2 0x86A JUMPI PUSH1 0x40 MLOAD PUSH32 0x8C379A000000000000000000000000000000000000000000000000000000000 DUP2 MSTORE PUSH1 0x4 ADD PUSH2 0x861 SWAP1 PUSH2 0x1924 JUMP JUMPDEST PUSH1 0x40 MLOAD DUP1 SWAP2 SUB SWAP1 REVERT JUMPDEST PUSH0 PUSH1 0x6 SLOAD CALLVALUE PUSH2 0x879 SWAP2 SWAP1 PUSH2 0x1796 JUMP JUMPDEST SWAP1 POP PUSH2 0x883 PUSH2 0x5DB JUMP JUMPDEST PUSH1 0xA PUSH2 0x88F SWAP2 SWAP1 PUSH2 0x174C JUMP JUMPDEST PUSH1 0x7 SLOAD PUSH2 0x89C SWAP2 SWAP1 PUSH2 0x1796 JUMP JUMPDEST DUP2 PUSH2 0x8A5 PUSH2 0x5A4 JUMP JUMPDEST PUSH2 0x8AF SWAP2 SWAP1 PUSH2 0x17D7 JUMP JUMPDEST GT ISZERO PUSH2 0x8F0 JUMPI PUSH1 0x40 MLOAD PUSH32 0x8C379A000000000000000000000000000000000000000000000000000000000 DUP2 MSTORE PUSH1 0x4 ADD PUSH2 0x8E7 SWAP1 PUSH2 0x1854 JUMP JUMPDEST PUSH1 0x40 MLOAD DUP1 SWAP2 SUB SWAP1 REVERT JUMPDEST PUSH2 0x8FA CALLER DUP3 PUSH2 0xD6F JUMP JUMPDEST CALLER PUSH20 0xFFFFFFFFFFFFFFFFFFFFFFFFFFFFFFFFFFFFFFFF AND PUSH32 0x8FAFEBCAF9D154343DAD25669BFA277F4FBACD7AC6B0C4FED522580E040A0F33 CALLVALUE DUP4 PUSH1 0x40 MLOAD PUSH2 0x942 SWAP3 SWAP2 SWAP1 PUSH2 0x1942 JUMP JUMPDEST PUSH1 0x40 MLOAD DUP1 SWAP2 SUB SWAP1 LOG2 POP JUMP JUMPDEST PUSH1 0x7 SLOAD DUP2 JUMP JUMPDEST PUSH0 PUSH1 0x1 PUSH0 DUP5 PUSH20 0xFFFFFFFFFFFFFFFFFFFFFFFFFFFFFFFFFFFFFFFF AND PUSH20 0xFFFFFFFFFFFFFFFFFFFFFFFFFFFFFFFFFFFFFFFF AND DUP2 MSTORE PUSH1 0x20 ADD SWAP1 DUP2 MSTORE PUSH1 0x20 ADD PUSH0 KECCAK256 PUSH0 DUP4 PUSH20 0xFFFFFFFFFFFFFFFFFFFFFFFFFFFFFFFFFFFFFFFF AND PUSH20 0xFFFFFFFFFFFFFFFFFFFFFFFFFFFFFFFFFFFFFFFF AND DUP2 MSTORE PUSH1 0x20 ADD SWAP1 DUP2 MSTORE PUSH1 0x20 ADD PUSH0 KECCAK256 SLOAD SWAP1 POP SWAP3 SWAP2 POP POP JUMP JUMPDEST PUSH2 0x9DD PUSH2 0xCE8 JUMP JUMPDEST PUSH0 PUSH2 0x9E6 PUSH2 0x740 JUMP JUMPDEST PUSH20 0xFFFFFFFFFFFFFFFFFFFFFFFFFFFFFFFFFFFFFFFF AND SELFBALANCE PUSH1 0x40 MLOAD PUSH2 0xA09 SWAP1 PUSH2 0x1996 JUMP JUMPDEST PUSH0 PUSH1 0x40 MLOAD DUP1 DUP4 SUB DUP2 DUP6 DUP8 GAS CALL SWAP3 POP POP POP RETURNDATASIZE DUP1 PUSH0 DUP2 EQ PUSH2 0xA43 JUMPI PUSH1 0x40 MLOAD SWAP2 POP PUSH1 0x1F NOT PUSH1 0x3F RETURNDATASIZE ADD AND DUP3 ADD PUSH1 0x40 MSTORE RETURNDATASIZE DUP3 MSTORE RETURNDATASIZE PUSH0 PUSH1 0x20 DUP5 ADD RETURNDATACOPY PUSH2 0xA48 JUMP JUMPDEST PUSH1 0x60 SWAP2 POP JUMPDEST POP POP SWAP1 POP DUP1 PUSH2 0xA8C JUMPI PUSH1 0x40 MLOAD PUSH32 0x8C379A000000000000000000000000000000000000000000000000000000000 DUP2 MSTORE PUSH1 0x4 ADD PUSH2 0xA83 SWAP1 PUSH2 0x19F4 JUMP JUMPDEST PUSH1 0x40 MLOAD DUP1 SWAP2 SUB SWAP1 REVERT JUMPDEST POP JUMP JUMPDEST PUSH0 PUSH2 0xA98 PUSH2 0x5A4 JUMP JUMPDEST PUSH2 0xAA0 PUSH2 0x5DB JUMP JUMPDEST PUSH1 0xA PUSH2 0xAAC SWAP2 SWAP1 PUSH2 0x174C JUMP JUMPDEST PUSH1 0x7 SLOAD PUSH2 0xAB9 SWAP2 SWAP1 PUSH2 0x1796 JUMP JUMPDEST PUSH2 0xAC3 SWAP2 SWAP1 PUSH2 0x1A12 JUMP JUMPDEST SWAP1 POP SWAP1 JUMP JUMPDEST PUSH2 0xAD0 PUSH2 0xCE8 JUMP JUMPDEST PUSH0 PUSH20 0xFFFFFFFFFFFFFFFFFFFFFFFFFFFFFFFFFFFFFFFF AND DUP2 PUSH20 0xFFFFFFFFFFFFFFFFFFFFFFFFFFFFFFFFFFFFFFFF AND SUB PUSH2 0xB40 JUMPI PUSH0 PUSH1 0x40 MLOAD PUSH32 0x1E4FBDF700000000000000000000000000000000000000000000000000000000 DUP2 MSTORE PUSH1 0x4 ADD PUSH2 0xB37 SWAP2 SWAP1 PUSH2 0x153C JUMP JUMPDEST PUSH1 0x40 MLOAD DUP1 SWAP2 SUB SWAP1 REVERT JUMPDEST PUSH2 0xB49 DUP2 PUSH2 0xDEE JUMP JUMPDEST POP JUMP JUMPDEST PUSH0 CALLER SWAP1 POP SWAP1 JUMP JUMPDEST PUSH2 0xB60 DUP4 DUP4 DUP4 PUSH1 0x1 PUSH2 0xEB1 JUMP JUMPDEST POP POP POP JUMP JUMPDEST PUSH0 PUSH2 0xB70 DUP5 DUP5 PUSH2 0x953 JUMP JUMPDEST SWAP1 POP PUSH32 0xFFFFFFFFFFFFFFFFFFFFFFFFFFFFFFFFFFFFFFFFFFFFFFFFFFFFFFFFFFFFFFFF DUP2 LT ISZERO PUSH2 0xBF2 JUMPI DUP2 DUP2 LT ISZERO PUSH2 0xBE3 JUMPI DUP3 DUP2 DUP4 PUSH1 0x40 MLOAD PUSH32 0xFB8F41B200000000000000000000000000000000000000000000000000000000 DUP2 MSTORE PUSH1 0x4 ADD PUSH2 0xBDA SWAP4 SWAP3 SWAP2 SWAP1 PUSH2 0x1A45 JUMP JUMPDEST PUSH1 0x40 MLOAD DUP1 SWAP2 SUB SWAP1 REVERT JUMPDEST PUSH2 0xBF1 DUP5 DUP5 DUP5 DUP5 SUB PUSH0 PUSH2 0xEB1 JUMP JUMPDEST JUMPDEST POP POP POP POP JUMP JUMPDEST PUSH0 PUSH20 0xFFFFFFFFFFFFFFFFFFFFFFFFFFFFFFFFFFFFFFFF AND DUP4 PUSH20 0xFFFFFFFFFFFFFFFFFFFFFFFFFFFFFFFFFFFFFFFF AND SUB PUSH2 0xC68 JUMPI PUSH0 PUSH1 0x40 MLOAD PUSH32 0x96C6FD1E00000000000000000000000000000000000000000000000000000000 DUP2 MSTORE PUSH1 0x4 ADD PUSH2 0xC5F SWAP2 SWAP1 PUSH2 0x153C JUMP JUMPDEST PUSH1 0x40 MLOAD DUP1 SWAP2 SUB SWAP1 REVERT JUMPDEST PUSH0 PUSH20 0xFFFFFFFFFFFFFFFFFFFFFFFFFFFFFFFFFFFFFFFF AND DUP3 PUSH20 0xFFFFFFFFFFFFFFFFFFFFFFFFFFFFFFFFFFFFFFFF AND SUB PUSH2 0xCD8 JUMPI PUSH0 PUSH1 0x40 MLOAD PUSH32 0xEC442F0500000000000000000000000000000000000000000000000000000000 DUP2 MSTORE PUSH1 0x4 ADD PUSH2 0xCCF SWAP2 SWAP1 PUSH2 0x153C JUMP JUMPDEST PUSH1 0x40 MLOAD DUP1 SWAP2 SUB SWAP1 REVERT JUMPDEST PUSH2 0xCE3 DUP4 DUP4 DUP4 PUSH2 0x1080 JUMP JUMPDEST POP POP POP JUMP JUMPDEST PUSH2 0xCF0 PUSH2 0xB4C JUMP JUMPDEST PUSH20 0xFFFFFFFFFFFFFFFFFFFFFFFFFFFFFFFFFFFFFFFF AND PUSH2 0xD0E PUSH2 0x740 JUMP JUMPDEST PUSH20 0xFFFFFFFFFFFFFFFFFFFFFFFFFFFFFFFFFFFFFFFF AND EQ PUSH2 0xD6D JUMPI PUSH2 0xD31 PUSH2 0xB4C JUMP JUMPDEST PUSH1 0x40 MLOAD PUSH32 0x118CDAA700000000000000000000000000000000000000000000000000000000 DUP2 MSTORE PUSH1 0x4 ADD PUSH2 0xD64 SWAP2 SWAP1 PUSH2 0x153C JUMP JUMPDEST PUSH1 0x40 MLOAD DUP1 SWAP2 SUB SWAP1 REVERT JUMPDEST JUMP JUMPDEST PUSH0 PUSH20 0xFFFFFFFFFFFFFFFFFFFFFFFFFFFFFFFFFFFFFFFF AND DUP3 PUSH20 0xFFFFFFFFFFFFFFFFFFFFFFFFFFFFFFFFFFFFFFFF AND SUB PUSH2 0xDDF JUMPI PUSH0 PUSH1 0x40 MLOAD PUSH32 0xEC442F0500000000000000000000000000000000000000000000000000000000 DUP2 MSTORE PUSH1 0x4 ADD PUSH2 0xDD6 SWAP2 SWAP1 PUSH2 0x153C JUMP JUMPDEST PUSH1 0x40 MLOAD DUP1 SWAP2 SUB SWAP1 REVERT JUMPDEST PUSH2 0xDEA PUSH0 DUP4 DUP4 PUSH2 0x1080 JUMP JUMPDEST POP POP JUMP JUMPDEST PUSH0 PUSH1 0x5 PUSH0 SWAP1 SLOAD SWAP1 PUSH2 0x100 EXP SWAP1 DIV PUSH20 0xFFFFFFFFFFFFFFFFFFFFFFFFFFFFFFFFFFFFFFFF AND SWAP1 POP DUP2 PUSH1 0x5 PUSH0 PUSH2 0x100 EXP DUP2 SLOAD DUP2 PUSH20 0xFFFFFFFFFFFFFFFFFFFFFFFFFFFFFFFFFFFFFFFF MUL NOT AND SWAP1 DUP4 PUSH20 0xFFFFFFFFFFFFFFFFFFFFFFFFFFFFFFFFFFFFFFFF AND MUL OR SWAP1 SSTORE POP DUP2 PUSH20 0xFFFFFFFFFFFFFFFFFFFFFFFFFFFFFFFFFFFFFFFF AND DUP2 PUSH20 0xFFFFFFFFFFFFFFFFFFFFFFFFFFFFFFFFFFFFFFFF AND PUSH32 0x8BE0079C531659141344CD1FD0A4F28419497F9722A3DAAFE3B4186F6B6457E0 PUSH1 0x40 MLOAD PUSH1 0x40 MLOAD DUP1 SWAP2 SUB SWAP1 LOG3 POP POP JUMP JUMPDEST PUSH0 PUSH20 0xFFFFFFFFFFFFFFFFFFFFFFFFFFFFFFFFFFFFFFFF AND DUP5 PUSH20 0xFFFFFFFFFFFFFFFFFFFFFFFFFFFFFFFFFFFFFFFF AND SUB PUSH2 0xF21 JUMPI PUSH0 PUSH1 0x40 MLOAD PUSH32 0xE602DF0500000000000000000000000000000000000000000000000000000000 DUP2 MSTORE PUSH1 0x4 ADD PUSH2 0xF18 SWAP2 SWAP1 PUSH2 0x153C JUMP JUMPDEST PUSH1 0x40 MLOAD DUP1 SWAP2 SUB SWAP1 REVERT JUMPDEST PUSH0 PUSH20 0xFFFFFFFFFFFFFFFFFFFFFFFFFFFFFFFFFFFFFFFF AND DUP4 PUSH20 0xFFFFFFFFFFFFFFFFFFFFFFFFFFFFFFFFFFFFFFFF AND SUB PUSH2 0xF91 JUMPI PUSH0 PUSH1 0x40 MLOAD PUSH32 0x94280D6200000000000000000000000000000000000000000000000000000000 DUP2 MSTORE PUSH1 0x4 ADD PUSH2 0xF88 SWAP2 SWAP1 PUSH2 0x153C JUMP JUMPDEST PUSH1 0x40 MLOAD DUP1 SWAP2 SUB SWAP1 REVERT JUMPDEST DUP2 PUSH1 0x1 PUSH0 DUP7 PUSH20 0xFFFFFFFFFFFFFFFFFFFFFFFFFFFFFFFFFFFFFFFF AND PUSH20 0xFFFFFFFFFFFFFFFFFFFFFFFFFFFFFFFFFFFFFFFF AND DUP2 MSTORE PUSH1 0x20 ADD SWAP1 DUP2 MSTORE PUSH1 0x20 ADD PUSH0 KECCAK256 PUSH0 DUP6 PUSH20 0xFFFFFFFFFFFFFFFFFFFFFFFFFFFFFFFFFFFFFFFF AND PUSH20 0xFFFFFFFFFFFFFFFFFFFFFFFFFFFFFFFFFFFFFFFF AND DUP2 MSTORE PUSH1 0x20 ADD SWAP1 DUP2 MSTORE PUSH1 0x20 ADD PUSH0 KECCAK256 DUP2 SWAP1 SSTORE POP DUP1 ISZERO PUSH2 0x107A JUMPI DUP3 PUSH20 0xFFFFFFFFFFFFFFFFFFFFFFFFFFFFFFFFFFFFFFFF AND DUP5 PUSH20 0xFFFFFFFFFFFFFFFFFFFFFFFFFFFFFFFFFFFFFFFF AND PUSH32 0x8C5BE1E5EBEC7D5BD14F71427D1E84F3DD0314C0F7B2291E5B200AC8C7C3B925 DUP5 PUSH1 0x40 MLOAD PUSH2 0x1071 SWAP2 SWAP1 PUSH2 0x143A JUMP JUMPDEST PUSH1 0x40 MLOAD DUP1 SWAP2 SUB SWAP1 LOG3 JUMPDEST POP POP POP POP JUMP JUMPDEST PUSH0 PUSH20 0xFFFFFFFFFFFFFFFFFFFFFFFFFFFFFFFFFFFFFFFF AND DUP4 PUSH20 0xFFFFFFFFFFFFFFFFFFFFFFFFFFFFFFFFFFFFFFFF AND SUB PUSH2 0x10D0 JUMPI DUP1 PUSH1 0x2 PUSH0 DUP3 DUP3 SLOAD PUSH2 0x10C4 SWAP2 SWAP1 PUSH2 0x17D7 JUMP JUMPDEST SWAP3 POP POP DUP2 SWAP1 SSTORE POP PUSH2 0x119E JUMP JUMPDEST PUSH0 DUP1 PUSH0 DUP6 PUSH20 0xFFFFFFFFFFFFFFFFFFFFFFFFFFFFFFFFFFFFFFFF AND PUSH20 0xFFFFFFFFFFFFFFFFFFFFFFFFFFFFFFFFFFFFFFFF AND DUP2 MSTORE PUSH1 0x20 ADD SWAP1 DUP2 MSTORE PUSH1 0x20 ADD PUSH0 KECCAK256 SLOAD SWAP1 POP DUP2 DUP2 LT ISZERO PUSH2 0x1159 JUMPI DUP4 DUP2 DUP4 PUSH1 0x40 MLOAD PUSH32 0xE450D38C00000000000000000000000000000000000000000000000000000000 DUP2 MSTORE PUSH1 0x4 ADD PUSH2 0x1150 SWAP4 SWAP3 SWAP2 SWAP1 PUSH2 0x1A45 JUMP JUMPDEST PUSH1 0x40 MLOAD DUP1 SWAP2 SUB SWAP1 REVERT JUMPDEST DUP2 DUP2 SUB PUSH0 DUP1 DUP7 PUSH20 0xFFFFFFFFFFFFFFFFFFFFFFFFFFFFFFFFFFFFFFFF AND PUSH20 0xFFFFFFFFFFFFFFFFFFFFFFFFFFFFFFFFFFFFFFFF AND DUP2 MSTORE PUSH1 0x20 ADD SWAP1 DUP2 MSTORE PUSH1 0x20 ADD PUSH0 KECCAK256 DUP2 SWAP1 SSTORE POP POP JUMPDEST PUSH0 PUSH20 0xFFFFFFFFFFFFFFFFFFFFFFFFFFFFFFFFFFFFFFFF AND DUP3 PUSH20 0xFFFFFFFFFFFFFFFFFFFFFFFFFFFFFFFFFFFFFFFF AND SUB PUSH2 0x11E5 JUMPI DUP1 PUSH1 0x2 PUSH0 DUP3 DUP3 SLOAD SUB SWAP3 POP POP DUP2 SWAP1 SSTORE POP PUSH2 0x122F JUMP JUMPDEST DUP1 PUSH0 DUP1 DUP5 PUSH20 0xFFFFFFFFFFFFFFFFFFFFFFFFFFFFFFFFFFFFFFFF AND PUSH20 0xFFFFFFFFFFFFFFFFFFFFFFFFFFFFFFFFFFFFFFFF AND DUP2 MSTORE PUSH1 0x20 ADD SWAP1 DUP2 MSTORE PUSH1 0x20 ADD PUSH0 KECCAK256 PUSH0 DUP3 DUP3 SLOAD ADD SWAP3 POP POP DUP2 SWAP1 SSTORE POP JUMPDEST DUP2 PUSH20 0xFFFFFFFFFFFFFFFFFFFFFFFFFFFFFFFFFFFFFFFF AND DUP4 PUSH20 0xFFFFFFFFFFFFFFFFFFFFFFFFFFFFFFFFFFFFFFFF AND PUSH32 0xDDF252AD1BE2C89B69C2B068FC378DAA952BA7F163C4A11628F55A4DF523B3EF DUP4 PUSH1 0x40 MLOAD PUSH2 0x128C SWAP2 SWAP1 PUSH2 0x143A JUMP JUMPDEST PUSH1 0x40 MLOAD DUP1 SWAP2 SUB SWAP1 LOG3 POP POP POP JUMP JUMPDEST PUSH0 DUP2 MLOAD SWAP1 POP SWAP2 SWAP1 POP JUMP JUMPDEST PUSH0 DUP3 DUP3 MSTORE PUSH1 0x20 DUP3 ADD SWAP1 POP SWAP3 SWAP2 POP POP JUMP JUMPDEST DUP3 DUP2 DUP4 MCOPY PUSH0 DUP4 DUP4 ADD MSTORE POP POP POP JUMP JUMPDEST PUSH0 PUSH1 0x1F NOT PUSH1 0x1F DUP4 ADD AND SWAP1 POP SWAP2 SWAP1 POP JUMP JUMPDEST PUSH0 PUSH2 0x12DB DUP3 PUSH2 0x1299 JUMP JUMPDEST PUSH2 0x12E5 DUP2 DUP6 PUSH2 0x12A3 JUMP JUMPDEST SWAP4 POP PUSH2 0x12F5 DUP2 DUP6 PUSH1 0x20 DUP7 ADD PUSH2 0x12B3 JUMP JUMPDEST PUSH2 0x12FE DUP2 PUSH2 0x12C1 JUMP JUMPDEST DUP5 ADD SWAP2 POP POP SWAP3 SWAP2 POP POP JUMP JUMPDEST PUSH0 PUSH1 0x20 DUP3 ADD SWAP1 POP DUP2 DUP2 SUB PUSH0 DUP4 ADD MSTORE PUSH2 0x1321 DUP2 DUP5 PUSH2 0x12D1 JUMP JUMPDEST SWAP1 POP SWAP3 SWAP2 POP POP JUMP JUMPDEST PUSH0 DUP1 REVERT JUMPDEST PUSH0 PUSH20 0xFFFFFFFFFFFFFFFFFFFFFFFFFFFFFFFFFFFFFFFF DUP3 AND SWAP1 POP SWAP2 SWAP1 POP JUMP JUMPDEST PUSH0 PUSH2 0x1356 DUP3 PUSH2 0x132D JUMP JUMPDEST SWAP1 POP SWAP2 SWAP1 POP JUMP JUMPDEST PUSH2 0x1366 DUP2 PUSH2 0x134C JUMP JUMPDEST DUP2 EQ PUSH2 0x1370 JUMPI PUSH0 DUP1 REVERT JUMPDEST POP JUMP JUMPDEST PUSH0 DUP2 CALLDATALOAD SWAP1 POP PUSH2 0x1381 DUP2 PUSH2 0x135D JUMP JUMPDEST SWAP3 SWAP2 POP POP JUMP JUMPDEST PUSH0 DUP2 SWAP1 POP SWAP2 SWAP1 POP JUMP JUMPDEST PUSH2 0x1399 DUP2 PUSH2 0x1387 JUMP JUMPDEST DUP2 EQ PUSH2 0x13A3 JUMPI PUSH0 DUP1 REVERT JUMPDEST POP JUMP JUMPDEST PUSH0 DUP2 CALLDATALOAD SWAP1 POP PUSH2 0x13B4 DUP2 PUSH2 0x1390 JUMP JUMPDEST SWAP3 SWAP2 POP POP JUMP JUMPDEST PUSH0 DUP1 PUSH1 0x40 DUP4 DUP6 SUB SLT ISZERO PUSH2 0x13D0 JUMPI PUSH2 0x13CF PUSH2 0x1329 JUMP JUMPDEST JUMPDEST PUSH0 PUSH2 0x13DD DUP6 DUP3 DUP7 ADD PUSH2 0x1373 JUMP JUMPDEST SWAP3 POP POP PUSH1 0x20 PUSH2 0x13EE DUP6 DUP3 DUP7 ADD PUSH2 0x13A6 JUMP JUMPDEST SWAP2 POP POP SWAP3 POP SWAP3 SWAP1 POP JUMP JUMPDEST PUSH0 DUP2 ISZERO ISZERO SWAP1 POP SWAP2 SWAP1 POP JUMP JUMPDEST PUSH2 0x140C DUP2 PUSH2 0x13F8 JUMP JUMPDEST DUP3 MSTORE POP POP JUMP JUMPDEST PUSH0 PUSH1 0x20 DUP3 ADD SWAP1 POP PUSH2 0x1425 PUSH0 DUP4 ADD DUP5 PUSH2 0x1403 JUMP JUMPDEST SWAP3 SWAP2 POP POP JUMP JUMPDEST PUSH2 0x1434 DUP2 PUSH2 0x1387 JUMP JUMPDEST DUP3 MSTORE POP POP JUMP JUMPDEST PUSH0 PUSH1 0x20 DUP3 ADD SWAP1 POP PUSH2 0x144D PUSH0 DUP4 ADD DUP5 PUSH2 0x142B JUMP JUMPDEST SWAP3 SWAP2 POP POP JUMP JUMPDEST PUSH0 DUP1 PUSH0 PUSH1 0x60 DUP5 DUP7 SUB SLT ISZERO PUSH2 0x146A JUMPI PUSH2 0x1469 PUSH2 0x1329 JUMP JUMPDEST JUMPDEST PUSH0 PUSH2 0x1477 DUP7 DUP3 DUP8 ADD PUSH2 0x1373 JUMP JUMPDEST SWAP4 POP POP PUSH1 0x20 PUSH2 0x1488 DUP7 DUP3 DUP8 ADD PUSH2 0x1373 JUMP JUMPDEST SWAP3 POP POP PUSH1 0x40 PUSH2 0x1499 DUP7 DUP3 DUP8 ADD PUSH2 0x13A6 JUMP JUMPDEST SWAP2 POP POP SWAP3 POP SWAP3 POP SWAP3 JUMP JUMPDEST PUSH0 PUSH1 0xFF DUP3 AND SWAP1 POP SWAP2 SWAP1 POP JUMP JUMPDEST PUSH2 0x14B8 DUP2 PUSH2 0x14A3 JUMP JUMPDEST DUP3 MSTORE POP POP JUMP JUMPDEST PUSH0 PUSH1 0x20 DUP3 ADD SWAP1 POP PUSH2 0x14D1 PUSH0 DUP4 ADD DUP5 PUSH2 0x14AF JUMP JUMPDEST SWAP3 SWAP2 POP POP JUMP JUMPDEST PUSH0 PUSH1 0x20 DUP3 DUP5 SUB SLT ISZERO PUSH2 0x14EC JUMPI PUSH2 0x14EB PUSH2 0x1329 JUMP JUMPDEST JUMPDEST PUSH0 PUSH2 0x14F9 DUP5 DUP3 DUP6 ADD PUSH2 0x1373 JUMP JUMPDEST SWAP2 POP POP SWAP3 SWAP2 POP POP JUMP JUMPDEST PUSH0 PUSH1 0x20 DUP3 DUP5 SUB SLT ISZERO PUSH2 0x1517 JUMPI PUSH2 0x1516 PUSH2 0x1329 JUMP JUMPDEST JUMPDEST PUSH0 PUSH2 0x1524 DUP5 DUP3 DUP6 ADD PUSH2 0x13A6 JUMP JUMPDEST SWAP2 POP POP SWAP3 SWAP2 POP POP JUMP JUMPDEST PUSH2 0x1536 DUP2 PUSH2 0x134C JUMP JUMPDEST DUP3 MSTORE POP POP JUMP JUMPDEST PUSH0 PUSH1 0x20 DUP3 ADD SWAP1 POP PUSH2 0x154F PUSH0 DUP4 ADD DUP5 PUSH2 0x152D JUMP JUMPDEST SWAP3 SWAP2 POP POP JUMP JUMPDEST PUSH0 DUP1 PUSH1 0x40 DUP4 DUP6 SUB SLT ISZERO PUSH2 0x156B JUMPI PUSH2 0x156A PUSH2 0x1329 JUMP JUMPDEST JUMPDEST PUSH0 PUSH2 0x1578 DUP6 DUP3 DUP7 ADD PUSH2 0x1373 JUMP JUMPDEST SWAP3 POP POP PUSH1 0x20 PUSH2 0x1589 DUP6 DUP3 DUP7 ADD PUSH2 0x1373 JUMP JUMPDEST SWAP2 POP POP SWAP3 POP SWAP3 SWAP1 POP JUMP JUMPDEST PUSH32 0x4E487B7100000000000000000000000000000000000000000000000000000000 PUSH0 MSTORE PUSH1 0x22 PUSH1 0x4 MSTORE PUSH1 0x24 PUSH0 REVERT JUMPDEST PUSH0 PUSH1 0x2 DUP3 DIV SWAP1 POP PUSH1 0x1 DUP3 AND DUP1 PUSH2 0x15D7 JUMPI PUSH1 0x7F DUP3 AND SWAP2 POP JUMPDEST PUSH1 0x20 DUP3 LT DUP2 SUB PUSH2 0x15EA JUMPI PUSH2 0x15E9 PUSH2 0x1593 JUMP JUMPDEST JUMPDEST POP SWAP2 SWAP1 POP JUMP JUMPDEST PUSH32 0x4E487B7100000000000000000000000000000000000000000000000000000000 PUSH0 MSTORE PUSH1 0x11 PUSH1 0x4 MSTORE PUSH1 0x24 PUSH0 REVERT JUMPDEST PUSH0 DUP2 PUSH1 0x1 SHR SWAP1 POP SWAP2 SWAP1 POP JUMP JUMPDEST PUSH0 DUP1 DUP3 SWAP2 POP DUP4 SWAP1 POP JUMPDEST PUSH1 0x1 DUP6 GT ISZERO PUSH2 0x1672 JUMPI DUP1 DUP7 DIV DUP2 GT ISZERO PUSH2 0x164E JUMPI PUSH2 0x164D PUSH2 0x15F0 JUMP JUMPDEST JUMPDEST PUSH1 0x1 DUP6 AND ISZERO PUSH2 0x165D JUMPI DUP1 DUP3 MUL SWAP2 POP JUMPDEST DUP1 DUP2 MUL SWAP1 POP PUSH2 0x166B DUP6 PUSH2 0x161D JUMP JUMPDEST SWAP5 POP PUSH2 0x1632 JUMP JUMPDEST SWAP5 POP SWAP5 SWAP3 POP POP POP JUMP JUMPDEST PUSH0 DUP3 PUSH2 0x168A JUMPI PUSH1 0x1 SWAP1 POP PUSH2 0x1745 JUMP JUMPDEST DUP2 PUSH2 0x1697 JUMPI PUSH0 SWAP1 POP PUSH2 0x1745 JUMP JUMPDEST DUP2 PUSH1 0x1 DUP2 EQ PUSH2 0x16AD JUMPI PUSH1 0x2 DUP2 EQ PUSH2 0x16B7 JUMPI PUSH2 0x16E6 JUMP JUMPDEST PUSH1 0x1 SWAP2 POP POP PUSH2 0x1745 JUMP JUMPDEST PUSH1 0xFF DUP5 GT ISZERO PUSH2 0x16C9 JUMPI PUSH2 0x16C8 PUSH2 0x15F0 JUMP JUMPDEST JUMPDEST DUP4 PUSH1 0x2 EXP SWAP2 POP DUP5 DUP3 GT ISZERO PUSH2 0x16E0 JUMPI PUSH2 0x16DF PUSH2 0x15F0 JUMP JUMPDEST JUMPDEST POP PUSH2 0x1745 JUMP JUMPDEST POP PUSH1 0x20 DUP4 LT PUSH2 0x133 DUP4 LT AND PUSH1 0x4E DUP5 LT PUSH1 0xB DUP5 LT AND OR ISZERO PUSH2 0x171B JUMPI DUP3 DUP3 EXP SWAP1 POP DUP4 DUP2 GT ISZERO PUSH2 0x1716 JUMPI PUSH2 0x1715 PUSH2 0x15F0 JUMP JUMPDEST JUMPDEST PUSH2 0x1745 JUMP JUMPDEST PUSH2 0x1728 DUP5 DUP5 DUP5 PUSH1 0x1 PUSH2 0x1629 JUMP JUMPDEST SWAP3 POP SWAP1 POP DUP2 DUP5 DIV DUP2 GT ISZERO PUSH2 0x173F JUMPI PUSH2 0x173E PUSH2 0x15F0 JUMP JUMPDEST JUMPDEST DUP2 DUP2 MUL SWAP1 POP JUMPDEST SWAP4 SWAP3 POP POP POP JUMP JUMPDEST PUSH0 PUSH2 0x1756 DUP3 PUSH2 0x1387 JUMP JUMPDEST SWAP2 POP PUSH2 0x1761 DUP4 PUSH2 0x14A3 JUMP JUMPDEST SWAP3 POP PUSH2 0x178E PUSH32 0xFFFFFFFFFFFFFFFFFFFFFFFFFFFFFFFFFFFFFFFFFFFFFFFFFFFFFFFFFFFFFFFF DUP5 DUP5 PUSH2 0x167B JUMP JUMPDEST SWAP1 POP SWAP3 SWAP2 POP POP JUMP JUMPDEST PUSH0 PUSH2 0x17A0 DUP3 PUSH2 0x1387 JUMP JUMPDEST SWAP2 POP PUSH2 0x17AB DUP4 PUSH2 0x1387 JUMP JUMPDEST SWAP3 POP DUP3 DUP3 MUL PUSH2 0x17B9 DUP2 PUSH2 0x1387 JUMP JUMPDEST SWAP2 POP DUP3 DUP3 DIV DUP5 EQ DUP4 ISZERO OR PUSH2 0x17D0 JUMPI PUSH2 0x17CF PUSH2 0x15F0 JUMP JUMPDEST JUMPDEST POP SWAP3 SWAP2 POP POP JUMP JUMPDEST PUSH0 PUSH2 0x17E1 DUP3 PUSH2 0x1387 JUMP JUMPDEST SWAP2 POP PUSH2 0x17EC DUP4 PUSH2 0x1387 JUMP JUMPDEST SWAP3 POP DUP3 DUP3 ADD SWAP1 POP DUP1 DUP3 GT ISZERO PUSH2 0x1804 JUMPI PUSH2 0x1803 PUSH2 0x15F0 JUMP JUMPDEST JUMPDEST SWAP3 SWAP2 POP POP JUMP JUMPDEST PUSH32 0x45786365656473206D617820737570706C790000000000000000000000000000 PUSH0 DUP3 ADD MSTORE POP JUMP JUMPDEST PUSH0 PUSH2 0x183E PUSH1 0x12 DUP4 PUSH2 0x12A3 JUMP JUMPDEST SWAP2 POP PUSH2 0x1849 DUP3 PUSH2 0x180A JUMP JUMPDEST PUSH1 0x20 DUP3 ADD SWAP1 POP SWAP2 SWAP1 POP JUMP JUMPDEST PUSH0 PUSH1 0x20 DUP3 ADD SWAP1 POP DUP2 DUP2 SUB PUSH0 DUP4 ADD MSTORE PUSH2 0x186B DUP2 PUSH2 0x1832 JUMP JUMPDEST SWAP1 POP SWAP2 SWAP1 POP JUMP JUMPDEST PUSH32 0x5072696365206D7573742062652067726561746572207468616E203000000000 PUSH0 DUP3 ADD MSTORE POP JUMP JUMPDEST PUSH0 PUSH2 0x18A6 PUSH1 0x1C DUP4 PUSH2 0x12A3 JUMP JUMPDEST SWAP2 POP PUSH2 0x18B1 DUP3 PUSH2 0x1872 JUMP JUMPDEST PUSH1 0x20 DUP3 ADD SWAP1 POP SWAP2 SWAP1 POP JUMP JUMPDEST PUSH0 PUSH1 0x20 DUP3 ADD SWAP1 POP DUP2 DUP2 SUB PUSH0 DUP4 ADD MSTORE PUSH2 0x18D3 DUP2 PUSH2 0x189A JUMP JUMPDEST SWAP1 POP SWAP2 SWAP1 POP JUMP JUMPDEST PUSH32 0x53656E642045544820746F2062757920746F6B656E7300000000000000000000 PUSH0 DUP3 ADD MSTORE POP JUMP JUMPDEST PUSH0 PUSH2 0x190E PUSH1 0x16 DUP4 PUSH2 0x12A3 JUMP JUMPDEST SWAP2 POP PUSH2 0x1919 DUP3 PUSH2 0x18DA JUMP JUMPDEST PUSH1 0x20 DUP3 ADD SWAP1 POP SWAP2 SWAP1 POP JUMP JUMPDEST PUSH0 PUSH1 0x20 DUP3 ADD SWAP1 POP DUP2 DUP2 SUB PUSH0 DUP4 ADD MSTORE PUSH2 0x193B DUP2 PUSH2 0x1902 JUMP JUMPDEST SWAP1 POP SWAP2 SWAP1 POP JUMP JUMPDEST PUSH0 PUSH1 0x40 DUP3 ADD SWAP1 POP PUSH2 0x1955 PUSH0 DUP4 ADD DUP6 PUSH2 0x142B JUMP JUMPDEST PUSH2 0x1962 PUSH1 0x20 DUP4 ADD DUP5 PUSH2 0x142B JUMP JUMPDEST SWAP4 SWAP3 POP POP POP JUMP JUMPDEST PUSH0 DUP2 SWAP1 POP SWAP3 SWAP2 POP POP JUMP JUMPDEST POP JUMP JUMPDEST PUSH0 PUSH2 0x1981 PUSH0 DUP4 PUSH2 0x1969 JUMP JUMPDEST SWAP2 POP PUSH2 0x198C DUP3 PUSH2 0x1973 JUMP JUMPDEST PUSH0 DUP3 ADD SWAP1 POP SWAP2 SWAP1 POP JUMP JUMPDEST PUSH0 PUSH2 0x19A0 DUP3 PUSH2 0x1976 JUMP JUMPDEST SWAP2 POP DUP2 SWAP1 POP SWAP2 SWAP1 POP JUMP JUMPDEST PUSH32 0x5769746864726177616C206661696C6564000000000000000000000000000000 PUSH0 DUP3 ADD MSTORE POP JUMP JUMPDEST PUSH0 PUSH2 0x19DE PUSH1 0x11 DUP4 PUSH2 0x12A3 JUMP JUMPDEST SWAP2 POP PUSH2 0x19E9 DUP3 PUSH2 0x19AA JUMP JUMPDEST PUSH1 0x20 DUP3 ADD SWAP1 POP SWAP2 SWAP1 POP JUMP JUMPDEST PUSH0 PUSH1 0x20 DUP3 ADD SWAP1 POP DUP2 DUP2 SUB PUSH0 DUP4 ADD MSTORE PUSH2 0x1A0B DUP2 PUSH2 0x19D2 JUMP JUMPDEST SWAP1 POP SWAP2 SWAP1 POP JUMP JUMPDEST PUSH0 PUSH2 0x1A1C DUP3 PUSH2 0x1387 JUMP JUMPDEST SWAP2 POP PUSH2 0x1A27 DUP4 PUSH2 0x1387 JUMP JUMPDEST SWAP3 POP DUP3 DUP3 SUB SWAP1 POP DUP2 DUP2 GT ISZERO PUSH2 0x1A3F JUMPI PUSH2 0x1A3E PUSH2 0x15F0 JUMP JUMPDEST JUMPDEST SWAP3 SWAP2 POP POP JUMP JUMPDEST PUSH0 PUSH1 0x60 DUP3 ADD SWAP1 POP PUSH2 0x1A58 PUSH0 DUP4 ADD DUP7 PUSH2 0x152D JUMP JUMPDEST PUSH2 0x1A65 PUSH1 0x20 DUP4 ADD DUP6 PUSH2 0x142B JUMP JUMPDEST PUSH2 0x1A72 PUSH1 0x40 DUP4 ADD DUP5 PUSH2 0x142B JUMP JUMPDEST SWAP5 SWAP4 POP POP POP POP JUMP INVALID LOG2 PUSH5 0x6970667358 0x22 SLT KECCAK256 0xBA 0xDE 0xBB BYTE PUSH15 0xE2406DCEF8FD6D95B13F6D8BA9FD15 POP COINBASE 0xD5 GASLIMIT NOT 0xE4 0xD9 SELFDESTRUCT MUL 0xEF PUSH32 0x8164736F6C634300081A00330000000000000000000000000000000000000000 "
				},
				"gasEstimates": {
					"creation": {
						"codeDepositCost": "1366400",
						"executionCost": "infinite",
						"totalCost": "infinite"
					},
					"external": {
						"allowance(address,address)": "infinite",
						"approve(address,uint256)": "infinite",
						"balanceOf(address)": "2940",
						"buyTokens()": "infinite",
						"checkBalance(address)": "2916",
						"decimals()": "450",
						"getContractBalance()": "infinite",
						"getRemainingSupply()": "infinite",
						"getTotalSupply()": "2577",
						"maxSupply()": "2469",
						"mint(address,uint256)": "infinite",
						"name()": "infinite",
						"owner()": "2560",
						"renounceOwnership()": "infinite",
						"setTokenPrice(uint256)": "infinite",
						"symbol()": "infinite",
						"tokenPrice()": "2448",
						"totalSupply()": "2500",
						"transfer(address,uint256)": "infinite",
						"transferFrom(address,address,uint256)": "infinite",
						"transferOwnership(address)": "infinite",
						"withdrawETH()": "infinite"
					}
				},
				"methodIdentifiers": {
					"allowance(address,address)": "dd62ed3e",
					"approve(address,uint256)": "095ea7b3",
					"balanceOf(address)": "70a08231",
					"buyTokens()": "d0febe4c",
					"checkBalance(address)": "5f515226",
					"decimals()": "313ce567",
					"getContractBalance()": "6f9fb98a",
					"getRemainingSupply()": "e4b7fb73",
					"getTotalSupply()": "c4e41b22",
					"maxSupply()": "d5abeb01",
					"mint(address,uint256)": "40c10f19",
					"name()": "06fdde03",
					"owner()": "8da5cb5b",
					"renounceOwnership()": "715018a6",
					"setTokenPrice(uint256)": "6a61e5fc",
					"symbol()": "95d89b41",
					"tokenPrice()": "7ff9b596",
					"totalSupply()": "18160ddd",
					"transfer(address,uint256)": "a9059cbb",
					"transferFrom(address,address,uint256)": "23b872dd",
					"transferOwnership(address)": "f2fde38b",
					"withdrawETH()": "e086e5ec"
				}
			},
			"storageLayout": {
				"storage": [
					{
						"astId": 307,
						"contract": "contracts/MyToken.sol:MyToken",
						"label": "_balances",
						"offset": 0,
						"slot": "0",
						"type": "t_mapping(t_address,t_uint256)"
					},
					{
						"astId": 313,
						"contract": "contracts/MyToken.sol:MyToken",
						"label": "_allowances",
						"offset": 0,
						"slot": "1",
						"type": "t_mapping(t_address,t_mapping(t_address,t_uint256))"
					},
					{
						"astId": 315,
						"contract": "contracts/MyToken.sol:MyToken",
						"label": "_totalSupply",
						"offset": 0,
						"slot": "2",
						"type": "t_uint256"
					},
					{
						"astId": 317,
						"contract": "contracts/MyToken.sol:MyToken",
						"label": "_name",
						"offset": 0,
						"slot": "3",
						"type": "t_string_storage"
					},
					{
						"astId": 319,
						"contract": "contracts/MyToken.sol:MyToken",
						"label": "_symbol",
						"offset": 0,
						"slot": "4",
						"type": "t_string_storage"
					},
					{
						"astId": 8,
						"contract": "contracts/MyToken.sol:MyToken",
						"label": "_owner",
						"offset": 0,
						"slot": "5",
						"type": "t_address"
					},
					{
						"astId": 4368,
						"contract": "contracts/MyToken.sol:MyToken",
						"label": "tokenPrice",
						"offset": 0,
						"slot": "6",
						"type": "t_uint256"
					},
					{
						"astId": 4370,
						"contract": "contracts/MyToken.sol:MyToken",
						"label": "maxSupply",
						"offset": 0,
						"slot": "7",
						"type": "t_uint256"
					}
				],
				"types": {
					"t_address": {
						"encoding": "inplace",
						"label": "address",
						"numberOfBytes": "20"
					},
					"t_mapping(t_address,t_mapping(t_address,t_uint256))": {
						"encoding": "mapping",
						"key": "t_address",
						"label": "mapping(address => mapping(address => uint256))",
						"numberOfBytes": "32",
						"value": "t_mapping(t_address,t_uint256)"
					},
					"t_mapping(t_address,t_uint256)": {
						"encoding": "mapping",
						"key": "t_address",
						"label": "mapping(address => uint256)",
						"numberOfBytes": "32",
						"value": "t_uint256"
					},
					"t_string_storage": {
						"encoding": "bytes",
						"label": "string",
						"numberOfBytes": "32"
					},
					"t_uint256": {
						"encoding": "inplace",
						"label": "uint256",
						"numberOfBytes": "32"
					}
				}
			},
			"userdoc": {
				"kind": "user",
				"methods": {},
				"version": 1
			}
		}
	}
}