{
	"data": {
		"bytecode": {
			"linkReferences": {},
			"object": "608060405234801561000f575f80fd5b50604051612be5380380612be583398181016040528101906100319190610643565b338585816003908161004391906108f6565b50806004908161005391906108f6565b5050505f73ffffffffffffffffffffffffffffffffffffffff168173ffffffffffffffffffffffffffffffffffffffff16036100c6575f6040517f1e4fbdf70000000000000000000000000000000000000000000000000000000081526004016100bd9190610a04565b60405180910390fd5b6100d58161016260201b60201c565b505f600560146101000a81548160ff02191690831515021790555081831115610133576040517f08c379a000000000000000000000000000000000000000000000000000000000815260040161012a90610a9d565b60405180910390fd5b8160068190555080600781905550610151338461022560201b60201c565b826008819055505050505050610b78565b5f60055f9054906101000a900473ffffffffffffffffffffffffffffffffffffffff1690508160055f6101000a81548173ffffffffffffffffffffffffffffffffffffffff021916908373ffffffffffffffffffffffffffffffffffffffff1602179055508173ffffffffffffffffffffffffffffffffffffffff168173ffffffffffffffffffffffffffffffffffffffff167f8be0079c531659141344cd1fd0a4f28419497f9722a3daafe3b4186f6b6457e060405160405180910390a35050565b5f73ffffffffffffffffffffffffffffffffffffffff168273ffffffffffffffffffffffffffffffffffffffff1603610295575f6040517fec442f0500000000000000000000000000000000000000000000000000000000815260040161028c9190610a04565b60405180910390fd5b6102a65f83836102aa60201b60201c565b5050565b5f73ffffffffffffffffffffffffffffffffffffffff168373ffffffffffffffffffffffffffffffffffffffff16036102fa578060025f8282546102ee9190610ae8565b925050819055506103c8565b5f805f8573ffffffffffffffffffffffffffffffffffffffff1673ffffffffffffffffffffffffffffffffffffffff1681526020019081526020015f2054905081811015610383578381836040517fe450d38c00000000000000000000000000000000000000000000000000000000815260040161037a93929190610b2a565b60405180910390fd5b8181035f808673ffffffffffffffffffffffffffffffffffffffff1673ffffffffffffffffffffffffffffffffffffffff1681526020019081526020015f2081905550505b5f73ffffffffffffffffffffffffffffffffffffffff168273ffffffffffffffffffffffffffffffffffffffff160361040f578060025f8282540392505081905550610459565b805f808473ffffffffffffffffffffffffffffffffffffffff1673ffffffffffffffffffffffffffffffffffffffff1681526020019081526020015f205f82825401925050819055505b8173ffffffffffffffffffffffffffffffffffffffff168373ffffffffffffffffffffffffffffffffffffffff167fddf252ad1be2c89b69c2b068fc378daa952ba7f163c4a11628f55a4df523b3ef836040516104b69190610b5f565b60405180910390a3505050565b5f604051905090565b5f80fd5b5f80fd5b5f80fd5b5f80fd5b5f601f19601f8301169050919050565b7f4e487b71000000000000000000000000000000000000000000000000000000005f52604160045260245ffd5b610522826104dc565b810181811067ffffffffffffffff82111715610541576105406104ec565b5b80604052505050565b5f6105536104c3565b905061055f8282610519565b919050565b5f67ffffffffffffffff82111561057e5761057d6104ec565b5b610587826104dc565b9050602081019050919050565b8281835e5f83830152505050565b5f6105b46105af84610564565b61054a565b9050828152602081018484840111156105d0576105cf6104d8565b5b6105db848285610594565b509392505050565b5f82601f8301126105f7576105f66104d4565b5b81516106078482602086016105a2565b91505092915050565b5f819050919050565b61062281610610565b811461062c575f80fd5b50565b5f8151905061063d81610619565b92915050565b5f805f805f60a0868803121561065c5761065b6104cc565b5b5f86015167ffffffffffffffff811115610679576106786104d0565b5b610685888289016105e3565b955050602086015167ffffffffffffffff8111156106a6576106a56104d0565b5b6106b2888289016105e3565b94505060406106c38882890161062f565b93505060606106d48882890161062f565b92505060806106e58882890161062f565b9150509295509295909350565b5f81519050919050565b7f4e487b71000000000000000000000000000000000000000000000000000000005f52602260045260245ffd5b5f600282049050600182168061074057607f821691505b602082108103610753576107526106fc565b5b50919050565b5f819050815f5260205f209050919050565b5f6020601f8301049050919050565b5f82821b905092915050565b5f600883026107b57fffffffffffffffffffffffffffffffffffffffffffffffffffffffffffffffff8261077a565b6107bf868361077a565b95508019841693508086168417925050509392505050565b5f819050919050565b5f6107fa6107f56107f084610610565b6107d7565b610610565b9050919050565b5f819050919050565b610813836107e0565b61082761081f82610801565b848454610786565b825550505050565b5f90565b61083b61082f565b61084681848461080a565b505050565b5b818110156108695761085e5f82610833565b60018101905061084c565b5050565b601f8211156108ae5761087f81610759565b6108888461076b565b81016020851015610897578190505b6108ab6108a38561076b565b83018261084b565b50505b505050565b5f82821c905092915050565b5f6108ce5f19846008026108b3565b1980831691505092915050565b5f6108e683836108bf565b9150826002028217905092915050565b6108ff826106f2565b67ffffffffffffffff811115610918576109176104ec565b5b6109228254610729565b61092d82828561086d565b5f60209050601f83116001811461095e575f841561094c578287015190505b61095685826108db565b8655506109bd565b601f19841661096c86610759565b5f5b828110156109935784890151825560018201915060208501945060208101905061096e565b868310156109b057848901516109ac601f8916826108bf565b8355505b6001600288020188555050505b505050505050565b5f73ffffffffffffffffffffffffffffffffffffffff82169050919050565b5f6109ee826109c5565b9050919050565b6109fe816109e4565b82525050565b5f602082019050610a175f8301846109f5565b92915050565b5f82825260208201905092915050565b7f496e697469616c20737570706c792065786365656473206d617820737570706c5f8201527f7900000000000000000000000000000000000000000000000000000000000000602082015250565b5f610a87602183610a1d565b9150610a9282610a2d565b604082019050919050565b5f6020820190508181035f830152610ab481610a7b565b9050919050565b7f4e487b71000000000000000000000000000000000000000000000000000000005f52601160045260245ffd5b5f610af282610610565b9150610afd83610610565b9250828201905080821115610b1557610b14610abb565b5b92915050565b610b2481610610565b82525050565b5f606082019050610b3d5f8301866109f5565b610b4a6020830185610b1b565b610b576040830184610b1b565b949350505050565b5f602082019050610b725f830184610b1b565b92915050565b61206080610b855f395ff3fe6080604052600436106101b6575f3560e01c80636f9fb98a116100eb578063a2309ff811610089578063d5abeb0111610063578063d5abeb011461058e578063dd62ed3e146105b8578063f2fde38b146105f4578063fc60c2811461061c576101b6565b8063a2309ff81461051e578063a9059cbb14610548578063d0febe4c14610584576101b6565b80637ff9b596116100c55780637ff9b5961461048a5780638456cb59146104b45780638da5cb5b146104ca57806395d89b41146104f4576101b6565b80636f9fb98a1461040e57806370a0823114610438578063715018a614610474576101b6565b80633ccfd60b1161015857806342966c681161013257806342966c681461036a5780634b94f50e146103925780635c975abb146103bc5780636a61e5fc146103e6576101b6565b80633ccfd60b146103165780633f4ba83a1461032c57806340c10f1914610342576101b6565b806318160ddd1161019457806318160ddd1461024a57806323b872dd14610274578063313ce567146102b05780633aecd0e3146102da576101b6565b806306fdde03146101ba578063095ea7b3146101e45780630ca1c5c914610220575b5f80fd5b3480156101c5575f80fd5b506101ce610638565b6040516101db9190611877565b60405180910390f35b3480156101ef575f80fd5b5061020a60048036038101906102059190611928565b6106c8565b6040516102179190611980565b60405180910390f35b34801561022b575f80fd5b506102346106ea565b60405161024191906119a8565b60405180910390f35b348015610255575f80fd5b5061025e6106f3565b60405161026b91906119a8565b60405180910390f35b34801561027f575f80fd5b5061029a600480360381019061029591906119c1565b6106fc565b6040516102a79190611980565b60405180910390f35b3480156102bb575f80fd5b506102c461072a565b6040516102d19190611a2c565b60405180910390f35b3480156102e5575f80fd5b5061030060048036038101906102fb9190611a45565b610732565b60405161030d91906119a8565b60405180910390f35b348015610321575f80fd5b5061032a610743565b005b348015610337575f80fd5b506103406107df565b005b34801561034d575f80fd5b5061036860048036038101906103639190611928565b6107f1565b005b348015610375575f80fd5b50610390600480360381019061038b9190611a70565b6108c7565b005b34801561039d575f80fd5b506103a66108d4565b6040516103b391906119a8565b60405180910390f35b3480156103c7575f80fd5b506103d06108dd565b6040516103dd9190611980565b60405180910390f35b3480156103f1575f80fd5b5061040c60048036038101906104079190611a70565b6108f3565b005b348015610419575f80fd5b5061042261097e565b60405161042f91906119a8565b60405180910390f35b348015610443575f80fd5b5061045e60048036038101906104599190611a45565b610985565b60405161046b91906119a8565b60405180910390f35b34801561047f575f80fd5b506104886109ca565b005b348015610495575f80fd5b5061049e6109dd565b6040516104ab91906119a8565b60405180910390f35b3480156104bf575f80fd5b506104c86109e3565b005b3480156104d5575f80fd5b506104de6109f5565b6040516104eb9190611aaa565b60405180910390f35b3480156104ff575f80fd5b50610508610a1d565b6040516105159190611877565b60405180910390f35b348015610529575f80fd5b50610532610aad565b60405161053f91906119a8565b60405180910390f35b348015610553575f80fd5b5061056e60048036038101906105699190611928565b610ab3565b60405161057b9190611980565b60405180910390f35b61058c610ad5565b005b348015610599575f80fd5b506105a2610c08565b6040516105af91906119a8565b60405180910390f35b3480156105c3575f80fd5b506105de60048036038101906105d99190611ac3565b610c0e565b6040516105eb91906119a8565b60405180910390f35b3480156105ff575f80fd5b5061061a60048036038101906106159190611a45565b610c90565b005b61063660048036038101906106319190611a70565b610d14565b005b60606003805461064790611b2e565b80601f016020809104026020016040519081016040528092919081815260200182805461067390611b2e565b80156106be5780601f10610695576101008083540402835291602001916106be565b820191905f5260205f20905b8154815290600101906020018083116106a157829003601f168201915b5050505050905090565b5f806106d2610ee3565b90506106df818585610eea565b600191505092915050565b5f600854905090565b5f600254905090565b5f80610706610ee3565b9050610713858285610efc565b61071e858585610f8f565b60019150509392505050565b5f6012905090565b5f61073c82610985565b9050919050565b61074b61107f565b5f4790505f8111610791576040517f08c379a000000000000000000000000000000000000000000000000000000000815260040161078890611ba8565b60405180910390fd5b6107996109f5565b73ffffffffffffffffffffffffffffffffffffffff166108fc8290811502906040515f60405180830381858888f193505050501580156107db573d5f803e3d5ffd5b5050565b6107e761107f565b6107ef611106565b565b6107f961107f565b610801611168565b600654816008546108129190611bf3565b1115610853576040517f08c379a000000000000000000000000000000000000000000000000000000000815260040161084a90611c70565b60405180910390fd5b61085d82826111b2565b8060085f82825461086e9190611bf3565b925050819055508173ffffffffffffffffffffffffffffffffffffffff167f3f2c9d57c068687834f0de942a9babb9e5acab57d516d3480a3c16ee165a4273826040516108bb91906119a8565b60405180910390a25050565b6108d13382611231565b50565b5f600754905090565b5f600560149054906101000a900460ff16905090565b6108fb61107f565b5f811161093d576040517f08c379a000000000000000000000000000000000000000000000000000000000815260040161093490611cd8565b60405180910390fd5b806007819055507f6b361c807733cc94a3b7bda39c1c94dcc0511e91aa47b0f7f918068e939768908160405161097391906119a8565b60405180910390a150565b5f47905090565b5f805f8373ffffffffffffffffffffffffffffffffffffffff1673ffffffffffffffffffffffffffffffffffffffff1681526020019081526020015f20549050919050565b6109d261107f565b6109db5f6112b0565b565b60075481565b6109eb61107f565b6109f3611373565b565b5f60055f9054906101000a900473ffffffffffffffffffffffffffffffffffffffff16905090565b606060048054610a2c90611b2e565b80601f0160208091040260200160405190810160405280929190818152602001828054610a5890611b2e565b8015610aa35780601f10610a7a57610100808354040283529160200191610aa3565b820191905f5260205f20905b815481529060010190602001808311610a8657829003601f168201915b5050505050905090565b60085481565b5f80610abd610ee3565b9050610aca818585610f8f565b600191505092915050565b610add611168565b5f3411610b1f576040517f08c379a0000000000000000000000000000000000000000000000000000000008152600401610b1690611d40565b60405180910390fd5b5f670de0b6b3a764000060075434610b379190611d5e565b610b419190611dcc565b905060065481600854610b549190611bf3565b1115610b95576040517f08c379a0000000000000000000000000000000000000000000000000000000008152600401610b8c90611c70565b60405180910390fd5b610b9f33826111b2565b8060085f828254610bb09190611bf3565b925050819055503373ffffffffffffffffffffffffffffffffffffffff167f8f28852646c20cc973d3a8218f7eefed58c25c909f78f0265af4818c3d4dc27182604051610bfd91906119a8565b60405180910390a250565b60065481565b5f60015f8473ffffffffffffffffffffffffffffffffffffffff1673ffffffffffffffffffffffffffffffffffffffff1681526020019081526020015f205f8373ffffffffffffffffffffffffffffffffffffffff1673ffffffffffffffffffffffffffffffffffffffff1681526020019081526020015f2054905092915050565b610c9861107f565b5f73ffffffffffffffffffffffffffffffffffffffff168173ffffffffffffffffffffffffffffffffffffffff1603610d08575f6040517f1e4fbdf7000000000000000000000000000000000000000000000000000000008152600401610cff9190611aaa565b60405180910390fd5b610d11816112b0565b50565b610d1c611168565b5f8111610d5e576040517f08c379a0000000000000000000000000000000000000000000000000000000008152600401610d5590611e6c565b60405180910390fd5b5f600754670de0b6b3a764000083610d769190611d5e565b610d809190611dcc565b905080341015610dc5576040517f08c379a0000000000000000000000000000000000000000000000000000000008152600401610dbc90611ed4565b60405180910390fd5b60065482600854610dd69190611bf3565b1115610e17576040517f08c379a0000000000000000000000000000000000000000000000000000000008152600401610e0e90611c70565b60405180910390fd5b610e2133836111b2565b8160085f828254610e329190611bf3565b9250508190555080341115610e91573373ffffffffffffffffffffffffffffffffffffffff166108fc8234610e679190611ef2565b90811502906040515f60405180830381858888f19350505050158015610e8f573d5f803e3d5ffd5b505b3373ffffffffffffffffffffffffffffffffffffffff167f8f28852646c20cc973d3a8218f7eefed58c25c909f78f0265af4818c3d4dc27183604051610ed791906119a8565b60405180910390a25050565b5f33905090565b610ef783838360016113d6565b505050565b5f610f078484610c0e565b90507fffffffffffffffffffffffffffffffffffffffffffffffffffffffffffffffff811015610f895781811015610f7a578281836040517ffb8f41b2000000000000000000000000000000000000000000000000000000008152600401610f7193929190611f25565b60405180910390fd5b610f8884848484035f6113d6565b5b50505050565b5f73ffffffffffffffffffffffffffffffffffffffff168373ffffffffffffffffffffffffffffffffffffffff1603610fff575f6040517f96c6fd1e000000000000000000000000000000000000000000000000000000008152600401610ff69190611aaa565b60405180910390fd5b5f73ffffffffffffffffffffffffffffffffffffffff168273ffffffffffffffffffffffffffffffffffffffff160361106f575f6040517fec442f050000000000000000000000000000000000000000000000000000000081526004016110669190611aaa565b60405180910390fd5b61107a8383836115a5565b505050565b611087610ee3565b73ffffffffffffffffffffffffffffffffffffffff166110a56109f5565b73ffffffffffffffffffffffffffffffffffffffff1614611104576110c8610ee3565b6040517f118cdaa70000000000000000000000000000000000000000000000000000000081526004016110fb9190611aaa565b60405180910390fd5b565b61110e6117be565b5f600560146101000a81548160ff0219169083151502179055507f5db9ee0a495bf2e6ff9c91a7834c1ba4fdd244a5e8aa4e537bd38aeae4b073aa611151610ee3565b60405161115e9190611aaa565b60405180910390a1565b6111706108dd565b156111b0576040517f08c379a00000000000000000000000000000000000000000000000000000000081526004016111a790611fa4565b60405180910390fd5b565b5f73ffffffffffffffffffffffffffffffffffffffff168273ffffffffffffffffffffffffffffffffffffffff1603611222575f6040517fec442f050000000000000000000000000000000000000000000000000000000081526004016112199190611aaa565b60405180910390fd5b61122d5f83836115a5565b5050565b5f73ffffffffffffffffffffffffffffffffffffffff168273ffffffffffffffffffffffffffffffffffffffff16036112a1575f6040517f96c6fd1e0000000000000000000000000000000000000000000000000000000081526004016112989190611aaa565b60405180910390fd5b6112ac825f836115a5565b5050565b5f60055f9054906101000a900473ffffffffffffffffffffffffffffffffffffffff1690508160055f6101000a81548173ffffffffffffffffffffffffffffffffffffffff021916908373ffffffffffffffffffffffffffffffffffffffff1602179055508173ffffffffffffffffffffffffffffffffffffffff168173ffffffffffffffffffffffffffffffffffffffff167f8be0079c531659141344cd1fd0a4f28419497f9722a3daafe3b4186f6b6457e060405160405180910390a35050565b61137b611168565b6001600560146101000a81548160ff0219169083151502179055507f62e78cea01bee320cd4e420270b5ea74000d11b0c9f74754ebdbfc544b05a2586113bf610ee3565b6040516113cc9190611aaa565b60405180910390a1565b5f73ffffffffffffffffffffffffffffffffffffffff168473ffffffffffffffffffffffffffffffffffffffff1603611446575f6040517fe602df0500000000000000000000000000000000000000000000000000000000815260040161143d9190611aaa565b60405180910390fd5b5f73ffffffffffffffffffffffffffffffffffffffff168373ffffffffffffffffffffffffffffffffffffffff16036114b6575f6040517f94280d620000000000000000000000000000000000000000000000000000000081526004016114ad9190611aaa565b60405180910390fd5b8160015f8673ffffffffffffffffffffffffffffffffffffffff1673ffffffffffffffffffffffffffffffffffffffff1681526020019081526020015f205f8573ffffffffffffffffffffffffffffffffffffffff1673ffffffffffffffffffffffffffffffffffffffff1681526020019081526020015f2081905550801561159f578273ffffffffffffffffffffffffffffffffffffffff168473ffffffffffffffffffffffffffffffffffffffff167f8c5be1e5ebec7d5bd14f71427d1e84f3dd0314c0f7b2291e5b200ac8c7c3b9258460405161159691906119a8565b60405180910390a35b50505050565b5f73ffffffffffffffffffffffffffffffffffffffff168373ffffffffffffffffffffffffffffffffffffffff16036115f5578060025f8282546115e99190611bf3565b925050819055506116c3565b5f805f8573ffffffffffffffffffffffffffffffffffffffff1673ffffffffffffffffffffffffffffffffffffffff1681526020019081526020015f205490508181101561167e578381836040517fe450d38c00000000000000000000000000000000000000000000000000000000815260040161167593929190611f25565b60405180910390fd5b8181035f808673ffffffffffffffffffffffffffffffffffffffff1673ffffffffffffffffffffffffffffffffffffffff1681526020019081526020015f2081905550505b5f73ffffffffffffffffffffffffffffffffffffffff168273ffffffffffffffffffffffffffffffffffffffff160361170a578060025f8282540392505081905550611754565b805f808473ffffffffffffffffffffffffffffffffffffffff1673ffffffffffffffffffffffffffffffffffffffff1681526020019081526020015f205f82825401925050819055505b8173ffffffffffffffffffffffffffffffffffffffff168373ffffffffffffffffffffffffffffffffffffffff167fddf252ad1be2c89b69c2b068fc378daa952ba7f163c4a11628f55a4df523b3ef836040516117b191906119a8565b60405180910390a3505050565b6117c66108dd565b611805576040517f08c379a00000000000000000000000000000000000000000000000000000000081526004016117fc9061200c565b60405180910390fd5b565b5f81519050919050565b5f82825260208201905092915050565b8281835e5f83830152505050565b5f601f19601f8301169050919050565b5f61184982611807565b6118538185611811565b9350611863818560208601611821565b61186c8161182f565b840191505092915050565b5f6020820190508181035f83015261188f818461183f565b905092915050565b5f80fd5b5f73ffffffffffffffffffffffffffffffffffffffff82169050919050565b5f6118c48261189b565b9050919050565b6118d4816118ba565b81146118de575f80fd5b50565b5f813590506118ef816118cb565b92915050565b5f819050919050565b611907816118f5565b8114611911575f80fd5b50565b5f81359050611922816118fe565b92915050565b5f806040838503121561193e5761193d611897565b5b5f61194b858286016118e1565b925050602061195c85828601611914565b9150509250929050565b5f8115159050919050565b61197a81611966565b82525050565b5f6020820190506119935f830184611971565b92915050565b6119a2816118f5565b82525050565b5f6020820190506119bb5f830184611999565b92915050565b5f805f606084860312156119d8576119d7611897565b5b5f6119e5868287016118e1565b93505060206119f6868287016118e1565b9250506040611a0786828701611914565b9150509250925092565b5f60ff82169050919050565b611a2681611a11565b82525050565b5f602082019050611a3f5f830184611a1d565b92915050565b5f60208284031215611a5a57611a59611897565b5b5f611a67848285016118e1565b91505092915050565b5f60208284031215611a8557611a84611897565b5b5f611a9284828501611914565b91505092915050565b611aa4816118ba565b82525050565b5f602082019050611abd5f830184611a9b565b92915050565b5f8060408385031215611ad957611ad8611897565b5b5f611ae6858286016118e1565b9250506020611af7858286016118e1565b9150509250929050565b7f4e487b71000000000000000000000000000000000000000000000000000000005f52602260045260245ffd5b5f6002820490506001821680611b4557607f821691505b602082108103611b5857611b57611b01565b5b50919050565b7f4e6f2045544820746f20776974686472617700000000000000000000000000005f82015250565b5f611b92601283611811565b9150611b9d82611b5e565b602082019050919050565b5f6020820190508181035f830152611bbf81611b86565b9050919050565b7f4e487b71000000000000000000000000000000000000000000000000000000005f52601160045260245ffd5b5f611bfd826118f5565b9150611c08836118f5565b9250828201905080821115611c2057611c1f611bc6565b5b92915050565b7f45786365656473206d617820737570706c7900000000000000000000000000005f82015250565b5f611c5a601283611811565b9150611c6582611c26565b602082019050919050565b5f6020820190508181035f830152611c8781611c4e565b9050919050565b7f5072696365206d7573742062652067726561746572207468616e2030000000005f82015250565b5f611cc2601c83611811565b9150611ccd82611c8e565b602082019050919050565b5f6020820190508181035f830152611cef81611cb6565b9050919050565b7f53656e642045544820746f2062757920746f6b656e73000000000000000000005f82015250565b5f611d2a601683611811565b9150611d3582611cf6565b602082019050919050565b5f6020820190508181035f830152611d5781611d1e565b9050919050565b5f611d68826118f5565b9150611d73836118f5565b9250828202611d81816118f5565b91508282048414831517611d9857611d97611bc6565b5b5092915050565b7f4e487b71000000000000000000000000000000000000000000000000000000005f52601260045260245ffd5b5f611dd6826118f5565b9150611de1836118f5565b925082611df157611df0611d9f565b5b828204905092915050565b7f546f6b656e20616d6f756e74206d7573742062652067726561746572207468615f8201527f6e20300000000000000000000000000000000000000000000000000000000000602082015250565b5f611e56602383611811565b9150611e6182611dfc565b604082019050919050565b5f6020820190508181035f830152611e8381611e4a565b9050919050565b7f496e73756666696369656e74204554482073656e7400000000000000000000005f82015250565b5f611ebe601583611811565b9150611ec982611e8a565b602082019050919050565b5f6020820190508181035f830152611eeb81611eb2565b9050919050565b5f611efc826118f5565b9150611f07836118f5565b9250828203905081811115611f1f57611f1e611bc6565b5b92915050565b5f606082019050611f385f830186611a9b565b611f456020830185611999565b611f526040830184611999565b949350505050565b7f5061757361626c653a20706175736564000000000000000000000000000000005f82015250565b5f611f8e601083611811565b9150611f9982611f5a565b602082019050919050565b5f6020820190508181035f830152611fbb81611f82565b9050919050565b7f5061757361626c653a206e6f74207061757365640000000000000000000000005f82015250565b5f611ff6601483611811565b915061200182611fc2565b602082019050919050565b5f6020820190508181035f83015261202381611fea565b905091905056fea264697066735822122092017a355a0f9c45c6e8c2142711d2995adba25e6d52940f0cde03a23b176bbf64736f6c634300081a0033",
			"opcodes": "PUSH1 0x80 PUSH1 0x40 MSTORE CALLVALUE DUP1 ISZERO PUSH2 0xF JUMPI PUSH0 DUP1 REVERT JUMPDEST POP PUSH1 0x40 MLOAD PUSH2 0x2BE5 CODESIZE SUB DUP1 PUSH2 0x2BE5 DUP4 CODECOPY DUP2 DUP2 ADD PUSH1 0x40 MSTORE DUP2 ADD SWAP1 PUSH2 0x31 SWAP2 SWAP1 PUSH2 0x643 JUMP JUMPDEST CALLER DUP6 DUP6 DUP2 PUSH1 0x3 SWAP1 DUP2 PUSH2 0x43 SWAP2 SWAP1 PUSH2 0x8F6 JUMP JUMPDEST POP DUP1 PUSH1 0x4 SWAP1 DUP2 PUSH2 0x53 SWAP2 SWAP1 PUSH2 0x8F6 JUMP JUMPDEST POP POP POP PUSH0 PUSH20 0xFFFFFFFFFFFFFFFFFFFFFFFFFFFFFFFFFFFFFFFF AND DUP2 PUSH20 0xFFFFFFFFFFFFFFFFFFFFFFFFFFFFFFFFFFFFFFFF AND SUB PUSH2 0xC6 JUMPI PUSH0 PUSH1 0x40 MLOAD PUSH32 0x1E4FBDF700000000000000000000000000000000000000000000000000000000 DUP2 MSTORE PUSH1 0x4 ADD PUSH2 0xBD SWAP2 SWAP1 PUSH2 0xA04 JUMP JUMPDEST PUSH1 0x40 MLOAD DUP1 SWAP2 SUB SWAP1 REVERT JUMPDEST PUSH2 0xD5 DUP2 PUSH2 0x162 PUSH1 0x20 SHL PUSH1 0x20 SHR JUMP JUMPDEST POP PUSH0 PUSH1 0x5 PUSH1 0x14 PUSH2 0x100 EXP DUP2 SLOAD DUP2 PUSH1 0xFF MUL NOT AND SWAP1 DUP4 ISZERO ISZERO MUL OR SWAP1 SSTORE POP DUP2 DUP4 GT ISZERO PUSH2 0x133 JUMPI PUSH1 0x40 MLOAD PUSH32 0x8C379A000000000000000000000000000000000000000000000000000000000 DUP2 MSTORE PUSH1 0x4 ADD PUSH2 0x12A SWAP1 PUSH2 0xA9D JUMP JUMPDEST PUSH1 0x40 MLOAD DUP1 SWAP2 SUB SWAP1 REVERT JUMPDEST DUP2 PUSH1 0x6 DUP2 SWAP1 SSTORE POP DUP1 PUSH1 0x7 DUP2 SWAP1 SSTORE POP PUSH2 0x151 CALLER DUP5 PUSH2 0x225 PUSH1 0x20 SHL PUSH1 0x20 SHR JUMP JUMPDEST DUP3 PUSH1 0x8 DUP2 SWAP1 SSTORE POP POP POP POP POP POP PUSH2 0xB78 JUMP JUMPDEST PUSH0 PUSH1 0x5 PUSH0 SWAP1 SLOAD SWAP1 PUSH2 0x100 EXP SWAP1 DIV PUSH20 0xFFFFFFFFFFFFFFFFFFFFFFFFFFFFFFFFFFFFFFFF AND SWAP1 POP DUP2 PUSH1 0x5 PUSH0 PUSH2 0x100 EXP DUP2 SLOAD DUP2 PUSH20 0xFFFFFFFFFFFFFFFFFFFFFFFFFFFFFFFFFFFFFFFF MUL NOT AND SWAP1 DUP4 PUSH20 0xFFFFFFFFFFFFFFFFFFFFFFFFFFFFFFFFFFFFFFFF AND MUL OR SWAP1 SSTORE POP DUP2 PUSH20 0xFFFFFFFFFFFFFFFFFFFFFFFFFFFFFFFFFFFFFFFF AND DUP2 PUSH20 0xFFFFFFFFFFFFFFFFFFFFFFFFFFFFFFFFFFFFFFFF AND PUSH32 0x8BE0079C531659141344CD1FD0A4F28419497F9722A3DAAFE3B4186F6B6457E0 PUSH1 0x40 MLOAD PUSH1 0x40 MLOAD DUP1 SWAP2 SUB SWAP1 LOG3 POP POP JUMP JUMPDEST PUSH0 PUSH20 0xFFFFFFFFFFFFFFFFFFFFFFFFFFFFFFFFFFFFFFFF AND DUP3 PUSH20 0xFFFFFFFFFFFFFFFFFFFFFFFFFFFFFFFFFFFFFFFF AND SUB PUSH2 0x295 JUMPI PUSH0 PUSH1 0x40 MLOAD PUSH32 0xEC442F0500000000000000000000000000000000000000000000000000000000 DUP2 MSTORE PUSH1 0x4 ADD PUSH2 0x28C SWAP2 SWAP1 PUSH2 0xA04 JUMP JUMPDEST PUSH1 0x40 MLOAD DUP1 SWAP2 SUB SWAP1 REVERT JUMPDEST PUSH2 0x2A6 PUSH0 DUP4 DUP4 PUSH2 0x2AA PUSH1 0x20 SHL PUSH1 0x20 SHR JUMP JUMPDEST POP POP JUMP JUMPDEST PUSH0 PUSH20 0xFFFFFFFFFFFFFFFFFFFFFFFFFFFFFFFFFFFFFFFF AND DUP4 PUSH20 0xFFFFFFFFFFFFFFFFFFFFFFFFFFFFFFFFFFFFFFFF AND SUB PUSH2 0x2FA JUMPI DUP1 PUSH1 0x2 PUSH0 DUP3 DUP3 SLOAD PUSH2 0x2EE SWAP2 SWAP1 PUSH2 0xAE8 JUMP JUMPDEST SWAP3 POP POP DUP2 SWAP1 SSTORE POP PUSH2 0x3C8 JUMP JUMPDEST PUSH0 DUP1 PUSH0 DUP6 PUSH20 0xFFFFFFFFFFFFFFFFFFFFFFFFFFFFFFFFFFFFFFFF AND PUSH20 0xFFFFFFFFFFFFFFFFFFFFFFFFFFFFFFFFFFFFFFFF AND DUP2 MSTORE PUSH1 0x20 ADD SWAP1 DUP2 MSTORE PUSH1 0x20 ADD PUSH0 KECCAK256 SLOAD SWAP1 POP DUP2 DUP2 LT ISZERO PUSH2 0x383 JUMPI DUP4 DUP2 DUP4 PUSH1 0x40 MLOAD PUSH32 0xE450D38C00000000000000000000000000000000000000000000000000000000 DUP2 MSTORE PUSH1 0x4 ADD PUSH2 0x37A SWAP4 SWAP3 SWAP2 SWAP1 PUSH2 0xB2A JUMP JUMPDEST PUSH1 0x40 MLOAD DUP1 SWAP2 SUB SWAP1 REVERT JUMPDEST DUP2 DUP2 SUB PUSH0 DUP1 DUP7 PUSH20 0xFFFFFFFFFFFFFFFFFFFFFFFFFFFFFFFFFFFFFFFF AND PUSH20 0xFFFFFFFFFFFFFFFFFFFFFFFFFFFFFFFFFFFFFFFF AND DUP2 MSTORE PUSH1 0x20 ADD SWAP1 DUP2 MSTORE PUSH1 0x20 ADD PUSH0 KECCAK256 DUP2 SWAP1 SSTORE POP POP JUMPDEST PUSH0 PUSH20 0xFFFFFFFFFFFFFFFFFFFFFFFFFFFFFFFFFFFFFFFF AND DUP3 PUSH20 0xFFFFFFFFFFFFFFFFFFFFFFFFFFFFFFFFFFFFFFFF AND SUB PUSH2 0x40F JUMPI DUP1 PUSH1 0x2 PUSH0 DUP3 DUP3 SLOAD SUB SWAP3 POP POP DUP2 SWAP1 SSTORE POP PUSH2 0x459 JUMP JUMPDEST DUP1 PUSH0 DUP1 DUP5 PUSH20 0xFFFFFFFFFFFFFFFFFFFFFFFFFFFFFFFFFFFFFFFF AND PUSH20 0xFFFFFFFFFFFFFFFFFFFFFFFFFFFFFFFFFFFFFFFF AND DUP2 MSTORE PUSH1 0x20 ADD SWAP1 DUP2 MSTORE PUSH1 0x20 ADD PUSH0 KECCAK256 PUSH0 DUP3 DUP3 SLOAD ADD SWAP3 POP POP DUP2 SWAP1 SSTORE POP JUMPDEST DUP2 PUSH20 0xFFFFFFFFFFFFFFFFFFFFFFFFFFFFFFFFFFFFFFFF AND DUP4 PUSH20 0xFFFFFFFFFFFFFFFFFFFFFFFFFFFFFFFFFFFFFFFF AND PUSH32 0xDDF252AD1BE2C89B69C2B068FC378DAA952BA7F163C4A11628F55A4DF523B3EF DUP4 PUSH1 0x40 MLOAD PUSH2 0x4B6 SWAP2 SWAP1 PUSH2 0xB5F JUMP JUMPDEST PUSH1 0x40 MLOAD DUP1 SWAP2 SUB SWAP1 LOG3 POP POP POP JUMP JUMPDEST PUSH0 PUSH1 0x40 MLOAD SWAP1 POP SWAP1 JUMP JUMPDEST PUSH0 DUP1 REVERT JUMPDEST PUSH0 DUP1 REVERT JUMPDEST PUSH0 DUP1 REVERT JUMPDEST PUSH0 DUP1 REVERT JUMPDEST PUSH0 PUSH1 0x1F NOT PUSH1 0x1F DUP4 ADD AND SWAP1 POP SWAP2 SWAP1 POP JUMP JUMPDEST PUSH32 0x4E487B7100000000000000000000000000000000000000000000000000000000 PUSH0 MSTORE PUSH1 0x41 PUSH1 0x4 MSTORE PUSH1 0x24 PUSH0 REVERT JUMPDEST PUSH2 0x522 DUP3 PUSH2 0x4DC JUMP JUMPDEST DUP2 ADD DUP2 DUP2 LT PUSH8 0xFFFFFFFFFFFFFFFF DUP3 GT OR ISZERO PUSH2 0x541 JUMPI PUSH2 0x540 PUSH2 0x4EC JUMP JUMPDEST JUMPDEST DUP1 PUSH1 0x40 MSTORE POP POP POP JUMP JUMPDEST PUSH0 PUSH2 0x553 PUSH2 0x4C3 JUMP JUMPDEST SWAP1 POP PUSH2 0x55F DUP3 DUP3 PUSH2 0x519 JUMP JUMPDEST SWAP2 SWAP1 POP JUMP JUMPDEST PUSH0 PUSH8 0xFFFFFFFFFFFFFFFF DUP3 GT ISZERO PUSH2 0x57E JUMPI PUSH2 0x57D PUSH2 0x4EC JUMP JUMPDEST JUMPDEST PUSH2 0x587 DUP3 PUSH2 0x4DC JUMP JUMPDEST SWAP1 POP PUSH1 0x20 DUP2 ADD SWAP1 POP SWAP2 SWAP1 POP JUMP JUMPDEST DUP3 DUP2 DUP4 MCOPY PUSH0 DUP4 DUP4 ADD MSTORE POP POP POP JUMP JUMPDEST PUSH0 PUSH2 0x5B4 PUSH2 0x5AF DUP5 PUSH2 0x564 JUMP JUMPDEST PUSH2 0x54A JUMP JUMPDEST SWAP1 POP DUP3 DUP2 MSTORE PUSH1 0x20 DUP2 ADD DUP5 DUP5 DUP5 ADD GT ISZERO PUSH2 0x5D0 JUMPI PUSH2 0x5CF PUSH2 0x4D8 JUMP JUMPDEST JUMPDEST PUSH2 0x5DB DUP5 DUP3 DUP6 PUSH2 0x594 JUMP JUMPDEST POP SWAP4 SWAP3 POP POP POP JUMP JUMPDEST PUSH0 DUP3 PUSH1 0x1F DUP4 ADD SLT PUSH2 0x5F7 JUMPI PUSH2 0x5F6 PUSH2 0x4D4 JUMP JUMPDEST JUMPDEST DUP2 MLOAD PUSH2 0x607 DUP5 DUP3 PUSH1 0x20 DUP7 ADD PUSH2 0x5A2 JUMP JUMPDEST SWAP2 POP POP SWAP3 SWAP2 POP POP JUMP JUMPDEST PUSH0 DUP2 SWAP1 POP SWAP2 SWAP1 POP JUMP JUMPDEST PUSH2 0x622 DUP2 PUSH2 0x610 JUMP JUMPDEST DUP2 EQ PUSH2 0x62C JUMPI PUSH0 DUP1 REVERT JUMPDEST POP JUMP JUMPDEST PUSH0 DUP2 MLOAD SWAP1 POP PUSH2 0x63D DUP2 PUSH2 0x619 JUMP JUMPDEST SWAP3 SWAP2 POP POP JUMP JUMPDEST PUSH0 DUP1 PUSH0 DUP1 PUSH0 PUSH1 0xA0 DUP7 DUP9 SUB SLT ISZERO PUSH2 0x65C JUMPI PUSH2 0x65B PUSH2 0x4CC JUMP JUMPDEST JUMPDEST PUSH0 DUP7 ADD MLOAD PUSH8 0xFFFFFFFFFFFFFFFF DUP2 GT ISZERO PUSH2 0x679 JUMPI PUSH2 0x678 PUSH2 0x4D0 JUMP JUMPDEST JUMPDEST PUSH2 0x685 DUP9 DUP3 DUP10 ADD PUSH2 0x5E3 JUMP JUMPDEST SWAP6 POP POP PUSH1 0x20 DUP7 ADD MLOAD PUSH8 0xFFFFFFFFFFFFFFFF DUP2 GT ISZERO PUSH2 0x6A6 JUMPI PUSH2 0x6A5 PUSH2 0x4D0 JUMP JUMPDEST JUMPDEST PUSH2 0x6B2 DUP9 DUP3 DUP10 ADD PUSH2 0x5E3 JUMP JUMPDEST SWAP5 POP POP PUSH1 0x40 PUSH2 0x6C3 DUP9 DUP3 DUP10 ADD PUSH2 0x62F JUMP JUMPDEST SWAP4 POP POP PUSH1 0x60 PUSH2 0x6D4 DUP9 DUP3 DUP10 ADD PUSH2 0x62F JUMP JUMPDEST SWAP3 POP POP PUSH1 0x80 PUSH2 0x6E5 DUP9 DUP3 DUP10 ADD PUSH2 0x62F JUMP JUMPDEST SWAP2 POP POP SWAP3 SWAP6 POP SWAP3 SWAP6 SWAP1 SWAP4 POP JUMP JUMPDEST PUSH0 DUP2 MLOAD SWAP1 POP SWAP2 SWAP1 POP JUMP JUMPDEST PUSH32 0x4E487B7100000000000000000000000000000000000000000000000000000000 PUSH0 MSTORE PUSH1 0x22 PUSH1 0x4 MSTORE PUSH1 0x24 PUSH0 REVERT JUMPDEST PUSH0 PUSH1 0x2 DUP3 DIV SWAP1 POP PUSH1 0x1 DUP3 AND DUP1 PUSH2 0x740 JUMPI PUSH1 0x7F DUP3 AND SWAP2 POP JUMPDEST PUSH1 0x20 DUP3 LT DUP2 SUB PUSH2 0x753 JUMPI PUSH2 0x752 PUSH2 0x6FC JUMP JUMPDEST JUMPDEST POP SWAP2 SWAP1 POP JUMP JUMPDEST PUSH0 DUP2 SWAP1 POP DUP2 PUSH0 MSTORE PUSH1 0x20 PUSH0 KECCAK256 SWAP1 POP SWAP2 SWAP1 POP JUMP JUMPDEST PUSH0 PUSH1 0x20 PUSH1 0x1F DUP4 ADD DIV SWAP1 POP SWAP2 SWAP1 POP JUMP JUMPDEST PUSH0 DUP3 DUP3 SHL SWAP1 POP SWAP3 SWAP2 POP POP JUMP JUMPDEST PUSH0 PUSH1 0x8 DUP4 MUL PUSH2 0x7B5 PUSH32 0xFFFFFFFFFFFFFFFFFFFFFFFFFFFFFFFFFFFFFFFFFFFFFFFFFFFFFFFFFFFFFFFF DUP3 PUSH2 0x77A JUMP JUMPDEST PUSH2 0x7BF DUP7 DUP4 PUSH2 0x77A JUMP JUMPDEST SWAP6 POP DUP1 NOT DUP5 AND SWAP4 POP DUP1 DUP7 AND DUP5 OR SWAP3 POP POP POP SWAP4 SWAP3 POP POP POP JUMP JUMPDEST PUSH0 DUP2 SWAP1 POP SWAP2 SWAP1 POP JUMP JUMPDEST PUSH0 PUSH2 0x7FA PUSH2 0x7F5 PUSH2 0x7F0 DUP5 PUSH2 0x610 JUMP JUMPDEST PUSH2 0x7D7 JUMP JUMPDEST PUSH2 0x610 JUMP JUMPDEST SWAP1 POP SWAP2 SWAP1 POP JUMP JUMPDEST PUSH0 DUP2 SWAP1 POP SWAP2 SWAP1 POP JUMP JUMPDEST PUSH2 0x813 DUP4 PUSH2 0x7E0 JUMP JUMPDEST PUSH2 0x827 PUSH2 0x81F DUP3 PUSH2 0x801 JUMP JUMPDEST DUP5 DUP5 SLOAD PUSH2 0x786 JUMP JUMPDEST DUP3 SSTORE POP POP POP POP JUMP JUMPDEST PUSH0 SWAP1 JUMP JUMPDEST PUSH2 0x83B PUSH2 0x82F JUMP JUMPDEST PUSH2 0x846 DUP2 DUP5 DUP5 PUSH2 0x80A JUMP JUMPDEST POP POP POP JUMP JUMPDEST JUMPDEST DUP2 DUP2 LT ISZERO PUSH2 0x869 JUMPI PUSH2 0x85E PUSH0 DUP3 PUSH2 0x833 JUMP JUMPDEST PUSH1 0x1 DUP2 ADD SWAP1 POP PUSH2 0x84C JUMP JUMPDEST POP POP JUMP JUMPDEST PUSH1 0x1F DUP3 GT ISZERO PUSH2 0x8AE JUMPI PUSH2 0x87F DUP2 PUSH2 0x759 JUMP JUMPDEST PUSH2 0x888 DUP5 PUSH2 0x76B JUMP JUMPDEST DUP2 ADD PUSH1 0x20 DUP6 LT ISZERO PUSH2 0x897 JUMPI DUP2 SWAP1 POP JUMPDEST PUSH2 0x8AB PUSH2 0x8A3 DUP6 PUSH2 0x76B JUMP JUMPDEST DUP4 ADD DUP3 PUSH2 0x84B JUMP JUMPDEST POP POP JUMPDEST POP POP POP JUMP JUMPDEST PUSH0 DUP3 DUP3 SHR SWAP1 POP SWAP3 SWAP2 POP POP JUMP JUMPDEST PUSH0 PUSH2 0x8CE PUSH0 NOT DUP5 PUSH1 0x8 MUL PUSH2 0x8B3 JUMP JUMPDEST NOT DUP1 DUP4 AND SWAP2 POP POP SWAP3 SWAP2 POP POP JUMP JUMPDEST PUSH0 PUSH2 0x8E6 DUP4 DUP4 PUSH2 0x8BF JUMP JUMPDEST SWAP2 POP DUP3 PUSH1 0x2 MUL DUP3 OR SWAP1 POP SWAP3 SWAP2 POP POP JUMP JUMPDEST PUSH2 0x8FF DUP3 PUSH2 0x6F2 JUMP JUMPDEST PUSH8 0xFFFFFFFFFFFFFFFF DUP2 GT ISZERO PUSH2 0x918 JUMPI PUSH2 0x917 PUSH2 0x4EC JUMP JUMPDEST JUMPDEST PUSH2 0x922 DUP3 SLOAD PUSH2 0x729 JUMP JUMPDEST PUSH2 0x92D DUP3 DUP3 DUP6 PUSH2 0x86D JUMP JUMPDEST PUSH0 PUSH1 0x20 SWAP1 POP PUSH1 0x1F DUP4 GT PUSH1 0x1 DUP2 EQ PUSH2 0x95E JUMPI PUSH0 DUP5 ISZERO PUSH2 0x94C JUMPI DUP3 DUP8 ADD MLOAD SWAP1 POP JUMPDEST PUSH2 0x956 DUP6 DUP3 PUSH2 0x8DB JUMP JUMPDEST DUP7 SSTORE POP PUSH2 0x9BD JUMP JUMPDEST PUSH1 0x1F NOT DUP5 AND PUSH2 0x96C DUP7 PUSH2 0x759 JUMP JUMPDEST PUSH0 JUMPDEST DUP3 DUP2 LT ISZERO PUSH2 0x993 JUMPI DUP5 DUP10 ADD MLOAD DUP3 SSTORE PUSH1 0x1 DUP3 ADD SWAP2 POP PUSH1 0x20 DUP6 ADD SWAP5 POP PUSH1 0x20 DUP2 ADD SWAP1 POP PUSH2 0x96E JUMP JUMPDEST DUP7 DUP4 LT ISZERO PUSH2 0x9B0 JUMPI DUP5 DUP10 ADD MLOAD PUSH2 0x9AC PUSH1 0x1F DUP10 AND DUP3 PUSH2 0x8BF JUMP JUMPDEST DUP4 SSTORE POP JUMPDEST PUSH1 0x1 PUSH1 0x2 DUP9 MUL ADD DUP9 SSTORE POP POP POP JUMPDEST POP POP POP POP POP POP JUMP JUMPDEST PUSH0 PUSH20 0xFFFFFFFFFFFFFFFFFFFFFFFFFFFFFFFFFFFFFFFF DUP3 AND SWAP1 POP SWAP2 SWAP1 POP JUMP JUMPDEST PUSH0 PUSH2 0x9EE DUP3 PUSH2 0x9C5 JUMP JUMPDEST SWAP1 POP SWAP2 SWAP1 POP JUMP JUMPDEST PUSH2 0x9FE DUP2 PUSH2 0x9E4 JUMP JUMPDEST DUP3 MSTORE POP POP JUMP JUMPDEST PUSH0 PUSH1 0x20 DUP3 ADD SWAP1 POP PUSH2 0xA17 PUSH0 DUP4 ADD DUP5 PUSH2 0x9F5 JUMP JUMPDEST SWAP3 SWAP2 POP POP JUMP JUMPDEST PUSH0 DUP3 DUP3 MSTORE PUSH1 0x20 DUP3 ADD SWAP1 POP SWAP3 SWAP2 POP POP JUMP JUMPDEST PUSH32 0x496E697469616C20737570706C792065786365656473206D617820737570706C PUSH0 DUP3 ADD MSTORE PUSH32 0x7900000000000000000000000000000000000000000000000000000000000000 PUSH1 0x20 DUP3 ADD MSTORE POP JUMP JUMPDEST PUSH0 PUSH2 0xA87 PUSH1 0x21 DUP4 PUSH2 0xA1D JUMP JUMPDEST SWAP2 POP PUSH2 0xA92 DUP3 PUSH2 0xA2D JUMP JUMPDEST PUSH1 0x40 DUP3 ADD SWAP1 POP SWAP2 SWAP1 POP JUMP JUMPDEST PUSH0 PUSH1 0x20 DUP3 ADD SWAP1 POP DUP2 DUP2 SUB PUSH0 DUP4 ADD MSTORE PUSH2 0xAB4 DUP2 PUSH2 0xA7B JUMP JUMPDEST SWAP1 POP SWAP2 SWAP1 POP JUMP JUMPDEST PUSH32 0x4E487B7100000000000000000000000000000000000000000000000000000000 PUSH0 MSTORE PUSH1 0x11 PUSH1 0x4 MSTORE PUSH1 0x24 PUSH0 REVERT JUMPDEST PUSH0 PUSH2 0xAF2 DUP3 PUSH2 0x610 JUMP JUMPDEST SWAP2 POP PUSH2 0xAFD DUP4 PUSH2 0x610 JUMP JUMPDEST SWAP3 POP DUP3 DUP3 ADD SWAP1 POP DUP1 DUP3 GT ISZERO PUSH2 0xB15 JUMPI PUSH2 0xB14 PUSH2 0xABB JUMP JUMPDEST JUMPDEST SWAP3 SWAP2 POP POP JUMP JUMPDEST PUSH2 0xB24 DUP2 PUSH2 0x610 JUMP JUMPDEST DUP3 MSTORE POP POP JUMP JUMPDEST PUSH0 PUSH1 0x60 DUP3 ADD SWAP1 POP PUSH2 0xB3D PUSH0 DUP4 ADD DUP7 PUSH2 0x9F5 JUMP JUMPDEST PUSH2 0xB4A PUSH1 0x20 DUP4 ADD DUP6 PUSH2 0xB1B JUMP JUMPDEST PUSH2 0xB57 PUSH1 0x40 DUP4 ADD DUP5 PUSH2 0xB1B JUMP JUMPDEST SWAP5 SWAP4 POP POP POP POP JUMP JUMPDEST PUSH0 PUSH1 0x20 DUP3 ADD SWAP1 POP PUSH2 0xB72 PUSH0 DUP4 ADD DUP5 PUSH2 0xB1B JUMP JUMPDEST SWAP3 SWAP2 POP POP JUMP JUMPDEST PUSH2 0x2060 DUP1 PUSH2 0xB85 PUSH0 CODECOPY PUSH0 RETURN INVALID PUSH1 0x80 PUSH1 0x40 MSTORE PUSH1 0x4 CALLDATASIZE LT PUSH2 0x1B6 JUMPI PUSH0 CALLDATALOAD PUSH1 0xE0 SHR DUP1 PUSH4 0x6F9FB98A GT PUSH2 0xEB JUMPI DUP1 PUSH4 0xA2309FF8 GT PUSH2 0x89 JUMPI DUP1 PUSH4 0xD5ABEB01 GT PUSH2 0x63 JUMPI DUP1 PUSH4 0xD5ABEB01 EQ PUSH2 0x58E JUMPI DUP1 PUSH4 0xDD62ED3E EQ PUSH2 0x5B8 JUMPI DUP1 PUSH4 0xF2FDE38B EQ PUSH2 0x5F4 JUMPI DUP1 PUSH4 0xFC60C281 EQ PUSH2 0x61C JUMPI PUSH2 0x1B6 JUMP JUMPDEST DUP1 PUSH4 0xA2309FF8 EQ PUSH2 0x51E JUMPI DUP1 PUSH4 0xA9059CBB EQ PUSH2 0x548 JUMPI DUP1 PUSH4 0xD0FEBE4C EQ PUSH2 0x584 JUMPI PUSH2 0x1B6 JUMP JUMPDEST DUP1 PUSH4 0x7FF9B596 GT PUSH2 0xC5 JUMPI DUP1 PUSH4 0x7FF9B596 EQ PUSH2 0x48A JUMPI DUP1 PUSH4 0x8456CB59 EQ PUSH2 0x4B4 JUMPI DUP1 PUSH4 0x8DA5CB5B EQ PUSH2 0x4CA JUMPI DUP1 PUSH4 0x95D89B41 EQ PUSH2 0x4F4 JUMPI PUSH2 0x1B6 JUMP JUMPDEST DUP1 PUSH4 0x6F9FB98A EQ PUSH2 0x40E JUMPI DUP1 PUSH4 0x70A08231 EQ PUSH2 0x438 JUMPI DUP1 PUSH4 0x715018A6 EQ PUSH2 0x474 JUMPI PUSH2 0x1B6 JUMP JUMPDEST DUP1 PUSH4 0x3CCFD60B GT PUSH2 0x158 JUMPI DUP1 PUSH4 0x42966C68 GT PUSH2 0x132 JUMPI DUP1 PUSH4 0x42966C68 EQ PUSH2 0x36A JUMPI DUP1 PUSH4 0x4B94F50E EQ PUSH2 0x392 JUMPI DUP1 PUSH4 0x5C975ABB EQ PUSH2 0x3BC JUMPI DUP1 PUSH4 0x6A61E5FC EQ PUSH2 0x3E6 JUMPI PUSH2 0x1B6 JUMP JUMPDEST DUP1 PUSH4 0x3CCFD60B EQ PUSH2 0x316 JUMPI DUP1 PUSH4 0x3F4BA83A EQ PUSH2 0x32C JUMPI DUP1 PUSH4 0x40C10F19 EQ PUSH2 0x342 JUMPI PUSH2 0x1B6 JUMP JUMPDEST DUP1 PUSH4 0x18160DDD GT PUSH2 0x194 JUMPI DUP1 PUSH4 0x18160DDD EQ PUSH2 0x24A JUMPI DUP1 PUSH4 0x23B872DD EQ PUSH2 0x274 JUMPI DUP1 PUSH4 0x313CE567 EQ PUSH2 0x2B0 JUMPI DUP1 PUSH4 0x3AECD0E3 EQ PUSH2 0x2DA JUMPI PUSH2 0x1B6 JUMP JUMPDEST DUP1 PUSH4 0x6FDDE03 EQ PUSH2 0x1BA JUMPI DUP1 PUSH4 0x95EA7B3 EQ PUSH2 0x1E4 JUMPI DUP1 PUSH4 0xCA1C5C9 EQ PUSH2 0x220 JUMPI JUMPDEST PUSH0 DUP1 REVERT JUMPDEST CALLVALUE DUP1 ISZERO PUSH2 0x1C5 JUMPI PUSH0 DUP1 REVERT JUMPDEST POP PUSH2 0x1CE PUSH2 0x638 JUMP JUMPDEST PUSH1 0x40 MLOAD PUSH2 0x1DB SWAP2 SWAP1 PUSH2 0x1877 JUMP JUMPDEST PUSH1 0x40 MLOAD DUP1 SWAP2 SUB SWAP1 RETURN JUMPDEST CALLVALUE DUP1 ISZERO PUSH2 0x1EF JUMPI PUSH0 DUP1 REVERT JUMPDEST POP PUSH2 0x20A PUSH1 0x4 DUP1 CALLDATASIZE SUB DUP2 ADD SWAP1 PUSH2 0x205 SWAP2 SWAP1 PUSH2 0x1928 JUMP JUMPDEST PUSH2 0x6C8 JUMP JUMPDEST PUSH1 0x40 MLOAD PUSH2 0x217 SWAP2 SWAP1 PUSH2 0x1980 JUMP JUMPDEST PUSH1 0x40 MLOAD DUP1 SWAP2 SUB SWAP1 RETURN JUMPDEST CALLVALUE DUP1 ISZERO PUSH2 0x22B JUMPI PUSH0 DUP1 REVERT JUMPDEST POP PUSH2 0x234 PUSH2 0x6EA JUMP JUMPDEST PUSH1 0x40 MLOAD PUSH2 0x241 SWAP2 SWAP1 PUSH2 0x19A8 JUMP JUMPDEST PUSH1 0x40 MLOAD DUP1 SWAP2 SUB SWAP1 RETURN JUMPDEST CALLVALUE DUP1 ISZERO PUSH2 0x255 JUMPI PUSH0 DUP1 REVERT JUMPDEST POP PUSH2 0x25E PUSH2 0x6F3 JUMP JUMPDEST PUSH1 0x40 MLOAD PUSH2 0x26B SWAP2 SWAP1 PUSH2 0x19A8 JUMP JUMPDEST PUSH1 0x40 MLOAD DUP1 SWAP2 SUB SWAP1 RETURN JUMPDEST CALLVALUE DUP1 ISZERO PUSH2 0x27F JUMPI PUSH0 DUP1 REVERT JUMPDEST POP PUSH2 0x29A PUSH1 0x4 DUP1 CALLDATASIZE SUB DUP2 ADD SWAP1 PUSH2 0x295 SWAP2 SWAP1 PUSH2 0x19C1 JUMP JUMPDEST PUSH2 0x6FC JUMP JUMPDEST PUSH1 0x40 MLOAD PUSH2 0x2A7 SWAP2 SWAP1 PUSH2 0x1980 JUMP JUMPDEST PUSH1 0x40 MLOAD DUP1 SWAP2 SUB SWAP1 RETURN JUMPDEST CALLVALUE DUP1 ISZERO PUSH2 0x2BB JUMPI PUSH0 DUP1 REVERT JUMPDEST POP PUSH2 0x2C4 PUSH2 0x72A JUMP JUMPDEST PUSH1 0x40 MLOAD PUSH2 0x2D1 SWAP2 SWAP1 PUSH2 0x1A2C JUMP JUMPDEST PUSH1 0x40 MLOAD DUP1 SWAP2 SUB SWAP1 RETURN JUMPDEST CALLVALUE DUP1 ISZERO PUSH2 0x2E5 JUMPI PUSH0 DUP1 REVERT JUMPDEST POP PUSH2 0x300 PUSH1 0x4 DUP1 CALLDATASIZE SUB DUP2 ADD SWAP1 PUSH2 0x2FB SWAP2 SWAP1 PUSH2 0x1A45 JUMP JUMPDEST PUSH2 0x732 JUMP JUMPDEST PUSH1 0x40 MLOAD PUSH2 0x30D SWAP2 SWAP1 PUSH2 0x19A8 JUMP JUMPDEST PUSH1 0x40 MLOAD DUP1 SWAP2 SUB SWAP1 RETURN JUMPDEST CALLVALUE DUP1 ISZERO PUSH2 0x321 JUMPI PUSH0 DUP1 REVERT JUMPDEST POP PUSH2 0x32A PUSH2 0x743 JUMP JUMPDEST STOP JUMPDEST CALLVALUE DUP1 ISZERO PUSH2 0x337 JUMPI PUSH0 DUP1 REVERT JUMPDEST POP PUSH2 0x340 PUSH2 0x7DF JUMP JUMPDEST STOP JUMPDEST CALLVALUE DUP1 ISZERO PUSH2 0x34D JUMPI PUSH0 DUP1 REVERT JUMPDEST POP PUSH2 0x368 PUSH1 0x4 DUP1 CALLDATASIZE SUB DUP2 ADD SWAP1 PUSH2 0x363 SWAP2 SWAP1 PUSH2 0x1928 JUMP JUMPDEST PUSH2 0x7F1 JUMP JUMPDEST STOP JUMPDEST CALLVALUE DUP1 ISZERO PUSH2 0x375 JUMPI PUSH0 DUP1 REVERT JUMPDEST POP PUSH2 0x390 PUSH1 0x4 DUP1 CALLDATASIZE SUB DUP2 ADD SWAP1 PUSH2 0x38B SWAP2 SWAP1 PUSH2 0x1A70 JUMP JUMPDEST PUSH2 0x8C7 JUMP JUMPDEST STOP JUMPDEST CALLVALUE DUP1 ISZERO PUSH2 0x39D JUMPI PUSH0 DUP1 REVERT JUMPDEST POP PUSH2 0x3A6 PUSH2 0x8D4 JUMP JUMPDEST PUSH1 0x40 MLOAD PUSH2 0x3B3 SWAP2 SWAP1 PUSH2 0x19A8 JUMP JUMPDEST PUSH1 0x40 MLOAD DUP1 SWAP2 SUB SWAP1 RETURN JUMPDEST CALLVALUE DUP1 ISZERO PUSH2 0x3C7 JUMPI PUSH0 DUP1 REVERT JUMPDEST POP PUSH2 0x3D0 PUSH2 0x8DD JUMP JUMPDEST PUSH1 0x40 MLOAD PUSH2 0x3DD SWAP2 SWAP1 PUSH2 0x1980 JUMP JUMPDEST PUSH1 0x40 MLOAD DUP1 SWAP2 SUB SWAP1 RETURN JUMPDEST CALLVALUE DUP1 ISZERO PUSH2 0x3F1 JUMPI PUSH0 DUP1 REVERT JUMPDEST POP PUSH2 0x40C PUSH1 0x4 DUP1 CALLDATASIZE SUB DUP2 ADD SWAP1 PUSH2 0x407 SWAP2 SWAP1 PUSH2 0x1A70 JUMP JUMPDEST PUSH2 0x8F3 JUMP JUMPDEST STOP JUMPDEST CALLVALUE DUP1 ISZERO PUSH2 0x419 JUMPI PUSH0 DUP1 REVERT JUMPDEST POP PUSH2 0x422 PUSH2 0x97E JUMP JUMPDEST PUSH1 0x40 MLOAD PUSH2 0x42F SWAP2 SWAP1 PUSH2 0x19A8 JUMP JUMPDEST PUSH1 0x40 MLOAD DUP1 SWAP2 SUB SWAP1 RETURN JUMPDEST CALLVALUE DUP1 ISZERO PUSH2 0x443 JUMPI PUSH0 DUP1 REVERT JUMPDEST POP PUSH2 0x45E PUSH1 0x4 DUP1 CALLDATASIZE SUB DUP2 ADD SWAP1 PUSH2 0x459 SWAP2 SWAP1 PUSH2 0x1A45 JUMP JUMPDEST PUSH2 0x985 JUMP JUMPDEST PUSH1 0x40 MLOAD PUSH2 0x46B SWAP2 SWAP1 PUSH2 0x19A8 JUMP JUMPDEST PUSH1 0x40 MLOAD DUP1 SWAP2 SUB SWAP1 RETURN JUMPDEST CALLVALUE DUP1 ISZERO PUSH2 0x47F JUMPI PUSH0 DUP1 REVERT JUMPDEST POP PUSH2 0x488 PUSH2 0x9CA JUMP JUMPDEST STOP JUMPDEST CALLVALUE DUP1 ISZERO PUSH2 0x495 JUMPI PUSH0 DUP1 REVERT JUMPDEST POP PUSH2 0x49E PUSH2 0x9DD JUMP JUMPDEST PUSH1 0x40 MLOAD PUSH2 0x4AB SWAP2 SWAP1 PUSH2 0x19A8 JUMP JUMPDEST PUSH1 0x40 MLOAD DUP1 SWAP2 SUB SWAP1 RETURN JUMPDEST CALLVALUE DUP1 ISZERO PUSH2 0x4BF JUMPI PUSH0 DUP1 REVERT JUMPDEST POP PUSH2 0x4C8 PUSH2 0x9E3 JUMP JUMPDEST STOP JUMPDEST CALLVALUE DUP1 ISZERO PUSH2 0x4D5 JUMPI PUSH0 DUP1 REVERT JUMPDEST POP PUSH2 0x4DE PUSH2 0x9F5 JUMP JUMPDEST PUSH1 0x40 MLOAD PUSH2 0x4EB SWAP2 SWAP1 PUSH2 0x1AAA JUMP JUMPDEST PUSH1 0x40 MLOAD DUP1 SWAP2 SUB SWAP1 RETURN JUMPDEST CALLVALUE DUP1 ISZERO PUSH2 0x4FF JUMPI PUSH0 DUP1 REVERT JUMPDEST POP PUSH2 0x508 PUSH2 0xA1D JUMP JUMPDEST PUSH1 0x40 MLOAD PUSH2 0x515 SWAP2 SWAP1 PUSH2 0x1877 JUMP JUMPDEST PUSH1 0x40 MLOAD DUP1 SWAP2 SUB SWAP1 RETURN JUMPDEST CALLVALUE DUP1 ISZERO PUSH2 0x529 JUMPI PUSH0 DUP1 REVERT JUMPDEST POP PUSH2 0x532 PUSH2 0xAAD JUMP JUMPDEST PUSH1 0x40 MLOAD PUSH2 0x53F SWAP2 SWAP1 PUSH2 0x19A8 JUMP JUMPDEST PUSH1 0x40 MLOAD DUP1 SWAP2 SUB SWAP1 RETURN JUMPDEST CALLVALUE DUP1 ISZERO PUSH2 0x553 JUMPI PUSH0 DUP1 REVERT JUMPDEST POP PUSH2 0x56E PUSH1 0x4 DUP1 CALLDATASIZE SUB DUP2 ADD SWAP1 PUSH2 0x569 SWAP2 SWAP1 PUSH2 0x1928 JUMP JUMPDEST PUSH2 0xAB3 JUMP JUMPDEST PUSH1 0x40 MLOAD PUSH2 0x57B SWAP2 SWAP1 PUSH2 0x1980 JUMP JUMPDEST PUSH1 0x40 MLOAD DUP1 SWAP2 SUB SWAP1 RETURN JUMPDEST PUSH2 0x58C PUSH2 0xAD5 JUMP JUMPDEST STOP JUMPDEST CALLVALUE DUP1 ISZERO PUSH2 0x599 JUMPI PUSH0 DUP1 REVERT JUMPDEST POP PUSH2 0x5A2 PUSH2 0xC08 JUMP JUMPDEST PUSH1 0x40 MLOAD PUSH2 0x5AF SWAP2 SWAP1 PUSH2 0x19A8 JUMP JUMPDEST PUSH1 0x40 MLOAD DUP1 SWAP2 SUB SWAP1 RETURN JUMPDEST CALLVALUE DUP1 ISZERO PUSH2 0x5C3 JUMPI PUSH0 DUP1 REVERT JUMPDEST POP PUSH2 0x5DE PUSH1 0x4 DUP1 CALLDATASIZE SUB DUP2 ADD SWAP1 PUSH2 0x5D9 SWAP2 SWAP1 PUSH2 0x1AC3 JUMP JUMPDEST PUSH2 0xC0E JUMP JUMPDEST PUSH1 0x40 MLOAD PUSH2 0x5EB SWAP2 SWAP1 PUSH2 0x19A8 JUMP JUMPDEST PUSH1 0x40 MLOAD DUP1 SWAP2 SUB SWAP1 RETURN JUMPDEST CALLVALUE DUP1 ISZERO PUSH2 0x5FF JUMPI PUSH0 DUP1 REVERT JUMPDEST POP PUSH2 0x61A PUSH1 0x4 DUP1 CALLDATASIZE SUB DUP2 ADD SWAP1 PUSH2 0x615 SWAP2 SWAP1 PUSH2 0x1A45 JUMP JUMPDEST PUSH2 0xC90 JUMP JUMPDEST STOP JUMPDEST PUSH2 0x636 PUSH1 0x4 DUP1 CALLDATASIZE SUB DUP2 ADD SWAP1 PUSH2 0x631 SWAP2 SWAP1 PUSH2 0x1A70 JUMP JUMPDEST PUSH2 0xD14 JUMP JUMPDEST STOP JUMPDEST PUSH1 0x60 PUSH1 0x3 DUP1 SLOAD PUSH2 0x647 SWAP1 PUSH2 0x1B2E JUMP JUMPDEST DUP1 PUSH1 0x1F ADD PUSH1 0x20 DUP1 SWAP2 DIV MUL PUSH1 0x20 ADD PUSH1 0x40 MLOAD SWAP1 DUP2 ADD PUSH1 0x40 MSTORE DUP1 SWAP3 SWAP2 SWAP1 DUP2 DUP2 MSTORE PUSH1 0x20 ADD DUP3 DUP1 SLOAD PUSH2 0x673 SWAP1 PUSH2 0x1B2E JUMP JUMPDEST DUP1 ISZERO PUSH2 0x6BE JUMPI DUP1 PUSH1 0x1F LT PUSH2 0x695 JUMPI PUSH2 0x100 DUP1 DUP4 SLOAD DIV MUL DUP4 MSTORE SWAP2 PUSH1 0x20 ADD SWAP2 PUSH2 0x6BE JUMP JUMPDEST DUP3 ADD SWAP2 SWAP1 PUSH0 MSTORE PUSH1 0x20 PUSH0 KECCAK256 SWAP1 JUMPDEST DUP2 SLOAD DUP2 MSTORE SWAP1 PUSH1 0x1 ADD SWAP1 PUSH1 0x20 ADD DUP1 DUP4 GT PUSH2 0x6A1 JUMPI DUP3 SWAP1 SUB PUSH1 0x1F AND DUP3 ADD SWAP2 JUMPDEST POP POP POP POP POP SWAP1 POP SWAP1 JUMP JUMPDEST PUSH0 DUP1 PUSH2 0x6D2 PUSH2 0xEE3 JUMP JUMPDEST SWAP1 POP PUSH2 0x6DF DUP2 DUP6 DUP6 PUSH2 0xEEA JUMP JUMPDEST PUSH1 0x1 SWAP2 POP POP SWAP3 SWAP2 POP POP JUMP JUMPDEST PUSH0 PUSH1 0x8 SLOAD SWAP1 POP SWAP1 JUMP JUMPDEST PUSH0 PUSH1 0x2 SLOAD SWAP1 POP SWAP1 JUMP JUMPDEST PUSH0 DUP1 PUSH2 0x706 PUSH2 0xEE3 JUMP JUMPDEST SWAP1 POP PUSH2 0x713 DUP6 DUP3 DUP6 PUSH2 0xEFC JUMP JUMPDEST PUSH2 0x71E DUP6 DUP6 DUP6 PUSH2 0xF8F JUMP JUMPDEST PUSH1 0x1 SWAP2 POP POP SWAP4 SWAP3 POP POP POP JUMP JUMPDEST PUSH0 PUSH1 0x12 SWAP1 POP SWAP1 JUMP JUMPDEST PUSH0 PUSH2 0x73C DUP3 PUSH2 0x985 JUMP JUMPDEST SWAP1 POP SWAP2 SWAP1 POP JUMP JUMPDEST PUSH2 0x74B PUSH2 0x107F JUMP JUMPDEST PUSH0 SELFBALANCE SWAP1 POP PUSH0 DUP2 GT PUSH2 0x791 JUMPI PUSH1 0x40 MLOAD PUSH32 0x8C379A000000000000000000000000000000000000000000000000000000000 DUP2 MSTORE PUSH1 0x4 ADD PUSH2 0x788 SWAP1 PUSH2 0x1BA8 JUMP JUMPDEST PUSH1 0x40 MLOAD DUP1 SWAP2 SUB SWAP1 REVERT JUMPDEST PUSH2 0x799 PUSH2 0x9F5 JUMP JUMPDEST PUSH20 0xFFFFFFFFFFFFFFFFFFFFFFFFFFFFFFFFFFFFFFFF AND PUSH2 0x8FC DUP3 SWAP1 DUP2 ISZERO MUL SWAP1 PUSH1 0x40 MLOAD PUSH0 PUSH1 0x40 MLOAD DUP1 DUP4 SUB DUP2 DUP6 DUP9 DUP9 CALL SWAP4 POP POP POP POP ISZERO DUP1 ISZERO PUSH2 0x7DB JUMPI RETURNDATASIZE PUSH0 DUP1 RETURNDATACOPY RETURNDATASIZE PUSH0 REVERT JUMPDEST POP POP JUMP JUMPDEST PUSH2 0x7E7 PUSH2 0x107F JUMP JUMPDEST PUSH2 0x7EF PUSH2 0x1106 JUMP JUMPDEST JUMP JUMPDEST PUSH2 0x7F9 PUSH2 0x107F JUMP JUMPDEST PUSH2 0x801 PUSH2 0x1168 JUMP JUMPDEST PUSH1 0x6 SLOAD DUP2 PUSH1 0x8 SLOAD PUSH2 0x812 SWAP2 SWAP1 PUSH2 0x1BF3 JUMP JUMPDEST GT ISZERO PUSH2 0x853 JUMPI PUSH1 0x40 MLOAD PUSH32 0x8C379A000000000000000000000000000000000000000000000000000000000 DUP2 MSTORE PUSH1 0x4 ADD PUSH2 0x84A SWAP1 PUSH2 0x1C70 JUMP JUMPDEST PUSH1 0x40 MLOAD DUP1 SWAP2 SUB SWAP1 REVERT JUMPDEST PUSH2 0x85D DUP3 DUP3 PUSH2 0x11B2 JUMP JUMPDEST DUP1 PUSH1 0x8 PUSH0 DUP3 DUP3 SLOAD PUSH2 0x86E SWAP2 SWAP1 PUSH2 0x1BF3 JUMP JUMPDEST SWAP3 POP POP DUP2 SWAP1 SSTORE POP DUP2 PUSH20 0xFFFFFFFFFFFFFFFFFFFFFFFFFFFFFFFFFFFFFFFF AND PUSH32 0x3F2C9D57C068687834F0DE942A9BABB9E5ACAB57D516D3480A3C16EE165A4273 DUP3 PUSH1 0x40 MLOAD PUSH2 0x8BB SWAP2 SWAP1 PUSH2 0x19A8 JUMP JUMPDEST PUSH1 0x40 MLOAD DUP1 SWAP2 SUB SWAP1 LOG2 POP POP JUMP JUMPDEST PUSH2 0x8D1 CALLER DUP3 PUSH2 0x1231 JUMP JUMPDEST POP JUMP JUMPDEST PUSH0 PUSH1 0x7 SLOAD SWAP1 POP SWAP1 JUMP JUMPDEST PUSH0 PUSH1 0x5 PUSH1 0x14 SWAP1 SLOAD SWAP1 PUSH2 0x100 EXP SWAP1 DIV PUSH1 0xFF AND SWAP1 POP SWAP1 JUMP JUMPDEST PUSH2 0x8FB PUSH2 0x107F JUMP JUMPDEST PUSH0 DUP2 GT PUSH2 0x93D JUMPI PUSH1 0x40 MLOAD PUSH32 0x8C379A000000000000000000000000000000000000000000000000000000000 DUP2 MSTORE PUSH1 0x4 ADD PUSH2 0x934 SWAP1 PUSH2 0x1CD8 JUMP JUMPDEST PUSH1 0x40 MLOAD DUP1 SWAP2 SUB SWAP1 REVERT JUMPDEST DUP1 PUSH1 0x7 DUP2 SWAP1 SSTORE POP PUSH32 0x6B361C807733CC94A3B7BDA39C1C94DCC0511E91AA47B0F7F918068E93976890 DUP2 PUSH1 0x40 MLOAD PUSH2 0x973 SWAP2 SWAP1 PUSH2 0x19A8 JUMP JUMPDEST PUSH1 0x40 MLOAD DUP1 SWAP2 SUB SWAP1 LOG1 POP JUMP JUMPDEST PUSH0 SELFBALANCE SWAP1 POP SWAP1 JUMP JUMPDEST PUSH0 DUP1 PUSH0 DUP4 PUSH20 0xFFFFFFFFFFFFFFFFFFFFFFFFFFFFFFFFFFFFFFFF AND PUSH20 0xFFFFFFFFFFFFFFFFFFFFFFFFFFFFFFFFFFFFFFFF AND DUP2 MSTORE PUSH1 0x20 ADD SWAP1 DUP2 MSTORE PUSH1 0x20 ADD PUSH0 KECCAK256 SLOAD SWAP1 POP SWAP2 SWAP1 POP JUMP JUMPDEST PUSH2 0x9D2 PUSH2 0x107F JUMP JUMPDEST PUSH2 0x9DB PUSH0 PUSH2 0x12B0 JUMP JUMPDEST JUMP JUMPDEST PUSH1 0x7 SLOAD DUP2 JUMP JUMPDEST PUSH2 0x9EB PUSH2 0x107F JUMP JUMPDEST PUSH2 0x9F3 PUSH2 0x1373 JUMP JUMPDEST JUMP JUMPDEST PUSH0 PUSH1 0x5 PUSH0 SWAP1 SLOAD SWAP1 PUSH2 0x100 EXP SWAP1 DIV PUSH20 0xFFFFFFFFFFFFFFFFFFFFFFFFFFFFFFFFFFFFFFFF AND SWAP1 POP SWAP1 JUMP JUMPDEST PUSH1 0x60 PUSH1 0x4 DUP1 SLOAD PUSH2 0xA2C SWAP1 PUSH2 0x1B2E JUMP JUMPDEST DUP1 PUSH1 0x1F ADD PUSH1 0x20 DUP1 SWAP2 DIV MUL PUSH1 0x20 ADD PUSH1 0x40 MLOAD SWAP1 DUP2 ADD PUSH1 0x40 MSTORE DUP1 SWAP3 SWAP2 SWAP1 DUP2 DUP2 MSTORE PUSH1 0x20 ADD DUP3 DUP1 SLOAD PUSH2 0xA58 SWAP1 PUSH2 0x1B2E JUMP JUMPDEST DUP1 ISZERO PUSH2 0xAA3 JUMPI DUP1 PUSH1 0x1F LT PUSH2 0xA7A JUMPI PUSH2 0x100 DUP1 DUP4 SLOAD DIV MUL DUP4 MSTORE SWAP2 PUSH1 0x20 ADD SWAP2 PUSH2 0xAA3 JUMP JUMPDEST DUP3 ADD SWAP2 SWAP1 PUSH0 MSTORE PUSH1 0x20 PUSH0 KECCAK256 SWAP1 JUMPDEST DUP2 SLOAD DUP2 MSTORE SWAP1 PUSH1 0x1 ADD SWAP1 PUSH1 0x20 ADD DUP1 DUP4 GT PUSH2 0xA86 JUMPI DUP3 SWAP1 SUB PUSH1 0x1F AND DUP3 ADD SWAP2 JUMPDEST POP POP POP POP POP SWAP1 POP SWAP1 JUMP JUMPDEST PUSH1 0x8 SLOAD DUP2 JUMP JUMPDEST PUSH0 DUP1 PUSH2 0xABD PUSH2 0xEE3 JUMP JUMPDEST SWAP1 POP PUSH2 0xACA DUP2 DUP6 DUP6 PUSH2 0xF8F JUMP JUMPDEST PUSH1 0x1 SWAP2 POP POP SWAP3 SWAP2 POP POP JUMP JUMPDEST PUSH2 0xADD PUSH2 0x1168 JUMP JUMPDEST PUSH0 CALLVALUE GT PUSH2 0xB1F JUMPI PUSH1 0x40 MLOAD PUSH32 0x8C379A000000000000000000000000000000000000000000000000000000000 DUP2 MSTORE PUSH1 0x4 ADD PUSH2 0xB16 SWAP1 PUSH2 0x1D40 JUMP JUMPDEST PUSH1 0x40 MLOAD DUP1 SWAP2 SUB SWAP1 REVERT JUMPDEST PUSH0 PUSH8 0xDE0B6B3A7640000 PUSH1 0x7 SLOAD CALLVALUE PUSH2 0xB37 SWAP2 SWAP1 PUSH2 0x1D5E JUMP JUMPDEST PUSH2 0xB41 SWAP2 SWAP1 PUSH2 0x1DCC JUMP JUMPDEST SWAP1 POP PUSH1 0x6 SLOAD DUP2 PUSH1 0x8 SLOAD PUSH2 0xB54 SWAP2 SWAP1 PUSH2 0x1BF3 JUMP JUMPDEST GT ISZERO PUSH2 0xB95 JUMPI PUSH1 0x40 MLOAD PUSH32 0x8C379A000000000000000000000000000000000000000000000000000000000 DUP2 MSTORE PUSH1 0x4 ADD PUSH2 0xB8C SWAP1 PUSH2 0x1C70 JUMP JUMPDEST PUSH1 0x40 MLOAD DUP1 SWAP2 SUB SWAP1 REVERT JUMPDEST PUSH2 0xB9F CALLER DUP3 PUSH2 0x11B2 JUMP JUMPDEST DUP1 PUSH1 0x8 PUSH0 DUP3 DUP3 SLOAD PUSH2 0xBB0 SWAP2 SWAP1 PUSH2 0x1BF3 JUMP JUMPDEST SWAP3 POP POP DUP2 SWAP1 SSTORE POP CALLER PUSH20 0xFFFFFFFFFFFFFFFFFFFFFFFFFFFFFFFFFFFFFFFF AND PUSH32 0x8F28852646C20CC973D3A8218F7EEFED58C25C909F78F0265AF4818C3D4DC271 DUP3 PUSH1 0x40 MLOAD PUSH2 0xBFD SWAP2 SWAP1 PUSH2 0x19A8 JUMP JUMPDEST PUSH1 0x40 MLOAD DUP1 SWAP2 SUB SWAP1 LOG2 POP JUMP JUMPDEST PUSH1 0x6 SLOAD DUP2 JUMP JUMPDEST PUSH0 PUSH1 0x1 PUSH0 DUP5 PUSH20 0xFFFFFFFFFFFFFFFFFFFFFFFFFFFFFFFFFFFFFFFF AND PUSH20 0xFFFFFFFFFFFFFFFFFFFFFFFFFFFFFFFFFFFFFFFF AND DUP2 MSTORE PUSH1 0x20 ADD SWAP1 DUP2 MSTORE PUSH1 0x20 ADD PUSH0 KECCAK256 PUSH0 DUP4 PUSH20 0xFFFFFFFFFFFFFFFFFFFFFFFFFFFFFFFFFFFFFFFF AND PUSH20 0xFFFFFFFFFFFFFFFFFFFFFFFFFFFFFFFFFFFFFFFF AND DUP2 MSTORE PUSH1 0x20 ADD SWAP1 DUP2 MSTORE PUSH1 0x20 ADD PUSH0 KECCAK256 SLOAD SWAP1 POP SWAP3 SWAP2 POP POP JUMP JUMPDEST PUSH2 0xC98 PUSH2 0x107F JUMP JUMPDEST PUSH0 PUSH20 0xFFFFFFFFFFFFFFFFFFFFFFFFFFFFFFFFFFFFFFFF AND DUP2 PUSH20 0xFFFFFFFFFFFFFFFFFFFFFFFFFFFFFFFFFFFFFFFF AND SUB PUSH2 0xD08 JUMPI PUSH0 PUSH1 0x40 MLOAD PUSH32 0x1E4FBDF700000000000000000000000000000000000000000000000000000000 DUP2 MSTORE PUSH1 0x4 ADD PUSH2 0xCFF SWAP2 SWAP1 PUSH2 0x1AAA JUMP JUMPDEST PUSH1 0x40 MLOAD DUP1 SWAP2 SUB SWAP1 REVERT JUMPDEST PUSH2 0xD11 DUP2 PUSH2 0x12B0 JUMP JUMPDEST POP JUMP JUMPDEST PUSH2 0xD1C PUSH2 0x1168 JUMP JUMPDEST PUSH0 DUP2 GT PUSH2 0xD5E JUMPI PUSH1 0x40 MLOAD PUSH32 0x8C379A000000000000000000000000000000000000000000000000000000000 DUP2 MSTORE PUSH1 0x4 ADD PUSH2 0xD55 SWAP1 PUSH2 0x1E6C JUMP JUMPDEST PUSH1 0x40 MLOAD DUP1 SWAP2 SUB SWAP1 REVERT JUMPDEST PUSH0 PUSH1 0x7 SLOAD PUSH8 0xDE0B6B3A7640000 DUP4 PUSH2 0xD76 SWAP2 SWAP1 PUSH2 0x1D5E JUMP JUMPDEST PUSH2 0xD80 SWAP2 SWAP1 PUSH2 0x1DCC JUMP JUMPDEST SWAP1 POP DUP1 CALLVALUE LT ISZERO PUSH2 0xDC5 JUMPI PUSH1 0x40 MLOAD PUSH32 0x8C379A000000000000000000000000000000000000000000000000000000000 DUP2 MSTORE PUSH1 0x4 ADD PUSH2 0xDBC SWAP1 PUSH2 0x1ED4 JUMP JUMPDEST PUSH1 0x40 MLOAD DUP1 SWAP2 SUB SWAP1 REVERT JUMPDEST PUSH1 0x6 SLOAD DUP3 PUSH1 0x8 SLOAD PUSH2 0xDD6 SWAP2 SWAP1 PUSH2 0x1BF3 JUMP JUMPDEST GT ISZERO PUSH2 0xE17 JUMPI PUSH1 0x40 MLOAD PUSH32 0x8C379A000000000000000000000000000000000000000000000000000000000 DUP2 MSTORE PUSH1 0x4 ADD PUSH2 0xE0E SWAP1 PUSH2 0x1C70 JUMP JUMPDEST PUSH1 0x40 MLOAD DUP1 SWAP2 SUB SWAP1 REVERT JUMPDEST PUSH2 0xE21 CALLER DUP4 PUSH2 0x11B2 JUMP JUMPDEST DUP2 PUSH1 0x8 PUSH0 DUP3 DUP3 SLOAD PUSH2 0xE32 SWAP2 SWAP1 PUSH2 0x1BF3 JUMP JUMPDEST SWAP3 POP POP DUP2 SWAP1 SSTORE POP DUP1 CALLVALUE GT ISZERO PUSH2 0xE91 JUMPI CALLER PUSH20 0xFFFFFFFFFFFFFFFFFFFFFFFFFFFFFFFFFFFFFFFF AND PUSH2 0x8FC DUP3 CALLVALUE PUSH2 0xE67 SWAP2 SWAP1 PUSH2 0x1EF2 JUMP JUMPDEST SWAP1 DUP2 ISZERO MUL SWAP1 PUSH1 0x40 MLOAD PUSH0 PUSH1 0x40 MLOAD DUP1 DUP4 SUB DUP2 DUP6 DUP9 DUP9 CALL SWAP4 POP POP POP POP ISZERO DUP1 ISZERO PUSH2 0xE8F JUMPI RETURNDATASIZE PUSH0 DUP1 RETURNDATACOPY RETURNDATASIZE PUSH0 REVERT JUMPDEST POP JUMPDEST CALLER PUSH20 0xFFFFFFFFFFFFFFFFFFFFFFFFFFFFFFFFFFFFFFFF AND PUSH32 0x8F28852646C20CC973D3A8218F7EEFED58C25C909F78F0265AF4818C3D4DC271 DUP4 PUSH1 0x40 MLOAD PUSH2 0xED7 SWAP2 SWAP1 PUSH2 0x19A8 JUMP JUMPDEST PUSH1 0x40 MLOAD DUP1 SWAP2 SUB SWAP1 LOG2 POP POP JUMP JUMPDEST PUSH0 CALLER SWAP1 POP SWAP1 JUMP JUMPDEST PUSH2 0xEF7 DUP4 DUP4 DUP4 PUSH1 0x1 PUSH2 0x13D6 JUMP JUMPDEST POP POP POP JUMP JUMPDEST PUSH0 PUSH2 0xF07 DUP5 DUP5 PUSH2 0xC0E JUMP JUMPDEST SWAP1 POP PUSH32 0xFFFFFFFFFFFFFFFFFFFFFFFFFFFFFFFFFFFFFFFFFFFFFFFFFFFFFFFFFFFFFFFF DUP2 LT ISZERO PUSH2 0xF89 JUMPI DUP2 DUP2 LT ISZERO PUSH2 0xF7A JUMPI DUP3 DUP2 DUP4 PUSH1 0x40 MLOAD PUSH32 0xFB8F41B200000000000000000000000000000000000000000000000000000000 DUP2 MSTORE PUSH1 0x4 ADD PUSH2 0xF71 SWAP4 SWAP3 SWAP2 SWAP1 PUSH2 0x1F25 JUMP JUMPDEST PUSH1 0x40 MLOAD DUP1 SWAP2 SUB SWAP1 REVERT JUMPDEST PUSH2 0xF88 DUP5 DUP5 DUP5 DUP5 SUB PUSH0 PUSH2 0x13D6 JUMP JUMPDEST JUMPDEST POP POP POP POP JUMP JUMPDEST PUSH0 PUSH20 0xFFFFFFFFFFFFFFFFFFFFFFFFFFFFFFFFFFFFFFFF AND DUP4 PUSH20 0xFFFFFFFFFFFFFFFFFFFFFFFFFFFFFFFFFFFFFFFF AND SUB PUSH2 0xFFF JUMPI PUSH0 PUSH1 0x40 MLOAD PUSH32 0x96C6FD1E00000000000000000000000000000000000000000000000000000000 DUP2 MSTORE PUSH1 0x4 ADD PUSH2 0xFF6 SWAP2 SWAP1 PUSH2 0x1AAA JUMP JUMPDEST PUSH1 0x40 MLOAD DUP1 SWAP2 SUB SWAP1 REVERT JUMPDEST PUSH0 PUSH20 0xFFFFFFFFFFFFFFFFFFFFFFFFFFFFFFFFFFFFFFFF AND DUP3 PUSH20 0xFFFFFFFFFFFFFFFFFFFFFFFFFFFFFFFFFFFFFFFF AND SUB PUSH2 0x106F JUMPI PUSH0 PUSH1 0x40 MLOAD PUSH32 0xEC442F0500000000000000000000000000000000000000000000000000000000 DUP2 MSTORE PUSH1 0x4 ADD PUSH2 0x1066 SWAP2 SWAP1 PUSH2 0x1AAA JUMP JUMPDEST PUSH1 0x40 MLOAD DUP1 SWAP2 SUB SWAP1 REVERT JUMPDEST PUSH2 0x107A DUP4 DUP4 DUP4 PUSH2 0x15A5 JUMP JUMPDEST POP POP POP JUMP JUMPDEST PUSH2 0x1087 PUSH2 0xEE3 JUMP JUMPDEST PUSH20 0xFFFFFFFFFFFFFFFFFFFFFFFFFFFFFFFFFFFFFFFF AND PUSH2 0x10A5 PUSH2 0x9F5 JUMP JUMPDEST PUSH20 0xFFFFFFFFFFFFFFFFFFFFFFFFFFFFFFFFFFFFFFFF AND EQ PUSH2 0x1104 JUMPI PUSH2 0x10C8 PUSH2 0xEE3 JUMP JUMPDEST PUSH1 0x40 MLOAD PUSH32 0x118CDAA700000000000000000000000000000000000000000000000000000000 DUP2 MSTORE PUSH1 0x4 ADD PUSH2 0x10FB SWAP2 SWAP1 PUSH2 0x1AAA JUMP JUMPDEST PUSH1 0x40 MLOAD DUP1 SWAP2 SUB SWAP1 REVERT JUMPDEST JUMP JUMPDEST PUSH2 0x110E PUSH2 0x17BE JUMP JUMPDEST PUSH0 PUSH1 0x5 PUSH1 0x14 PUSH2 0x100 EXP DUP2 SLOAD DUP2 PUSH1 0xFF MUL NOT AND SWAP1 DUP4 ISZERO ISZERO MUL OR SWAP1 SSTORE POP PUSH32 0x5DB9EE0A495BF2E6FF9C91A7834C1BA4FDD244A5E8AA4E537BD38AEAE4B073AA PUSH2 0x1151 PUSH2 0xEE3 JUMP JUMPDEST PUSH1 0x40 MLOAD PUSH2 0x115E SWAP2 SWAP1 PUSH2 0x1AAA JUMP JUMPDEST PUSH1 0x40 MLOAD DUP1 SWAP2 SUB SWAP1 LOG1 JUMP JUMPDEST PUSH2 0x1170 PUSH2 0x8DD JUMP JUMPDEST ISZERO PUSH2 0x11B0 JUMPI PUSH1 0x40 MLOAD PUSH32 0x8C379A000000000000000000000000000000000000000000000000000000000 DUP2 MSTORE PUSH1 0x4 ADD PUSH2 0x11A7 SWAP1 PUSH2 0x1FA4 JUMP JUMPDEST PUSH1 0x40 MLOAD DUP1 SWAP2 SUB SWAP1 REVERT JUMPDEST JUMP JUMPDEST PUSH0 PUSH20 0xFFFFFFFFFFFFFFFFFFFFFFFFFFFFFFFFFFFFFFFF AND DUP3 PUSH20 0xFFFFFFFFFFFFFFFFFFFFFFFFFFFFFFFFFFFFFFFF AND SUB PUSH2 0x1222 JUMPI PUSH0 PUSH1 0x40 MLOAD PUSH32 0xEC442F0500000000000000000000000000000000000000000000000000000000 DUP2 MSTORE PUSH1 0x4 ADD PUSH2 0x1219 SWAP2 SWAP1 PUSH2 0x1AAA JUMP JUMPDEST PUSH1 0x40 MLOAD DUP1 SWAP2 SUB SWAP1 REVERT JUMPDEST PUSH2 0x122D PUSH0 DUP4 DUP4 PUSH2 0x15A5 JUMP JUMPDEST POP POP JUMP JUMPDEST PUSH0 PUSH20 0xFFFFFFFFFFFFFFFFFFFFFFFFFFFFFFFFFFFFFFFF AND DUP3 PUSH20 0xFFFFFFFFFFFFFFFFFFFFFFFFFFFFFFFFFFFFFFFF AND SUB PUSH2 0x12A1 JUMPI PUSH0 PUSH1 0x40 MLOAD PUSH32 0x96C6FD1E00000000000000000000000000000000000000000000000000000000 DUP2 MSTORE PUSH1 0x4 ADD PUSH2 0x1298 SWAP2 SWAP1 PUSH2 0x1AAA JUMP JUMPDEST PUSH1 0x40 MLOAD DUP1 SWAP2 SUB SWAP1 REVERT JUMPDEST PUSH2 0x12AC DUP3 PUSH0 DUP4 PUSH2 0x15A5 JUMP JUMPDEST POP POP JUMP JUMPDEST PUSH0 PUSH1 0x5 PUSH0 SWAP1 SLOAD SWAP1 PUSH2 0x100 EXP SWAP1 DIV PUSH20 0xFFFFFFFFFFFFFFFFFFFFFFFFFFFFFFFFFFFFFFFF AND SWAP1 POP DUP2 PUSH1 0x5 PUSH0 PUSH2 0x100 EXP DUP2 SLOAD DUP2 PUSH20 0xFFFFFFFFFFFFFFFFFFFFFFFFFFFFFFFFFFFFFFFF MUL NOT AND SWAP1 DUP4 PUSH20 0xFFFFFFFFFFFFFFFFFFFFFFFFFFFFFFFFFFFFFFFF AND MUL OR SWAP1 SSTORE POP DUP2 PUSH20 0xFFFFFFFFFFFFFFFFFFFFFFFFFFFFFFFFFFFFFFFF AND DUP2 PUSH20 0xFFFFFFFFFFFFFFFFFFFFFFFFFFFFFFFFFFFFFFFF AND PUSH32 0x8BE0079C531659141344CD1FD0A4F28419497F9722A3DAAFE3B4186F6B6457E0 PUSH1 0x40 MLOAD PUSH1 0x40 MLOAD DUP1 SWAP2 SUB SWAP1 LOG3 POP POP JUMP JUMPDEST PUSH2 0x137B PUSH2 0x1168 JUMP JUMPDEST PUSH1 0x1 PUSH1 0x5 PUSH1 0x14 PUSH2 0x100 EXP DUP2 SLOAD DUP2 PUSH1 0xFF MUL NOT AND SWAP1 DUP4 ISZERO ISZERO MUL OR SWAP1 SSTORE POP PUSH32 0x62E78CEA01BEE320CD4E420270B5EA74000D11B0C9F74754EBDBFC544B05A258 PUSH2 0x13BF PUSH2 0xEE3 JUMP JUMPDEST PUSH1 0x40 MLOAD PUSH2 0x13CC SWAP2 SWAP1 PUSH2 0x1AAA JUMP JUMPDEST PUSH1 0x40 MLOAD DUP1 SWAP2 SUB SWAP1 LOG1 JUMP JUMPDEST PUSH0 PUSH20 0xFFFFFFFFFFFFFFFFFFFFFFFFFFFFFFFFFFFFFFFF AND DUP5 PUSH20 0xFFFFFFFFFFFFFFFFFFFFFFFFFFFFFFFFFFFFFFFF AND SUB PUSH2 0x1446 JUMPI PUSH0 PUSH1 0x40 MLOAD PUSH32 0xE602DF0500000000000000000000000000000000000000000000000000000000 DUP2 MSTORE PUSH1 0x4 ADD PUSH2 0x143D SWAP2 SWAP1 PUSH2 0x1AAA JUMP JUMPDEST PUSH1 0x40 MLOAD DUP1 SWAP2 SUB SWAP1 REVERT JUMPDEST PUSH0 PUSH20 0xFFFFFFFFFFFFFFFFFFFFFFFFFFFFFFFFFFFFFFFF AND DUP4 PUSH20 0xFFFFFFFFFFFFFFFFFFFFFFFFFFFFFFFFFFFFFFFF AND SUB PUSH2 0x14B6 JUMPI PUSH0 PUSH1 0x40 MLOAD PUSH32 0x94280D6200000000000000000000000000000000000000000000000000000000 DUP2 MSTORE PUSH1 0x4 ADD PUSH2 0x14AD SWAP2 SWAP1 PUSH2 0x1AAA JUMP JUMPDEST PUSH1 0x40 MLOAD DUP1 SWAP2 SUB SWAP1 REVERT JUMPDEST DUP2 PUSH1 0x1 PUSH0 DUP7 PUSH20 0xFFFFFFFFFFFFFFFFFFFFFFFFFFFFFFFFFFFFFFFF AND PUSH20 0xFFFFFFFFFFFFFFFFFFFFFFFFFFFFFFFFFFFFFFFF AND DUP2 MSTORE PUSH1 0x20 ADD SWAP1 DUP2 MSTORE PUSH1 0x20 ADD PUSH0 KECCAK256 PUSH0 DUP6 PUSH20 0xFFFFFFFFFFFFFFFFFFFFFFFFFFFFFFFFFFFFFFFF AND PUSH20 0xFFFFFFFFFFFFFFFFFFFFFFFFFFFFFFFFFFFFFFFF AND DUP2 MSTORE PUSH1 0x20 ADD SWAP1 DUP2 MSTORE PUSH1 0x20 ADD PUSH0 KECCAK256 DUP2 SWAP1 SSTORE POP DUP1 ISZERO PUSH2 0x159F JUMPI DUP3 PUSH20 0xFFFFFFFFFFFFFFFFFFFFFFFFFFFFFFFFFFFFFFFF AND DUP5 PUSH20 0xFFFFFFFFFFFFFFFFFFFFFFFFFFFFFFFFFFFFFFFF AND PUSH32 0x8C5BE1E5EBEC7D5BD14F71427D1E84F3DD0314C0F7B2291E5B200AC8C7C3B925 DUP5 PUSH1 0x40 MLOAD PUSH2 0x1596 SWAP2 SWAP1 PUSH2 0x19A8 JUMP JUMPDEST PUSH1 0x40 MLOAD DUP1 SWAP2 SUB SWAP1 LOG3 JUMPDEST POP POP POP POP JUMP JUMPDEST PUSH0 PUSH20 0xFFFFFFFFFFFFFFFFFFFFFFFFFFFFFFFFFFFFFFFF AND DUP4 PUSH20 0xFFFFFFFFFFFFFFFFFFFFFFFFFFFFFFFFFFFFFFFF AND SUB PUSH2 0x15F5 JUMPI DUP1 PUSH1 0x2 PUSH0 DUP3 DUP3 SLOAD PUSH2 0x15E9 SWAP2 SWAP1 PUSH2 0x1BF3 JUMP JUMPDEST SWAP3 POP POP DUP2 SWAP1 SSTORE POP PUSH2 0x16C3 JUMP JUMPDEST PUSH0 DUP1 PUSH0 DUP6 PUSH20 0xFFFFFFFFFFFFFFFFFFFFFFFFFFFFFFFFFFFFFFFF AND PUSH20 0xFFFFFFFFFFFFFFFFFFFFFFFFFFFFFFFFFFFFFFFF AND DUP2 MSTORE PUSH1 0x20 ADD SWAP1 DUP2 MSTORE PUSH1 0x20 ADD PUSH0 KECCAK256 SLOAD SWAP1 POP DUP2 DUP2 LT ISZERO PUSH2 0x167E JUMPI DUP4 DUP2 DUP4 PUSH1 0x40 MLOAD PUSH32 0xE450D38C00000000000000000000000000000000000000000000000000000000 DUP2 MSTORE PUSH1 0x4 ADD PUSH2 0x1675 SWAP4 SWAP3 SWAP2 SWAP1 PUSH2 0x1F25 JUMP JUMPDEST PUSH1 0x40 MLOAD DUP1 SWAP2 SUB SWAP1 REVERT JUMPDEST DUP2 DUP2 SUB PUSH0 DUP1 DUP7 PUSH20 0xFFFFFFFFFFFFFFFFFFFFFFFFFFFFFFFFFFFFFFFF AND PUSH20 0xFFFFFFFFFFFFFFFFFFFFFFFFFFFFFFFFFFFFFFFF AND DUP2 MSTORE PUSH1 0x20 ADD SWAP1 DUP2 MSTORE PUSH1 0x20 ADD PUSH0 KECCAK256 DUP2 SWAP1 SSTORE POP POP JUMPDEST PUSH0 PUSH20 0xFFFFFFFFFFFFFFFFFFFFFFFFFFFFFFFFFFFFFFFF AND DUP3 PUSH20 0xFFFFFFFFFFFFFFFFFFFFFFFFFFFFFFFFFFFFFFFF AND SUB PUSH2 0x170A JUMPI DUP1 PUSH1 0x2 PUSH0 DUP3 DUP3 SLOAD SUB SWAP3 POP POP DUP2 SWAP1 SSTORE POP PUSH2 0x1754 JUMP JUMPDEST DUP1 PUSH0 DUP1 DUP5 PUSH20 0xFFFFFFFFFFFFFFFFFFFFFFFFFFFFFFFFFFFFFFFF AND PUSH20 0xFFFFFFFFFFFFFFFFFFFFFFFFFFFFFFFFFFFFFFFF AND DUP2 MSTORE PUSH1 0x20 ADD SWAP1 DUP2 MSTORE PUSH1 0x20 ADD PUSH0 KECCAK256 PUSH0 DUP3 DUP3 SLOAD ADD SWAP3 POP POP DUP2 SWAP1 SSTORE POP JUMPDEST DUP2 PUSH20 0xFFFFFFFFFFFFFFFFFFFFFFFFFFFFFFFFFFFFFFFF AND DUP4 PUSH20 0xFFFFFFFFFFFFFFFFFFFFFFFFFFFFFFFFFFFFFFFF AND PUSH32 0xDDF252AD1BE2C89B69C2B068FC378DAA952BA7F163C4A11628F55A4DF523B3EF DUP4 PUSH1 0x40 MLOAD PUSH2 0x17B1 SWAP2 SWAP1 PUSH2 0x19A8 JUMP JUMPDEST PUSH1 0x40 MLOAD DUP1 SWAP2 SUB SWAP1 LOG3 POP POP POP JUMP JUMPDEST PUSH2 0x17C6 PUSH2 0x8DD JUMP JUMPDEST PUSH2 0x1805 JUMPI PUSH1 0x40 MLOAD PUSH32 0x8C379A000000000000000000000000000000000000000000000000000000000 DUP2 MSTORE PUSH1 0x4 ADD PUSH2 0x17FC SWAP1 PUSH2 0x200C JUMP JUMPDEST PUSH1 0x40 MLOAD DUP1 SWAP2 SUB SWAP1 REVERT JUMPDEST JUMP JUMPDEST PUSH0 DUP2 MLOAD SWAP1 POP SWAP2 SWAP1 POP JUMP JUMPDEST PUSH0 DUP3 DUP3 MSTORE PUSH1 0x20 DUP3 ADD SWAP1 POP SWAP3 SWAP2 POP POP JUMP JUMPDEST DUP3 DUP2 DUP4 MCOPY PUSH0 DUP4 DUP4 ADD MSTORE POP POP POP JUMP JUMPDEST PUSH0 PUSH1 0x1F NOT PUSH1 0x1F DUP4 ADD AND SWAP1 POP SWAP2 SWAP1 POP JUMP JUMPDEST PUSH0 PUSH2 0x1849 DUP3 PUSH2 0x1807 JUMP JUMPDEST PUSH2 0x1853 DUP2 DUP6 PUSH2 0x1811 JUMP JUMPDEST SWAP4 POP PUSH2 0x1863 DUP2 DUP6 PUSH1 0x20 DUP7 ADD PUSH2 0x1821 JUMP JUMPDEST PUSH2 0x186C DUP2 PUSH2 0x182F JUMP JUMPDEST DUP5 ADD SWAP2 POP POP SWAP3 SWAP2 POP POP JUMP JUMPDEST PUSH0 PUSH1 0x20 DUP3 ADD SWAP1 POP DUP2 DUP2 SUB PUSH0 DUP4 ADD MSTORE PUSH2 0x188F DUP2 DUP5 PUSH2 0x183F JUMP JUMPDEST SWAP1 POP SWAP3 SWAP2 POP POP JUMP JUMPDEST PUSH0 DUP1 REVERT JUMPDEST PUSH0 PUSH20 0xFFFFFFFFFFFFFFFFFFFFFFFFFFFFFFFFFFFFFFFF DUP3 AND SWAP1 POP SWAP2 SWAP1 POP JUMP JUMPDEST PUSH0 PUSH2 0x18C4 DUP3 PUSH2 0x189B JUMP JUMPDEST SWAP1 POP SWAP2 SWAP1 POP JUMP JUMPDEST PUSH2 0x18D4 DUP2 PUSH2 0x18BA JUMP JUMPDEST DUP2 EQ PUSH2 0x18DE JUMPI PUSH0 DUP1 REVERT JUMPDEST POP JUMP JUMPDEST PUSH0 DUP2 CALLDATALOAD SWAP1 POP PUSH2 0x18EF DUP2 PUSH2 0x18CB JUMP JUMPDEST SWAP3 SWAP2 POP POP JUMP JUMPDEST PUSH0 DUP2 SWAP1 POP SWAP2 SWAP1 POP JUMP JUMPDEST PUSH2 0x1907 DUP2 PUSH2 0x18F5 JUMP JUMPDEST DUP2 EQ PUSH2 0x1911 JUMPI PUSH0 DUP1 REVERT JUMPDEST POP JUMP JUMPDEST PUSH0 DUP2 CALLDATALOAD SWAP1 POP PUSH2 0x1922 DUP2 PUSH2 0x18FE JUMP JUMPDEST SWAP3 SWAP2 POP POP JUMP JUMPDEST PUSH0 DUP1 PUSH1 0x40 DUP4 DUP6 SUB SLT ISZERO PUSH2 0x193E JUMPI PUSH2 0x193D PUSH2 0x1897 JUMP JUMPDEST JUMPDEST PUSH0 PUSH2 0x194B DUP6 DUP3 DUP7 ADD PUSH2 0x18E1 JUMP JUMPDEST SWAP3 POP POP PUSH1 0x20 PUSH2 0x195C DUP6 DUP3 DUP7 ADD PUSH2 0x1914 JUMP JUMPDEST SWAP2 POP POP SWAP3 POP SWAP3 SWAP1 POP JUMP JUMPDEST PUSH0 DUP2 ISZERO ISZERO SWAP1 POP SWAP2 SWAP1 POP JUMP JUMPDEST PUSH2 0x197A DUP2 PUSH2 0x1966 JUMP JUMPDEST DUP3 MSTORE POP POP JUMP JUMPDEST PUSH0 PUSH1 0x20 DUP3 ADD SWAP1 POP PUSH2 0x1993 PUSH0 DUP4 ADD DUP5 PUSH2 0x1971 JUMP JUMPDEST SWAP3 SWAP2 POP POP JUMP JUMPDEST PUSH2 0x19A2 DUP2 PUSH2 0x18F5 JUMP JUMPDEST DUP3 MSTORE POP POP JUMP JUMPDEST PUSH0 PUSH1 0x20 DUP3 ADD SWAP1 POP PUSH2 0x19BB PUSH0 DUP4 ADD DUP5 PUSH2 0x1999 JUMP JUMPDEST SWAP3 SWAP2 POP POP JUMP JUMPDEST PUSH0 DUP1 PUSH0 PUSH1 0x60 DUP5 DUP7 SUB SLT ISZERO PUSH2 0x19D8 JUMPI PUSH2 0x19D7 PUSH2 0x1897 JUMP JUMPDEST JUMPDEST PUSH0 PUSH2 0x19E5 DUP7 DUP3 DUP8 ADD PUSH2 0x18E1 JUMP JUMPDEST SWAP4 POP POP PUSH1 0x20 PUSH2 0x19F6 DUP7 DUP3 DUP8 ADD PUSH2 0x18E1 JUMP JUMPDEST SWAP3 POP POP PUSH1 0x40 PUSH2 0x1A07 DUP7 DUP3 DUP8 ADD PUSH2 0x1914 JUMP JUMPDEST SWAP2 POP POP SWAP3 POP SWAP3 POP SWAP3 JUMP JUMPDEST PUSH0 PUSH1 0xFF DUP3 AND SWAP1 POP SWAP2 SWAP1 POP JUMP JUMPDEST PUSH2 0x1A26 DUP2 PUSH2 0x1A11 JUMP JUMPDEST DUP3 MSTORE POP POP JUMP JUMPDEST PUSH0 PUSH1 0x20 DUP3 ADD SWAP1 POP PUSH2 0x1A3F PUSH0 DUP4 ADD DUP5 PUSH2 0x1A1D JUMP JUMPDEST SWAP3 SWAP2 POP POP JUMP JUMPDEST PUSH0 PUSH1 0x20 DUP3 DUP5 SUB SLT ISZERO PUSH2 0x1A5A JUMPI PUSH2 0x1A59 PUSH2 0x1897 JUMP JUMPDEST JUMPDEST PUSH0 PUSH2 0x1A67 DUP5 DUP3 DUP6 ADD PUSH2 0x18E1 JUMP JUMPDEST SWAP2 POP POP SWAP3 SWAP2 POP POP JUMP JUMPDEST PUSH0 PUSH1 0x20 DUP3 DUP5 SUB SLT ISZERO PUSH2 0x1A85 JUMPI PUSH2 0x1A84 PUSH2 0x1897 JUMP JUMPDEST JUMPDEST PUSH0 PUSH2 0x1A92 DUP5 DUP3 DUP6 ADD PUSH2 0x1914 JUMP JUMPDEST SWAP2 POP POP SWAP3 SWAP2 POP POP JUMP JUMPDEST PUSH2 0x1AA4 DUP2 PUSH2 0x18BA JUMP JUMPDEST DUP3 MSTORE POP POP JUMP JUMPDEST PUSH0 PUSH1 0x20 DUP3 ADD SWAP1 POP PUSH2 0x1ABD PUSH0 DUP4 ADD DUP5 PUSH2 0x1A9B JUMP JUMPDEST SWAP3 SWAP2 POP POP JUMP JUMPDEST PUSH0 DUP1 PUSH1 0x40 DUP4 DUP6 SUB SLT ISZERO PUSH2 0x1AD9 JUMPI PUSH2 0x1AD8 PUSH2 0x1897 JUMP JUMPDEST JUMPDEST PUSH0 PUSH2 0x1AE6 DUP6 DUP3 DUP7 ADD PUSH2 0x18E1 JUMP JUMPDEST SWAP3 POP POP PUSH1 0x20 PUSH2 0x1AF7 DUP6 DUP3 DUP7 ADD PUSH2 0x18E1 JUMP JUMPDEST SWAP2 POP POP SWAP3 POP SWAP3 SWAP1 POP JUMP JUMPDEST PUSH32 0x4E487B7100000000000000000000000000000000000000000000000000000000 PUSH0 MSTORE PUSH1 0x22 PUSH1 0x4 MSTORE PUSH1 0x24 PUSH0 REVERT JUMPDEST PUSH0 PUSH1 0x2 DUP3 DIV SWAP1 POP PUSH1 0x1 DUP3 AND DUP1 PUSH2 0x1B45 JUMPI PUSH1 0x7F DUP3 AND SWAP2 POP JUMPDEST PUSH1 0x20 DUP3 LT DUP2 SUB PUSH2 0x1B58 JUMPI PUSH2 0x1B57 PUSH2 0x1B01 JUMP JUMPDEST JUMPDEST POP SWAP2 SWAP1 POP JUMP JUMPDEST PUSH32 0x4E6F2045544820746F2077697468647261770000000000000000000000000000 PUSH0 DUP3 ADD MSTORE POP JUMP JUMPDEST PUSH0 PUSH2 0x1B92 PUSH1 0x12 DUP4 PUSH2 0x1811 JUMP JUMPDEST SWAP2 POP PUSH2 0x1B9D DUP3 PUSH2 0x1B5E JUMP JUMPDEST PUSH1 0x20 DUP3 ADD SWAP1 POP SWAP2 SWAP1 POP JUMP JUMPDEST PUSH0 PUSH1 0x20 DUP3 ADD SWAP1 POP DUP2 DUP2 SUB PUSH0 DUP4 ADD MSTORE PUSH2 0x1BBF DUP2 PUSH2 0x1B86 JUMP JUMPDEST SWAP1 POP SWAP2 SWAP1 POP JUMP JUMPDEST PUSH32 0x4E487B7100000000000000000000000000000000000000000000000000000000 PUSH0 MSTORE PUSH1 0x11 PUSH1 0x4 MSTORE PUSH1 0x24 PUSH0 REVERT JUMPDEST PUSH0 PUSH2 0x1BFD DUP3 PUSH2 0x18F5 JUMP JUMPDEST SWAP2 POP PUSH2 0x1C08 DUP4 PUSH2 0x18F5 JUMP JUMPDEST SWAP3 POP DUP3 DUP3 ADD SWAP1 POP DUP1 DUP3 GT ISZERO PUSH2 0x1C20 JUMPI PUSH2 0x1C1F PUSH2 0x1BC6 JUMP JUMPDEST JUMPDEST SWAP3 SWAP2 POP POP JUMP JUMPDEST PUSH32 0x45786365656473206D617820737570706C790000000000000000000000000000 PUSH0 DUP3 ADD MSTORE POP JUMP JUMPDEST PUSH0 PUSH2 0x1C5A PUSH1 0x12 DUP4 PUSH2 0x1811 JUMP JUMPDEST SWAP2 POP PUSH2 0x1C65 DUP3 PUSH2 0x1C26 JUMP JUMPDEST PUSH1 0x20 DUP3 ADD SWAP1 POP SWAP2 SWAP1 POP JUMP JUMPDEST PUSH0 PUSH1 0x20 DUP3 ADD SWAP1 POP DUP2 DUP2 SUB PUSH0 DUP4 ADD MSTORE PUSH2 0x1C87 DUP2 PUSH2 0x1C4E JUMP JUMPDEST SWAP1 POP SWAP2 SWAP1 POP JUMP JUMPDEST PUSH32 0x5072696365206D7573742062652067726561746572207468616E203000000000 PUSH0 DUP3 ADD MSTORE POP JUMP JUMPDEST PUSH0 PUSH2 0x1CC2 PUSH1 0x1C DUP4 PUSH2 0x1811 JUMP JUMPDEST SWAP2 POP PUSH2 0x1CCD DUP3 PUSH2 0x1C8E JUMP JUMPDEST PUSH1 0x20 DUP3 ADD SWAP1 POP SWAP2 SWAP1 POP JUMP JUMPDEST PUSH0 PUSH1 0x20 DUP3 ADD SWAP1 POP DUP2 DUP2 SUB PUSH0 DUP4 ADD MSTORE PUSH2 0x1CEF DUP2 PUSH2 0x1CB6 JUMP JUMPDEST SWAP1 POP SWAP2 SWAP1 POP JUMP JUMPDEST PUSH32 0x53656E642045544820746F2062757920746F6B656E7300000000000000000000 PUSH0 DUP3 ADD MSTORE POP JUMP JUMPDEST PUSH0 PUSH2 0x1D2A PUSH1 0x16 DUP4 PUSH2 0x1811 JUMP JUMPDEST SWAP2 POP PUSH2 0x1D35 DUP3 PUSH2 0x1CF6 JUMP JUMPDEST PUSH1 0x20 DUP3 ADD SWAP1 POP SWAP2 SWAP1 POP JUMP JUMPDEST PUSH0 PUSH1 0x20 DUP3 ADD SWAP1 POP DUP2 DUP2 SUB PUSH0 DUP4 ADD MSTORE PUSH2 0x1D57 DUP2 PUSH2 0x1D1E JUMP JUMPDEST SWAP1 POP SWAP2 SWAP1 POP JUMP JUMPDEST PUSH0 PUSH2 0x1D68 DUP3 PUSH2 0x18F5 JUMP JUMPDEST SWAP2 POP PUSH2 0x1D73 DUP4 PUSH2 0x18F5 JUMP JUMPDEST SWAP3 POP DUP3 DUP3 MUL PUSH2 0x1D81 DUP2 PUSH2 0x18F5 JUMP JUMPDEST SWAP2 POP DUP3 DUP3 DIV DUP5 EQ DUP4 ISZERO OR PUSH2 0x1D98 JUMPI PUSH2 0x1D97 PUSH2 0x1BC6 JUMP JUMPDEST JUMPDEST POP SWAP3 SWAP2 POP POP JUMP JUMPDEST PUSH32 0x4E487B7100000000000000000000000000000000000000000000000000000000 PUSH0 MSTORE PUSH1 0x12 PUSH1 0x4 MSTORE PUSH1 0x24 PUSH0 REVERT JUMPDEST PUSH0 PUSH2 0x1DD6 DUP3 PUSH2 0x18F5 JUMP JUMPDEST SWAP2 POP PUSH2 0x1DE1 DUP4 PUSH2 0x18F5 JUMP JUMPDEST SWAP3 POP DUP3 PUSH2 0x1DF1 JUMPI PUSH2 0x1DF0 PUSH2 0x1D9F JUMP JUMPDEST JUMPDEST DUP3 DUP3 DIV SWAP1 POP SWAP3 SWAP2 POP POP JUMP JUMPDEST PUSH32 0x546F6B656E20616D6F756E74206D757374206265206772656174657220746861 PUSH0 DUP3 ADD MSTORE PUSH32 0x6E20300000000000000000000000000000000000000000000000000000000000 PUSH1 0x20 DUP3 ADD MSTORE POP JUMP JUMPDEST PUSH0 PUSH2 0x1E56 PUSH1 0x23 DUP4 PUSH2 0x1811 JUMP JUMPDEST SWAP2 POP PUSH2 0x1E61 DUP3 PUSH2 0x1DFC JUMP JUMPDEST PUSH1 0x40 DUP3 ADD SWAP1 POP SWAP2 SWAP1 POP JUMP JUMPDEST PUSH0 PUSH1 0x20 DUP3 ADD SWAP1 POP DUP2 DUP2 SUB PUSH0 DUP4 ADD MSTORE PUSH2 0x1E83 DUP2 PUSH2 0x1E4A JUMP JUMPDEST SWAP1 POP SWAP2 SWAP1 POP JUMP JUMPDEST PUSH32 0x496E73756666696369656E74204554482073656E740000000000000000000000 PUSH0 DUP3 ADD MSTORE POP JUMP JUMPDEST PUSH0 PUSH2 0x1EBE PUSH1 0x15 DUP4 PUSH2 0x1811 JUMP JUMPDEST SWAP2 POP PUSH2 0x1EC9 DUP3 PUSH2 0x1E8A JUMP JUMPDEST PUSH1 0x20 DUP3 ADD SWAP1 POP SWAP2 SWAP1 POP JUMP JUMPDEST PUSH0 PUSH1 0x20 DUP3 ADD SWAP1 POP DUP2 DUP2 SUB PUSH0 DUP4 ADD MSTORE PUSH2 0x1EEB DUP2 PUSH2 0x1EB2 JUMP JUMPDEST SWAP1 POP SWAP2 SWAP1 POP JUMP JUMPDEST PUSH0 PUSH2 0x1EFC DUP3 PUSH2 0x18F5 JUMP JUMPDEST SWAP2 POP PUSH2 0x1F07 DUP4 PUSH2 0x18F5 JUMP JUMPDEST SWAP3 POP DUP3 DUP3 SUB SWAP1 POP DUP2 DUP2 GT ISZERO PUSH2 0x1F1F JUMPI PUSH2 0x1F1E PUSH2 0x1BC6 JUMP JUMPDEST JUMPDEST SWAP3 SWAP2 POP POP JUMP JUMPDEST PUSH0 PUSH1 0x60 DUP3 ADD SWAP1 POP PUSH2 0x1F38 PUSH0 DUP4 ADD DUP7 PUSH2 0x1A9B JUMP JUMPDEST PUSH2 0x1F45 PUSH1 0x20 DUP4 ADD DUP6 PUSH2 0x1999 JUMP JUMPDEST PUSH2 0x1F52 PUSH1 0x40 DUP4 ADD DUP5 PUSH2 0x1999 JUMP JUMPDEST SWAP5 SWAP4 POP POP POP POP JUMP JUMPDEST PUSH32 0x5061757361626C653A2070617573656400000000000000000000000000000000 PUSH0 DUP3 ADD MSTORE POP JUMP JUMPDEST PUSH0 PUSH2 0x1F8E PUSH1 0x10 DUP4 PUSH2 0x1811 JUMP JUMPDEST SWAP2 POP PUSH2 0x1F99 DUP3 PUSH2 0x1F5A JUMP JUMPDEST PUSH1 0x20 DUP3 ADD SWAP1 POP SWAP2 SWAP1 POP JUMP JUMPDEST PUSH0 PUSH1 0x20 DUP3 ADD SWAP1 POP DUP2 DUP2 SUB PUSH0 DUP4 ADD MSTORE PUSH2 0x1FBB DUP2 PUSH2 0x1F82 JUMP JUMPDEST SWAP1 POP SWAP2 SWAP1 POP JUMP JUMPDEST PUSH32 0x5061757361626C653A206E6F7420706175736564000000000000000000000000 PUSH0 DUP3 ADD MSTORE POP JUMP JUMPDEST PUSH0 PUSH2 0x1FF6 PUSH1 0x14 DUP4 PUSH2 0x1811 JUMP JUMPDEST SWAP2 POP PUSH2 0x2001 DUP3 PUSH2 0x1FC2 JUMP JUMPDEST PUSH1 0x20 DUP3 ADD SWAP1 POP SWAP2 SWAP1 POP JUMP JUMPDEST PUSH0 PUSH1 0x20 DUP3 ADD SWAP1 POP DUP2 DUP2 SUB PUSH0 DUP4 ADD MSTORE PUSH2 0x2023 DUP2 PUSH2 0x1FEA JUMP JUMPDEST SWAP1 POP SWAP2 SWAP1 POP JUMP INVALID LOG2 PUSH5 0x6970667358 0x22 SLT KECCAK256 SWAP3 ADD PUSH27 0x355A0F9C45C6E8C2142711D2995ADBA25E6D52940F0CDE03A23B17 PUSH12 0xBF64736F6C634300081A0033 "
		},
		"gasEstimates": {
			"creation": {
				"codeDepositCost": "1657600",
				"executionCost": "infinite",
				"totalCost": "infinite"
			},
			"external": {
				"allowance(address,address)": "infinite",
				"approve(address,uint256)": "infinite",
				"balanceOf(address)": "2897",
				"burn(uint256)": "infinite",
				"buyTokens()": "infinite",
				"buyTokensWithAmount(uint256)": "infinite",
				"decimals()": "428",
				"getContractBalance()": "380",
				"getTokenBalance(address)": "2983",
				"getTokenPrice()": "2499",
				"getTotalMinted()": "2523",
				"maxSupply()": "2469",
				"mint(address,uint256)": "infinite",
				"name()": "infinite",
				"owner()": "2604",
				"pause()": "infinite",
				"paused()": "2613",
				"renounceOwnership()": "infinite",
				"setTokenPrice(uint256)": "infinite",
				"symbol()": "infinite",
				"tokenPrice()": "2470",
				"totalMinted()": "2470",
				"totalSupply()": "2478",
				"transfer(address,uint256)": "infinite",
				"transferFrom(address,address,uint256)": "infinite",
				"transferOwnership(address)": "infinite",
				"unpause()": "infinite",
				"withdraw()": "infinite"
			}
		},
		"methodIdentifiers": {
			"allowance(address,address)": "dd62ed3e",
			"approve(address,uint256)": "095ea7b3",
			"balanceOf(address)": "70a08231",
			"burn(uint256)": "42966c68",
			"buyTokens()": "d0febe4c",
			"buyTokensWithAmount(uint256)": "fc60c281",
			"decimals()": "313ce567",
			"getContractBalance()": "6f9fb98a",
			"getTokenBalance(address)": "3aecd0e3",
			"getTokenPrice()": "4b94f50e",
			"getTotalMinted()": "0ca1c5c9",
			"maxSupply()": "d5abeb01",
			"mint(address,uint256)": "40c10f19",
			"name()": "06fdde03",
			"owner()": "8da5cb5b",
			"pause()": "8456cb59",
			"paused()": "5c975abb",
			"renounceOwnership()": "715018a6",
			"setTokenPrice(uint256)": "6a61e5fc",
			"symbol()": "95d89b41",
			"tokenPrice()": "7ff9b596",
			"totalMinted()": "a2309ff8",
			"totalSupply()": "18160ddd",
			"transfer(address,uint256)": "a9059cbb",
			"transferFrom(address,address,uint256)": "23b872dd",
			"transferOwnership(address)": "f2fde38b",
			"unpause()": "3f4ba83a",
			"withdraw()": "3ccfd60b"
		}
	},
	"abi": [
		{
			"inputs": [
				{
					"internalType": "string",
					"name": "name",
					"type": "string"
				},
				{
					"internalType": "string",
					"name": "symbol",
					"type": "string"
				},
				{
					"internalType": "uint256",
					"name": "initialSupply",
					"type": "uint256"
				},
				{
					"internalType": "uint256",
					"name": "_maxSupply",
					"type": "uint256"
				},
				{
					"internalType": "uint256",
					"name": "_tokenPrice",
					"type": "uint256"
				}
			],
			"stateMutability": "nonpayable",
			"type": "constructor"
		},
		{
			"inputs": [
				{
					"internalType": "address",
					"name": "spender",
					"type": "address"
				},
				{
					"internalType": "uint256",
					"name": "allowance",
					"type": "uint256"
				},
				{
					"internalType": "uint256",
					"name": "needed",
					"type": "uint256"
				}
			],
			"name": "ERC20InsufficientAllowance",
			"type": "error"
		},
		{
			"inputs": [
				{
					"internalType": "address",
					"name": "sender",
					"type": "address"
				},
				{
					"internalType": "uint256",
					"name": "balance",
					"type": "uint256"
				},
				{
					"internalType": "uint256",
					"name": "needed",
					"type": "uint256"
				}
			],
			"name": "ERC20InsufficientBalance",
			"type": "error"
		},
		{
			"inputs": [
				{
					"internalType": "address",
					"name": "approver",
					"type": "address"
				}
			],
			"name": "ERC20InvalidApprover",
			"type": "error"
		},
		{
			"inputs": [
				{
					"internalType": "address",
					"name": "receiver",
					"type": "address"
				}
			],
			"name": "ERC20InvalidReceiver",
			"type": "error"
		},
		{
			"inputs": [
				{
					"internalType": "address",
					"name": "sender",
					"type": "address"
				}
			],
			"name": "ERC20InvalidSender",
			"type": "error"
		},
		{
			"inputs": [
				{
					"internalType": "address",
					"name": "spender",
					"type": "address"
				}
			],
			"name": "ERC20InvalidSpender",
			"type": "error"
		},
		{
			"inputs": [
				{
					"internalType": "address",
					"name": "owner",
					"type": "address"
				}
			],
			"name": "OwnableInvalidOwner",
			"type": "error"
		},
		{
			"inputs": [
				{
					"internalType": "address",
					"name": "account",
					"type": "address"
				}
			],
			"name": "OwnableUnauthorizedAccount",
			"type": "error"
		},
		{
			"anonymous": false,
			"inputs": [
				{
					"indexed": true,
					"internalType": "address",
					"name": "owner",
					"type": "address"
				},
				{
					"indexed": true,
					"internalType": "address",
					"name": "spender",
					"type": "address"
				},
				{
					"indexed": false,
					"internalType": "uint256",
					"name": "value",
					"type": "uint256"
				}
			],
			"name": "Approval",
			"type": "event"
		},
		{
			"anonymous": false,
			"inputs": [
				{
					"indexed": true,
					"internalType": "address",
					"name": "previousOwner",
					"type": "address"
				},
				{
					"indexed": true,
					"internalType": "address",
					"name": "newOwner",
					"type": "address"
				}
			],
			"name": "OwnershipTransferred",
			"type": "event"
		},
		{
			"anonymous": false,
			"inputs": [
				{
					"indexed": false,
					"internalType": "address",
					"name": "account",
					"type": "address"
				}
			],
			"name": "Paused",
			"type": "event"
		},
		{
			"anonymous": false,
			"inputs": [
				{
					"indexed": false,
					"internalType": "uint256",
					"name": "newPrice",
					"type": "uint256"
				}
			],
			"name": "TokenPriceUpdated",
			"type": "event"
		},
		{
			"anonymous": false,
			"inputs": [
				{
					"indexed": true,
					"internalType": "address",
					"name": "to",
					"type": "address"
				},
				{
					"indexed": false,
					"internalType": "uint256",
					"name": "amount",
					"type": "uint256"
				}
			],
			"name": "TokensMinted",
			"type": "event"
		},
		{
			"anonymous": false,
			"inputs": [
				{
					"indexed": true,
					"internalType": "address",
					"name": "buyer",
					"type": "address"
				},
				{
					"indexed": false,
					"internalType": "uint256",
					"name": "amount",
					"type": "uint256"
				}
			],
			"name": "TokensPurchased",
			"type": "event"
		},
		{
			"anonymous": false,
			"inputs": [
				{
					"indexed": true,
					"internalType": "address",
					"name": "from",
					"type": "address"
				},
				{
					"indexed": true,
					"internalType": "address",
					"name": "to",
					"type": "address"
				},
				{
					"indexed": false,
					"internalType": "uint256",
					"name": "value",
					"type": "uint256"
				}
			],
			"name": "Transfer",
			"type": "event"
		},
		{
			"anonymous": false,
			"inputs": [
				{
					"indexed": false,
					"internalType": "address",
					"name": "account",
					"type": "address"
				}
			],
			"name": "Unpaused",
			"type": "event"
		},
		{
			"inputs": [
				{
					"internalType": "address",
					"name": "owner",
					"type": "address"
				},
				{
					"internalType": "address",
					"name": "spender",
					"type": "address"
				}
			],
			"name": "allowance",
			"outputs": [
				{
					"internalType": "uint256",
					"name": "",
					"type": "uint256"
				}
			],
			"stateMutability": "view",
			"type": "function"
		},
		{
			"inputs": [
				{
					"internalType": "address",
					"name": "spender",
					"type": "address"
				},
				{
					"internalType": "uint256",
					"name": "value",
					"type": "uint256"
				}
			],
			"name": "approve",
			"outputs": [
				{
					"internalType": "bool",
					"name": "",
					"type": "bool"
				}
			],
			"stateMutability": "nonpayable",
			"type": "function"
		},
		{
			"inputs": [
				{
					"internalType": "address",
					"name": "account",
					"type": "address"
				}
			],
			"name": "balanceOf",
			"outputs": [
				{
					"internalType": "uint256",
					"name": "",
					"type": "uint256"
				}
			],
			"stateMutability": "view",
			"type": "function"
		},
		{
			"inputs": [
				{
					"internalType": "uint256",
					"name": "amount",
					"type": "uint256"
				}
			],
			"name": "burn",
			"outputs": [],
			"stateMutability": "nonpayable",
			"type": "function"
		},
		{
			"inputs": [],
			"name": "buyTokens",
			"outputs": [],
			"stateMutability": "payable",
			"type": "function"
		},
		{
			"inputs": [
				{
					"internalType": "uint256",
					"name": "tokenAmount",
					"type": "uint256"
				}
			],
			"name": "buyTokensWithAmount",
			"outputs": [],
			"stateMutability": "payable",
			"type": "function"
		},
		{
			"inputs": [],
			"name": "decimals",
			"outputs": [
				{
					"internalType": "uint8",
					"name": "",
					"type": "uint8"
				}
			],
			"stateMutability": "view",
			"type": "function"
		},
		{
			"inputs": [],
			"name": "getContractBalance",
			"outputs": [
				{
					"internalType": "uint256",
					"name": "",
					"type": "uint256"
				}
			],
			"stateMutability": "view",
			"type": "function"
		},
		{
			"inputs": [
				{
					"internalType": "address",
					"name": "account",
					"type": "address"
				}
			],
			"name": "getTokenBalance",
			"outputs": [
				{
					"internalType": "uint256",
					"name": "",
					"type": "uint256"
				}
			],
			"stateMutability": "view",
			"type": "function"
		},
		{
			"inputs": [],
			"name": "getTokenPrice",
			"outputs": [
				{
					"internalType": "uint256",
					"name": "",
					"type": "uint256"
				}
			],
			"stateMutability": "view",
			"type": "function"
		},
		{
			"inputs": [],
			"name": "getTotalMinted",
			"outputs": [
				{
					"internalType": "uint256",
					"name": "",
					"type": "uint256"
				}
			],
			"stateMutability": "view",
			"type": "function"
		},
		{
			"inputs": [],
			"name": "maxSupply",
			"outputs": [
				{
					"internalType": "uint256",
					"name": "",
					"type": "uint256"
				}
			],
			"stateMutability": "view",
			"type": "function"
		},
		{
			"inputs": [
				{
					"internalType": "address",
					"name": "to",
					"type": "address"
				},
				{
					"internalType": "uint256",
					"name": "amount",
					"type": "uint256"
				}
			],
			"name": "mint",
			"outputs": [],
			"stateMutability": "nonpayable",
			"type": "function"
		},
		{
			"inputs": [],
			"name": "name",
			"outputs": [
				{
					"internalType": "string",
					"name": "",
					"type": "string"
				}
			],
			"stateMutability": "view",
			"type": "function"
		},
		{
			"inputs": [],
			"name": "owner",
			"outputs": [
				{
					"internalType": "address",
					"name": "",
					"type": "address"
				}
			],
			"stateMutability": "view",
			"type": "function"
		},
		{
			"inputs": [],
			"name": "pause",
			"outputs": [],
			"stateMutability": "nonpayable",
			"type": "function"
		},
		{
			"inputs": [],
			"name": "paused",
			"outputs": [
				{
					"internalType": "bool",
					"name": "",
					"type": "bool"
				}
			],
			"stateMutability": "view",
			"type": "function"
		},
		{
			"inputs": [],
			"name": "renounceOwnership",
			"outputs": [],
			"stateMutability": "nonpayable",
			"type": "function"
		},
		{
			"inputs": [
				{
					"internalType": "uint256",
					"name": "newPrice",
					"type": "uint256"
				}
			],
			"name": "setTokenPrice",
			"outputs": [],
			"stateMutability": "nonpayable",
			"type": "function"
		},
		{
			"inputs": [],
			"name": "symbol",
			"outputs": [
				{
					"internalType": "string",
					"name": "",
					"type": "string"
				}
			],
			"stateMutability": "view",
			"type": "function"
		},
		{
			"inputs": [],
			"name": "tokenPrice",
			"outputs": [
				{
					"internalType": "uint256",
					"name": "",
					"type": "uint256"
				}
			],
			"stateMutability": "view",
			"type": "function"
		},
		{
			"inputs": [],
			"name": "totalMinted",
			"outputs": [
				{
					"internalType": "uint256",
					"name": "",
					"type": "uint256"
				}
			],
			"stateMutability": "view",
			"type": "function"
		},
		{
			"inputs": [],
			"name": "totalSupply",
			"outputs": [
				{
					"internalType": "uint256",
					"name": "",
					"type": "uint256"
				}
			],
			"stateMutability": "view",
			"type": "function"
		},
		{
			"inputs": [
				{
					"internalType": "address",
					"name": "to",
					"type": "address"
				},
				{
					"internalType": "uint256",
					"name": "value",
					"type": "uint256"
				}
			],
			"name": "transfer",
			"outputs": [
				{
					"internalType": "bool",
					"name": "",
					"type": "bool"
				}
			],
			"stateMutability": "nonpayable",
			"type": "function"
		},
		{
			"inputs": [
				{
					"internalType": "address",
					"name": "from",
					"type": "address"
				},
				{
					"internalType": "address",
					"name": "to",
					"type": "address"
				},
				{
					"internalType": "uint256",
					"name": "value",
					"type": "uint256"
				}
			],
			"name": "transferFrom",
			"outputs": [
				{
					"internalType": "bool",
					"name": "",
					"type": "bool"
				}
			],
			"stateMutability": "nonpayable",
			"type": "function"
		},
		{
			"inputs": [
				{
					"internalType": "address",
					"name": "newOwner",
					"type": "address"
				}
			],
			"name": "transferOwnership",
			"outputs": [],
			"stateMutability": "nonpayable",
			"type": "function"
		},
		{
			"inputs": [],
			"name": "unpause",
			"outputs": [],
			"stateMutability": "nonpayable",
			"type": "function"
		},
		{
			"inputs": [],
			"name": "withdraw",
			"outputs": [],
			"stateMutability": "nonpayable",
			"type": "function"
		}
	]
}